{
	"contracts/Crowdfunding5.sol": {
		"Crowdfunding": {
			"abi": [
				{
					"inputs": [
						{
							"internalType": "string",
							"name": "_id",
							"type": "string"
						},
						{
							"internalType": "string",
							"name": "_name",
							"type": "string"
						},
						{
							"internalType": "string",
							"name": "_description",
							"type": "string"
						},
						{
							"internalType": "uint256",
							"name": "_fundraisingGoal",
							"type": "uint256"
						}
					],
					"stateMutability": "nonpayable",
					"type": "constructor"
				},
				{
					"inputs": [
						{
							"internalType": "string",
							"name": "newState",
							"type": "string"
						}
					],
					"name": "StateNotDefined",
					"type": "error"
				},
				{
					"anonymous": false,
					"inputs": [
						{
							"indexed": false,
							"internalType": "address",
							"name": "editor",
							"type": "address"
						},
						{
							"indexed": false,
							"internalType": "string",
							"name": "newStatus",
							"type": "string"
						}
					],
					"name": "ChangeProjectState",
					"type": "event"
				},
				{
					"anonymous": false,
					"inputs": [
						{
							"indexed": false,
							"internalType": "address",
							"name": "funder",
							"type": "address"
						},
						{
							"indexed": false,
							"internalType": "uint256",
							"name": "amount",
							"type": "uint256"
						}
					],
					"name": "FundProject",
					"type": "event"
				},
				{
					"inputs": [
						{
							"internalType": "string",
							"name": "_newState",
							"type": "string"
						}
					],
					"name": "changeProjectState",
					"outputs": [],
					"stateMutability": "nonpayable",
					"type": "function"
				},
				{
					"inputs": [],
					"name": "fundProject",
					"outputs": [],
					"stateMutability": "payable",
					"type": "function"
				},
				{
					"inputs": [],
					"name": "project",
					"outputs": [
						{
							"internalType": "string",
							"name": "id",
							"type": "string"
						},
						{
							"internalType": "string",
							"name": "name",
							"type": "string"
						},
						{
							"internalType": "string",
							"name": "description",
							"type": "string"
						},
						{
							"internalType": "address payable",
							"name": "author",
							"type": "address"
						},
						{
							"internalType": "uint256",
							"name": "fundraisingGoal",
							"type": "uint256"
						},
						{
							"internalType": "string",
							"name": "state",
							"type": "string"
						},
						{
							"internalType": "uint256",
							"name": "funds",
							"type": "uint256"
						}
					],
					"stateMutability": "view",
					"type": "function"
				}
			],
			"devdoc": {
				"kind": "dev",
				"methods": {},
				"version": 1
			},
			"evm": {
				"assembly": "    /* \"contracts/Crowdfunding5.sol\":171:2478  contract Crowdfunding {... */\n  mstore(0x40, 0x80)\n    /* \"contracts/Crowdfunding5.sol\":434:649  constructor(string memory _id, string memory _name, string memory _description, uint _fundraisingGoal) {... */\n  callvalue\n  dup1\n  iszero\n  tag_1\n  jumpi\n  0x00\n  dup1\n  revert\ntag_1:\n  pop\n  mload(0x40)\n  sub(codesize, bytecodeSize)\n  dup1\n  bytecodeSize\n  dup4\n  codecopy\n  dup2\n  dup2\n  add\n  0x40\n  mstore\n  dup2\n  add\n  swap1\n  tag_2\n  swap2\n  swap1\n  tag_3\n  jump\t// in\ntag_2:\n    /* \"contracts/Crowdfunding5.sol\":557:642  Project(_id, _name, _description, payable(msg.sender), _fundraisingGoal, 'Opened', 0) */\n  mload(0x40)\n  dup1\n  0xe0\n  add\n  0x40\n  mstore\n  dup1\n    /* \"contracts/Crowdfunding5.sol\":565:568  _id */\n  dup6\n    /* \"contracts/Crowdfunding5.sol\":557:642  Project(_id, _name, _description, payable(msg.sender), _fundraisingGoal, 'Opened', 0) */\n  dup2\n  mstore\n  0x20\n  add\n    /* \"contracts/Crowdfunding5.sol\":570:575  _name */\n  dup5\n    /* \"contracts/Crowdfunding5.sol\":557:642  Project(_id, _name, _description, payable(msg.sender), _fundraisingGoal, 'Opened', 0) */\n  dup2\n  mstore\n  0x20\n  add\n    /* \"contracts/Crowdfunding5.sol\":577:589  _description */\n  dup4\n    /* \"contracts/Crowdfunding5.sol\":557:642  Project(_id, _name, _description, payable(msg.sender), _fundraisingGoal, 'Opened', 0) */\n  dup2\n  mstore\n  0x20\n  add\n    /* \"contracts/Crowdfunding5.sol\":599:609  msg.sender */\n  caller\n    /* \"contracts/Crowdfunding5.sol\":557:642  Project(_id, _name, _description, payable(msg.sender), _fundraisingGoal, 'Opened', 0) */\n  0xffffffffffffffffffffffffffffffffffffffff\n  and\n  dup2\n  mstore\n  0x20\n  add\n    /* \"contracts/Crowdfunding5.sol\":612:628  _fundraisingGoal */\n  dup3\n    /* \"contracts/Crowdfunding5.sol\":557:642  Project(_id, _name, _description, payable(msg.sender), _fundraisingGoal, 'Opened', 0) */\n  dup2\n  mstore\n  0x20\n  add\n  mload(0x40)\n  dup1\n  0x40\n  add\n  0x40\n  mstore\n  dup1\n  0x06\n  dup2\n  mstore\n  0x20\n  add\n  0x4f70656e65640000000000000000000000000000000000000000000000000000\n  dup2\n  mstore\n  pop\n  dup2\n  mstore\n  0x20\n  add\n    /* \"contracts/Crowdfunding5.sol\":640:641  0 */\n  0x00\n    /* \"contracts/Crowdfunding5.sol\":557:642  Project(_id, _name, _description, payable(msg.sender), _fundraisingGoal, 'Opened', 0) */\n  dup2\n  mstore\n  pop\n    /* \"contracts/Crowdfunding5.sol\":547:554  project */\n  0x00\n    /* \"contracts/Crowdfunding5.sol\":547:642  project = Project(_id, _name, _description, payable(msg.sender), _fundraisingGoal, 'Opened', 0) */\n  dup1\n  dup3\n  add\n  mload\n  dup2\n  0x00\n  add\n  swap1\n  dup2\n  tag_6\n  swap2\n  swap1\n  tag_7\n  jump\t// in\ntag_6:\n  pop\n  0x20\n  dup3\n  add\n  mload\n  dup2\n  0x01\n  add\n  swap1\n  dup2\n  tag_8\n  swap2\n  swap1\n  tag_7\n  jump\t// in\ntag_8:\n  pop\n  0x40\n  dup3\n  add\n  mload\n  dup2\n  0x02\n  add\n  swap1\n  dup2\n  tag_9\n  swap2\n  swap1\n  tag_7\n  jump\t// in\ntag_9:\n  pop\n  0x60\n  dup3\n  add\n  mload\n  dup2\n  0x03\n  add\n  exp(0x0100, 0x00)\n  dup2\n  sload\n  dup2\n  0xffffffffffffffffffffffffffffffffffffffff\n  mul\n  not\n  and\n  swap1\n  dup4\n  0xffffffffffffffffffffffffffffffffffffffff\n  and\n  mul\n  or\n  swap1\n  sstore\n  pop\n  0x80\n  dup3\n  add\n  mload\n  dup2\n  0x04\n  add\n  sstore\n  0xa0\n  dup3\n  add\n  mload\n  dup2\n  0x05\n  add\n  swap1\n  dup2\n  tag_10\n  swap2\n  swap1\n  tag_7\n  jump\t// in\ntag_10:\n  pop\n  0xc0\n  dup3\n  add\n  mload\n  dup2\n  0x06\n  add\n  sstore\n  swap1\n  pop\n  pop\n    /* \"contracts/Crowdfunding5.sol\":434:649  constructor(string memory _id, string memory _name, string memory _description, uint _fundraisingGoal) {... */\n  pop\n  pop\n  pop\n  pop\n    /* \"contracts/Crowdfunding5.sol\":171:2478  contract Crowdfunding {... */\n  jump(tag_11)\n    /* \"#utility.yul\":7:82   */\ntag_12:\n    /* \"#utility.yul\":40:46   */\n  0x00\n    /* \"#utility.yul\":73:75   */\n  0x40\n    /* \"#utility.yul\":67:76   */\n  mload\n    /* \"#utility.yul\":57:76   */\n  swap1\n  pop\n    /* \"#utility.yul\":7:82   */\n  swap1\n  jump\t// out\n    /* \"#utility.yul\":88:205   */\ntag_13:\n    /* \"#utility.yul\":197:198   */\n  0x00\n    /* \"#utility.yul\":194:195   */\n  dup1\n    /* \"#utility.yul\":187:199   */\n  revert\n    /* \"#utility.yul\":211:328   */\ntag_14:\n    /* \"#utility.yul\":320:321   */\n  0x00\n    /* \"#utility.yul\":317:318   */\n  dup1\n    /* \"#utility.yul\":310:322   */\n  revert\n    /* \"#utility.yul\":334:451   */\ntag_15:\n    /* \"#utility.yul\":443:444   */\n  0x00\n    /* \"#utility.yul\":440:441   */\n  dup1\n    /* \"#utility.yul\":433:445   */\n  revert\n    /* \"#utility.yul\":457:574   */\ntag_16:\n    /* \"#utility.yul\":566:567   */\n  0x00\n    /* \"#utility.yul\":563:564   */\n  dup1\n    /* \"#utility.yul\":556:568   */\n  revert\n    /* \"#utility.yul\":580:682   */\ntag_17:\n    /* \"#utility.yul\":621:627   */\n  0x00\n    /* \"#utility.yul\":672:674   */\n  0x1f\n    /* \"#utility.yul\":668:675   */\n  not\n    /* \"#utility.yul\":663:665   */\n  0x1f\n    /* \"#utility.yul\":656:661   */\n  dup4\n    /* \"#utility.yul\":652:666   */\n  add\n    /* \"#utility.yul\":648:676   */\n  and\n    /* \"#utility.yul\":638:676   */\n  swap1\n  pop\n    /* \"#utility.yul\":580:682   */\n  swap2\n  swap1\n  pop\n  jump\t// out\n    /* \"#utility.yul\":688:868   */\ntag_18:\n    /* \"#utility.yul\":736:813   */\n  0x4e487b7100000000000000000000000000000000000000000000000000000000\n    /* \"#utility.yul\":733:734   */\n  0x00\n    /* \"#utility.yul\":726:814   */\n  mstore\n    /* \"#utility.yul\":833:837   */\n  0x41\n    /* \"#utility.yul\":830:831   */\n  0x04\n    /* \"#utility.yul\":823:838   */\n  mstore\n    /* \"#utility.yul\":857:861   */\n  0x24\n    /* \"#utility.yul\":854:855   */\n  0x00\n    /* \"#utility.yul\":847:862   */\n  revert\n    /* \"#utility.yul\":874:1155   */\ntag_19:\n    /* \"#utility.yul\":957:984   */\n  tag_55\n    /* \"#utility.yul\":979:983   */\n  dup3\n    /* \"#utility.yul\":957:984   */\n  tag_17\n  jump\t// in\ntag_55:\n    /* \"#utility.yul\":949:955   */\n  dup2\n    /* \"#utility.yul\":945:985   */\n  add\n    /* \"#utility.yul\":1087:1093   */\n  dup2\n    /* \"#utility.yul\":1075:1085   */\n  dup2\n    /* \"#utility.yul\":1072:1094   */\n  lt\n    /* \"#utility.yul\":1051:1069   */\n  0xffffffffffffffff\n    /* \"#utility.yul\":1039:1049   */\n  dup3\n    /* \"#utility.yul\":1036:1070   */\n  gt\n    /* \"#utility.yul\":1033:1095   */\n  or\n    /* \"#utility.yul\":1030:1118   */\n  iszero\n  tag_56\n  jumpi\n    /* \"#utility.yul\":1098:1116   */\n  tag_57\n  tag_18\n  jump\t// in\ntag_57:\n    /* \"#utility.yul\":1030:1118   */\ntag_56:\n    /* \"#utility.yul\":1138:1148   */\n  dup1\n    /* \"#utility.yul\":1134:1136   */\n  0x40\n    /* \"#utility.yul\":1127:1149   */\n  mstore\n    /* \"#utility.yul\":917:1155   */\n  pop\n    /* \"#utility.yul\":874:1155   */\n  pop\n  pop\n  jump\t// out\n    /* \"#utility.yul\":1161:1290   */\ntag_20:\n    /* \"#utility.yul\":1195:1201   */\n  0x00\n    /* \"#utility.yul\":1222:1242   */\n  tag_59\n  tag_12\n  jump\t// in\ntag_59:\n    /* \"#utility.yul\":1212:1242   */\n  swap1\n  pop\n    /* \"#utility.yul\":1251:1284   */\n  tag_60\n    /* \"#utility.yul\":1279:1283   */\n  dup3\n    /* \"#utility.yul\":1271:1277   */\n  dup3\n    /* \"#utility.yul\":1251:1284   */\n  tag_19\n  jump\t// in\ntag_60:\n    /* \"#utility.yul\":1161:1290   */\n  swap2\n  swap1\n  pop\n  jump\t// out\n    /* \"#utility.yul\":1296:1604   */\ntag_21:\n    /* \"#utility.yul\":1358:1362   */\n  0x00\n    /* \"#utility.yul\":1448:1466   */\n  0xffffffffffffffff\n    /* \"#utility.yul\":1440:1446   */\n  dup3\n    /* \"#utility.yul\":1437:1467   */\n  gt\n    /* \"#utility.yul\":1434:1490   */\n  iszero\n  tag_62\n  jumpi\n    /* \"#utility.yul\":1470:1488   */\n  tag_63\n  tag_18\n  jump\t// in\ntag_63:\n    /* \"#utility.yul\":1434:1490   */\ntag_62:\n    /* \"#utility.yul\":1508:1537   */\n  tag_64\n    /* \"#utility.yul\":1530:1536   */\n  dup3\n    /* \"#utility.yul\":1508:1537   */\n  tag_17\n  jump\t// in\ntag_64:\n    /* \"#utility.yul\":1500:1537   */\n  swap1\n  pop\n    /* \"#utility.yul\":1592:1596   */\n  0x20\n    /* \"#utility.yul\":1586:1590   */\n  dup2\n    /* \"#utility.yul\":1582:1597   */\n  add\n    /* \"#utility.yul\":1574:1597   */\n  swap1\n  pop\n    /* \"#utility.yul\":1296:1604   */\n  swap2\n  swap1\n  pop\n  jump\t// out\n    /* \"#utility.yul\":1610:1856   */\ntag_22:\n    /* \"#utility.yul\":1691:1692   */\n  0x00\n    /* \"#utility.yul\":1701:1814   */\ntag_66:\n    /* \"#utility.yul\":1715:1721   */\n  dup4\n    /* \"#utility.yul\":1712:1713   */\n  dup2\n    /* \"#utility.yul\":1709:1722   */\n  lt\n    /* \"#utility.yul\":1701:1814   */\n  iszero\n  tag_68\n  jumpi\n    /* \"#utility.yul\":1800:1801   */\n  dup1\n    /* \"#utility.yul\":1795:1798   */\n  dup3\n    /* \"#utility.yul\":1791:1802   */\n  add\n    /* \"#utility.yul\":1785:1803   */\n  mload\n    /* \"#utility.yul\":1781:1782   */\n  dup2\n    /* \"#utility.yul\":1776:1779   */\n  dup5\n    /* \"#utility.yul\":1772:1783   */\n  add\n    /* \"#utility.yul\":1765:1804   */\n  mstore\n    /* \"#utility.yul\":1737:1739   */\n  0x20\n    /* \"#utility.yul\":1734:1735   */\n  dup2\n    /* \"#utility.yul\":1730:1740   */\n  add\n    /* \"#utility.yul\":1725:1740   */\n  swap1\n  pop\n    /* \"#utility.yul\":1701:1814   */\n  jump(tag_66)\ntag_68:\n    /* \"#utility.yul\":1848:1849   */\n  0x00\n    /* \"#utility.yul\":1839:1845   */\n  dup5\n    /* \"#utility.yul\":1834:1837   */\n  dup5\n    /* \"#utility.yul\":1830:1846   */\n  add\n    /* \"#utility.yul\":1823:1850   */\n  mstore\n    /* \"#utility.yul\":1672:1856   */\n  pop\n    /* \"#utility.yul\":1610:1856   */\n  pop\n  pop\n  pop\n  jump\t// out\n    /* \"#utility.yul\":1862:2296   */\ntag_23:\n    /* \"#utility.yul\":1951:1956   */\n  0x00\n    /* \"#utility.yul\":1976:2042   */\n  tag_70\n    /* \"#utility.yul\":1992:2041   */\n  tag_71\n    /* \"#utility.yul\":2034:2040   */\n  dup5\n    /* \"#utility.yul\":1992:2041   */\n  tag_21\n  jump\t// in\ntag_71:\n    /* \"#utility.yul\":1976:2042   */\n  tag_20\n  jump\t// in\ntag_70:\n    /* \"#utility.yul\":1967:2042   */\n  swap1\n  pop\n    /* \"#utility.yul\":2065:2071   */\n  dup3\n    /* \"#utility.yul\":2058:2063   */\n  dup2\n    /* \"#utility.yul\":2051:2072   */\n  mstore\n    /* \"#utility.yul\":2103:2107   */\n  0x20\n    /* \"#utility.yul\":2096:2101   */\n  dup2\n    /* \"#utility.yul\":2092:2108   */\n  add\n    /* \"#utility.yul\":2141:2144   */\n  dup5\n    /* \"#utility.yul\":2132:2138   */\n  dup5\n    /* \"#utility.yul\":2127:2130   */\n  dup5\n    /* \"#utility.yul\":2123:2139   */\n  add\n    /* \"#utility.yul\":2120:2145   */\n  gt\n    /* \"#utility.yul\":2117:2229   */\n  iszero\n  tag_72\n  jumpi\n    /* \"#utility.yul\":2148:2227   */\n  tag_73\n  tag_16\n  jump\t// in\ntag_73:\n    /* \"#utility.yul\":2117:2229   */\ntag_72:\n    /* \"#utility.yul\":2238:2290   */\n  tag_74\n    /* \"#utility.yul\":2283:2289   */\n  dup5\n    /* \"#utility.yul\":2278:2281   */\n  dup3\n    /* \"#utility.yul\":2273:2276   */\n  dup6\n    /* \"#utility.yul\":2238:2290   */\n  tag_22\n  jump\t// in\ntag_74:\n    /* \"#utility.yul\":1957:2296   */\n  pop\n    /* \"#utility.yul\":1862:2296   */\n  swap4\n  swap3\n  pop\n  pop\n  pop\n  jump\t// out\n    /* \"#utility.yul\":2316:2671   */\ntag_24:\n    /* \"#utility.yul\":2383:2388   */\n  0x00\n    /* \"#utility.yul\":2432:2435   */\n  dup3\n    /* \"#utility.yul\":2425:2429   */\n  0x1f\n    /* \"#utility.yul\":2417:2423   */\n  dup4\n    /* \"#utility.yul\":2413:2430   */\n  add\n    /* \"#utility.yul\":2409:2436   */\n  slt\n    /* \"#utility.yul\":2399:2521   */\n  tag_76\n  jumpi\n    /* \"#utility.yul\":2440:2519   */\n  tag_77\n  tag_15\n  jump\t// in\ntag_77:\n    /* \"#utility.yul\":2399:2521   */\ntag_76:\n    /* \"#utility.yul\":2550:2556   */\n  dup2\n    /* \"#utility.yul\":2544:2557   */\n  mload\n    /* \"#utility.yul\":2575:2665   */\n  tag_78\n    /* \"#utility.yul\":2661:2664   */\n  dup5\n    /* \"#utility.yul\":2653:2659   */\n  dup3\n    /* \"#utility.yul\":2646:2650   */\n  0x20\n    /* \"#utility.yul\":2638:2644   */\n  dup7\n    /* \"#utility.yul\":2634:2651   */\n  add\n    /* \"#utility.yul\":2575:2665   */\n  tag_23\n  jump\t// in\ntag_78:\n    /* \"#utility.yul\":2566:2665   */\n  swap2\n  pop\n    /* \"#utility.yul\":2389:2671   */\n  pop\n    /* \"#utility.yul\":2316:2671   */\n  swap3\n  swap2\n  pop\n  pop\n  jump\t// out\n    /* \"#utility.yul\":2677:2754   */\ntag_25:\n    /* \"#utility.yul\":2714:2721   */\n  0x00\n    /* \"#utility.yul\":2743:2748   */\n  dup2\n    /* \"#utility.yul\":2732:2748   */\n  swap1\n  pop\n    /* \"#utility.yul\":2677:2754   */\n  swap2\n  swap1\n  pop\n  jump\t// out\n    /* \"#utility.yul\":2760:2882   */\ntag_26:\n    /* \"#utility.yul\":2833:2857   */\n  tag_81\n    /* \"#utility.yul\":2851:2856   */\n  dup2\n    /* \"#utility.yul\":2833:2857   */\n  tag_25\n  jump\t// in\ntag_81:\n    /* \"#utility.yul\":2826:2831   */\n  dup2\n    /* \"#utility.yul\":2823:2858   */\n  eq\n    /* \"#utility.yul\":2813:2876   */\n  tag_82\n  jumpi\n    /* \"#utility.yul\":2872:2873   */\n  0x00\n    /* \"#utility.yul\":2869:2870   */\n  dup1\n    /* \"#utility.yul\":2862:2874   */\n  revert\n    /* \"#utility.yul\":2813:2876   */\ntag_82:\n    /* \"#utility.yul\":2760:2882   */\n  pop\n  jump\t// out\n    /* \"#utility.yul\":2888:3031   */\ntag_27:\n    /* \"#utility.yul\":2945:2950   */\n  0x00\n    /* \"#utility.yul\":2976:2982   */\n  dup2\n    /* \"#utility.yul\":2970:2983   */\n  mload\n    /* \"#utility.yul\":2961:2983   */\n  swap1\n  pop\n    /* \"#utility.yul\":2992:3025   */\n  tag_84\n    /* \"#utility.yul\":3019:3024   */\n  dup2\n    /* \"#utility.yul\":2992:3025   */\n  tag_26\n  jump\t// in\ntag_84:\n    /* \"#utility.yul\":2888:3031   */\n  swap3\n  swap2\n  pop\n  pop\n  jump\t// out\n    /* \"#utility.yul\":3037:4376   */\ntag_3:\n    /* \"#utility.yul\":3164:3170   */\n  0x00\n    /* \"#utility.yul\":3172:3178   */\n  dup1\n    /* \"#utility.yul\":3180:3186   */\n  0x00\n    /* \"#utility.yul\":3188:3194   */\n  dup1\n    /* \"#utility.yul\":3237:3240   */\n  0x80\n    /* \"#utility.yul\":3225:3234   */\n  dup6\n    /* \"#utility.yul\":3216:3223   */\n  dup8\n    /* \"#utility.yul\":3212:3235   */\n  sub\n    /* \"#utility.yul\":3208:3241   */\n  slt\n    /* \"#utility.yul\":3205:3325   */\n  iszero\n  tag_86\n  jumpi\n    /* \"#utility.yul\":3244:3323   */\n  tag_87\n  tag_13\n  jump\t// in\ntag_87:\n    /* \"#utility.yul\":3205:3325   */\ntag_86:\n    /* \"#utility.yul\":3385:3386   */\n  0x00\n    /* \"#utility.yul\":3374:3383   */\n  dup6\n    /* \"#utility.yul\":3370:3387   */\n  add\n    /* \"#utility.yul\":3364:3388   */\n  mload\n    /* \"#utility.yul\":3415:3433   */\n  0xffffffffffffffff\n    /* \"#utility.yul\":3407:3413   */\n  dup2\n    /* \"#utility.yul\":3404:3434   */\n  gt\n    /* \"#utility.yul\":3401:3518   */\n  iszero\n  tag_88\n  jumpi\n    /* \"#utility.yul\":3437:3516   */\n  tag_89\n  tag_14\n  jump\t// in\ntag_89:\n    /* \"#utility.yul\":3401:3518   */\ntag_88:\n    /* \"#utility.yul\":3542:3616   */\n  tag_90\n    /* \"#utility.yul\":3608:3615   */\n  dup8\n    /* \"#utility.yul\":3599:3605   */\n  dup3\n    /* \"#utility.yul\":3588:3597   */\n  dup9\n    /* \"#utility.yul\":3584:3606   */\n  add\n    /* \"#utility.yul\":3542:3616   */\n  tag_24\n  jump\t// in\ntag_90:\n    /* \"#utility.yul\":3532:3616   */\n  swap5\n  pop\n    /* \"#utility.yul\":3335:3626   */\n  pop\n    /* \"#utility.yul\":3686:3688   */\n  0x20\n    /* \"#utility.yul\":3675:3684   */\n  dup6\n    /* \"#utility.yul\":3671:3689   */\n  add\n    /* \"#utility.yul\":3665:3690   */\n  mload\n    /* \"#utility.yul\":3717:3735   */\n  0xffffffffffffffff\n    /* \"#utility.yul\":3709:3715   */\n  dup2\n    /* \"#utility.yul\":3706:3736   */\n  gt\n    /* \"#utility.yul\":3703:3820   */\n  iszero\n  tag_91\n  jumpi\n    /* \"#utility.yul\":3739:3818   */\n  tag_92\n  tag_14\n  jump\t// in\ntag_92:\n    /* \"#utility.yul\":3703:3820   */\ntag_91:\n    /* \"#utility.yul\":3844:3918   */\n  tag_93\n    /* \"#utility.yul\":3910:3917   */\n  dup8\n    /* \"#utility.yul\":3901:3907   */\n  dup3\n    /* \"#utility.yul\":3890:3899   */\n  dup9\n    /* \"#utility.yul\":3886:3908   */\n  add\n    /* \"#utility.yul\":3844:3918   */\n  tag_24\n  jump\t// in\ntag_93:\n    /* \"#utility.yul\":3834:3918   */\n  swap4\n  pop\n    /* \"#utility.yul\":3636:3928   */\n  pop\n    /* \"#utility.yul\":3988:3990   */\n  0x40\n    /* \"#utility.yul\":3977:3986   */\n  dup6\n    /* \"#utility.yul\":3973:3991   */\n  add\n    /* \"#utility.yul\":3967:3992   */\n  mload\n    /* \"#utility.yul\":4019:4037   */\n  0xffffffffffffffff\n    /* \"#utility.yul\":4011:4017   */\n  dup2\n    /* \"#utility.yul\":4008:4038   */\n  gt\n    /* \"#utility.yul\":4005:4122   */\n  iszero\n  tag_94\n  jumpi\n    /* \"#utility.yul\":4041:4120   */\n  tag_95\n  tag_14\n  jump\t// in\ntag_95:\n    /* \"#utility.yul\":4005:4122   */\ntag_94:\n    /* \"#utility.yul\":4146:4220   */\n  tag_96\n    /* \"#utility.yul\":4212:4219   */\n  dup8\n    /* \"#utility.yul\":4203:4209   */\n  dup3\n    /* \"#utility.yul\":4192:4201   */\n  dup9\n    /* \"#utility.yul\":4188:4210   */\n  add\n    /* \"#utility.yul\":4146:4220   */\n  tag_24\n  jump\t// in\ntag_96:\n    /* \"#utility.yul\":4136:4220   */\n  swap3\n  pop\n    /* \"#utility.yul\":3938:4230   */\n  pop\n    /* \"#utility.yul\":4269:4271   */\n  0x60\n    /* \"#utility.yul\":4295:4359   */\n  tag_97\n    /* \"#utility.yul\":4351:4358   */\n  dup8\n    /* \"#utility.yul\":4342:4348   */\n  dup3\n    /* \"#utility.yul\":4331:4340   */\n  dup9\n    /* \"#utility.yul\":4327:4349   */\n  add\n    /* \"#utility.yul\":4295:4359   */\n  tag_27\n  jump\t// in\ntag_97:\n    /* \"#utility.yul\":4285:4359   */\n  swap2\n  pop\n    /* \"#utility.yul\":4240:4369   */\n  pop\n    /* \"#utility.yul\":3037:4376   */\n  swap3\n  swap6\n  swap2\n  swap5\n  pop\n  swap3\n  pop\n  jump\t// out\n    /* \"#utility.yul\":4382:4481   */\ntag_28:\n    /* \"#utility.yul\":4434:4440   */\n  0x00\n    /* \"#utility.yul\":4468:4473   */\n  dup2\n    /* \"#utility.yul\":4462:4474   */\n  mload\n    /* \"#utility.yul\":4452:4474   */\n  swap1\n  pop\n    /* \"#utility.yul\":4382:4481   */\n  swap2\n  swap1\n  pop\n  jump\t// out\n    /* \"#utility.yul\":4487:4667   */\ntag_29:\n    /* \"#utility.yul\":4535:4612   */\n  0x4e487b7100000000000000000000000000000000000000000000000000000000\n    /* \"#utility.yul\":4532:4533   */\n  0x00\n    /* \"#utility.yul\":4525:4613   */\n  mstore\n    /* \"#utility.yul\":4632:4636   */\n  0x22\n    /* \"#utility.yul\":4629:4630   */\n  0x04\n    /* \"#utility.yul\":4622:4637   */\n  mstore\n    /* \"#utility.yul\":4656:4660   */\n  0x24\n    /* \"#utility.yul\":4653:4654   */\n  0x00\n    /* \"#utility.yul\":4646:4661   */\n  revert\n    /* \"#utility.yul\":4673:4993   */\ntag_30:\n    /* \"#utility.yul\":4717:4723   */\n  0x00\n    /* \"#utility.yul\":4754:4755   */\n  0x02\n    /* \"#utility.yul\":4748:4752   */\n  dup3\n    /* \"#utility.yul\":4744:4756   */\n  div\n    /* \"#utility.yul\":4734:4756   */\n  swap1\n  pop\n    /* \"#utility.yul\":4801:4802   */\n  0x01\n    /* \"#utility.yul\":4795:4799   */\n  dup3\n    /* \"#utility.yul\":4791:4803   */\n  and\n    /* \"#utility.yul\":4822:4840   */\n  dup1\n    /* \"#utility.yul\":4812:4893   */\n  tag_101\n  jumpi\n    /* \"#utility.yul\":4878:4882   */\n  0x7f\n    /* \"#utility.yul\":4870:4876   */\n  dup3\n    /* \"#utility.yul\":4866:4883   */\n  and\n    /* \"#utility.yul\":4856:4883   */\n  swap2\n  pop\n    /* \"#utility.yul\":4812:4893   */\ntag_101:\n    /* \"#utility.yul\":4940:4942   */\n  0x20\n    /* \"#utility.yul\":4932:4938   */\n  dup3\n    /* \"#utility.yul\":4929:4943   */\n  lt\n    /* \"#utility.yul\":4909:4927   */\n  dup2\n    /* \"#utility.yul\":4906:4944   */\n  sub\n    /* \"#utility.yul\":4903:4987   */\n  tag_102\n  jumpi\n    /* \"#utility.yul\":4959:4977   */\n  tag_103\n  tag_29\n  jump\t// in\ntag_103:\n    /* \"#utility.yul\":4903:4987   */\ntag_102:\n    /* \"#utility.yul\":4724:4993   */\n  pop\n    /* \"#utility.yul\":4673:4993   */\n  swap2\n  swap1\n  pop\n  jump\t// out\n    /* \"#utility.yul\":4999:5140   */\ntag_31:\n    /* \"#utility.yul\":5048:5052   */\n  0x00\n    /* \"#utility.yul\":5071:5074   */\n  dup2\n    /* \"#utility.yul\":5063:5074   */\n  swap1\n  pop\n    /* \"#utility.yul\":5094:5097   */\n  dup2\n    /* \"#utility.yul\":5091:5092   */\n  0x00\n    /* \"#utility.yul\":5084:5098   */\n  mstore\n    /* \"#utility.yul\":5128:5132   */\n  0x20\n    /* \"#utility.yul\":5125:5126   */\n  0x00\n    /* \"#utility.yul\":5115:5133   */\n  keccak256\n    /* \"#utility.yul\":5107:5133   */\n  swap1\n  pop\n    /* \"#utility.yul\":4999:5140   */\n  swap2\n  swap1\n  pop\n  jump\t// out\n    /* \"#utility.yul\":5146:5239   */\ntag_32:\n    /* \"#utility.yul\":5183:5189   */\n  0x00\n    /* \"#utility.yul\":5230:5232   */\n  0x20\n    /* \"#utility.yul\":5225:5227   */\n  0x1f\n    /* \"#utility.yul\":5218:5223   */\n  dup4\n    /* \"#utility.yul\":5214:5228   */\n  add\n    /* \"#utility.yul\":5210:5233   */\n  div\n    /* \"#utility.yul\":5200:5233   */\n  swap1\n  pop\n    /* \"#utility.yul\":5146:5239   */\n  swap2\n  swap1\n  pop\n  jump\t// out\n    /* \"#utility.yul\":5245:5352   */\ntag_33:\n    /* \"#utility.yul\":5289:5297   */\n  0x00\n    /* \"#utility.yul\":5339:5344   */\n  dup3\n    /* \"#utility.yul\":5333:5337   */\n  dup3\n    /* \"#utility.yul\":5329:5345   */\n  shl\n    /* \"#utility.yul\":5308:5345   */\n  swap1\n  pop\n    /* \"#utility.yul\":5245:5352   */\n  swap3\n  swap2\n  pop\n  pop\n  jump\t// out\n    /* \"#utility.yul\":5358:5751   */\ntag_34:\n    /* \"#utility.yul\":5427:5433   */\n  0x00\n    /* \"#utility.yul\":5477:5478   */\n  0x08\n    /* \"#utility.yul\":5465:5475   */\n  dup4\n    /* \"#utility.yul\":5461:5479   */\n  mul\n    /* \"#utility.yul\":5500:5597   */\n  tag_108\n    /* \"#utility.yul\":5530:5596   */\n  0xffffffffffffffffffffffffffffffffffffffffffffffffffffffffffffffff\n    /* \"#utility.yul\":5519:5528   */\n  dup3\n    /* \"#utility.yul\":5500:5597   */\n  tag_33\n  jump\t// in\ntag_108:\n    /* \"#utility.yul\":5618:5657   */\n  tag_109\n    /* \"#utility.yul\":5648:5656   */\n  dup7\n    /* \"#utility.yul\":5637:5646   */\n  dup4\n    /* \"#utility.yul\":5618:5657   */\n  tag_33\n  jump\t// in\ntag_109:\n    /* \"#utility.yul\":5606:5657   */\n  swap6\n  pop\n    /* \"#utility.yul\":5690:5694   */\n  dup1\n    /* \"#utility.yul\":5686:5695   */\n  not\n    /* \"#utility.yul\":5679:5684   */\n  dup5\n    /* \"#utility.yul\":5675:5696   */\n  and\n    /* \"#utility.yul\":5666:5696   */\n  swap4\n  pop\n    /* \"#utility.yul\":5739:5743   */\n  dup1\n    /* \"#utility.yul\":5729:5737   */\n  dup7\n    /* \"#utility.yul\":5725:5744   */\n  and\n    /* \"#utility.yul\":5718:5723   */\n  dup5\n    /* \"#utility.yul\":5715:5745   */\n  or\n    /* \"#utility.yul\":5705:5745   */\n  swap3\n  pop\n    /* \"#utility.yul\":5434:5751   */\n  pop\n  pop\n    /* \"#utility.yul\":5358:5751   */\n  swap4\n  swap3\n  pop\n  pop\n  pop\n  jump\t// out\n    /* \"#utility.yul\":5757:5817   */\ntag_35:\n    /* \"#utility.yul\":5785:5788   */\n  0x00\n    /* \"#utility.yul\":5806:5811   */\n  dup2\n    /* \"#utility.yul\":5799:5811   */\n  swap1\n  pop\n    /* \"#utility.yul\":5757:5817   */\n  swap2\n  swap1\n  pop\n  jump\t// out\n    /* \"#utility.yul\":5823:5965   */\ntag_36:\n    /* \"#utility.yul\":5873:5882   */\n  0x00\n    /* \"#utility.yul\":5906:5959   */\n  tag_112\n    /* \"#utility.yul\":5924:5958   */\n  tag_113\n    /* \"#utility.yul\":5933:5957   */\n  tag_114\n    /* \"#utility.yul\":5951:5956   */\n  dup5\n    /* \"#utility.yul\":5933:5957   */\n  tag_25\n  jump\t// in\ntag_114:\n    /* \"#utility.yul\":5924:5958   */\n  tag_35\n  jump\t// in\ntag_113:\n    /* \"#utility.yul\":5906:5959   */\n  tag_25\n  jump\t// in\ntag_112:\n    /* \"#utility.yul\":5893:5959   */\n  swap1\n  pop\n    /* \"#utility.yul\":5823:5965   */\n  swap2\n  swap1\n  pop\n  jump\t// out\n    /* \"#utility.yul\":5971:6046   */\ntag_37:\n    /* \"#utility.yul\":6014:6017   */\n  0x00\n    /* \"#utility.yul\":6035:6040   */\n  dup2\n    /* \"#utility.yul\":6028:6040   */\n  swap1\n  pop\n    /* \"#utility.yul\":5971:6046   */\n  swap2\n  swap1\n  pop\n  jump\t// out\n    /* \"#utility.yul\":6052:6321   */\ntag_38:\n    /* \"#utility.yul\":6162:6201   */\n  tag_117\n    /* \"#utility.yul\":6193:6200   */\n  dup4\n    /* \"#utility.yul\":6162:6201   */\n  tag_36\n  jump\t// in\ntag_117:\n    /* \"#utility.yul\":6223:6314   */\n  tag_118\n    /* \"#utility.yul\":6272:6313   */\n  tag_119\n    /* \"#utility.yul\":6296:6312   */\n  dup3\n    /* \"#utility.yul\":6272:6313   */\n  tag_37\n  jump\t// in\ntag_119:\n    /* \"#utility.yul\":6264:6270   */\n  dup5\n    /* \"#utility.yul\":6257:6261   */\n  dup5\n    /* \"#utility.yul\":6251:6262   */\n  sload\n    /* \"#utility.yul\":6223:6314   */\n  tag_34\n  jump\t// in\ntag_118:\n    /* \"#utility.yul\":6217:6221   */\n  dup3\n    /* \"#utility.yul\":6210:6315   */\n  sstore\n    /* \"#utility.yul\":6128:6321   */\n  pop\n    /* \"#utility.yul\":6052:6321   */\n  pop\n  pop\n  pop\n  jump\t// out\n    /* \"#utility.yul\":6327:6400   */\ntag_39:\n    /* \"#utility.yul\":6372:6375   */\n  0x00\n    /* \"#utility.yul\":6327:6400   */\n  swap1\n  jump\t// out\n    /* \"#utility.yul\":6406:6595   */\ntag_40:\n    /* \"#utility.yul\":6483:6515   */\n  tag_122\n  tag_39\n  jump\t// in\ntag_122:\n    /* \"#utility.yul\":6524:6589   */\n  tag_123\n    /* \"#utility.yul\":6582:6588   */\n  dup2\n    /* \"#utility.yul\":6574:6580   */\n  dup5\n    /* \"#utility.yul\":6568:6572   */\n  dup5\n    /* \"#utility.yul\":6524:6589   */\n  tag_38\n  jump\t// in\ntag_123:\n    /* \"#utility.yul\":6459:6595   */\n  pop\n    /* \"#utility.yul\":6406:6595   */\n  pop\n  pop\n  jump\t// out\n    /* \"#utility.yul\":6601:6787   */\ntag_41:\n    /* \"#utility.yul\":6661:6781   */\ntag_125:\n    /* \"#utility.yul\":6678:6681   */\n  dup2\n    /* \"#utility.yul\":6671:6676   */\n  dup2\n    /* \"#utility.yul\":6668:6682   */\n  lt\n    /* \"#utility.yul\":6661:6781   */\n  iszero\n  tag_127\n  jumpi\n    /* \"#utility.yul\":6732:6771   */\n  tag_128\n    /* \"#utility.yul\":6769:6770   */\n  0x00\n    /* \"#utility.yul\":6762:6767   */\n  dup3\n    /* \"#utility.yul\":6732:6771   */\n  tag_40\n  jump\t// in\ntag_128:\n    /* \"#utility.yul\":6705:6706   */\n  0x01\n    /* \"#utility.yul\":6698:6703   */\n  dup2\n    /* \"#utility.yul\":6694:6707   */\n  add\n    /* \"#utility.yul\":6685:6707   */\n  swap1\n  pop\n    /* \"#utility.yul\":6661:6781   */\n  jump(tag_125)\ntag_127:\n    /* \"#utility.yul\":6601:6787   */\n  pop\n  pop\n  jump\t// out\n    /* \"#utility.yul\":6793:7336   */\ntag_42:\n    /* \"#utility.yul\":6894:6896   */\n  0x1f\n    /* \"#utility.yul\":6889:6892   */\n  dup3\n    /* \"#utility.yul\":6886:6897   */\n  gt\n    /* \"#utility.yul\":6883:7329   */\n  iszero\n  tag_130\n  jumpi\n    /* \"#utility.yul\":6928:6966   */\n  tag_131\n    /* \"#utility.yul\":6960:6965   */\n  dup2\n    /* \"#utility.yul\":6928:6966   */\n  tag_31\n  jump\t// in\ntag_131:\n    /* \"#utility.yul\":7012:7041   */\n  tag_132\n    /* \"#utility.yul\":7030:7040   */\n  dup5\n    /* \"#utility.yul\":7012:7041   */\n  tag_32\n  jump\t// in\ntag_132:\n    /* \"#utility.yul\":7002:7010   */\n  dup2\n    /* \"#utility.yul\":6998:7042   */\n  add\n    /* \"#utility.yul\":7195:7197   */\n  0x20\n    /* \"#utility.yul\":7183:7193   */\n  dup6\n    /* \"#utility.yul\":7180:7198   */\n  lt\n    /* \"#utility.yul\":7177:7226   */\n  iszero\n  tag_133\n  jumpi\n    /* \"#utility.yul\":7216:7224   */\n  dup2\n    /* \"#utility.yul\":7201:7224   */\n  swap1\n  pop\n    /* \"#utility.yul\":7177:7226   */\ntag_133:\n    /* \"#utility.yul\":7239:7319   */\n  tag_134\n    /* \"#utility.yul\":7295:7317   */\n  tag_135\n    /* \"#utility.yul\":7313:7316   */\n  dup6\n    /* \"#utility.yul\":7295:7317   */\n  tag_32\n  jump\t// in\ntag_135:\n    /* \"#utility.yul\":7285:7293   */\n  dup4\n    /* \"#utility.yul\":7281:7318   */\n  add\n    /* \"#utility.yul\":7268:7279   */\n  dup3\n    /* \"#utility.yul\":7239:7319   */\n  tag_41\n  jump\t// in\ntag_134:\n    /* \"#utility.yul\":6898:7329   */\n  pop\n  pop\n    /* \"#utility.yul\":6883:7329   */\ntag_130:\n    /* \"#utility.yul\":6793:7336   */\n  pop\n  pop\n  pop\n  jump\t// out\n    /* \"#utility.yul\":7342:7459   */\ntag_43:\n    /* \"#utility.yul\":7396:7404   */\n  0x00\n    /* \"#utility.yul\":7446:7451   */\n  dup3\n    /* \"#utility.yul\":7440:7444   */\n  dup3\n    /* \"#utility.yul\":7436:7452   */\n  shr\n    /* \"#utility.yul\":7415:7452   */\n  swap1\n  pop\n    /* \"#utility.yul\":7342:7459   */\n  swap3\n  swap2\n  pop\n  pop\n  jump\t// out\n    /* \"#utility.yul\":7465:7634   */\ntag_44:\n    /* \"#utility.yul\":7509:7515   */\n  0x00\n    /* \"#utility.yul\":7542:7593   */\n  tag_138\n    /* \"#utility.yul\":7590:7591   */\n  0x00\n    /* \"#utility.yul\":7586:7592   */\n  not\n    /* \"#utility.yul\":7578:7583   */\n  dup5\n    /* \"#utility.yul\":7575:7576   */\n  0x08\n    /* \"#utility.yul\":7571:7584   */\n  mul\n    /* \"#utility.yul\":7542:7593   */\n  tag_43\n  jump\t// in\ntag_138:\n    /* \"#utility.yul\":7538:7594   */\n  not\n    /* \"#utility.yul\":7623:7627   */\n  dup1\n    /* \"#utility.yul\":7617:7621   */\n  dup4\n    /* \"#utility.yul\":7613:7628   */\n  and\n    /* \"#utility.yul\":7603:7628   */\n  swap2\n  pop\n    /* \"#utility.yul\":7516:7634   */\n  pop\n    /* \"#utility.yul\":7465:7634   */\n  swap3\n  swap2\n  pop\n  pop\n  jump\t// out\n    /* \"#utility.yul\":7639:7934   */\ntag_45:\n    /* \"#utility.yul\":7715:7719   */\n  0x00\n    /* \"#utility.yul\":7861:7890   */\n  tag_140\n    /* \"#utility.yul\":7886:7889   */\n  dup4\n    /* \"#utility.yul\":7880:7884   */\n  dup4\n    /* \"#utility.yul\":7861:7890   */\n  tag_44\n  jump\t// in\ntag_140:\n    /* \"#utility.yul\":7853:7890   */\n  swap2\n  pop\n    /* \"#utility.yul\":7923:7926   */\n  dup3\n    /* \"#utility.yul\":7920:7921   */\n  0x02\n    /* \"#utility.yul\":7916:7927   */\n  mul\n    /* \"#utility.yul\":7910:7914   */\n  dup3\n    /* \"#utility.yul\":7907:7928   */\n  or\n    /* \"#utility.yul\":7899:7928   */\n  swap1\n  pop\n    /* \"#utility.yul\":7639:7934   */\n  swap3\n  swap2\n  pop\n  pop\n  jump\t// out\n    /* \"#utility.yul\":7939:9334   */\ntag_7:\n    /* \"#utility.yul\":8056:8093   */\n  tag_142\n    /* \"#utility.yul\":8089:8092   */\n  dup3\n    /* \"#utility.yul\":8056:8093   */\n  tag_28\n  jump\t// in\ntag_142:\n    /* \"#utility.yul\":8158:8176   */\n  0xffffffffffffffff\n    /* \"#utility.yul\":8150:8156   */\n  dup2\n    /* \"#utility.yul\":8147:8177   */\n  gt\n    /* \"#utility.yul\":8144:8200   */\n  iszero\n  tag_143\n  jumpi\n    /* \"#utility.yul\":8180:8198   */\n  tag_144\n  tag_18\n  jump\t// in\ntag_144:\n    /* \"#utility.yul\":8144:8200   */\ntag_143:\n    /* \"#utility.yul\":8224:8262   */\n  tag_145\n    /* \"#utility.yul\":8256:8260   */\n  dup3\n    /* \"#utility.yul\":8250:8261   */\n  sload\n    /* \"#utility.yul\":8224:8262   */\n  tag_30\n  jump\t// in\ntag_145:\n    /* \"#utility.yul\":8309:8376   */\n  tag_146\n    /* \"#utility.yul\":8369:8375   */\n  dup3\n    /* \"#utility.yul\":8361:8367   */\n  dup3\n    /* \"#utility.yul\":8355:8359   */\n  dup6\n    /* \"#utility.yul\":8309:8376   */\n  tag_42\n  jump\t// in\ntag_146:\n    /* \"#utility.yul\":8403:8404   */\n  0x00\n    /* \"#utility.yul\":8427:8431   */\n  0x20\n    /* \"#utility.yul\":8414:8431   */\n  swap1\n  pop\n    /* \"#utility.yul\":8459:8461   */\n  0x1f\n    /* \"#utility.yul\":8451:8457   */\n  dup4\n    /* \"#utility.yul\":8448:8462   */\n  gt\n    /* \"#utility.yul\":8476:8477   */\n  0x01\n    /* \"#utility.yul\":8471:9089   */\n  dup2\n  eq\n  tag_148\n  jumpi\n    /* \"#utility.yul\":9133:9134   */\n  0x00\n    /* \"#utility.yul\":9150:9156   */\n  dup5\n    /* \"#utility.yul\":9147:9224   */\n  iszero\n  tag_149\n  jumpi\n    /* \"#utility.yul\":9199:9208   */\n  dup3\n    /* \"#utility.yul\":9194:9197   */\n  dup8\n    /* \"#utility.yul\":9190:9209   */\n  add\n    /* \"#utility.yul\":9184:9210   */\n  mload\n    /* \"#utility.yul\":9175:9210   */\n  swap1\n  pop\n    /* \"#utility.yul\":9147:9224   */\ntag_149:\n    /* \"#utility.yul\":9250:9317   */\n  tag_150\n    /* \"#utility.yul\":9310:9316   */\n  dup6\n    /* \"#utility.yul\":9303:9308   */\n  dup3\n    /* \"#utility.yul\":9250:9317   */\n  tag_45\n  jump\t// in\ntag_150:\n    /* \"#utility.yul\":9244:9248   */\n  dup7\n    /* \"#utility.yul\":9237:9318   */\n  sstore\n    /* \"#utility.yul\":9106:9328   */\n  pop\n    /* \"#utility.yul\":8441:9328   */\n  jump(tag_147)\n    /* \"#utility.yul\":8471:9089   */\ntag_148:\n    /* \"#utility.yul\":8523:8527   */\n  0x1f\n    /* \"#utility.yul\":8519:8528   */\n  not\n    /* \"#utility.yul\":8511:8517   */\n  dup5\n    /* \"#utility.yul\":8507:8529   */\n  and\n    /* \"#utility.yul\":8557:8594   */\n  tag_151\n    /* \"#utility.yul\":8589:8593   */\n  dup7\n    /* \"#utility.yul\":8557:8594   */\n  tag_31\n  jump\t// in\ntag_151:\n    /* \"#utility.yul\":8616:8617   */\n  0x00\n    /* \"#utility.yul\":8630:8838   */\ntag_152:\n    /* \"#utility.yul\":8644:8651   */\n  dup3\n    /* \"#utility.yul\":8641:8642   */\n  dup2\n    /* \"#utility.yul\":8638:8652   */\n  lt\n    /* \"#utility.yul\":8630:8838   */\n  iszero\n  tag_154\n  jumpi\n    /* \"#utility.yul\":8723:8732   */\n  dup5\n    /* \"#utility.yul\":8718:8721   */\n  dup10\n    /* \"#utility.yul\":8714:8733   */\n  add\n    /* \"#utility.yul\":8708:8734   */\n  mload\n    /* \"#utility.yul\":8700:8706   */\n  dup3\n    /* \"#utility.yul\":8693:8735   */\n  sstore\n    /* \"#utility.yul\":8774:8775   */\n  0x01\n    /* \"#utility.yul\":8766:8772   */\n  dup3\n    /* \"#utility.yul\":8762:8776   */\n  add\n    /* \"#utility.yul\":8752:8776   */\n  swap2\n  pop\n    /* \"#utility.yul\":8821:8823   */\n  0x20\n    /* \"#utility.yul\":8810:8819   */\n  dup6\n    /* \"#utility.yul\":8806:8824   */\n  add\n    /* \"#utility.yul\":8793:8824   */\n  swap5\n  pop\n    /* \"#utility.yul\":8667:8671   */\n  0x20\n    /* \"#utility.yul\":8664:8665   */\n  dup2\n    /* \"#utility.yul\":8660:8672   */\n  add\n    /* \"#utility.yul\":8655:8672   */\n  swap1\n  pop\n    /* \"#utility.yul\":8630:8838   */\n  jump(tag_152)\ntag_154:\n    /* \"#utility.yul\":8866:8872   */\n  dup7\n    /* \"#utility.yul\":8857:8864   */\n  dup4\n    /* \"#utility.yul\":8854:8873   */\n  lt\n    /* \"#utility.yul\":8851:9030   */\n  iszero\n  tag_155\n  jumpi\n    /* \"#utility.yul\":8924:8933   */\n  dup5\n    /* \"#utility.yul\":8919:8922   */\n  dup10\n    /* \"#utility.yul\":8915:8934   */\n  add\n    /* \"#utility.yul\":8909:8935   */\n  mload\n    /* \"#utility.yul\":8967:9015   */\n  tag_156\n    /* \"#utility.yul\":9009:9013   */\n  0x1f\n    /* \"#utility.yul\":9001:9007   */\n  dup10\n    /* \"#utility.yul\":8997:9014   */\n  and\n    /* \"#utility.yul\":8986:8995   */\n  dup3\n    /* \"#utility.yul\":8967:9015   */\n  tag_44\n  jump\t// in\ntag_156:\n    /* \"#utility.yul\":8959:8965   */\n  dup4\n    /* \"#utility.yul\":8952:9016   */\n  sstore\n    /* \"#utility.yul\":8874:9030   */\n  pop\n    /* \"#utility.yul\":8851:9030   */\ntag_155:\n    /* \"#utility.yul\":9076:9077   */\n  0x01\n    /* \"#utility.yul\":9072:9073   */\n  0x02\n    /* \"#utility.yul\":9064:9070   */\n  dup9\n    /* \"#utility.yul\":9060:9074   */\n  mul\n    /* \"#utility.yul\":9056:9078   */\n  add\n    /* \"#utility.yul\":9050:9054   */\n  dup9\n    /* \"#utility.yul\":9043:9079   */\n  sstore\n    /* \"#utility.yul\":8478:9089   */\n  pop\n  pop\n  pop\n    /* \"#utility.yul\":8441:9328   */\ntag_147:\n  pop\n    /* \"#utility.yul\":8031:9334   */\n  pop\n  pop\n  pop\n    /* \"#utility.yul\":7939:9334   */\n  pop\n  pop\n  jump\t// out\n    /* \"contracts/Crowdfunding5.sol\":171:2478  contract Crowdfunding {... */\ntag_11:\n  dataSize(sub_0)\n  dup1\n  dataOffset(sub_0)\n  0x00\n  codecopy\n  0x00\n  return\nstop\n\nsub_0: assembly {\n        /* \"contracts/Crowdfunding5.sol\":171:2478  contract Crowdfunding {... */\n      mstore(0x40, 0x80)\n      jumpi(tag_1, lt(calldatasize, 0x04))\n      shr(0xe0, calldataload(0x00))\n      dup1\n      0xb767050d\n      eq\n      tag_2\n      jumpi\n      dup1\n      0xd63dc661\n      eq\n      tag_3\n      jumpi\n      dup1\n      0xf60ca60d\n      eq\n      tag_4\n      jumpi\n    tag_1:\n      0x00\n      dup1\n      revert\n        /* \"contracts/Crowdfunding5.sol\":1832:2476  function changeProjectState(string calldata _newState) public onlyOwner {... */\n    tag_2:\n      callvalue\n      dup1\n      iszero\n      tag_5\n      jumpi\n      0x00\n      dup1\n      revert\n    tag_5:\n      pop\n      tag_6\n      0x04\n      dup1\n      calldatasize\n      sub\n      dup2\n      add\n      swap1\n      tag_7\n      swap2\n      swap1\n      tag_8\n      jump\t// in\n    tag_7:\n      tag_9\n      jump\t// in\n    tag_6:\n      stop\n        /* \"contracts/Crowdfunding5.sol\":1158:1781  function fundProject() public payable notOwner {... */\n    tag_3:\n      tag_10\n      tag_11\n      jump\t// in\n    tag_10:\n      stop\n        /* \"contracts/Crowdfunding5.sol\":400:422  Project public project */\n    tag_4:\n      callvalue\n      dup1\n      iszero\n      tag_12\n      jumpi\n      0x00\n      dup1\n      revert\n    tag_12:\n      pop\n      tag_13\n      tag_14\n      jump\t// in\n    tag_13:\n      mload(0x40)\n      tag_15\n      swap8\n      swap7\n      swap6\n      swap5\n      swap4\n      swap3\n      swap2\n      swap1\n      tag_16\n      jump\t// in\n    tag_15:\n      mload(0x40)\n      dup1\n      swap2\n      sub\n      swap1\n      return\n        /* \"contracts/Crowdfunding5.sol\":1832:2476  function changeProjectState(string calldata _newState) public onlyOwner {... */\n    tag_9:\n        /* \"contracts/Crowdfunding5.sol\":888:895  project */\n      0x00\n        /* \"contracts/Crowdfunding5.sol\":888:902  project.author */\n      0x03\n      add\n      0x00\n      swap1\n      sload\n      swap1\n      0x0100\n      exp\n      swap1\n      div\n      0xffffffffffffffffffffffffffffffffffffffff\n      and\n        /* \"contracts/Crowdfunding5.sol\":874:902  msg.sender == project.author */\n      0xffffffffffffffffffffffffffffffffffffffff\n      and\n        /* \"contracts/Crowdfunding5.sol\":874:884  msg.sender */\n      caller\n        /* \"contracts/Crowdfunding5.sol\":874:902  msg.sender == project.author */\n      0xffffffffffffffffffffffffffffffffffffffff\n      and\n      eq\n        /* \"contracts/Crowdfunding5.sol\":853:972  require(... */\n      tag_18\n      jumpi\n      mload(0x40)\n      0x08c379a000000000000000000000000000000000000000000000000000000000\n      dup2\n      mstore\n      0x04\n      add\n      tag_19\n      swap1\n      tag_20\n      jump\t// in\n    tag_19:\n      mload(0x40)\n      dup1\n      swap2\n      sub\n      swap1\n      revert\n    tag_18:\n        /* \"contracts/Crowdfunding5.sol\":1987:2013  abi.encodePacked('Opened') */\n      add(0x20, mload(0x40))\n      tag_22\n      swap1\n      tag_23\n      jump\t// in\n    tag_22:\n      mload(0x40)\n      0x20\n      dup2\n      dup4\n      sub\n      sub\n      dup2\n      mstore\n      swap1\n      0x40\n      mstore\n        /* \"contracts/Crowdfunding5.sol\":1977:2014  keccak256(abi.encodePacked('Opened')) */\n      dup1\n      mload\n      swap1\n      0x20\n      add\n      keccak256\n        /* \"contracts/Crowdfunding5.sol\":1962:1971  _newState */\n      dup3\n      dup3\n        /* \"contracts/Crowdfunding5.sol\":1945:1972  abi.encodePacked(_newState) */\n      add(0x20, mload(0x40))\n      tag_24\n      swap3\n      swap2\n      swap1\n      tag_25\n      jump\t// in\n    tag_24:\n      mload(0x40)\n      0x20\n      dup2\n      dup4\n      sub\n      sub\n      dup2\n      mstore\n      swap1\n      0x40\n      mstore\n        /* \"contracts/Crowdfunding5.sol\":1935:1973  keccak256(abi.encodePacked(_newState)) */\n      dup1\n      mload\n      swap1\n      0x20\n      add\n      keccak256\n        /* \"contracts/Crowdfunding5.sol\":1935:2014  keccak256(abi.encodePacked(_newState)) == keccak256(abi.encodePacked('Opened')) */\n      eq\n        /* \"contracts/Crowdfunding5.sol\":1935:2109  keccak256(abi.encodePacked(_newState)) == keccak256(abi.encodePacked('Opened')) ||... */\n      dup1\n      tag_26\n      jumpi\n      pop\n        /* \"contracts/Crowdfunding5.sol\":2082:2108  abi.encodePacked('Closed') */\n      add(0x20, mload(0x40))\n      tag_27\n      swap1\n      tag_28\n      jump\t// in\n    tag_27:\n      mload(0x40)\n      0x20\n      dup2\n      dup4\n      sub\n      sub\n      dup2\n      mstore\n      swap1\n      0x40\n      mstore\n        /* \"contracts/Crowdfunding5.sol\":2072:2109  keccak256(abi.encodePacked('Closed')) */\n      dup1\n      mload\n      swap1\n      0x20\n      add\n      keccak256\n        /* \"contracts/Crowdfunding5.sol\":2057:2066  _newState */\n      dup3\n      dup3\n        /* \"contracts/Crowdfunding5.sol\":2040:2067  abi.encodePacked(_newState) */\n      add(0x20, mload(0x40))\n      tag_29\n      swap3\n      swap2\n      swap1\n      tag_25\n      jump\t// in\n    tag_29:\n      mload(0x40)\n      0x20\n      dup2\n      dup4\n      sub\n      sub\n      dup2\n      mstore\n      swap1\n      0x40\n      mstore\n        /* \"contracts/Crowdfunding5.sol\":2030:2068  keccak256(abi.encodePacked(_newState)) */\n      dup1\n      mload\n      swap1\n      0x20\n      add\n      keccak256\n        /* \"contracts/Crowdfunding5.sol\":2030:2109  keccak256(abi.encodePacked(_newState)) == keccak256(abi.encodePacked('Closed')) */\n      eq\n        /* \"contracts/Crowdfunding5.sol\":1935:2109  keccak256(abi.encodePacked(_newState)) == keccak256(abi.encodePacked('Opened')) ||... */\n    tag_26:\n        /* \"contracts/Crowdfunding5.sol\":1914:2166  require(... */\n      tag_30\n      jumpi\n      mload(0x40)\n      0x08c379a000000000000000000000000000000000000000000000000000000000\n      dup2\n      mstore\n      0x04\n      add\n      tag_31\n      swap1\n      tag_32\n      jump\t// in\n    tag_31:\n      mload(0x40)\n      dup1\n      swap2\n      sub\n      swap1\n      revert\n    tag_30:\n        /* \"contracts/Crowdfunding5.sol\":2267:2274  project */\n      0x00\n        /* \"contracts/Crowdfunding5.sol\":2267:2280  project.state */\n      0x05\n      add\n        /* \"contracts/Crowdfunding5.sol\":2250:2281  abi.encodePacked(project.state) */\n      add(0x20, mload(0x40))\n      tag_33\n      swap2\n      swap1\n      tag_34\n      jump\t// in\n    tag_33:\n      mload(0x40)\n      0x20\n      dup2\n      dup4\n      sub\n      sub\n      dup2\n      mstore\n      swap1\n      0x40\n      mstore\n        /* \"contracts/Crowdfunding5.sol\":2240:2282  keccak256(abi.encodePacked(project.state)) */\n      dup1\n      mload\n      swap1\n      0x20\n      add\n      keccak256\n        /* \"contracts/Crowdfunding5.sol\":2225:2234  _newState */\n      dup3\n      dup3\n        /* \"contracts/Crowdfunding5.sol\":2208:2235  abi.encodePacked(_newState) */\n      add(0x20, mload(0x40))\n      tag_35\n      swap3\n      swap2\n      swap1\n      tag_25\n      jump\t// in\n    tag_35:\n      mload(0x40)\n      0x20\n      dup2\n      dup4\n      sub\n      sub\n      dup2\n      mstore\n      swap1\n      0x40\n      mstore\n        /* \"contracts/Crowdfunding5.sol\":2198:2236  keccak256(abi.encodePacked(_newState)) */\n      dup1\n      mload\n      swap1\n      0x20\n      add\n      keccak256\n        /* \"contracts/Crowdfunding5.sol\":2198:2282  keccak256(abi.encodePacked(_newState)) != keccak256(abi.encodePacked(project.state)) */\n      sub\n        /* \"contracts/Crowdfunding5.sol\":2177:2373  require(... */\n      tag_36\n      jumpi\n      mload(0x40)\n      0x08c379a000000000000000000000000000000000000000000000000000000000\n      dup2\n      mstore\n      0x04\n      add\n      tag_37\n      swap1\n      tag_38\n      jump\t// in\n    tag_37:\n      mload(0x40)\n      dup1\n      swap2\n      sub\n      swap1\n      revert\n    tag_36:\n        /* \"contracts/Crowdfunding5.sol\":2400:2409  _newState */\n      dup2\n      dup2\n        /* \"contracts/Crowdfunding5.sol\":2384:2391  project */\n      0x00\n        /* \"contracts/Crowdfunding5.sol\":2384:2397  project.state */\n      0x05\n      add\n        /* \"contracts/Crowdfunding5.sol\":2384:2409  project.state = _newState */\n      swap2\n      dup3\n      tag_39\n      swap3\n      swap2\n      swap1\n      tag_40\n      jump\t// in\n    tag_39:\n      pop\n        /* \"contracts/Crowdfunding5.sol\":2424:2469  ChangeProjectState(msg.sender, project.state) */\n      0xd74cc10e566844502b1013eb3aee1e3200cc3ffa1f74bf59be4b7c2a66fb9b7d\n        /* \"contracts/Crowdfunding5.sol\":2443:2453  msg.sender */\n      caller\n        /* \"contracts/Crowdfunding5.sol\":2455:2462  project */\n      0x00\n        /* \"contracts/Crowdfunding5.sol\":2455:2468  project.state */\n      0x05\n      add\n        /* \"contracts/Crowdfunding5.sol\":2424:2469  ChangeProjectState(msg.sender, project.state) */\n      mload(0x40)\n      tag_41\n      swap3\n      swap2\n      swap1\n      tag_42\n      jump\t// in\n    tag_41:\n      mload(0x40)\n      dup1\n      swap2\n      sub\n      swap1\n      log1\n        /* \"contracts/Crowdfunding5.sol\":1832:2476  function changeProjectState(string calldata _newState) public onlyOwner {... */\n      pop\n      pop\n      jump\t// out\n        /* \"contracts/Crowdfunding5.sol\":1158:1781  function fundProject() public payable notOwner {... */\n    tag_11:\n        /* \"contracts/Crowdfunding5.sol\":1062:1069  project */\n      0x00\n        /* \"contracts/Crowdfunding5.sol\":1062:1076  project.author */\n      0x03\n      add\n      0x00\n      swap1\n      sload\n      swap1\n      0x0100\n      exp\n      swap1\n      div\n      0xffffffffffffffffffffffffffffffffffffffff\n      and\n        /* \"contracts/Crowdfunding5.sol\":1048:1076  msg.sender != project.author */\n      0xffffffffffffffffffffffffffffffffffffffff\n      and\n        /* \"contracts/Crowdfunding5.sol\":1048:1058  msg.sender */\n      caller\n        /* \"contracts/Crowdfunding5.sol\":1048:1076  msg.sender != project.author */\n      0xffffffffffffffffffffffffffffffffffffffff\n      and\n      sub\n        /* \"contracts/Crowdfunding5.sol\":1027:1134  require(... */\n      tag_44\n      jumpi\n      mload(0x40)\n      0x08c379a000000000000000000000000000000000000000000000000000000000\n      dup2\n      mstore\n      0x04\n      add\n      tag_45\n      swap1\n      tag_46\n      jump\t// in\n    tag_45:\n      mload(0x40)\n      dup1\n      swap2\n      sub\n      swap1\n      revert\n    tag_44:\n        /* \"contracts/Crowdfunding5.sol\":1292:1318  abi.encodePacked('Closed') */\n      add(0x20, mload(0x40))\n      tag_48\n      swap1\n      tag_28\n      jump\t// in\n    tag_48:\n      mload(0x40)\n      0x20\n      dup2\n      dup4\n      sub\n      sub\n      dup2\n      mstore\n      swap1\n      0x40\n      mstore\n        /* \"contracts/Crowdfunding5.sol\":1282:1319  keccak256(abi.encodePacked('Closed')) */\n      dup1\n      mload\n      swap1\n      0x20\n      add\n      keccak256\n        /* \"contracts/Crowdfunding5.sol\":1263:1270  project */\n      0x00\n        /* \"contracts/Crowdfunding5.sol\":1263:1276  project.state */\n      0x05\n      add\n        /* \"contracts/Crowdfunding5.sol\":1246:1277  abi.encodePacked(project.state) */\n      add(0x20, mload(0x40))\n      tag_49\n      swap2\n      swap1\n      tag_34\n      jump\t// in\n    tag_49:\n      mload(0x40)\n      0x20\n      dup2\n      dup4\n      sub\n      sub\n      dup2\n      mstore\n      swap1\n      0x40\n      mstore\n        /* \"contracts/Crowdfunding5.sol\":1236:1278  keccak256(abi.encodePacked(project.state)) */\n      dup1\n      mload\n      swap1\n      0x20\n      add\n      keccak256\n        /* \"contracts/Crowdfunding5.sol\":1236:1319  keccak256(abi.encodePacked(project.state)) != keccak256(abi.encodePacked('Closed')) */\n      sub\n        /* \"contracts/Crowdfunding5.sol\":1215:1376  require(... */\n      tag_50\n      jumpi\n      mload(0x40)\n      0x08c379a000000000000000000000000000000000000000000000000000000000\n      dup2\n      mstore\n      0x04\n      add\n      tag_51\n      swap1\n      tag_52\n      jump\t// in\n    tag_51:\n      mload(0x40)\n      dup1\n      swap2\n      sub\n      swap1\n      revert\n    tag_50:\n        /* \"contracts/Crowdfunding5.sol\":1420:1421  0 */\n      0x00\n        /* \"contracts/Crowdfunding5.sol\":1408:1417  msg.value */\n      callvalue\n        /* \"contracts/Crowdfunding5.sol\":1408:1421  msg.value > 0 */\n      gt\n        /* \"contracts/Crowdfunding5.sol\":1387:1500  require(... */\n      tag_53\n      jumpi\n      mload(0x40)\n      0x08c379a000000000000000000000000000000000000000000000000000000000\n      dup2\n      mstore\n      0x04\n      add\n      tag_54\n      swap1\n      tag_55\n      jump\t// in\n    tag_54:\n      mload(0x40)\n      dup1\n      swap2\n      sub\n      swap1\n      revert\n    tag_53:\n        /* \"contracts/Crowdfunding5.sol\":1572:1579  project */\n      0x00\n        /* \"contracts/Crowdfunding5.sol\":1572:1585  project.funds */\n      0x06\n      add\n      sload\n        /* \"contracts/Crowdfunding5.sol\":1560:1569  msg.value */\n      callvalue\n        /* \"contracts/Crowdfunding5.sol\":1560:1585  msg.value + project.funds */\n      tag_56\n      swap2\n      swap1\n      tag_57\n      jump\t// in\n    tag_56:\n        /* \"contracts/Crowdfunding5.sol\":1532:1539  project */\n      0x00\n        /* \"contracts/Crowdfunding5.sol\":1532:1555  project.fundraisingGoal */\n      0x04\n      add\n      sload\n        /* \"contracts/Crowdfunding5.sol\":1532:1586  project.fundraisingGoal >= (msg.value + project.funds) */\n      lt\n      iszero\n        /* \"contracts/Crowdfunding5.sol\":1511:1644  require(... */\n      tag_58\n      jumpi\n      mload(0x40)\n      0x08c379a000000000000000000000000000000000000000000000000000000000\n      dup2\n      mstore\n      0x04\n      add\n      tag_59\n      swap1\n      tag_60\n      jump\t// in\n    tag_59:\n      mload(0x40)\n      dup1\n      swap2\n      sub\n      swap1\n      revert\n    tag_58:\n        /* \"contracts/Crowdfunding5.sol\":1655:1662  project */\n      0x00\n        /* \"contracts/Crowdfunding5.sol\":1655:1669  project.author */\n      0x03\n      add\n      0x00\n      swap1\n      sload\n      swap1\n      0x0100\n      exp\n      swap1\n      div\n      0xffffffffffffffffffffffffffffffffffffffff\n      and\n        /* \"contracts/Crowdfunding5.sol\":1655:1678  project.author.transfer */\n      0xffffffffffffffffffffffffffffffffffffffff\n      and\n        /* \"contracts/Crowdfunding5.sol\":1655:1689  project.author.transfer(msg.value) */\n      0x08fc\n        /* \"contracts/Crowdfunding5.sol\":1679:1688  msg.value */\n      callvalue\n        /* \"contracts/Crowdfunding5.sol\":1655:1689  project.author.transfer(msg.value) */\n      swap1\n      dup2\n      iszero\n      mul\n      swap1\n      mload(0x40)\n      0x00\n      mload(0x40)\n      dup1\n      dup4\n      sub\n      dup2\n      dup6\n      dup9\n      dup9\n      call\n      swap4\n      pop\n      pop\n      pop\n      pop\n      iszero\n      dup1\n      iszero\n      tag_62\n      jumpi\n      returndatasize\n      0x00\n      dup1\n      returndatacopy\n      revert(0x00, returndatasize)\n    tag_62:\n      pop\n        /* \"contracts/Crowdfunding5.sol\":1716:1725  msg.value */\n      callvalue\n        /* \"contracts/Crowdfunding5.sol\":1699:1706  project */\n      0x00\n        /* \"contracts/Crowdfunding5.sol\":1699:1712  project.funds */\n      0x06\n      add\n      0x00\n        /* \"contracts/Crowdfunding5.sol\":1699:1725  project.funds += msg.value */\n      dup3\n      dup3\n      sload\n      tag_63\n      swap2\n      swap1\n      tag_57\n      jump\t// in\n    tag_63:\n      swap3\n      pop\n      pop\n      dup2\n      swap1\n      sstore\n      pop\n        /* \"contracts/Crowdfunding5.sol\":1740:1774  FundProject(msg.sender, msg.value) */\n      0x9dbcb1d3adc1305990f05754143d0baf2f49fa6124b6e9f9ee509b31f2ad300b\n        /* \"contracts/Crowdfunding5.sol\":1752:1762  msg.sender */\n      caller\n        /* \"contracts/Crowdfunding5.sol\":1764:1773  msg.value */\n      callvalue\n        /* \"contracts/Crowdfunding5.sol\":1740:1774  FundProject(msg.sender, msg.value) */\n      mload(0x40)\n      tag_64\n      swap3\n      swap2\n      swap1\n      tag_65\n      jump\t// in\n    tag_64:\n      mload(0x40)\n      dup1\n      swap2\n      sub\n      swap1\n      log1\n        /* \"contracts/Crowdfunding5.sol\":1158:1781  function fundProject() public payable notOwner {... */\n      jump\t// out\n        /* \"contracts/Crowdfunding5.sol\":400:422  Project public project */\n    tag_14:\n      0x00\n      dup1\n      0x00\n      add\n      dup1\n      sload\n      tag_66\n      swap1\n      tag_67\n      jump\t// in\n    tag_66:\n      dup1\n      0x1f\n      add\n      0x20\n      dup1\n      swap2\n      div\n      mul\n      0x20\n      add\n      mload(0x40)\n      swap1\n      dup2\n      add\n      0x40\n      mstore\n      dup1\n      swap3\n      swap2\n      swap1\n      dup2\n      dup2\n      mstore\n      0x20\n      add\n      dup3\n      dup1\n      sload\n      tag_68\n      swap1\n      tag_67\n      jump\t// in\n    tag_68:\n      dup1\n      iszero\n      tag_69\n      jumpi\n      dup1\n      0x1f\n      lt\n      tag_70\n      jumpi\n      0x0100\n      dup1\n      dup4\n      sload\n      div\n      mul\n      dup4\n      mstore\n      swap2\n      0x20\n      add\n      swap2\n      jump(tag_69)\n    tag_70:\n      dup3\n      add\n      swap2\n      swap1\n      0x00\n      mstore\n      keccak256(0x00, 0x20)\n      swap1\n    tag_71:\n      dup2\n      sload\n      dup2\n      mstore\n      swap1\n      0x01\n      add\n      swap1\n      0x20\n      add\n      dup1\n      dup4\n      gt\n      tag_71\n      jumpi\n      dup3\n      swap1\n      sub\n      0x1f\n      and\n      dup3\n      add\n      swap2\n    tag_69:\n      pop\n      pop\n      pop\n      pop\n      pop\n      swap1\n      dup1\n      0x01\n      add\n      dup1\n      sload\n      tag_72\n      swap1\n      tag_67\n      jump\t// in\n    tag_72:\n      dup1\n      0x1f\n      add\n      0x20\n      dup1\n      swap2\n      div\n      mul\n      0x20\n      add\n      mload(0x40)\n      swap1\n      dup2\n      add\n      0x40\n      mstore\n      dup1\n      swap3\n      swap2\n      swap1\n      dup2\n      dup2\n      mstore\n      0x20\n      add\n      dup3\n      dup1\n      sload\n      tag_73\n      swap1\n      tag_67\n      jump\t// in\n    tag_73:\n      dup1\n      iszero\n      tag_74\n      jumpi\n      dup1\n      0x1f\n      lt\n      tag_75\n      jumpi\n      0x0100\n      dup1\n      dup4\n      sload\n      div\n      mul\n      dup4\n      mstore\n      swap2\n      0x20\n      add\n      swap2\n      jump(tag_74)\n    tag_75:\n      dup3\n      add\n      swap2\n      swap1\n      0x00\n      mstore\n      keccak256(0x00, 0x20)\n      swap1\n    tag_76:\n      dup2\n      sload\n      dup2\n      mstore\n      swap1\n      0x01\n      add\n      swap1\n      0x20\n      add\n      dup1\n      dup4\n      gt\n      tag_76\n      jumpi\n      dup3\n      swap1\n      sub\n      0x1f\n      and\n      dup3\n      add\n      swap2\n    tag_74:\n      pop\n      pop\n      pop\n      pop\n      pop\n      swap1\n      dup1\n      0x02\n      add\n      dup1\n      sload\n      tag_77\n      swap1\n      tag_67\n      jump\t// in\n    tag_77:\n      dup1\n      0x1f\n      add\n      0x20\n      dup1\n      swap2\n      div\n      mul\n      0x20\n      add\n      mload(0x40)\n      swap1\n      dup2\n      add\n      0x40\n      mstore\n      dup1\n      swap3\n      swap2\n      swap1\n      dup2\n      dup2\n      mstore\n      0x20\n      add\n      dup3\n      dup1\n      sload\n      tag_78\n      swap1\n      tag_67\n      jump\t// in\n    tag_78:\n      dup1\n      iszero\n      tag_79\n      jumpi\n      dup1\n      0x1f\n      lt\n      tag_80\n      jumpi\n      0x0100\n      dup1\n      dup4\n      sload\n      div\n      mul\n      dup4\n      mstore\n      swap2\n      0x20\n      add\n      swap2\n      jump(tag_79)\n    tag_80:\n      dup3\n      add\n      swap2\n      swap1\n      0x00\n      mstore\n      keccak256(0x00, 0x20)\n      swap1\n    tag_81:\n      dup2\n      sload\n      dup2\n      mstore\n      swap1\n      0x01\n      add\n      swap1\n      0x20\n      add\n      dup1\n      dup4\n      gt\n      tag_81\n      jumpi\n      dup3\n      swap1\n      sub\n      0x1f\n      and\n      dup3\n      add\n      swap2\n    tag_79:\n      pop\n      pop\n      pop\n      pop\n      pop\n      swap1\n      dup1\n      0x03\n      add\n      0x00\n      swap1\n      sload\n      swap1\n      0x0100\n      exp\n      swap1\n      div\n      0xffffffffffffffffffffffffffffffffffffffff\n      and\n      swap1\n      dup1\n      0x04\n      add\n      sload\n      swap1\n      dup1\n      0x05\n      add\n      dup1\n      sload\n      tag_82\n      swap1\n      tag_67\n      jump\t// in\n    tag_82:\n      dup1\n      0x1f\n      add\n      0x20\n      dup1\n      swap2\n      div\n      mul\n      0x20\n      add\n      mload(0x40)\n      swap1\n      dup2\n      add\n      0x40\n      mstore\n      dup1\n      swap3\n      swap2\n      swap1\n      dup2\n      dup2\n      mstore\n      0x20\n      add\n      dup3\n      dup1\n      sload\n      tag_83\n      swap1\n      tag_67\n      jump\t// in\n    tag_83:\n      dup1\n      iszero\n      tag_84\n      jumpi\n      dup1\n      0x1f\n      lt\n      tag_85\n      jumpi\n      0x0100\n      dup1\n      dup4\n      sload\n      div\n      mul\n      dup4\n      mstore\n      swap2\n      0x20\n      add\n      swap2\n      jump(tag_84)\n    tag_85:\n      dup3\n      add\n      swap2\n      swap1\n      0x00\n      mstore\n      keccak256(0x00, 0x20)\n      swap1\n    tag_86:\n      dup2\n      sload\n      dup2\n      mstore\n      swap1\n      0x01\n      add\n      swap1\n      0x20\n      add\n      dup1\n      dup4\n      gt\n      tag_86\n      jumpi\n      dup3\n      swap1\n      sub\n      0x1f\n      and\n      dup3\n      add\n      swap2\n    tag_84:\n      pop\n      pop\n      pop\n      pop\n      pop\n      swap1\n      dup1\n      0x06\n      add\n      sload\n      swap1\n      pop\n      dup8\n      jump\t// out\n        /* \"#utility.yul\":88:205   */\n    tag_88:\n        /* \"#utility.yul\":197:198   */\n      0x00\n        /* \"#utility.yul\":194:195   */\n      dup1\n        /* \"#utility.yul\":187:199   */\n      revert\n        /* \"#utility.yul\":211:328   */\n    tag_89:\n        /* \"#utility.yul\":320:321   */\n      0x00\n        /* \"#utility.yul\":317:318   */\n      dup1\n        /* \"#utility.yul\":310:322   */\n      revert\n        /* \"#utility.yul\":334:451   */\n    tag_90:\n        /* \"#utility.yul\":443:444   */\n      0x00\n        /* \"#utility.yul\":440:441   */\n      dup1\n        /* \"#utility.yul\":433:445   */\n      revert\n        /* \"#utility.yul\":457:574   */\n    tag_91:\n        /* \"#utility.yul\":566:567   */\n      0x00\n        /* \"#utility.yul\":563:564   */\n      dup1\n        /* \"#utility.yul\":556:568   */\n      revert\n        /* \"#utility.yul\":580:697   */\n    tag_92:\n        /* \"#utility.yul\":689:690   */\n      0x00\n        /* \"#utility.yul\":686:687   */\n      dup1\n        /* \"#utility.yul\":679:691   */\n      revert\n        /* \"#utility.yul\":717:1270   */\n    tag_93:\n        /* \"#utility.yul\":775:783   */\n      0x00\n        /* \"#utility.yul\":785:791   */\n      dup1\n        /* \"#utility.yul\":835:838   */\n      dup4\n        /* \"#utility.yul\":828:832   */\n      0x1f\n        /* \"#utility.yul\":820:826   */\n      dup5\n        /* \"#utility.yul\":816:833   */\n      add\n        /* \"#utility.yul\":812:839   */\n      slt\n        /* \"#utility.yul\":802:924   */\n      tag_156\n      jumpi\n        /* \"#utility.yul\":843:922   */\n      tag_157\n      tag_90\n      jump\t// in\n    tag_157:\n        /* \"#utility.yul\":802:924   */\n    tag_156:\n        /* \"#utility.yul\":956:962   */\n      dup3\n        /* \"#utility.yul\":943:963   */\n      calldataload\n        /* \"#utility.yul\":933:963   */\n      swap1\n      pop\n        /* \"#utility.yul\":986:1004   */\n      0xffffffffffffffff\n        /* \"#utility.yul\":978:984   */\n      dup2\n        /* \"#utility.yul\":975:1005   */\n      gt\n        /* \"#utility.yul\":972:1089   */\n      iszero\n      tag_158\n      jumpi\n        /* \"#utility.yul\":1008:1087   */\n      tag_159\n      tag_91\n      jump\t// in\n    tag_159:\n        /* \"#utility.yul\":972:1089   */\n    tag_158:\n        /* \"#utility.yul\":1122:1126   */\n      0x20\n        /* \"#utility.yul\":1114:1120   */\n      dup4\n        /* \"#utility.yul\":1110:1127   */\n      add\n        /* \"#utility.yul\":1098:1127   */\n      swap2\n      pop\n        /* \"#utility.yul\":1176:1179   */\n      dup4\n        /* \"#utility.yul\":1168:1172   */\n      0x01\n        /* \"#utility.yul\":1160:1166   */\n      dup3\n        /* \"#utility.yul\":1156:1173   */\n      mul\n        /* \"#utility.yul\":1146:1154   */\n      dup4\n        /* \"#utility.yul\":1142:1174   */\n      add\n        /* \"#utility.yul\":1139:1180   */\n      gt\n        /* \"#utility.yul\":1136:1264   */\n      iszero\n      tag_160\n      jumpi\n        /* \"#utility.yul\":1183:1262   */\n      tag_161\n      tag_92\n      jump\t// in\n    tag_161:\n        /* \"#utility.yul\":1136:1264   */\n    tag_160:\n        /* \"#utility.yul\":717:1270   */\n      swap3\n      pop\n      swap3\n      swap1\n      pop\n      jump\t// out\n        /* \"#utility.yul\":1276:1805   */\n    tag_8:\n        /* \"#utility.yul\":1347:1353   */\n      0x00\n        /* \"#utility.yul\":1355:1361   */\n      dup1\n        /* \"#utility.yul\":1404:1406   */\n      0x20\n        /* \"#utility.yul\":1392:1401   */\n      dup4\n        /* \"#utility.yul\":1383:1390   */\n      dup6\n        /* \"#utility.yul\":1379:1402   */\n      sub\n        /* \"#utility.yul\":1375:1407   */\n      slt\n        /* \"#utility.yul\":1372:1491   */\n      iszero\n      tag_163\n      jumpi\n        /* \"#utility.yul\":1410:1489   */\n      tag_164\n      tag_88\n      jump\t// in\n    tag_164:\n        /* \"#utility.yul\":1372:1491   */\n    tag_163:\n        /* \"#utility.yul\":1558:1559   */\n      0x00\n        /* \"#utility.yul\":1547:1556   */\n      dup4\n        /* \"#utility.yul\":1543:1560   */\n      add\n        /* \"#utility.yul\":1530:1561   */\n      calldataload\n        /* \"#utility.yul\":1588:1606   */\n      0xffffffffffffffff\n        /* \"#utility.yul\":1580:1586   */\n      dup2\n        /* \"#utility.yul\":1577:1607   */\n      gt\n        /* \"#utility.yul\":1574:1691   */\n      iszero\n      tag_165\n      jumpi\n        /* \"#utility.yul\":1610:1689   */\n      tag_166\n      tag_89\n      jump\t// in\n    tag_166:\n        /* \"#utility.yul\":1574:1691   */\n    tag_165:\n        /* \"#utility.yul\":1723:1788   */\n      tag_167\n        /* \"#utility.yul\":1780:1787   */\n      dup6\n        /* \"#utility.yul\":1771:1777   */\n      dup3\n        /* \"#utility.yul\":1760:1769   */\n      dup7\n        /* \"#utility.yul\":1756:1778   */\n      add\n        /* \"#utility.yul\":1723:1788   */\n      tag_93\n      jump\t// in\n    tag_167:\n        /* \"#utility.yul\":1705:1788   */\n      swap3\n      pop\n      swap3\n      pop\n        /* \"#utility.yul\":1501:1798   */\n      pop\n        /* \"#utility.yul\":1276:1805   */\n      swap3\n      pop\n      swap3\n      swap1\n      pop\n      jump\t// out\n        /* \"#utility.yul\":1811:1910   */\n    tag_94:\n        /* \"#utility.yul\":1863:1869   */\n      0x00\n        /* \"#utility.yul\":1897:1902   */\n      dup2\n        /* \"#utility.yul\":1891:1903   */\n      mload\n        /* \"#utility.yul\":1881:1903   */\n      swap1\n      pop\n        /* \"#utility.yul\":1811:1910   */\n      swap2\n      swap1\n      pop\n      jump\t// out\n        /* \"#utility.yul\":1916:2085   */\n    tag_95:\n        /* \"#utility.yul\":2000:2011   */\n      0x00\n        /* \"#utility.yul\":2034:2040   */\n      dup3\n        /* \"#utility.yul\":2029:2032   */\n      dup3\n        /* \"#utility.yul\":2022:2041   */\n      mstore\n        /* \"#utility.yul\":2074:2078   */\n      0x20\n        /* \"#utility.yul\":2069:2072   */\n      dup3\n        /* \"#utility.yul\":2065:2079   */\n      add\n        /* \"#utility.yul\":2050:2079   */\n      swap1\n      pop\n        /* \"#utility.yul\":1916:2085   */\n      swap3\n      swap2\n      pop\n      pop\n      jump\t// out\n        /* \"#utility.yul\":2091:2337   */\n    tag_96:\n        /* \"#utility.yul\":2172:2173   */\n      0x00\n        /* \"#utility.yul\":2182:2295   */\n    tag_171:\n        /* \"#utility.yul\":2196:2202   */\n      dup4\n        /* \"#utility.yul\":2193:2194   */\n      dup2\n        /* \"#utility.yul\":2190:2203   */\n      lt\n        /* \"#utility.yul\":2182:2295   */\n      iszero\n      tag_173\n      jumpi\n        /* \"#utility.yul\":2281:2282   */\n      dup1\n        /* \"#utility.yul\":2276:2279   */\n      dup3\n        /* \"#utility.yul\":2272:2283   */\n      add\n        /* \"#utility.yul\":2266:2284   */\n      mload\n        /* \"#utility.yul\":2262:2263   */\n      dup2\n        /* \"#utility.yul\":2257:2260   */\n      dup5\n        /* \"#utility.yul\":2253:2264   */\n      add\n        /* \"#utility.yul\":2246:2285   */\n      mstore\n        /* \"#utility.yul\":2218:2220   */\n      0x20\n        /* \"#utility.yul\":2215:2216   */\n      dup2\n        /* \"#utility.yul\":2211:2221   */\n      add\n        /* \"#utility.yul\":2206:2221   */\n      swap1\n      pop\n        /* \"#utility.yul\":2182:2295   */\n      jump(tag_171)\n    tag_173:\n        /* \"#utility.yul\":2329:2330   */\n      0x00\n        /* \"#utility.yul\":2320:2326   */\n      dup5\n        /* \"#utility.yul\":2315:2318   */\n      dup5\n        /* \"#utility.yul\":2311:2327   */\n      add\n        /* \"#utility.yul\":2304:2331   */\n      mstore\n        /* \"#utility.yul\":2153:2337   */\n      pop\n        /* \"#utility.yul\":2091:2337   */\n      pop\n      pop\n      pop\n      jump\t// out\n        /* \"#utility.yul\":2343:2445   */\n    tag_97:\n        /* \"#utility.yul\":2384:2390   */\n      0x00\n        /* \"#utility.yul\":2435:2437   */\n      0x1f\n        /* \"#utility.yul\":2431:2438   */\n      not\n        /* \"#utility.yul\":2426:2428   */\n      0x1f\n        /* \"#utility.yul\":2419:2424   */\n      dup4\n        /* \"#utility.yul\":2415:2429   */\n      add\n        /* \"#utility.yul\":2411:2439   */\n      and\n        /* \"#utility.yul\":2401:2439   */\n      swap1\n      pop\n        /* \"#utility.yul\":2343:2445   */\n      swap2\n      swap1\n      pop\n      jump\t// out\n        /* \"#utility.yul\":2451:2828   */\n    tag_98:\n        /* \"#utility.yul\":2539:2542   */\n      0x00\n        /* \"#utility.yul\":2567:2606   */\n      tag_176\n        /* \"#utility.yul\":2600:2605   */\n      dup3\n        /* \"#utility.yul\":2567:2606   */\n      tag_94\n      jump\t// in\n    tag_176:\n        /* \"#utility.yul\":2622:2693   */\n      tag_177\n        /* \"#utility.yul\":2686:2692   */\n      dup2\n        /* \"#utility.yul\":2681:2684   */\n      dup6\n        /* \"#utility.yul\":2622:2693   */\n      tag_95\n      jump\t// in\n    tag_177:\n        /* \"#utility.yul\":2615:2693   */\n      swap4\n      pop\n        /* \"#utility.yul\":2702:2767   */\n      tag_178\n        /* \"#utility.yul\":2760:2766   */\n      dup2\n        /* \"#utility.yul\":2755:2758   */\n      dup6\n        /* \"#utility.yul\":2748:2752   */\n      0x20\n        /* \"#utility.yul\":2741:2746   */\n      dup7\n        /* \"#utility.yul\":2737:2753   */\n      add\n        /* \"#utility.yul\":2702:2767   */\n      tag_96\n      jump\t// in\n    tag_178:\n        /* \"#utility.yul\":2792:2821   */\n      tag_179\n        /* \"#utility.yul\":2814:2820   */\n      dup2\n        /* \"#utility.yul\":2792:2821   */\n      tag_97\n      jump\t// in\n    tag_179:\n        /* \"#utility.yul\":2787:2790   */\n      dup5\n        /* \"#utility.yul\":2783:2822   */\n      add\n        /* \"#utility.yul\":2776:2822   */\n      swap2\n      pop\n        /* \"#utility.yul\":2543:2828   */\n      pop\n        /* \"#utility.yul\":2451:2828   */\n      swap3\n      swap2\n      pop\n      pop\n      jump\t// out\n        /* \"#utility.yul\":2834:2960   */\n    tag_99:\n        /* \"#utility.yul\":2871:2878   */\n      0x00\n        /* \"#utility.yul\":2911:2953   */\n      0xffffffffffffffffffffffffffffffffffffffff\n        /* \"#utility.yul\":2904:2909   */\n      dup3\n        /* \"#utility.yul\":2900:2954   */\n      and\n        /* \"#utility.yul\":2889:2954   */\n      swap1\n      pop\n        /* \"#utility.yul\":2834:2960   */\n      swap2\n      swap1\n      pop\n      jump\t// out\n        /* \"#utility.yul\":2966:3070   */\n    tag_100:\n        /* \"#utility.yul\":3011:3018   */\n      0x00\n        /* \"#utility.yul\":3040:3064   */\n      tag_182\n        /* \"#utility.yul\":3058:3063   */\n      dup3\n        /* \"#utility.yul\":3040:3064   */\n      tag_99\n      jump\t// in\n    tag_182:\n        /* \"#utility.yul\":3029:3064   */\n      swap1\n      pop\n        /* \"#utility.yul\":2966:3070   */\n      swap2\n      swap1\n      pop\n      jump\t// out\n        /* \"#utility.yul\":3076:3218   */\n    tag_101:\n        /* \"#utility.yul\":3179:3211   */\n      tag_184\n        /* \"#utility.yul\":3205:3210   */\n      dup2\n        /* \"#utility.yul\":3179:3211   */\n      tag_100\n      jump\t// in\n    tag_184:\n        /* \"#utility.yul\":3174:3177   */\n      dup3\n        /* \"#utility.yul\":3167:3212   */\n      mstore\n        /* \"#utility.yul\":3076:3218   */\n      pop\n      pop\n      jump\t// out\n        /* \"#utility.yul\":3224:3301   */\n    tag_102:\n        /* \"#utility.yul\":3261:3268   */\n      0x00\n        /* \"#utility.yul\":3290:3295   */\n      dup2\n        /* \"#utility.yul\":3279:3295   */\n      swap1\n      pop\n        /* \"#utility.yul\":3224:3301   */\n      swap2\n      swap1\n      pop\n      jump\t// out\n        /* \"#utility.yul\":3307:3425   */\n    tag_103:\n        /* \"#utility.yul\":3394:3418   */\n      tag_187\n        /* \"#utility.yul\":3412:3417   */\n      dup2\n        /* \"#utility.yul\":3394:3418   */\n      tag_102\n      jump\t// in\n    tag_187:\n        /* \"#utility.yul\":3389:3392   */\n      dup3\n        /* \"#utility.yul\":3382:3419   */\n      mstore\n        /* \"#utility.yul\":3307:3425   */\n      pop\n      pop\n      jump\t// out\n        /* \"#utility.yul\":3431:4713   */\n    tag_16:\n        /* \"#utility.yul\":3788:3792   */\n      0x00\n        /* \"#utility.yul\":3826:3829   */\n      0xe0\n        /* \"#utility.yul\":3815:3824   */\n      dup3\n        /* \"#utility.yul\":3811:3830   */\n      add\n        /* \"#utility.yul\":3803:3830   */\n      swap1\n      pop\n        /* \"#utility.yul\":3876:3885   */\n      dup2\n        /* \"#utility.yul\":3870:3874   */\n      dup2\n        /* \"#utility.yul\":3866:3886   */\n      sub\n        /* \"#utility.yul\":3862:3863   */\n      0x00\n        /* \"#utility.yul\":3851:3860   */\n      dup4\n        /* \"#utility.yul\":3847:3864   */\n      add\n        /* \"#utility.yul\":3840:3887   */\n      mstore\n        /* \"#utility.yul\":3904:3982   */\n      tag_189\n        /* \"#utility.yul\":3977:3981   */\n      dup2\n        /* \"#utility.yul\":3968:3974   */\n      dup11\n        /* \"#utility.yul\":3904:3982   */\n      tag_98\n      jump\t// in\n    tag_189:\n        /* \"#utility.yul\":3896:3982   */\n      swap1\n      pop\n        /* \"#utility.yul\":4029:4038   */\n      dup2\n        /* \"#utility.yul\":4023:4027   */\n      dup2\n        /* \"#utility.yul\":4019:4039   */\n      sub\n        /* \"#utility.yul\":4014:4016   */\n      0x20\n        /* \"#utility.yul\":4003:4012   */\n      dup4\n        /* \"#utility.yul\":3999:4017   */\n      add\n        /* \"#utility.yul\":3992:4040   */\n      mstore\n        /* \"#utility.yul\":4057:4135   */\n      tag_190\n        /* \"#utility.yul\":4130:4134   */\n      dup2\n        /* \"#utility.yul\":4121:4127   */\n      dup10\n        /* \"#utility.yul\":4057:4135   */\n      tag_98\n      jump\t// in\n    tag_190:\n        /* \"#utility.yul\":4049:4135   */\n      swap1\n      pop\n        /* \"#utility.yul\":4182:4191   */\n      dup2\n        /* \"#utility.yul\":4176:4180   */\n      dup2\n        /* \"#utility.yul\":4172:4192   */\n      sub\n        /* \"#utility.yul\":4167:4169   */\n      0x40\n        /* \"#utility.yul\":4156:4165   */\n      dup4\n        /* \"#utility.yul\":4152:4170   */\n      add\n        /* \"#utility.yul\":4145:4193   */\n      mstore\n        /* \"#utility.yul\":4210:4288   */\n      tag_191\n        /* \"#utility.yul\":4283:4287   */\n      dup2\n        /* \"#utility.yul\":4274:4280   */\n      dup9\n        /* \"#utility.yul\":4210:4288   */\n      tag_98\n      jump\t// in\n    tag_191:\n        /* \"#utility.yul\":4202:4288   */\n      swap1\n      pop\n        /* \"#utility.yul\":4298:4386   */\n      tag_192\n        /* \"#utility.yul\":4382:4384   */\n      0x60\n        /* \"#utility.yul\":4371:4380   */\n      dup4\n        /* \"#utility.yul\":4367:4385   */\n      add\n        /* \"#utility.yul\":4358:4364   */\n      dup8\n        /* \"#utility.yul\":4298:4386   */\n      tag_101\n      jump\t// in\n    tag_192:\n        /* \"#utility.yul\":4396:4469   */\n      tag_193\n        /* \"#utility.yul\":4464:4467   */\n      0x80\n        /* \"#utility.yul\":4453:4462   */\n      dup4\n        /* \"#utility.yul\":4449:4468   */\n      add\n        /* \"#utility.yul\":4440:4446   */\n      dup7\n        /* \"#utility.yul\":4396:4469   */\n      tag_103\n      jump\t// in\n    tag_193:\n        /* \"#utility.yul\":4517:4526   */\n      dup2\n        /* \"#utility.yul\":4511:4515   */\n      dup2\n        /* \"#utility.yul\":4507:4527   */\n      sub\n        /* \"#utility.yul\":4501:4504   */\n      0xa0\n        /* \"#utility.yul\":4490:4499   */\n      dup4\n        /* \"#utility.yul\":4486:4505   */\n      add\n        /* \"#utility.yul\":4479:4528   */\n      mstore\n        /* \"#utility.yul\":4545:4623   */\n      tag_194\n        /* \"#utility.yul\":4618:4622   */\n      dup2\n        /* \"#utility.yul\":4609:4615   */\n      dup6\n        /* \"#utility.yul\":4545:4623   */\n      tag_98\n      jump\t// in\n    tag_194:\n        /* \"#utility.yul\":4537:4623   */\n      swap1\n      pop\n        /* \"#utility.yul\":4633:4706   */\n      tag_195\n        /* \"#utility.yul\":4701:4704   */\n      0xc0\n        /* \"#utility.yul\":4690:4699   */\n      dup4\n        /* \"#utility.yul\":4686:4705   */\n      add\n        /* \"#utility.yul\":4677:4683   */\n      dup5\n        /* \"#utility.yul\":4633:4706   */\n      tag_103\n      jump\t// in\n    tag_195:\n        /* \"#utility.yul\":3431:4713   */\n      swap9\n      swap8\n      pop\n      pop\n      pop\n      pop\n      pop\n      pop\n      pop\n      pop\n      jump\t// out\n        /* \"#utility.yul\":4719:4949   */\n    tag_104:\n        /* \"#utility.yul\":4859:4893   */\n      0x4f6e6c7920746865206f776e65722063616e206368616e676520746865207072\n        /* \"#utility.yul\":4855:4856   */\n      0x00\n        /* \"#utility.yul\":4847:4853   */\n      dup3\n        /* \"#utility.yul\":4843:4857   */\n      add\n        /* \"#utility.yul\":4836:4894   */\n      mstore\n        /* \"#utility.yul\":4928:4941   */\n      0x6f6a656374207374617465000000000000000000000000000000000000000000\n        /* \"#utility.yul\":4923:4925   */\n      0x20\n        /* \"#utility.yul\":4915:4921   */\n      dup3\n        /* \"#utility.yul\":4911:4926   */\n      add\n        /* \"#utility.yul\":4904:4942   */\n      mstore\n        /* \"#utility.yul\":4719:4949   */\n      pop\n      jump\t// out\n        /* \"#utility.yul\":4955:5321   */\n    tag_105:\n        /* \"#utility.yul\":5097:5100   */\n      0x00\n        /* \"#utility.yul\":5118:5185   */\n      tag_198\n        /* \"#utility.yul\":5182:5184   */\n      0x2b\n        /* \"#utility.yul\":5177:5180   */\n      dup4\n        /* \"#utility.yul\":5118:5185   */\n      tag_95\n      jump\t// in\n    tag_198:\n        /* \"#utility.yul\":5111:5185   */\n      swap2\n      pop\n        /* \"#utility.yul\":5194:5287   */\n      tag_199\n        /* \"#utility.yul\":5283:5286   */\n      dup3\n        /* \"#utility.yul\":5194:5287   */\n      tag_104\n      jump\t// in\n    tag_199:\n        /* \"#utility.yul\":5312:5314   */\n      0x40\n        /* \"#utility.yul\":5307:5310   */\n      dup3\n        /* \"#utility.yul\":5303:5315   */\n      add\n        /* \"#utility.yul\":5296:5315   */\n      swap1\n      pop\n        /* \"#utility.yul\":4955:5321   */\n      swap2\n      swap1\n      pop\n      jump\t// out\n        /* \"#utility.yul\":5327:5746   */\n    tag_20:\n        /* \"#utility.yul\":5493:5497   */\n      0x00\n        /* \"#utility.yul\":5531:5533   */\n      0x20\n        /* \"#utility.yul\":5520:5529   */\n      dup3\n        /* \"#utility.yul\":5516:5534   */\n      add\n        /* \"#utility.yul\":5508:5534   */\n      swap1\n      pop\n        /* \"#utility.yul\":5580:5589   */\n      dup2\n        /* \"#utility.yul\":5574:5578   */\n      dup2\n        /* \"#utility.yul\":5570:5590   */\n      sub\n        /* \"#utility.yul\":5566:5567   */\n      0x00\n        /* \"#utility.yul\":5555:5564   */\n      dup4\n        /* \"#utility.yul\":5551:5568   */\n      add\n        /* \"#utility.yul\":5544:5591   */\n      mstore\n        /* \"#utility.yul\":5608:5739   */\n      tag_201\n        /* \"#utility.yul\":5734:5738   */\n      dup2\n        /* \"#utility.yul\":5608:5739   */\n      tag_105\n      jump\t// in\n    tag_201:\n        /* \"#utility.yul\":5600:5739   */\n      swap1\n      pop\n        /* \"#utility.yul\":5327:5746   */\n      swap2\n      swap1\n      pop\n      jump\t// out\n        /* \"#utility.yul\":5752:5900   */\n    tag_106:\n        /* \"#utility.yul\":5854:5865   */\n      0x00\n        /* \"#utility.yul\":5891:5894   */\n      dup2\n        /* \"#utility.yul\":5876:5894   */\n      swap1\n      pop\n        /* \"#utility.yul\":5752:5900   */\n      swap3\n      swap2\n      pop\n      pop\n      jump\t// out\n        /* \"#utility.yul\":5906:6062   */\n    tag_107:\n        /* \"#utility.yul\":6046:6054   */\n      0x4f70656e65640000000000000000000000000000000000000000000000000000\n        /* \"#utility.yul\":6042:6043   */\n      0x00\n        /* \"#utility.yul\":6034:6040   */\n      dup3\n        /* \"#utility.yul\":6030:6044   */\n      add\n        /* \"#utility.yul\":6023:6055   */\n      mstore\n        /* \"#utility.yul\":5906:6062   */\n      pop\n      jump\t// out\n        /* \"#utility.yul\":6068:6468   */\n    tag_108:\n        /* \"#utility.yul\":6228:6231   */\n      0x00\n        /* \"#utility.yul\":6249:6333   */\n      tag_205\n        /* \"#utility.yul\":6331:6332   */\n      0x06\n        /* \"#utility.yul\":6326:6329   */\n      dup4\n        /* \"#utility.yul\":6249:6333   */\n      tag_106\n      jump\t// in\n    tag_205:\n        /* \"#utility.yul\":6242:6333   */\n      swap2\n      pop\n        /* \"#utility.yul\":6342:6435   */\n      tag_206\n        /* \"#utility.yul\":6431:6434   */\n      dup3\n        /* \"#utility.yul\":6342:6435   */\n      tag_107\n      jump\t// in\n    tag_206:\n        /* \"#utility.yul\":6460:6461   */\n      0x06\n        /* \"#utility.yul\":6455:6458   */\n      dup3\n        /* \"#utility.yul\":6451:6462   */\n      add\n        /* \"#utility.yul\":6444:6462   */\n      swap1\n      pop\n        /* \"#utility.yul\":6068:6468   */\n      swap2\n      swap1\n      pop\n      jump\t// out\n        /* \"#utility.yul\":6474:6855   */\n    tag_23:\n        /* \"#utility.yul\":6659:6662   */\n      0x00\n        /* \"#utility.yul\":6681:6829   */\n      tag_208\n        /* \"#utility.yul\":6825:6828   */\n      dup3\n        /* \"#utility.yul\":6681:6829   */\n      tag_108\n      jump\t// in\n    tag_208:\n        /* \"#utility.yul\":6674:6829   */\n      swap2\n      pop\n        /* \"#utility.yul\":6846:6849   */\n      dup2\n        /* \"#utility.yul\":6839:6849   */\n      swap1\n      pop\n        /* \"#utility.yul\":6474:6855   */\n      swap2\n      swap1\n      pop\n      jump\t// out\n        /* \"#utility.yul\":6861:7007   */\n    tag_109:\n        /* \"#utility.yul\":6958:6964   */\n      dup3\n        /* \"#utility.yul\":6953:6956   */\n      dup2\n        /* \"#utility.yul\":6948:6951   */\n      dup4\n        /* \"#utility.yul\":6935:6965   */\n      calldatacopy\n        /* \"#utility.yul\":6999:7000   */\n      0x00\n        /* \"#utility.yul\":6990:6996   */\n      dup4\n        /* \"#utility.yul\":6985:6988   */\n      dup4\n        /* \"#utility.yul\":6981:6997   */\n      add\n        /* \"#utility.yul\":6974:7001   */\n      mstore\n        /* \"#utility.yul\":6861:7007   */\n      pop\n      pop\n      pop\n      jump\t// out\n        /* \"#utility.yul\":7037:7367   */\n    tag_110:\n        /* \"#utility.yul\":7153:7156   */\n      0x00\n        /* \"#utility.yul\":7174:7263   */\n      tag_211\n        /* \"#utility.yul\":7256:7262   */\n      dup4\n        /* \"#utility.yul\":7251:7254   */\n      dup6\n        /* \"#utility.yul\":7174:7263   */\n      tag_106\n      jump\t// in\n    tag_211:\n        /* \"#utility.yul\":7167:7263   */\n      swap4\n      pop\n        /* \"#utility.yul\":7273:7329   */\n      tag_212\n        /* \"#utility.yul\":7322:7328   */\n      dup4\n        /* \"#utility.yul\":7317:7320   */\n      dup6\n        /* \"#utility.yul\":7310:7315   */\n      dup5\n        /* \"#utility.yul\":7273:7329   */\n      tag_109\n      jump\t// in\n    tag_212:\n        /* \"#utility.yul\":7354:7360   */\n      dup3\n        /* \"#utility.yul\":7349:7352   */\n      dup5\n        /* \"#utility.yul\":7345:7361   */\n      add\n        /* \"#utility.yul\":7338:7361   */\n      swap1\n      pop\n        /* \"#utility.yul\":7037:7367   */\n      swap4\n      swap3\n      pop\n      pop\n      pop\n      jump\t// out\n        /* \"#utility.yul\":7373:7668   */\n    tag_25:\n        /* \"#utility.yul\":7515:7518   */\n      0x00\n        /* \"#utility.yul\":7537:7642   */\n      tag_214\n        /* \"#utility.yul\":7638:7641   */\n      dup3\n        /* \"#utility.yul\":7629:7635   */\n      dup5\n        /* \"#utility.yul\":7621:7627   */\n      dup7\n        /* \"#utility.yul\":7537:7642   */\n      tag_110\n      jump\t// in\n    tag_214:\n        /* \"#utility.yul\":7530:7642   */\n      swap2\n      pop\n        /* \"#utility.yul\":7659:7662   */\n      dup2\n        /* \"#utility.yul\":7652:7662   */\n      swap1\n      pop\n        /* \"#utility.yul\":7373:7668   */\n      swap4\n      swap3\n      pop\n      pop\n      pop\n      jump\t// out\n        /* \"#utility.yul\":7674:7830   */\n    tag_111:\n        /* \"#utility.yul\":7814:7822   */\n      0x436c6f7365640000000000000000000000000000000000000000000000000000\n        /* \"#utility.yul\":7810:7811   */\n      0x00\n        /* \"#utility.yul\":7802:7808   */\n      dup3\n        /* \"#utility.yul\":7798:7812   */\n      add\n        /* \"#utility.yul\":7791:7823   */\n      mstore\n        /* \"#utility.yul\":7674:7830   */\n      pop\n      jump\t// out\n        /* \"#utility.yul\":7836:8236   */\n    tag_112:\n        /* \"#utility.yul\":7996:7999   */\n      0x00\n        /* \"#utility.yul\":8017:8101   */\n      tag_217\n        /* \"#utility.yul\":8099:8100   */\n      0x06\n        /* \"#utility.yul\":8094:8097   */\n      dup4\n        /* \"#utility.yul\":8017:8101   */\n      tag_106\n      jump\t// in\n    tag_217:\n        /* \"#utility.yul\":8010:8101   */\n      swap2\n      pop\n        /* \"#utility.yul\":8110:8203   */\n      tag_218\n        /* \"#utility.yul\":8199:8202   */\n      dup3\n        /* \"#utility.yul\":8110:8203   */\n      tag_111\n      jump\t// in\n    tag_218:\n        /* \"#utility.yul\":8228:8229   */\n      0x06\n        /* \"#utility.yul\":8223:8226   */\n      dup3\n        /* \"#utility.yul\":8219:8230   */\n      add\n        /* \"#utility.yul\":8212:8230   */\n      swap1\n      pop\n        /* \"#utility.yul\":7836:8236   */\n      swap2\n      swap1\n      pop\n      jump\t// out\n        /* \"#utility.yul\":8242:8623   */\n    tag_28:\n        /* \"#utility.yul\":8427:8430   */\n      0x00\n        /* \"#utility.yul\":8449:8597   */\n      tag_220\n        /* \"#utility.yul\":8593:8596   */\n      dup3\n        /* \"#utility.yul\":8449:8597   */\n      tag_112\n      jump\t// in\n    tag_220:\n        /* \"#utility.yul\":8442:8597   */\n      swap2\n      pop\n        /* \"#utility.yul\":8614:8617   */\n      dup2\n        /* \"#utility.yul\":8607:8617   */\n      swap1\n      pop\n        /* \"#utility.yul\":8242:8623   */\n      swap2\n      swap1\n      pop\n      jump\t// out\n        /* \"#utility.yul\":8629:8809   */\n    tag_113:\n        /* \"#utility.yul\":8769:8801   */\n      0x53746174654e6f74446566696e65643a20496e76616c69642073746174650000\n        /* \"#utility.yul\":8765:8766   */\n      0x00\n        /* \"#utility.yul\":8757:8763   */\n      dup3\n        /* \"#utility.yul\":8753:8767   */\n      add\n        /* \"#utility.yul\":8746:8802   */\n      mstore\n        /* \"#utility.yul\":8629:8809   */\n      pop\n      jump\t// out\n        /* \"#utility.yul\":8815:9181   */\n    tag_114:\n        /* \"#utility.yul\":8957:8960   */\n      0x00\n        /* \"#utility.yul\":8978:9045   */\n      tag_223\n        /* \"#utility.yul\":9042:9044   */\n      0x1e\n        /* \"#utility.yul\":9037:9040   */\n      dup4\n        /* \"#utility.yul\":8978:9045   */\n      tag_95\n      jump\t// in\n    tag_223:\n        /* \"#utility.yul\":8971:9045   */\n      swap2\n      pop\n        /* \"#utility.yul\":9054:9147   */\n      tag_224\n        /* \"#utility.yul\":9143:9146   */\n      dup3\n        /* \"#utility.yul\":9054:9147   */\n      tag_113\n      jump\t// in\n    tag_224:\n        /* \"#utility.yul\":9172:9174   */\n      0x20\n        /* \"#utility.yul\":9167:9170   */\n      dup3\n        /* \"#utility.yul\":9163:9175   */\n      add\n        /* \"#utility.yul\":9156:9175   */\n      swap1\n      pop\n        /* \"#utility.yul\":8815:9181   */\n      swap2\n      swap1\n      pop\n      jump\t// out\n        /* \"#utility.yul\":9187:9606   */\n    tag_32:\n        /* \"#utility.yul\":9353:9357   */\n      0x00\n        /* \"#utility.yul\":9391:9393   */\n      0x20\n        /* \"#utility.yul\":9380:9389   */\n      dup3\n        /* \"#utility.yul\":9376:9394   */\n      add\n        /* \"#utility.yul\":9368:9394   */\n      swap1\n      pop\n        /* \"#utility.yul\":9440:9449   */\n      dup2\n        /* \"#utility.yul\":9434:9438   */\n      dup2\n        /* \"#utility.yul\":9430:9450   */\n      sub\n        /* \"#utility.yul\":9426:9427   */\n      0x00\n        /* \"#utility.yul\":9415:9424   */\n      dup4\n        /* \"#utility.yul\":9411:9428   */\n      add\n        /* \"#utility.yul\":9404:9451   */\n      mstore\n        /* \"#utility.yul\":9468:9599   */\n      tag_226\n        /* \"#utility.yul\":9594:9598   */\n      dup2\n        /* \"#utility.yul\":9468:9599   */\n      tag_114\n      jump\t// in\n    tag_226:\n        /* \"#utility.yul\":9460:9599   */\n      swap1\n      pop\n        /* \"#utility.yul\":9187:9606   */\n      swap2\n      swap1\n      pop\n      jump\t// out\n        /* \"#utility.yul\":9612:9792   */\n    tag_115:\n        /* \"#utility.yul\":9660:9737   */\n      0x4e487b7100000000000000000000000000000000000000000000000000000000\n        /* \"#utility.yul\":9657:9658   */\n      0x00\n        /* \"#utility.yul\":9650:9738   */\n      mstore\n        /* \"#utility.yul\":9757:9761   */\n      0x22\n        /* \"#utility.yul\":9754:9755   */\n      0x04\n        /* \"#utility.yul\":9747:9762   */\n      mstore\n        /* \"#utility.yul\":9781:9785   */\n      0x24\n        /* \"#utility.yul\":9778:9779   */\n      0x00\n        /* \"#utility.yul\":9771:9786   */\n      revert\n        /* \"#utility.yul\":9798:10118   */\n    tag_67:\n        /* \"#utility.yul\":9842:9848   */\n      0x00\n        /* \"#utility.yul\":9879:9880   */\n      0x02\n        /* \"#utility.yul\":9873:9877   */\n      dup3\n        /* \"#utility.yul\":9869:9881   */\n      div\n        /* \"#utility.yul\":9859:9881   */\n      swap1\n      pop\n        /* \"#utility.yul\":9926:9927   */\n      0x01\n        /* \"#utility.yul\":9920:9924   */\n      dup3\n        /* \"#utility.yul\":9916:9928   */\n      and\n        /* \"#utility.yul\":9947:9965   */\n      dup1\n        /* \"#utility.yul\":9937:10018   */\n      tag_229\n      jumpi\n        /* \"#utility.yul\":10003:10007   */\n      0x7f\n        /* \"#utility.yul\":9995:10001   */\n      dup3\n        /* \"#utility.yul\":9991:10008   */\n      and\n        /* \"#utility.yul\":9981:10008   */\n      swap2\n      pop\n        /* \"#utility.yul\":9937:10018   */\n    tag_229:\n        /* \"#utility.yul\":10065:10067   */\n      0x20\n        /* \"#utility.yul\":10057:10063   */\n      dup3\n        /* \"#utility.yul\":10054:10068   */\n      lt\n        /* \"#utility.yul\":10034:10052   */\n      dup2\n        /* \"#utility.yul\":10031:10069   */\n      sub\n        /* \"#utility.yul\":10028:10112   */\n      tag_230\n      jumpi\n        /* \"#utility.yul\":10084:10102   */\n      tag_231\n      tag_115\n      jump\t// in\n    tag_231:\n        /* \"#utility.yul\":10028:10112   */\n    tag_230:\n        /* \"#utility.yul\":9849:10118   */\n      pop\n        /* \"#utility.yul\":9798:10118   */\n      swap2\n      swap1\n      pop\n      jump\t// out\n        /* \"#utility.yul\":10124:10265   */\n    tag_116:\n        /* \"#utility.yul\":10173:10177   */\n      0x00\n        /* \"#utility.yul\":10196:10199   */\n      dup2\n        /* \"#utility.yul\":10188:10199   */\n      swap1\n      pop\n        /* \"#utility.yul\":10219:10222   */\n      dup2\n        /* \"#utility.yul\":10216:10217   */\n      0x00\n        /* \"#utility.yul\":10209:10223   */\n      mstore\n        /* \"#utility.yul\":10253:10257   */\n      0x20\n        /* \"#utility.yul\":10250:10251   */\n      0x00\n        /* \"#utility.yul\":10240:10258   */\n      keccak256\n        /* \"#utility.yul\":10232:10258   */\n      swap1\n      pop\n        /* \"#utility.yul\":10124:10265   */\n      swap2\n      swap1\n      pop\n      jump\t// out\n        /* \"#utility.yul\":10295:11169   */\n    tag_117:\n        /* \"#utility.yul\":10398:10401   */\n      0x00\n        /* \"#utility.yul\":10435:10440   */\n      dup2\n        /* \"#utility.yul\":10429:10441   */\n      sload\n        /* \"#utility.yul\":10464:10500   */\n      tag_234\n        /* \"#utility.yul\":10490:10499   */\n      dup2\n        /* \"#utility.yul\":10464:10500   */\n      tag_67\n      jump\t// in\n    tag_234:\n        /* \"#utility.yul\":10516:10605   */\n      tag_235\n        /* \"#utility.yul\":10598:10604   */\n      dup2\n        /* \"#utility.yul\":10593:10596   */\n      dup7\n        /* \"#utility.yul\":10516:10605   */\n      tag_106\n      jump\t// in\n    tag_235:\n        /* \"#utility.yul\":10509:10605   */\n      swap5\n      pop\n        /* \"#utility.yul\":10636:10637   */\n      0x01\n        /* \"#utility.yul\":10625:10634   */\n      dup3\n        /* \"#utility.yul\":10621:10638   */\n      and\n        /* \"#utility.yul\":10652:10653   */\n      0x00\n        /* \"#utility.yul\":10647:10813   */\n      dup2\n      eq\n      tag_237\n      jumpi\n        /* \"#utility.yul\":10827:10828   */\n      0x01\n        /* \"#utility.yul\":10822:11163   */\n      dup2\n      eq\n      tag_238\n      jumpi\n        /* \"#utility.yul\":10614:11163   */\n      jump(tag_236)\n        /* \"#utility.yul\":10647:10813   */\n    tag_237:\n        /* \"#utility.yul\":10731:10735   */\n      0xff\n        /* \"#utility.yul\":10727:10736   */\n      not\n        /* \"#utility.yul\":10716:10725   */\n      dup4\n        /* \"#utility.yul\":10712:10737   */\n      and\n        /* \"#utility.yul\":10707:10710   */\n      dup7\n        /* \"#utility.yul\":10700:10738   */\n      mstore\n        /* \"#utility.yul\":10793:10799   */\n      dup2\n        /* \"#utility.yul\":10786:10800   */\n      iszero\n        /* \"#utility.yul\":10779:10801   */\n      iszero\n        /* \"#utility.yul\":10771:10777   */\n      dup3\n        /* \"#utility.yul\":10767:10802   */\n      mul\n        /* \"#utility.yul\":10762:10765   */\n      dup7\n        /* \"#utility.yul\":10758:10803   */\n      add\n        /* \"#utility.yul\":10751:10803   */\n      swap4\n      pop\n        /* \"#utility.yul\":10647:10813   */\n      jump(tag_236)\n        /* \"#utility.yul\":10822:11163   */\n    tag_238:\n        /* \"#utility.yul\":10889:10927   */\n      tag_239\n        /* \"#utility.yul\":10921:10926   */\n      dup6\n        /* \"#utility.yul\":10889:10927   */\n      tag_116\n      jump\t// in\n    tag_239:\n        /* \"#utility.yul\":10949:10950   */\n      0x00\n        /* \"#utility.yul\":10963:11117   */\n    tag_240:\n        /* \"#utility.yul\":10977:10983   */\n      dup4\n        /* \"#utility.yul\":10974:10975   */\n      dup2\n        /* \"#utility.yul\":10971:10984   */\n      lt\n        /* \"#utility.yul\":10963:11117   */\n      iszero\n      tag_242\n      jumpi\n        /* \"#utility.yul\":11051:11058   */\n      dup2\n        /* \"#utility.yul\":11045:11059   */\n      sload\n        /* \"#utility.yul\":11041:11042   */\n      dup2\n        /* \"#utility.yul\":11036:11039   */\n      dup10\n        /* \"#utility.yul\":11032:11043   */\n      add\n        /* \"#utility.yul\":11025:11060   */\n      mstore\n        /* \"#utility.yul\":11101:11102   */\n      0x01\n        /* \"#utility.yul\":11092:11099   */\n      dup3\n        /* \"#utility.yul\":11088:11103   */\n      add\n        /* \"#utility.yul\":11077:11103   */\n      swap2\n      pop\n        /* \"#utility.yul\":10999:11003   */\n      0x20\n        /* \"#utility.yul\":10996:10997   */\n      dup2\n        /* \"#utility.yul\":10992:11004   */\n      add\n        /* \"#utility.yul\":10987:11004   */\n      swap1\n      pop\n        /* \"#utility.yul\":10963:11117   */\n      jump(tag_240)\n    tag_242:\n        /* \"#utility.yul\":11146:11152   */\n      dup4\n        /* \"#utility.yul\":11141:11144   */\n      dup9\n        /* \"#utility.yul\":11137:11153   */\n      add\n        /* \"#utility.yul\":11130:11153   */\n      swap6\n      pop\n        /* \"#utility.yul\":10829:11163   */\n      pop\n      pop\n        /* \"#utility.yul\":10614:11163   */\n    tag_236:\n      pop\n        /* \"#utility.yul\":10402:11169   */\n      pop\n      pop\n        /* \"#utility.yul\":10295:11169   */\n      swap3\n      swap2\n      pop\n      pop\n      jump\t// out\n        /* \"#utility.yul\":11175:11444   */\n    tag_34:\n        /* \"#utility.yul\":11304:11307   */\n      0x00\n        /* \"#utility.yul\":11326:11418   */\n      tag_244\n        /* \"#utility.yul\":11414:11417   */\n      dup3\n        /* \"#utility.yul\":11405:11411   */\n      dup5\n        /* \"#utility.yul\":11326:11418   */\n      tag_117\n      jump\t// in\n    tag_244:\n        /* \"#utility.yul\":11319:11418   */\n      swap2\n      pop\n        /* \"#utility.yul\":11435:11438   */\n      dup2\n        /* \"#utility.yul\":11428:11438   */\n      swap1\n      pop\n        /* \"#utility.yul\":11175:11444   */\n      swap3\n      swap2\n      pop\n      pop\n      jump\t// out\n        /* \"#utility.yul\":11450:11739   */\n    tag_118:\n        /* \"#utility.yul\":11590:11624   */\n      0x53746174654e6f74446566696e65643a204e6577207374617465206d75737420\n        /* \"#utility.yul\":11586:11587   */\n      0x00\n        /* \"#utility.yul\":11578:11584   */\n      dup3\n        /* \"#utility.yul\":11574:11588   */\n      add\n        /* \"#utility.yul\":11567:11625   */\n      mstore\n        /* \"#utility.yul\":11659:11693   */\n      0x626520646966666572656e742066726f6d207468652063757272656e74206f6e\n        /* \"#utility.yul\":11654:11656   */\n      0x20\n        /* \"#utility.yul\":11646:11652   */\n      dup3\n        /* \"#utility.yul\":11642:11657   */\n      add\n        /* \"#utility.yul\":11635:11694   */\n      mstore\n        /* \"#utility.yul\":11728:11731   */\n      0x6500000000000000000000000000000000000000000000000000000000000000\n        /* \"#utility.yul\":11723:11725   */\n      0x40\n        /* \"#utility.yul\":11715:11721   */\n      dup3\n        /* \"#utility.yul\":11711:11726   */\n      add\n        /* \"#utility.yul\":11704:11732   */\n      mstore\n        /* \"#utility.yul\":11450:11739   */\n      pop\n      jump\t// out\n        /* \"#utility.yul\":11745:12111   */\n    tag_119:\n        /* \"#utility.yul\":11887:11890   */\n      0x00\n        /* \"#utility.yul\":11908:11975   */\n      tag_247\n        /* \"#utility.yul\":11972:11974   */\n      0x41\n        /* \"#utility.yul\":11967:11970   */\n      dup4\n        /* \"#utility.yul\":11908:11975   */\n      tag_95\n      jump\t// in\n    tag_247:\n        /* \"#utility.yul\":11901:11975   */\n      swap2\n      pop\n        /* \"#utility.yul\":11984:12077   */\n      tag_248\n        /* \"#utility.yul\":12073:12076   */\n      dup3\n        /* \"#utility.yul\":11984:12077   */\n      tag_118\n      jump\t// in\n    tag_248:\n        /* \"#utility.yul\":12102:12104   */\n      0x60\n        /* \"#utility.yul\":12097:12100   */\n      dup3\n        /* \"#utility.yul\":12093:12105   */\n      add\n        /* \"#utility.yul\":12086:12105   */\n      swap1\n      pop\n        /* \"#utility.yul\":11745:12111   */\n      swap2\n      swap1\n      pop\n      jump\t// out\n        /* \"#utility.yul\":12117:12536   */\n    tag_38:\n        /* \"#utility.yul\":12283:12287   */\n      0x00\n        /* \"#utility.yul\":12321:12323   */\n      0x20\n        /* \"#utility.yul\":12310:12319   */\n      dup3\n        /* \"#utility.yul\":12306:12324   */\n      add\n        /* \"#utility.yul\":12298:12324   */\n      swap1\n      pop\n        /* \"#utility.yul\":12370:12379   */\n      dup2\n        /* \"#utility.yul\":12364:12368   */\n      dup2\n        /* \"#utility.yul\":12360:12380   */\n      sub\n        /* \"#utility.yul\":12356:12357   */\n      0x00\n        /* \"#utility.yul\":12345:12354   */\n      dup4\n        /* \"#utility.yul\":12341:12358   */\n      add\n        /* \"#utility.yul\":12334:12381   */\n      mstore\n        /* \"#utility.yul\":12398:12529   */\n      tag_250\n        /* \"#utility.yul\":12524:12528   */\n      dup2\n        /* \"#utility.yul\":12398:12529   */\n      tag_119\n      jump\t// in\n    tag_250:\n        /* \"#utility.yul\":12390:12529   */\n      swap1\n      pop\n        /* \"#utility.yul\":12117:12536   */\n      swap2\n      swap1\n      pop\n      jump\t// out\n        /* \"#utility.yul\":12542:12639   */\n    tag_120:\n        /* \"#utility.yul\":12601:12607   */\n      0x00\n        /* \"#utility.yul\":12629:12632   */\n      dup3\n        /* \"#utility.yul\":12619:12632   */\n      swap1\n      pop\n        /* \"#utility.yul\":12542:12639   */\n      swap3\n      swap2\n      pop\n      pop\n      jump\t// out\n        /* \"#utility.yul\":12645:12825   */\n    tag_121:\n        /* \"#utility.yul\":12693:12770   */\n      0x4e487b7100000000000000000000000000000000000000000000000000000000\n        /* \"#utility.yul\":12690:12691   */\n      0x00\n        /* \"#utility.yul\":12683:12771   */\n      mstore\n        /* \"#utility.yul\":12790:12794   */\n      0x41\n        /* \"#utility.yul\":12787:12788   */\n      0x04\n        /* \"#utility.yul\":12780:12795   */\n      mstore\n        /* \"#utility.yul\":12814:12818   */\n      0x24\n        /* \"#utility.yul\":12811:12812   */\n      0x00\n        /* \"#utility.yul\":12804:12819   */\n      revert\n        /* \"#utility.yul\":12831:12924   */\n    tag_122:\n        /* \"#utility.yul\":12868:12874   */\n      0x00\n        /* \"#utility.yul\":12915:12917   */\n      0x20\n        /* \"#utility.yul\":12910:12912   */\n      0x1f\n        /* \"#utility.yul\":12903:12908   */\n      dup4\n        /* \"#utility.yul\":12899:12913   */\n      add\n        /* \"#utility.yul\":12895:12918   */\n      div\n        /* \"#utility.yul\":12885:12918   */\n      swap1\n      pop\n        /* \"#utility.yul\":12831:12924   */\n      swap2\n      swap1\n      pop\n      jump\t// out\n        /* \"#utility.yul\":12930:13037   */\n    tag_123:\n        /* \"#utility.yul\":12974:12982   */\n      0x00\n        /* \"#utility.yul\":13024:13029   */\n      dup3\n        /* \"#utility.yul\":13018:13022   */\n      dup3\n        /* \"#utility.yul\":13014:13030   */\n      shl\n        /* \"#utility.yul\":12993:13030   */\n      swap1\n      pop\n        /* \"#utility.yul\":12930:13037   */\n      swap3\n      swap2\n      pop\n      pop\n      jump\t// out\n        /* \"#utility.yul\":13043:13436   */\n    tag_124:\n        /* \"#utility.yul\":13112:13118   */\n      0x00\n        /* \"#utility.yul\":13162:13163   */\n      0x08\n        /* \"#utility.yul\":13150:13160   */\n      dup4\n        /* \"#utility.yul\":13146:13164   */\n      mul\n        /* \"#utility.yul\":13185:13282   */\n      tag_256\n        /* \"#utility.yul\":13215:13281   */\n      0xffffffffffffffffffffffffffffffffffffffffffffffffffffffffffffffff\n        /* \"#utility.yul\":13204:13213   */\n      dup3\n        /* \"#utility.yul\":13185:13282   */\n      tag_123\n      jump\t// in\n    tag_256:\n        /* \"#utility.yul\":13303:13342   */\n      tag_257\n        /* \"#utility.yul\":13333:13341   */\n      dup7\n        /* \"#utility.yul\":13322:13331   */\n      dup4\n        /* \"#utility.yul\":13303:13342   */\n      tag_123\n      jump\t// in\n    tag_257:\n        /* \"#utility.yul\":13291:13342   */\n      swap6\n      pop\n        /* \"#utility.yul\":13375:13379   */\n      dup1\n        /* \"#utility.yul\":13371:13380   */\n      not\n        /* \"#utility.yul\":13364:13369   */\n      dup5\n        /* \"#utility.yul\":13360:13381   */\n      and\n        /* \"#utility.yul\":13351:13381   */\n      swap4\n      pop\n        /* \"#utility.yul\":13424:13428   */\n      dup1\n        /* \"#utility.yul\":13414:13422   */\n      dup7\n        /* \"#utility.yul\":13410:13429   */\n      and\n        /* \"#utility.yul\":13403:13408   */\n      dup5\n        /* \"#utility.yul\":13400:13430   */\n      or\n        /* \"#utility.yul\":13390:13430   */\n      swap3\n      pop\n        /* \"#utility.yul\":13119:13436   */\n      pop\n      pop\n        /* \"#utility.yul\":13043:13436   */\n      swap4\n      swap3\n      pop\n      pop\n      pop\n      jump\t// out\n        /* \"#utility.yul\":13442:13502   */\n    tag_125:\n        /* \"#utility.yul\":13470:13473   */\n      0x00\n        /* \"#utility.yul\":13491:13496   */\n      dup2\n        /* \"#utility.yul\":13484:13496   */\n      swap1\n      pop\n        /* \"#utility.yul\":13442:13502   */\n      swap2\n      swap1\n      pop\n      jump\t// out\n        /* \"#utility.yul\":13508:13650   */\n    tag_126:\n        /* \"#utility.yul\":13558:13567   */\n      0x00\n        /* \"#utility.yul\":13591:13644   */\n      tag_260\n        /* \"#utility.yul\":13609:13643   */\n      tag_261\n        /* \"#utility.yul\":13618:13642   */\n      tag_262\n        /* \"#utility.yul\":13636:13641   */\n      dup5\n        /* \"#utility.yul\":13618:13642   */\n      tag_102\n      jump\t// in\n    tag_262:\n        /* \"#utility.yul\":13609:13643   */\n      tag_125\n      jump\t// in\n    tag_261:\n        /* \"#utility.yul\":13591:13644   */\n      tag_102\n      jump\t// in\n    tag_260:\n        /* \"#utility.yul\":13578:13644   */\n      swap1\n      pop\n        /* \"#utility.yul\":13508:13650   */\n      swap2\n      swap1\n      pop\n      jump\t// out\n        /* \"#utility.yul\":13656:13731   */\n    tag_127:\n        /* \"#utility.yul\":13699:13702   */\n      0x00\n        /* \"#utility.yul\":13720:13725   */\n      dup2\n        /* \"#utility.yul\":13713:13725   */\n      swap1\n      pop\n        /* \"#utility.yul\":13656:13731   */\n      swap2\n      swap1\n      pop\n      jump\t// out\n        /* \"#utility.yul\":13737:14006   */\n    tag_128:\n        /* \"#utility.yul\":13847:13886   */\n      tag_265\n        /* \"#utility.yul\":13878:13885   */\n      dup4\n        /* \"#utility.yul\":13847:13886   */\n      tag_126\n      jump\t// in\n    tag_265:\n        /* \"#utility.yul\":13908:13999   */\n      tag_266\n        /* \"#utility.yul\":13957:13998   */\n      tag_267\n        /* \"#utility.yul\":13981:13997   */\n      dup3\n        /* \"#utility.yul\":13957:13998   */\n      tag_127\n      jump\t// in\n    tag_267:\n        /* \"#utility.yul\":13949:13955   */\n      dup5\n        /* \"#utility.yul\":13942:13946   */\n      dup5\n        /* \"#utility.yul\":13936:13947   */\n      sload\n        /* \"#utility.yul\":13908:13999   */\n      tag_124\n      jump\t// in\n    tag_266:\n        /* \"#utility.yul\":13902:13906   */\n      dup3\n        /* \"#utility.yul\":13895:14000   */\n      sstore\n        /* \"#utility.yul\":13813:14006   */\n      pop\n        /* \"#utility.yul\":13737:14006   */\n      pop\n      pop\n      pop\n      jump\t// out\n        /* \"#utility.yul\":14012:14085   */\n    tag_129:\n        /* \"#utility.yul\":14057:14060   */\n      0x00\n        /* \"#utility.yul\":14012:14085   */\n      swap1\n      jump\t// out\n        /* \"#utility.yul\":14091:14280   */\n    tag_130:\n        /* \"#utility.yul\":14168:14200   */\n      tag_270\n      tag_129\n      jump\t// in\n    tag_270:\n        /* \"#utility.yul\":14209:14274   */\n      tag_271\n        /* \"#utility.yul\":14267:14273   */\n      dup2\n        /* \"#utility.yul\":14259:14265   */\n      dup5\n        /* \"#utility.yul\":14253:14257   */\n      dup5\n        /* \"#utility.yul\":14209:14274   */\n      tag_128\n      jump\t// in\n    tag_271:\n        /* \"#utility.yul\":14144:14280   */\n      pop\n        /* \"#utility.yul\":14091:14280   */\n      pop\n      pop\n      jump\t// out\n        /* \"#utility.yul\":14286:14472   */\n    tag_131:\n        /* \"#utility.yul\":14346:14466   */\n    tag_273:\n        /* \"#utility.yul\":14363:14366   */\n      dup2\n        /* \"#utility.yul\":14356:14361   */\n      dup2\n        /* \"#utility.yul\":14353:14367   */\n      lt\n        /* \"#utility.yul\":14346:14466   */\n      iszero\n      tag_275\n      jumpi\n        /* \"#utility.yul\":14417:14456   */\n      tag_276\n        /* \"#utility.yul\":14454:14455   */\n      0x00\n        /* \"#utility.yul\":14447:14452   */\n      dup3\n        /* \"#utility.yul\":14417:14456   */\n      tag_130\n      jump\t// in\n    tag_276:\n        /* \"#utility.yul\":14390:14391   */\n      0x01\n        /* \"#utility.yul\":14383:14388   */\n      dup2\n        /* \"#utility.yul\":14379:14392   */\n      add\n        /* \"#utility.yul\":14370:14392   */\n      swap1\n      pop\n        /* \"#utility.yul\":14346:14466   */\n      jump(tag_273)\n    tag_275:\n        /* \"#utility.yul\":14286:14472   */\n      pop\n      pop\n      jump\t// out\n        /* \"#utility.yul\":14478:15021   */\n    tag_132:\n        /* \"#utility.yul\":14579:14581   */\n      0x1f\n        /* \"#utility.yul\":14574:14577   */\n      dup3\n        /* \"#utility.yul\":14571:14582   */\n      gt\n        /* \"#utility.yul\":14568:15014   */\n      iszero\n      tag_278\n      jumpi\n        /* \"#utility.yul\":14613:14651   */\n      tag_279\n        /* \"#utility.yul\":14645:14650   */\n      dup2\n        /* \"#utility.yul\":14613:14651   */\n      tag_116\n      jump\t// in\n    tag_279:\n        /* \"#utility.yul\":14697:14726   */\n      tag_280\n        /* \"#utility.yul\":14715:14725   */\n      dup5\n        /* \"#utility.yul\":14697:14726   */\n      tag_122\n      jump\t// in\n    tag_280:\n        /* \"#utility.yul\":14687:14695   */\n      dup2\n        /* \"#utility.yul\":14683:14727   */\n      add\n        /* \"#utility.yul\":14880:14882   */\n      0x20\n        /* \"#utility.yul\":14868:14878   */\n      dup6\n        /* \"#utility.yul\":14865:14883   */\n      lt\n        /* \"#utility.yul\":14862:14911   */\n      iszero\n      tag_281\n      jumpi\n        /* \"#utility.yul\":14901:14909   */\n      dup2\n        /* \"#utility.yul\":14886:14909   */\n      swap1\n      pop\n        /* \"#utility.yul\":14862:14911   */\n    tag_281:\n        /* \"#utility.yul\":14924:15004   */\n      tag_282\n        /* \"#utility.yul\":14980:15002   */\n      tag_283\n        /* \"#utility.yul\":14998:15001   */\n      dup6\n        /* \"#utility.yul\":14980:15002   */\n      tag_122\n      jump\t// in\n    tag_283:\n        /* \"#utility.yul\":14970:14978   */\n      dup4\n        /* \"#utility.yul\":14966:15003   */\n      add\n        /* \"#utility.yul\":14953:14964   */\n      dup3\n        /* \"#utility.yul\":14924:15004   */\n      tag_131\n      jump\t// in\n    tag_282:\n        /* \"#utility.yul\":14583:15014   */\n      pop\n      pop\n        /* \"#utility.yul\":14568:15014   */\n    tag_278:\n        /* \"#utility.yul\":14478:15021   */\n      pop\n      pop\n      pop\n      jump\t// out\n        /* \"#utility.yul\":15027:15144   */\n    tag_133:\n        /* \"#utility.yul\":15081:15089   */\n      0x00\n        /* \"#utility.yul\":15131:15136   */\n      dup3\n        /* \"#utility.yul\":15125:15129   */\n      dup3\n        /* \"#utility.yul\":15121:15137   */\n      shr\n        /* \"#utility.yul\":15100:15137   */\n      swap1\n      pop\n        /* \"#utility.yul\":15027:15144   */\n      swap3\n      swap2\n      pop\n      pop\n      jump\t// out\n        /* \"#utility.yul\":15150:15319   */\n    tag_134:\n        /* \"#utility.yul\":15194:15200   */\n      0x00\n        /* \"#utility.yul\":15227:15278   */\n      tag_286\n        /* \"#utility.yul\":15275:15276   */\n      0x00\n        /* \"#utility.yul\":15271:15277   */\n      not\n        /* \"#utility.yul\":15263:15268   */\n      dup5\n        /* \"#utility.yul\":15260:15261   */\n      0x08\n        /* \"#utility.yul\":15256:15269   */\n      mul\n        /* \"#utility.yul\":15227:15278   */\n      tag_133\n      jump\t// in\n    tag_286:\n        /* \"#utility.yul\":15223:15279   */\n      not\n        /* \"#utility.yul\":15308:15312   */\n      dup1\n        /* \"#utility.yul\":15302:15306   */\n      dup4\n        /* \"#utility.yul\":15298:15313   */\n      and\n        /* \"#utility.yul\":15288:15313   */\n      swap2\n      pop\n        /* \"#utility.yul\":15201:15319   */\n      pop\n        /* \"#utility.yul\":15150:15319   */\n      swap3\n      swap2\n      pop\n      pop\n      jump\t// out\n        /* \"#utility.yul\":15324:15619   */\n    tag_135:\n        /* \"#utility.yul\":15400:15404   */\n      0x00\n        /* \"#utility.yul\":15546:15575   */\n      tag_288\n        /* \"#utility.yul\":15571:15574   */\n      dup4\n        /* \"#utility.yul\":15565:15569   */\n      dup4\n        /* \"#utility.yul\":15546:15575   */\n      tag_134\n      jump\t// in\n    tag_288:\n        /* \"#utility.yul\":15538:15575   */\n      swap2\n      pop\n        /* \"#utility.yul\":15608:15611   */\n      dup3\n        /* \"#utility.yul\":15605:15606   */\n      0x02\n        /* \"#utility.yul\":15601:15612   */\n      mul\n        /* \"#utility.yul\":15595:15599   */\n      dup3\n        /* \"#utility.yul\":15592:15613   */\n      or\n        /* \"#utility.yul\":15584:15613   */\n      swap1\n      pop\n        /* \"#utility.yul\":15324:15619   */\n      swap3\n      swap2\n      pop\n      pop\n      jump\t// out\n        /* \"#utility.yul\":15624:17027   */\n    tag_40:\n        /* \"#utility.yul\":15748:15792   */\n      tag_290\n        /* \"#utility.yul\":15788:15791   */\n      dup4\n        /* \"#utility.yul\":15783:15786   */\n      dup4\n        /* \"#utility.yul\":15748:15792   */\n      tag_120\n      jump\t// in\n    tag_290:\n        /* \"#utility.yul\":15857:15875   */\n      0xffffffffffffffff\n        /* \"#utility.yul\":15849:15855   */\n      dup2\n        /* \"#utility.yul\":15846:15876   */\n      gt\n        /* \"#utility.yul\":15843:15899   */\n      iszero\n      tag_291\n      jumpi\n        /* \"#utility.yul\":15879:15897   */\n      tag_292\n      tag_121\n      jump\t// in\n    tag_292:\n        /* \"#utility.yul\":15843:15899   */\n    tag_291:\n        /* \"#utility.yul\":15923:15961   */\n      tag_293\n        /* \"#utility.yul\":15955:15959   */\n      dup3\n        /* \"#utility.yul\":15949:15960   */\n      sload\n        /* \"#utility.yul\":15923:15961   */\n      tag_67\n      jump\t// in\n    tag_293:\n        /* \"#utility.yul\":16008:16075   */\n      tag_294\n        /* \"#utility.yul\":16068:16074   */\n      dup3\n        /* \"#utility.yul\":16060:16066   */\n      dup3\n        /* \"#utility.yul\":16054:16058   */\n      dup6\n        /* \"#utility.yul\":16008:16075   */\n      tag_132\n      jump\t// in\n    tag_294:\n        /* \"#utility.yul\":16102:16103   */\n      0x00\n        /* \"#utility.yul\":16131:16133   */\n      0x1f\n        /* \"#utility.yul\":16123:16129   */\n      dup4\n        /* \"#utility.yul\":16120:16134   */\n      gt\n        /* \"#utility.yul\":16148:16149   */\n      0x01\n        /* \"#utility.yul\":16143:16775   */\n      dup2\n      eq\n      tag_296\n      jumpi\n        /* \"#utility.yul\":16819:16820   */\n      0x00\n        /* \"#utility.yul\":16836:16842   */\n      dup5\n        /* \"#utility.yul\":16833:16917   */\n      iszero\n      tag_297\n      jumpi\n        /* \"#utility.yul\":16892:16901   */\n      dup3\n        /* \"#utility.yul\":16887:16890   */\n      dup8\n        /* \"#utility.yul\":16883:16902   */\n      add\n        /* \"#utility.yul\":16870:16903   */\n      calldataload\n        /* \"#utility.yul\":16861:16903   */\n      swap1\n      pop\n        /* \"#utility.yul\":16833:16917   */\n    tag_297:\n        /* \"#utility.yul\":16943:17010   */\n      tag_298\n        /* \"#utility.yul\":17003:17009   */\n      dup6\n        /* \"#utility.yul\":16996:17001   */\n      dup3\n        /* \"#utility.yul\":16943:17010   */\n      tag_135\n      jump\t// in\n    tag_298:\n        /* \"#utility.yul\":16937:16941   */\n      dup7\n        /* \"#utility.yul\":16930:17011   */\n      sstore\n        /* \"#utility.yul\":16792:17021   */\n      pop\n        /* \"#utility.yul\":16113:17021   */\n      jump(tag_295)\n        /* \"#utility.yul\":16143:16775   */\n    tag_296:\n        /* \"#utility.yul\":16195:16199   */\n      0x1f\n        /* \"#utility.yul\":16191:16200   */\n      not\n        /* \"#utility.yul\":16183:16189   */\n      dup5\n        /* \"#utility.yul\":16179:16201   */\n      and\n        /* \"#utility.yul\":16229:16266   */\n      tag_299\n        /* \"#utility.yul\":16261:16265   */\n      dup7\n        /* \"#utility.yul\":16229:16266   */\n      tag_116\n      jump\t// in\n    tag_299:\n        /* \"#utility.yul\":16288:16289   */\n      0x00\n        /* \"#utility.yul\":16302:16517   */\n    tag_300:\n        /* \"#utility.yul\":16316:16323   */\n      dup3\n        /* \"#utility.yul\":16313:16314   */\n      dup2\n        /* \"#utility.yul\":16310:16324   */\n      lt\n        /* \"#utility.yul\":16302:16517   */\n      iszero\n      tag_302\n      jumpi\n        /* \"#utility.yul\":16402:16411   */\n      dup5\n        /* \"#utility.yul\":16397:16400   */\n      dup10\n        /* \"#utility.yul\":16393:16412   */\n      add\n        /* \"#utility.yul\":16380:16413   */\n      calldataload\n        /* \"#utility.yul\":16372:16378   */\n      dup3\n        /* \"#utility.yul\":16365:16414   */\n      sstore\n        /* \"#utility.yul\":16453:16454   */\n      0x01\n        /* \"#utility.yul\":16445:16451   */\n      dup3\n        /* \"#utility.yul\":16441:16455   */\n      add\n        /* \"#utility.yul\":16431:16455   */\n      swap2\n      pop\n        /* \"#utility.yul\":16500:16502   */\n      0x20\n        /* \"#utility.yul\":16489:16498   */\n      dup6\n        /* \"#utility.yul\":16485:16503   */\n      add\n        /* \"#utility.yul\":16472:16503   */\n      swap5\n      pop\n        /* \"#utility.yul\":16339:16343   */\n      0x20\n        /* \"#utility.yul\":16336:16337   */\n      dup2\n        /* \"#utility.yul\":16332:16344   */\n      add\n        /* \"#utility.yul\":16327:16344   */\n      swap1\n      pop\n        /* \"#utility.yul\":16302:16517   */\n      jump(tag_300)\n    tag_302:\n        /* \"#utility.yul\":16545:16551   */\n      dup7\n        /* \"#utility.yul\":16536:16543   */\n      dup4\n        /* \"#utility.yul\":16533:16552   */\n      lt\n        /* \"#utility.yul\":16530:16716   */\n      iszero\n      tag_303\n      jumpi\n        /* \"#utility.yul\":16610:16619   */\n      dup5\n        /* \"#utility.yul\":16605:16608   */\n      dup10\n        /* \"#utility.yul\":16601:16620   */\n      add\n        /* \"#utility.yul\":16588:16621   */\n      calldataload\n        /* \"#utility.yul\":16653:16701   */\n      tag_304\n        /* \"#utility.yul\":16695:16699   */\n      0x1f\n        /* \"#utility.yul\":16687:16693   */\n      dup10\n        /* \"#utility.yul\":16683:16700   */\n      and\n        /* \"#utility.yul\":16672:16681   */\n      dup3\n        /* \"#utility.yul\":16653:16701   */\n      tag_134\n      jump\t// in\n    tag_304:\n        /* \"#utility.yul\":16645:16651   */\n      dup4\n        /* \"#utility.yul\":16638:16702   */\n      sstore\n        /* \"#utility.yul\":16553:16716   */\n      pop\n        /* \"#utility.yul\":16530:16716   */\n    tag_303:\n        /* \"#utility.yul\":16762:16763   */\n      0x01\n        /* \"#utility.yul\":16758:16759   */\n      0x02\n        /* \"#utility.yul\":16750:16756   */\n      dup9\n        /* \"#utility.yul\":16746:16760   */\n      mul\n        /* \"#utility.yul\":16742:16764   */\n      add\n        /* \"#utility.yul\":16736:16740   */\n      dup9\n        /* \"#utility.yul\":16729:16765   */\n      sstore\n        /* \"#utility.yul\":16150:16775   */\n      pop\n      pop\n      pop\n        /* \"#utility.yul\":16113:17021   */\n    tag_295:\n      pop\n        /* \"#utility.yul\":15723:17027   */\n      pop\n      pop\n      pop\n        /* \"#utility.yul\":15624:17027   */\n      pop\n      pop\n      pop\n      jump\t// out\n        /* \"#utility.yul\":17033:17129   */\n    tag_136:\n        /* \"#utility.yul\":17070:17077   */\n      0x00\n        /* \"#utility.yul\":17099:17123   */\n      tag_306\n        /* \"#utility.yul\":17117:17122   */\n      dup3\n        /* \"#utility.yul\":17099:17123   */\n      tag_99\n      jump\t// in\n    tag_306:\n        /* \"#utility.yul\":17088:17123   */\n      swap1\n      pop\n        /* \"#utility.yul\":17033:17129   */\n      swap2\n      swap1\n      pop\n      jump\t// out\n        /* \"#utility.yul\":17135:17253   */\n    tag_137:\n        /* \"#utility.yul\":17222:17246   */\n      tag_308\n        /* \"#utility.yul\":17240:17245   */\n      dup2\n        /* \"#utility.yul\":17222:17246   */\n      tag_136\n      jump\t// in\n    tag_308:\n        /* \"#utility.yul\":17217:17220   */\n      dup3\n        /* \"#utility.yul\":17210:17247   */\n      mstore\n        /* \"#utility.yul\":17135:17253   */\n      pop\n      pop\n      jump\t// out\n        /* \"#utility.yul\":17283:18114   */\n    tag_138:\n        /* \"#utility.yul\":17368:17371   */\n      0x00\n        /* \"#utility.yul\":17405:17410   */\n      dup2\n        /* \"#utility.yul\":17399:17411   */\n      sload\n        /* \"#utility.yul\":17434:17470   */\n      tag_310\n        /* \"#utility.yul\":17460:17469   */\n      dup2\n        /* \"#utility.yul\":17434:17470   */\n      tag_67\n      jump\t// in\n    tag_310:\n        /* \"#utility.yul\":17486:17557   */\n      tag_311\n        /* \"#utility.yul\":17550:17556   */\n      dup2\n        /* \"#utility.yul\":17545:17548   */\n      dup7\n        /* \"#utility.yul\":17486:17557   */\n      tag_95\n      jump\t// in\n    tag_311:\n        /* \"#utility.yul\":17479:17557   */\n      swap5\n      pop\n        /* \"#utility.yul\":17588:17589   */\n      0x01\n        /* \"#utility.yul\":17577:17586   */\n      dup3\n        /* \"#utility.yul\":17573:17590   */\n      and\n        /* \"#utility.yul\":17604:17605   */\n      0x00\n        /* \"#utility.yul\":17599:17763   */\n      dup2\n      eq\n      tag_313\n      jumpi\n        /* \"#utility.yul\":17777:17778   */\n      0x01\n        /* \"#utility.yul\":17772:18108   */\n      dup2\n      eq\n      tag_314\n      jumpi\n        /* \"#utility.yul\":17566:18108   */\n      jump(tag_312)\n        /* \"#utility.yul\":17599:17763   */\n    tag_313:\n        /* \"#utility.yul\":17683:17687   */\n      0xff\n        /* \"#utility.yul\":17679:17688   */\n      not\n        /* \"#utility.yul\":17668:17677   */\n      dup4\n        /* \"#utility.yul\":17664:17689   */\n      and\n        /* \"#utility.yul\":17659:17662   */\n      dup7\n        /* \"#utility.yul\":17652:17690   */\n      mstore\n        /* \"#utility.yul\":17743:17749   */\n      dup2\n        /* \"#utility.yul\":17736:17750   */\n      iszero\n        /* \"#utility.yul\":17729:17751   */\n      iszero\n        /* \"#utility.yul\":17723:17727   */\n      0x20\n        /* \"#utility.yul\":17719:17752   */\n      mul\n        /* \"#utility.yul\":17714:17717   */\n      dup7\n        /* \"#utility.yul\":17710:17753   */\n      add\n        /* \"#utility.yul\":17703:17753   */\n      swap4\n      pop\n        /* \"#utility.yul\":17599:17763   */\n      jump(tag_312)\n        /* \"#utility.yul\":17772:18108   */\n    tag_314:\n        /* \"#utility.yul\":17839:17877   */\n      tag_315\n        /* \"#utility.yul\":17871:17876   */\n      dup6\n        /* \"#utility.yul\":17839:17877   */\n      tag_116\n      jump\t// in\n    tag_315:\n        /* \"#utility.yul\":17899:17900   */\n      0x00\n        /* \"#utility.yul\":17913:18067   */\n    tag_316:\n        /* \"#utility.yul\":17927:17933   */\n      dup4\n        /* \"#utility.yul\":17924:17925   */\n      dup2\n        /* \"#utility.yul\":17921:17934   */\n      lt\n        /* \"#utility.yul\":17913:18067   */\n      iszero\n      tag_318\n      jumpi\n        /* \"#utility.yul\":18001:18008   */\n      dup2\n        /* \"#utility.yul\":17995:18009   */\n      sload\n        /* \"#utility.yul\":17991:17992   */\n      dup2\n        /* \"#utility.yul\":17986:17989   */\n      dup10\n        /* \"#utility.yul\":17982:17993   */\n      add\n        /* \"#utility.yul\":17975:18010   */\n      mstore\n        /* \"#utility.yul\":18051:18052   */\n      0x01\n        /* \"#utility.yul\":18042:18049   */\n      dup3\n        /* \"#utility.yul\":18038:18053   */\n      add\n        /* \"#utility.yul\":18027:18053   */\n      swap2\n      pop\n        /* \"#utility.yul\":17949:17953   */\n      0x20\n        /* \"#utility.yul\":17946:17947   */\n      dup2\n        /* \"#utility.yul\":17942:17954   */\n      add\n        /* \"#utility.yul\":17937:17954   */\n      swap1\n      pop\n        /* \"#utility.yul\":17913:18067   */\n      jump(tag_316)\n    tag_318:\n        /* \"#utility.yul\":18096:18097   */\n      dup1\n        /* \"#utility.yul\":18091:18094   */\n      dup9\n        /* \"#utility.yul\":18087:18098   */\n      add\n        /* \"#utility.yul\":18080:18098   */\n      swap6\n      pop\n        /* \"#utility.yul\":17779:18108   */\n      pop\n      pop\n        /* \"#utility.yul\":17566:18108   */\n    tag_312:\n      pop\n        /* \"#utility.yul\":17372:18114   */\n      pop\n      pop\n        /* \"#utility.yul\":17283:18114   */\n      swap3\n      swap2\n      pop\n      pop\n      jump\t// out\n        /* \"#utility.yul\":18120:18537   */\n    tag_42:\n        /* \"#utility.yul\":18258:18262   */\n      0x00\n        /* \"#utility.yul\":18296:18298   */\n      0x40\n        /* \"#utility.yul\":18285:18294   */\n      dup3\n        /* \"#utility.yul\":18281:18299   */\n      add\n        /* \"#utility.yul\":18273:18299   */\n      swap1\n      pop\n        /* \"#utility.yul\":18309:18380   */\n      tag_320\n        /* \"#utility.yul\":18377:18378   */\n      0x00\n        /* \"#utility.yul\":18366:18375   */\n      dup4\n        /* \"#utility.yul\":18362:18379   */\n      add\n        /* \"#utility.yul\":18353:18359   */\n      dup6\n        /* \"#utility.yul\":18309:18380   */\n      tag_137\n      jump\t// in\n    tag_320:\n        /* \"#utility.yul\":18427:18436   */\n      dup2\n        /* \"#utility.yul\":18421:18425   */\n      dup2\n        /* \"#utility.yul\":18417:18437   */\n      sub\n        /* \"#utility.yul\":18412:18414   */\n      0x20\n        /* \"#utility.yul\":18401:18410   */\n      dup4\n        /* \"#utility.yul\":18397:18415   */\n      add\n        /* \"#utility.yul\":18390:18438   */\n      mstore\n        /* \"#utility.yul\":18455:18530   */\n      tag_321\n        /* \"#utility.yul\":18525:18529   */\n      dup2\n        /* \"#utility.yul\":18516:18522   */\n      dup5\n        /* \"#utility.yul\":18455:18530   */\n      tag_138\n      jump\t// in\n    tag_321:\n        /* \"#utility.yul\":18447:18530   */\n      swap1\n      pop\n        /* \"#utility.yul\":18120:18537   */\n      swap4\n      swap3\n      pop\n      pop\n      pop\n      jump\t// out\n        /* \"#utility.yul\":18543:18724   */\n    tag_139:\n        /* \"#utility.yul\":18683:18716   */\n      0x4f776e6572732063616e27742066756e642074686569722070726f6a65637400\n        /* \"#utility.yul\":18679:18680   */\n      0x00\n        /* \"#utility.yul\":18671:18677   */\n      dup3\n        /* \"#utility.yul\":18667:18681   */\n      add\n        /* \"#utility.yul\":18660:18717   */\n      mstore\n        /* \"#utility.yul\":18543:18724   */\n      pop\n      jump\t// out\n        /* \"#utility.yul\":18730:19096   */\n    tag_140:\n        /* \"#utility.yul\":18872:18875   */\n      0x00\n        /* \"#utility.yul\":18893:18960   */\n      tag_324\n        /* \"#utility.yul\":18957:18959   */\n      0x1f\n        /* \"#utility.yul\":18952:18955   */\n      dup4\n        /* \"#utility.yul\":18893:18960   */\n      tag_95\n      jump\t// in\n    tag_324:\n        /* \"#utility.yul\":18886:18960   */\n      swap2\n      pop\n        /* \"#utility.yul\":18969:19062   */\n      tag_325\n        /* \"#utility.yul\":19058:19061   */\n      dup3\n        /* \"#utility.yul\":18969:19062   */\n      tag_139\n      jump\t// in\n    tag_325:\n        /* \"#utility.yul\":19087:19089   */\n      0x20\n        /* \"#utility.yul\":19082:19085   */\n      dup3\n        /* \"#utility.yul\":19078:19090   */\n      add\n        /* \"#utility.yul\":19071:19090   */\n      swap1\n      pop\n        /* \"#utility.yul\":18730:19096   */\n      swap2\n      swap1\n      pop\n      jump\t// out\n        /* \"#utility.yul\":19102:19521   */\n    tag_46:\n        /* \"#utility.yul\":19268:19272   */\n      0x00\n        /* \"#utility.yul\":19306:19308   */\n      0x20\n        /* \"#utility.yul\":19295:19304   */\n      dup3\n        /* \"#utility.yul\":19291:19309   */\n      add\n        /* \"#utility.yul\":19283:19309   */\n      swap1\n      pop\n        /* \"#utility.yul\":19355:19364   */\n      dup2\n        /* \"#utility.yul\":19349:19353   */\n      dup2\n        /* \"#utility.yul\":19345:19365   */\n      sub\n        /* \"#utility.yul\":19341:19342   */\n      0x00\n        /* \"#utility.yul\":19330:19339   */\n      dup4\n        /* \"#utility.yul\":19326:19343   */\n      add\n        /* \"#utility.yul\":19319:19366   */\n      mstore\n        /* \"#utility.yul\":19383:19514   */\n      tag_327\n        /* \"#utility.yul\":19509:19513   */\n      dup2\n        /* \"#utility.yul\":19383:19514   */\n      tag_140\n      jump\t// in\n    tag_327:\n        /* \"#utility.yul\":19375:19514   */\n      swap1\n      pop\n        /* \"#utility.yul\":19102:19521   */\n      swap2\n      swap1\n      pop\n      jump\t// out\n        /* \"#utility.yul\":19527:19707   */\n    tag_141:\n        /* \"#utility.yul\":19667:19699   */\n      0x5374617465436c6f7365643a2050726f6a65637420697320636c6f7365640000\n        /* \"#utility.yul\":19663:19664   */\n      0x00\n        /* \"#utility.yul\":19655:19661   */\n      dup3\n        /* \"#utility.yul\":19651:19665   */\n      add\n        /* \"#utility.yul\":19644:19700   */\n      mstore\n        /* \"#utility.yul\":19527:19707   */\n      pop\n      jump\t// out\n        /* \"#utility.yul\":19713:20079   */\n    tag_142:\n        /* \"#utility.yul\":19855:19858   */\n      0x00\n        /* \"#utility.yul\":19876:19943   */\n      tag_330\n        /* \"#utility.yul\":19940:19942   */\n      0x1e\n        /* \"#utility.yul\":19935:19938   */\n      dup4\n        /* \"#utility.yul\":19876:19943   */\n      tag_95\n      jump\t// in\n    tag_330:\n        /* \"#utility.yul\":19869:19943   */\n      swap2\n      pop\n        /* \"#utility.yul\":19952:20045   */\n      tag_331\n        /* \"#utility.yul\":20041:20044   */\n      dup3\n        /* \"#utility.yul\":19952:20045   */\n      tag_141\n      jump\t// in\n    tag_331:\n        /* \"#utility.yul\":20070:20072   */\n      0x20\n        /* \"#utility.yul\":20065:20068   */\n      dup3\n        /* \"#utility.yul\":20061:20073   */\n      add\n        /* \"#utility.yul\":20054:20073   */\n      swap1\n      pop\n        /* \"#utility.yul\":19713:20079   */\n      swap2\n      swap1\n      pop\n      jump\t// out\n        /* \"#utility.yul\":20085:20504   */\n    tag_52:\n        /* \"#utility.yul\":20251:20255   */\n      0x00\n        /* \"#utility.yul\":20289:20291   */\n      0x20\n        /* \"#utility.yul\":20278:20287   */\n      dup3\n        /* \"#utility.yul\":20274:20292   */\n      add\n        /* \"#utility.yul\":20266:20292   */\n      swap1\n      pop\n        /* \"#utility.yul\":20338:20347   */\n      dup2\n        /* \"#utility.yul\":20332:20336   */\n      dup2\n        /* \"#utility.yul\":20328:20348   */\n      sub\n        /* \"#utility.yul\":20324:20325   */\n      0x00\n        /* \"#utility.yul\":20313:20322   */\n      dup4\n        /* \"#utility.yul\":20309:20326   */\n      add\n        /* \"#utility.yul\":20302:20349   */\n      mstore\n        /* \"#utility.yul\":20366:20497   */\n      tag_333\n        /* \"#utility.yul\":20492:20496   */\n      dup2\n        /* \"#utility.yul\":20366:20497   */\n      tag_142\n      jump\t// in\n    tag_333:\n        /* \"#utility.yul\":20358:20497   */\n      swap1\n      pop\n        /* \"#utility.yul\":20085:20504   */\n      swap2\n      swap1\n      pop\n      jump\t// out\n        /* \"#utility.yul\":20510:20749   */\n    tag_143:\n        /* \"#utility.yul\":20650:20684   */\n      0x54686520636f6e747269627574696f6e206d757374206861766520612076616c\n        /* \"#utility.yul\":20646:20647   */\n      0x00\n        /* \"#utility.yul\":20638:20644   */\n      dup3\n        /* \"#utility.yul\":20634:20648   */\n      add\n        /* \"#utility.yul\":20627:20685   */\n      mstore\n        /* \"#utility.yul\":20719:20741   */\n      0x75652067726561746572207468616e207a65726f000000000000000000000000\n        /* \"#utility.yul\":20714:20716   */\n      0x20\n        /* \"#utility.yul\":20706:20712   */\n      dup3\n        /* \"#utility.yul\":20702:20717   */\n      add\n        /* \"#utility.yul\":20695:20742   */\n      mstore\n        /* \"#utility.yul\":20510:20749   */\n      pop\n      jump\t// out\n        /* \"#utility.yul\":20755:21121   */\n    tag_144:\n        /* \"#utility.yul\":20897:20900   */\n      0x00\n        /* \"#utility.yul\":20918:20985   */\n      tag_336\n        /* \"#utility.yul\":20982:20984   */\n      0x34\n        /* \"#utility.yul\":20977:20980   */\n      dup4\n        /* \"#utility.yul\":20918:20985   */\n      tag_95\n      jump\t// in\n    tag_336:\n        /* \"#utility.yul\":20911:20985   */\n      swap2\n      pop\n        /* \"#utility.yul\":20994:21087   */\n      tag_337\n        /* \"#utility.yul\":21083:21086   */\n      dup3\n        /* \"#utility.yul\":20994:21087   */\n      tag_143\n      jump\t// in\n    tag_337:\n        /* \"#utility.yul\":21112:21114   */\n      0x40\n        /* \"#utility.yul\":21107:21110   */\n      dup3\n        /* \"#utility.yul\":21103:21115   */\n      add\n        /* \"#utility.yul\":21096:21115   */\n      swap1\n      pop\n        /* \"#utility.yul\":20755:21121   */\n      swap2\n      swap1\n      pop\n      jump\t// out\n        /* \"#utility.yul\":21127:21546   */\n    tag_55:\n        /* \"#utility.yul\":21293:21297   */\n      0x00\n        /* \"#utility.yul\":21331:21333   */\n      0x20\n        /* \"#utility.yul\":21320:21329   */\n      dup3\n        /* \"#utility.yul\":21316:21334   */\n      add\n        /* \"#utility.yul\":21308:21334   */\n      swap1\n      pop\n        /* \"#utility.yul\":21380:21389   */\n      dup2\n        /* \"#utility.yul\":21374:21378   */\n      dup2\n        /* \"#utility.yul\":21370:21390   */\n      sub\n        /* \"#utility.yul\":21366:21367   */\n      0x00\n        /* \"#utility.yul\":21355:21364   */\n      dup4\n        /* \"#utility.yul\":21351:21368   */\n      add\n        /* \"#utility.yul\":21344:21391   */\n      mstore\n        /* \"#utility.yul\":21408:21539   */\n      tag_339\n        /* \"#utility.yul\":21534:21538   */\n      dup2\n        /* \"#utility.yul\":21408:21539   */\n      tag_144\n      jump\t// in\n    tag_339:\n        /* \"#utility.yul\":21400:21539   */\n      swap1\n      pop\n        /* \"#utility.yul\":21127:21546   */\n      swap2\n      swap1\n      pop\n      jump\t// out\n        /* \"#utility.yul\":21552:21732   */\n    tag_145:\n        /* \"#utility.yul\":21600:21677   */\n      0x4e487b7100000000000000000000000000000000000000000000000000000000\n        /* \"#utility.yul\":21597:21598   */\n      0x00\n        /* \"#utility.yul\":21590:21678   */\n      mstore\n        /* \"#utility.yul\":21697:21701   */\n      0x11\n        /* \"#utility.yul\":21694:21695   */\n      0x04\n        /* \"#utility.yul\":21687:21702   */\n      mstore\n        /* \"#utility.yul\":21721:21725   */\n      0x24\n        /* \"#utility.yul\":21718:21719   */\n      0x00\n        /* \"#utility.yul\":21711:21726   */\n      revert\n        /* \"#utility.yul\":21738:21929   */\n    tag_57:\n        /* \"#utility.yul\":21778:21781   */\n      0x00\n        /* \"#utility.yul\":21797:21817   */\n      tag_342\n        /* \"#utility.yul\":21815:21816   */\n      dup3\n        /* \"#utility.yul\":21797:21817   */\n      tag_102\n      jump\t// in\n    tag_342:\n        /* \"#utility.yul\":21792:21817   */\n      swap2\n      pop\n        /* \"#utility.yul\":21831:21851   */\n      tag_343\n        /* \"#utility.yul\":21849:21850   */\n      dup4\n        /* \"#utility.yul\":21831:21851   */\n      tag_102\n      jump\t// in\n    tag_343:\n        /* \"#utility.yul\":21826:21851   */\n      swap3\n      pop\n        /* \"#utility.yul\":21874:21875   */\n      dup3\n        /* \"#utility.yul\":21871:21872   */\n      dup3\n        /* \"#utility.yul\":21867:21876   */\n      add\n        /* \"#utility.yul\":21860:21876   */\n      swap1\n      pop\n        /* \"#utility.yul\":21895:21898   */\n      dup1\n        /* \"#utility.yul\":21892:21893   */\n      dup3\n        /* \"#utility.yul\":21889:21899   */\n      gt\n        /* \"#utility.yul\":21886:21922   */\n      iszero\n      tag_344\n      jumpi\n        /* \"#utility.yul\":21902:21920   */\n      tag_345\n      tag_145\n      jump\t// in\n    tag_345:\n        /* \"#utility.yul\":21886:21922   */\n    tag_344:\n        /* \"#utility.yul\":21738:21929   */\n      swap3\n      swap2\n      pop\n      pop\n      jump\t// out\n        /* \"#utility.yul\":21935:22117   */\n    tag_146:\n        /* \"#utility.yul\":22075:22109   */\n      0x5468652066756e6472616973696e6720676f616c206973206578636565646564\n        /* \"#utility.yul\":22071:22072   */\n      0x00\n        /* \"#utility.yul\":22063:22069   */\n      dup3\n        /* \"#utility.yul\":22059:22073   */\n      add\n        /* \"#utility.yul\":22052:22110   */\n      mstore\n        /* \"#utility.yul\":21935:22117   */\n      pop\n      jump\t// out\n        /* \"#utility.yul\":22123:22489   */\n    tag_147:\n        /* \"#utility.yul\":22265:22268   */\n      0x00\n        /* \"#utility.yul\":22286:22353   */\n      tag_348\n        /* \"#utility.yul\":22350:22352   */\n      0x20\n        /* \"#utility.yul\":22345:22348   */\n      dup4\n        /* \"#utility.yul\":22286:22353   */\n      tag_95\n      jump\t// in\n    tag_348:\n        /* \"#utility.yul\":22279:22353   */\n      swap2\n      pop\n        /* \"#utility.yul\":22362:22455   */\n      tag_349\n        /* \"#utility.yul\":22451:22454   */\n      dup3\n        /* \"#utility.yul\":22362:22455   */\n      tag_146\n      jump\t// in\n    tag_349:\n        /* \"#utility.yul\":22480:22482   */\n      0x20\n        /* \"#utility.yul\":22475:22478   */\n      dup3\n        /* \"#utility.yul\":22471:22483   */\n      add\n        /* \"#utility.yul\":22464:22483   */\n      swap1\n      pop\n        /* \"#utility.yul\":22123:22489   */\n      swap2\n      swap1\n      pop\n      jump\t// out\n        /* \"#utility.yul\":22495:22914   */\n    tag_60:\n        /* \"#utility.yul\":22661:22665   */\n      0x00\n        /* \"#utility.yul\":22699:22701   */\n      0x20\n        /* \"#utility.yul\":22688:22697   */\n      dup3\n        /* \"#utility.yul\":22684:22702   */\n      add\n        /* \"#utility.yul\":22676:22702   */\n      swap1\n      pop\n        /* \"#utility.yul\":22748:22757   */\n      dup2\n        /* \"#utility.yul\":22742:22746   */\n      dup2\n        /* \"#utility.yul\":22738:22758   */\n      sub\n        /* \"#utility.yul\":22734:22735   */\n      0x00\n        /* \"#utility.yul\":22723:22732   */\n      dup4\n        /* \"#utility.yul\":22719:22736   */\n      add\n        /* \"#utility.yul\":22712:22759   */\n      mstore\n        /* \"#utility.yul\":22776:22907   */\n      tag_351\n        /* \"#utility.yul\":22902:22906   */\n      dup2\n        /* \"#utility.yul\":22776:22907   */\n      tag_147\n      jump\t// in\n    tag_351:\n        /* \"#utility.yul\":22768:22907   */\n      swap1\n      pop\n        /* \"#utility.yul\":22495:22914   */\n      swap2\n      swap1\n      pop\n      jump\t// out\n        /* \"#utility.yul\":22920:23252   */\n    tag_65:\n        /* \"#utility.yul\":23041:23045   */\n      0x00\n        /* \"#utility.yul\":23079:23081   */\n      0x40\n        /* \"#utility.yul\":23068:23077   */\n      dup3\n        /* \"#utility.yul\":23064:23082   */\n      add\n        /* \"#utility.yul\":23056:23082   */\n      swap1\n      pop\n        /* \"#utility.yul\":23092:23163   */\n      tag_353\n        /* \"#utility.yul\":23160:23161   */\n      0x00\n        /* \"#utility.yul\":23149:23158   */\n      dup4\n        /* \"#utility.yul\":23145:23162   */\n      add\n        /* \"#utility.yul\":23136:23142   */\n      dup6\n        /* \"#utility.yul\":23092:23163   */\n      tag_137\n      jump\t// in\n    tag_353:\n        /* \"#utility.yul\":23173:23245   */\n      tag_354\n        /* \"#utility.yul\":23241:23243   */\n      0x20\n        /* \"#utility.yul\":23230:23239   */\n      dup4\n        /* \"#utility.yul\":23226:23244   */\n      add\n        /* \"#utility.yul\":23217:23223   */\n      dup5\n        /* \"#utility.yul\":23173:23245   */\n      tag_103\n      jump\t// in\n    tag_354:\n        /* \"#utility.yul\":22920:23252   */\n      swap4\n      swap3\n      pop\n      pop\n      pop\n      jump\t// out\n\n    auxdata: 0xa26469706673582212206aa7c577624ec780538ce727c3b551b8bce9d8b3163bec55ae8f8f0f1f20d45264736f6c63430008180033\n}\n",
				"bytecode": {
					"linkReferences": {},
					"object": "608060405234801562000010575f80fd5b5060405162001aaf38038062001aaf833981810160405281019062000036919062000337565b6040518060e001604052808581526020018481526020018381526020013373ffffffffffffffffffffffffffffffffffffffff1681526020018281526020016040518060400160405280600681526020017f4f70656e6564000000000000000000000000000000000000000000000000000081525081526020015f8152505f80820151815f019081620000ca919062000631565b506020820151816001019081620000e2919062000631565b506040820151816002019081620000fa919062000631565b506060820151816003015f6101000a81548173ffffffffffffffffffffffffffffffffffffffff021916908373ffffffffffffffffffffffffffffffffffffffff1602179055506080820151816004015560a082015181600501908162000162919062000631565b5060c082015181600601559050505050505062000715565b5f604051905090565b5f80fd5b5f80fd5b5f80fd5b5f80fd5b5f601f19601f8301169050919050565b7f4e487b71000000000000000000000000000000000000000000000000000000005f52604160045260245ffd5b620001db8262000193565b810181811067ffffffffffffffff82111715620001fd57620001fc620001a3565b5b80604052505050565b5f620002116200017a565b90506200021f8282620001d0565b919050565b5f67ffffffffffffffff821115620002415762000240620001a3565b5b6200024c8262000193565b9050602081019050919050565b5f5b83811015620002785780820151818401526020810190506200025b565b5f8484015250505050565b5f62000299620002938462000224565b62000206565b905082815260208101848484011115620002b857620002b76200018f565b5b620002c584828562000259565b509392505050565b5f82601f830112620002e457620002e36200018b565b5b8151620002f684826020860162000283565b91505092915050565b5f819050919050565b6200031381620002ff565b81146200031e575f80fd5b50565b5f81519050620003318162000308565b92915050565b5f805f806080858703121562000352576200035162000183565b5b5f85015167ffffffffffffffff81111562000372576200037162000187565b5b6200038087828801620002cd565b945050602085015167ffffffffffffffff811115620003a457620003a362000187565b5b620003b287828801620002cd565b935050604085015167ffffffffffffffff811115620003d657620003d562000187565b5b620003e487828801620002cd565b9250506060620003f78782880162000321565b91505092959194509250565b5f81519050919050565b7f4e487b71000000000000000000000000000000000000000000000000000000005f52602260045260245ffd5b5f60028204905060018216806200045257607f821691505b6020821081036200046857620004676200040d565b5b50919050565b5f819050815f5260205f209050919050565b5f6020601f8301049050919050565b5f82821b905092915050565b5f60088302620004cc7fffffffffffffffffffffffffffffffffffffffffffffffffffffffffffffffff826200048f565b620004d886836200048f565b95508019841693508086168417925050509392505050565b5f819050919050565b5f62000519620005136200050d84620002ff565b620004f0565b620002ff565b9050919050565b5f819050919050565b6200053483620004f9565b6200054c620005438262000520565b8484546200049b565b825550505050565b5f90565b6200056262000554565b6200056f81848462000529565b505050565b5b8181101562000596576200058a5f8262000558565b60018101905062000575565b5050565b601f821115620005e557620005af816200046e565b620005ba8462000480565b81016020851015620005ca578190505b620005e2620005d98562000480565b83018262000574565b50505b505050565b5f82821c905092915050565b5f620006075f1984600802620005ea565b1980831691505092915050565b5f620006218383620005f6565b9150826002028217905092915050565b6200063c8262000403565b67ffffffffffffffff811115620006585762000657620001a3565b5b6200066482546200043a565b620006718282856200059a565b5f60209050601f831160018114620006a7575f841562000692578287015190505b6200069e858262000614565b8655506200070d565b601f198416620006b7866200046e565b5f5b82811015620006e057848901518255600182019150602085019450602081019050620006b9565b86831015620007005784890151620006fc601f891682620005f6565b8355505b6001600288020188555050505b505050505050565b61138c80620007235f395ff3fe608060405260043610610033575f3560e01c8063b767050d14610037578063d63dc6611461005f578063f60ca60d14610069575b5f80fd5b348015610042575f80fd5b5061005d60048036038101906100589190610837565b610099565b005b6100676102f5565b005b348015610074575f80fd5b5061007d610569565b6040516100909796959493929190610963565b60405180910390f35b5f6003015f9054906101000a900473ffffffffffffffffffffffffffffffffffffffff1673ffffffffffffffffffffffffffffffffffffffff163373ffffffffffffffffffffffffffffffffffffffff161461012a576040517f08c379a000000000000000000000000000000000000000000000000000000000815260040161012190610a5c565b60405180910390fd5b60405160200161013990610ace565b604051602081830303815290604052805190602001208282604051602001610162929190610b14565b6040516020818303038152906040528051906020012014806101cf575060405160200161018e90610b76565b6040516020818303038152906040528051906020012082826040516020016101b7929190610b14565b60405160208183030381529060405280519060200120145b61020e576040517f08c379a000000000000000000000000000000000000000000000000000000000815260040161020590610bd4565b60405180910390fd5b5f6005016040516020016102229190610ce1565b60405160208183030381529060405280519060200120828260405160200161024b929190610b14565b60405160208183030381529060405280519060200120036102a1576040517f08c379a000000000000000000000000000000000000000000000000000000000815260040161029890610d8d565b60405180910390fd5b81815f60050191826102b4929190610f6d565b507fd74cc10e566844502b1013eb3aee1e3200cc3ffa1f74bf59be4b7c2a66fb9b7d335f6005016040516102e99291906110db565b60405180910390a15050565b5f6003015f9054906101000a900473ffffffffffffffffffffffffffffffffffffffff1673ffffffffffffffffffffffffffffffffffffffff163373ffffffffffffffffffffffffffffffffffffffff1603610386576040517f08c379a000000000000000000000000000000000000000000000000000000000815260040161037d90611153565b60405180910390fd5b60405160200161039590610b76565b604051602081830303815290604052805190602001205f6005016040516020016103bf9190610ce1565b6040516020818303038152906040528051906020012003610415576040517f08c379a000000000000000000000000000000000000000000000000000000000815260040161040c906111bb565b60405180910390fd5b5f3411610457576040517f08c379a000000000000000000000000000000000000000000000000000000000815260040161044e90611249565b60405180910390fd5b5f60060154346104679190611294565b5f6004015410156104ad576040517f08c379a00000000000000000000000000000000000000000000000000000000081526004016104a490611311565b60405180910390fd5b5f6003015f9054906101000a900473ffffffffffffffffffffffffffffffffffffffff1673ffffffffffffffffffffffffffffffffffffffff166108fc3490811502906040515f60405180830381858888f19350505050158015610513573d5f803e3d5ffd5b50345f6006015f8282546105279190611294565b925050819055507f9dbcb1d3adc1305990f05754143d0baf2f49fa6124b6e9f9ee509b31f2ad300b333460405161055f92919061132f565b60405180910390a1565b5f805f01805461057890610c1f565b80601f01602080910402602001604051908101604052809291908181526020018280546105a490610c1f565b80156105ef5780601f106105c6576101008083540402835291602001916105ef565b820191905f5260205f20905b8154815290600101906020018083116105d257829003601f168201915b50505050509080600101805461060490610c1f565b80601f016020809104026020016040519081016040528092919081815260200182805461063090610c1f565b801561067b5780601f106106525761010080835404028352916020019161067b565b820191905f5260205f20905b81548152906001019060200180831161065e57829003601f168201915b50505050509080600201805461069090610c1f565b80601f01602080910402602001604051908101604052809291908181526020018280546106bc90610c1f565b80156107075780601f106106de57610100808354040283529160200191610707565b820191905f5260205f20905b8154815290600101906020018083116106ea57829003601f168201915b505050505090806003015f9054906101000a900473ffffffffffffffffffffffffffffffffffffffff169080600401549080600501805461074790610c1f565b80601f016020809104026020016040519081016040528092919081815260200182805461077390610c1f565b80156107be5780601f10610795576101008083540402835291602001916107be565b820191905f5260205f20905b8154815290600101906020018083116107a157829003601f168201915b5050505050908060060154905087565b5f80fd5b5f80fd5b5f80fd5b5f80fd5b5f80fd5b5f8083601f8401126107f7576107f66107d6565b5b8235905067ffffffffffffffff811115610814576108136107da565b5b6020830191508360018202830111156108305761082f6107de565b5b9250929050565b5f806020838503121561084d5761084c6107ce565b5b5f83013567ffffffffffffffff81111561086a576108696107d2565b5b610876858286016107e2565b92509250509250929050565b5f81519050919050565b5f82825260208201905092915050565b5f5b838110156108b957808201518184015260208101905061089e565b5f8484015250505050565b5f601f19601f8301169050919050565b5f6108de82610882565b6108e8818561088c565b93506108f881856020860161089c565b610901816108c4565b840191505092915050565b5f73ffffffffffffffffffffffffffffffffffffffff82169050919050565b5f6109358261090c565b9050919050565b6109458161092b565b82525050565b5f819050919050565b61095d8161094b565b82525050565b5f60e0820190508181035f83015261097b818a6108d4565b9050818103602083015261098f81896108d4565b905081810360408301526109a381886108d4565b90506109b2606083018761093c565b6109bf6080830186610954565b81810360a08301526109d181856108d4565b90506109e060c0830184610954565b98975050505050505050565b7f4f6e6c7920746865206f776e65722063616e206368616e6765207468652070725f8201527f6f6a656374207374617465000000000000000000000000000000000000000000602082015250565b5f610a46602b8361088c565b9150610a51826109ec565b604082019050919050565b5f6020820190508181035f830152610a7381610a3a565b9050919050565b5f81905092915050565b7f4f70656e656400000000000000000000000000000000000000000000000000005f82015250565b5f610ab8600683610a7a565b9150610ac382610a84565b600682019050919050565b5f610ad882610aac565b9150819050919050565b828183375f83830152505050565b5f610afb8385610a7a565b9350610b08838584610ae2565b82840190509392505050565b5f610b20828486610af0565b91508190509392505050565b7f436c6f73656400000000000000000000000000000000000000000000000000005f82015250565b5f610b60600683610a7a565b9150610b6b82610b2c565b600682019050919050565b5f610b8082610b54565b9150819050919050565b7f53746174654e6f74446566696e65643a20496e76616c696420737461746500005f82015250565b5f610bbe601e8361088c565b9150610bc982610b8a565b602082019050919050565b5f6020820190508181035f830152610beb81610bb2565b9050919050565b7f4e487b71000000000000000000000000000000000000000000000000000000005f52602260045260245ffd5b5f6002820490506001821680610c3657607f821691505b602082108103610c4957610c48610bf2565b5b50919050565b5f819050815f5260205f209050919050565b5f8154610c6d81610c1f565b610c778186610a7a565b9450600182165f8114610c915760018114610ca657610cd8565b60ff1983168652811515820286019350610cd8565b610caf85610c4f565b5f5b83811015610cd057815481890152600182019150602081019050610cb1565b838801955050505b50505092915050565b5f610cec8284610c61565b915081905092915050565b7f53746174654e6f74446566696e65643a204e6577207374617465206d757374205f8201527f626520646966666572656e742066726f6d207468652063757272656e74206f6e60208201527f6500000000000000000000000000000000000000000000000000000000000000604082015250565b5f610d7760418361088c565b9150610d8282610cf7565b606082019050919050565b5f6020820190508181035f830152610da481610d6b565b9050919050565b5f82905092915050565b7f4e487b71000000000000000000000000000000000000000000000000000000005f52604160045260245ffd5b5f6020601f8301049050919050565b5f82821b905092915050565b5f60088302610e2c7fffffffffffffffffffffffffffffffffffffffffffffffffffffffffffffffff82610df1565b610e368683610df1565b95508019841693508086168417925050509392505050565b5f819050919050565b5f610e71610e6c610e678461094b565b610e4e565b61094b565b9050919050565b5f819050919050565b610e8a83610e57565b610e9e610e9682610e78565b848454610dfd565b825550505050565b5f90565b610eb2610ea6565b610ebd818484610e81565b505050565b5b81811015610ee057610ed55f82610eaa565b600181019050610ec3565b5050565b601f821115610f2557610ef681610c4f565b610eff84610de2565b81016020851015610f0e578190505b610f22610f1a85610de2565b830182610ec2565b50505b505050565b5f82821c905092915050565b5f610f455f1984600802610f2a565b1980831691505092915050565b5f610f5d8383610f36565b9150826002028217905092915050565b610f778383610dab565b67ffffffffffffffff811115610f9057610f8f610db5565b5b610f9a8254610c1f565b610fa5828285610ee4565b5f601f831160018114610fd2575f8415610fc0578287013590505b610fca8582610f52565b865550611031565b601f198416610fe086610c4f565b5f5b8281101561100757848901358255600182019150602085019450602081019050610fe2565b868310156110245784890135611020601f891682610f36565b8355505b6001600288020188555050505b50505050505050565b5f6110448261090c565b9050919050565b6110548161103a565b82525050565b5f815461106681610c1f565b611070818661088c565b9450600182165f811461108a57600181146110a0576110d2565b60ff1983168652811515602002860193506110d2565b6110a985610c4f565b5f5b838110156110ca578154818901526001820191506020810190506110ab565b808801955050505b50505092915050565b5f6040820190506110ee5f83018561104b565b8181036020830152611100818461105a565b90509392505050565b7f4f776e6572732063616e27742066756e642074686569722070726f6a656374005f82015250565b5f61113d601f8361088c565b915061114882611109565b602082019050919050565b5f6020820190508181035f83015261116a81611131565b9050919050565b7f5374617465436c6f7365643a2050726f6a65637420697320636c6f73656400005f82015250565b5f6111a5601e8361088c565b91506111b082611171565b602082019050919050565b5f6020820190508181035f8301526111d281611199565b9050919050565b7f54686520636f6e747269627574696f6e206d757374206861766520612076616c5f8201527f75652067726561746572207468616e207a65726f000000000000000000000000602082015250565b5f61123360348361088c565b915061123e826111d9565b604082019050919050565b5f6020820190508181035f83015261126081611227565b9050919050565b7f4e487b71000000000000000000000000000000000000000000000000000000005f52601160045260245ffd5b5f61129e8261094b565b91506112a98361094b565b92508282019050808211156112c1576112c0611267565b5b92915050565b7f5468652066756e6472616973696e6720676f616c2069732065786365656465645f82015250565b5f6112fb60208361088c565b9150611306826112c7565b602082019050919050565b5f6020820190508181035f830152611328816112ef565b9050919050565b5f6040820190506113425f83018561104b565b61134f6020830184610954565b939250505056fea26469706673582212206aa7c577624ec780538ce727c3b551b8bce9d8b3163bec55ae8f8f0f1f20d45264736f6c63430008180033",
					"opcodes": "PUSH1 0x80 PUSH1 0x40 MSTORE CALLVALUE DUP1 ISZERO PUSH3 0x10 JUMPI PUSH0 DUP1 REVERT JUMPDEST POP PUSH1 0x40 MLOAD PUSH3 0x1AAF CODESIZE SUB DUP1 PUSH3 0x1AAF DUP4 CODECOPY DUP2 DUP2 ADD PUSH1 0x40 MSTORE DUP2 ADD SWAP1 PUSH3 0x36 SWAP2 SWAP1 PUSH3 0x337 JUMP JUMPDEST PUSH1 0x40 MLOAD DUP1 PUSH1 0xE0 ADD PUSH1 0x40 MSTORE DUP1 DUP6 DUP2 MSTORE PUSH1 0x20 ADD DUP5 DUP2 MSTORE PUSH1 0x20 ADD DUP4 DUP2 MSTORE PUSH1 0x20 ADD CALLER PUSH20 0xFFFFFFFFFFFFFFFFFFFFFFFFFFFFFFFFFFFFFFFF AND DUP2 MSTORE PUSH1 0x20 ADD DUP3 DUP2 MSTORE PUSH1 0x20 ADD PUSH1 0x40 MLOAD DUP1 PUSH1 0x40 ADD PUSH1 0x40 MSTORE DUP1 PUSH1 0x6 DUP2 MSTORE PUSH1 0x20 ADD PUSH32 0x4F70656E65640000000000000000000000000000000000000000000000000000 DUP2 MSTORE POP DUP2 MSTORE PUSH1 0x20 ADD PUSH0 DUP2 MSTORE POP PUSH0 DUP1 DUP3 ADD MLOAD DUP2 PUSH0 ADD SWAP1 DUP2 PUSH3 0xCA SWAP2 SWAP1 PUSH3 0x631 JUMP JUMPDEST POP PUSH1 0x20 DUP3 ADD MLOAD DUP2 PUSH1 0x1 ADD SWAP1 DUP2 PUSH3 0xE2 SWAP2 SWAP1 PUSH3 0x631 JUMP JUMPDEST POP PUSH1 0x40 DUP3 ADD MLOAD DUP2 PUSH1 0x2 ADD SWAP1 DUP2 PUSH3 0xFA SWAP2 SWAP1 PUSH3 0x631 JUMP JUMPDEST POP PUSH1 0x60 DUP3 ADD MLOAD DUP2 PUSH1 0x3 ADD PUSH0 PUSH2 0x100 EXP DUP2 SLOAD DUP2 PUSH20 0xFFFFFFFFFFFFFFFFFFFFFFFFFFFFFFFFFFFFFFFF MUL NOT AND SWAP1 DUP4 PUSH20 0xFFFFFFFFFFFFFFFFFFFFFFFFFFFFFFFFFFFFFFFF AND MUL OR SWAP1 SSTORE POP PUSH1 0x80 DUP3 ADD MLOAD DUP2 PUSH1 0x4 ADD SSTORE PUSH1 0xA0 DUP3 ADD MLOAD DUP2 PUSH1 0x5 ADD SWAP1 DUP2 PUSH3 0x162 SWAP2 SWAP1 PUSH3 0x631 JUMP JUMPDEST POP PUSH1 0xC0 DUP3 ADD MLOAD DUP2 PUSH1 0x6 ADD SSTORE SWAP1 POP POP POP POP POP POP PUSH3 0x715 JUMP JUMPDEST PUSH0 PUSH1 0x40 MLOAD SWAP1 POP SWAP1 JUMP JUMPDEST PUSH0 DUP1 REVERT JUMPDEST PUSH0 DUP1 REVERT JUMPDEST PUSH0 DUP1 REVERT JUMPDEST PUSH0 DUP1 REVERT JUMPDEST PUSH0 PUSH1 0x1F NOT PUSH1 0x1F DUP4 ADD AND SWAP1 POP SWAP2 SWAP1 POP JUMP JUMPDEST PUSH32 0x4E487B7100000000000000000000000000000000000000000000000000000000 PUSH0 MSTORE PUSH1 0x41 PUSH1 0x4 MSTORE PUSH1 0x24 PUSH0 REVERT JUMPDEST PUSH3 0x1DB DUP3 PUSH3 0x193 JUMP JUMPDEST DUP2 ADD DUP2 DUP2 LT PUSH8 0xFFFFFFFFFFFFFFFF DUP3 GT OR ISZERO PUSH3 0x1FD JUMPI PUSH3 0x1FC PUSH3 0x1A3 JUMP JUMPDEST JUMPDEST DUP1 PUSH1 0x40 MSTORE POP POP POP JUMP JUMPDEST PUSH0 PUSH3 0x211 PUSH3 0x17A JUMP JUMPDEST SWAP1 POP PUSH3 0x21F DUP3 DUP3 PUSH3 0x1D0 JUMP JUMPDEST SWAP2 SWAP1 POP JUMP JUMPDEST PUSH0 PUSH8 0xFFFFFFFFFFFFFFFF DUP3 GT ISZERO PUSH3 0x241 JUMPI PUSH3 0x240 PUSH3 0x1A3 JUMP JUMPDEST JUMPDEST PUSH3 0x24C DUP3 PUSH3 0x193 JUMP JUMPDEST SWAP1 POP PUSH1 0x20 DUP2 ADD SWAP1 POP SWAP2 SWAP1 POP JUMP JUMPDEST PUSH0 JUMPDEST DUP4 DUP2 LT ISZERO PUSH3 0x278 JUMPI DUP1 DUP3 ADD MLOAD DUP2 DUP5 ADD MSTORE PUSH1 0x20 DUP2 ADD SWAP1 POP PUSH3 0x25B JUMP JUMPDEST PUSH0 DUP5 DUP5 ADD MSTORE POP POP POP POP JUMP JUMPDEST PUSH0 PUSH3 0x299 PUSH3 0x293 DUP5 PUSH3 0x224 JUMP JUMPDEST PUSH3 0x206 JUMP JUMPDEST SWAP1 POP DUP3 DUP2 MSTORE PUSH1 0x20 DUP2 ADD DUP5 DUP5 DUP5 ADD GT ISZERO PUSH3 0x2B8 JUMPI PUSH3 0x2B7 PUSH3 0x18F JUMP JUMPDEST JUMPDEST PUSH3 0x2C5 DUP5 DUP3 DUP6 PUSH3 0x259 JUMP JUMPDEST POP SWAP4 SWAP3 POP POP POP JUMP JUMPDEST PUSH0 DUP3 PUSH1 0x1F DUP4 ADD SLT PUSH3 0x2E4 JUMPI PUSH3 0x2E3 PUSH3 0x18B JUMP JUMPDEST JUMPDEST DUP2 MLOAD PUSH3 0x2F6 DUP5 DUP3 PUSH1 0x20 DUP7 ADD PUSH3 0x283 JUMP JUMPDEST SWAP2 POP POP SWAP3 SWAP2 POP POP JUMP JUMPDEST PUSH0 DUP2 SWAP1 POP SWAP2 SWAP1 POP JUMP JUMPDEST PUSH3 0x313 DUP2 PUSH3 0x2FF JUMP JUMPDEST DUP2 EQ PUSH3 0x31E JUMPI PUSH0 DUP1 REVERT JUMPDEST POP JUMP JUMPDEST PUSH0 DUP2 MLOAD SWAP1 POP PUSH3 0x331 DUP2 PUSH3 0x308 JUMP JUMPDEST SWAP3 SWAP2 POP POP JUMP JUMPDEST PUSH0 DUP1 PUSH0 DUP1 PUSH1 0x80 DUP6 DUP8 SUB SLT ISZERO PUSH3 0x352 JUMPI PUSH3 0x351 PUSH3 0x183 JUMP JUMPDEST JUMPDEST PUSH0 DUP6 ADD MLOAD PUSH8 0xFFFFFFFFFFFFFFFF DUP2 GT ISZERO PUSH3 0x372 JUMPI PUSH3 0x371 PUSH3 0x187 JUMP JUMPDEST JUMPDEST PUSH3 0x380 DUP8 DUP3 DUP9 ADD PUSH3 0x2CD JUMP JUMPDEST SWAP5 POP POP PUSH1 0x20 DUP6 ADD MLOAD PUSH8 0xFFFFFFFFFFFFFFFF DUP2 GT ISZERO PUSH3 0x3A4 JUMPI PUSH3 0x3A3 PUSH3 0x187 JUMP JUMPDEST JUMPDEST PUSH3 0x3B2 DUP8 DUP3 DUP9 ADD PUSH3 0x2CD JUMP JUMPDEST SWAP4 POP POP PUSH1 0x40 DUP6 ADD MLOAD PUSH8 0xFFFFFFFFFFFFFFFF DUP2 GT ISZERO PUSH3 0x3D6 JUMPI PUSH3 0x3D5 PUSH3 0x187 JUMP JUMPDEST JUMPDEST PUSH3 0x3E4 DUP8 DUP3 DUP9 ADD PUSH3 0x2CD JUMP JUMPDEST SWAP3 POP POP PUSH1 0x60 PUSH3 0x3F7 DUP8 DUP3 DUP9 ADD PUSH3 0x321 JUMP JUMPDEST SWAP2 POP POP SWAP3 SWAP6 SWAP2 SWAP5 POP SWAP3 POP JUMP JUMPDEST PUSH0 DUP2 MLOAD SWAP1 POP SWAP2 SWAP1 POP JUMP JUMPDEST PUSH32 0x4E487B7100000000000000000000000000000000000000000000000000000000 PUSH0 MSTORE PUSH1 0x22 PUSH1 0x4 MSTORE PUSH1 0x24 PUSH0 REVERT JUMPDEST PUSH0 PUSH1 0x2 DUP3 DIV SWAP1 POP PUSH1 0x1 DUP3 AND DUP1 PUSH3 0x452 JUMPI PUSH1 0x7F DUP3 AND SWAP2 POP JUMPDEST PUSH1 0x20 DUP3 LT DUP2 SUB PUSH3 0x468 JUMPI PUSH3 0x467 PUSH3 0x40D JUMP JUMPDEST JUMPDEST POP SWAP2 SWAP1 POP JUMP JUMPDEST PUSH0 DUP2 SWAP1 POP DUP2 PUSH0 MSTORE PUSH1 0x20 PUSH0 KECCAK256 SWAP1 POP SWAP2 SWAP1 POP JUMP JUMPDEST PUSH0 PUSH1 0x20 PUSH1 0x1F DUP4 ADD DIV SWAP1 POP SWAP2 SWAP1 POP JUMP JUMPDEST PUSH0 DUP3 DUP3 SHL SWAP1 POP SWAP3 SWAP2 POP POP JUMP JUMPDEST PUSH0 PUSH1 0x8 DUP4 MUL PUSH3 0x4CC PUSH32 0xFFFFFFFFFFFFFFFFFFFFFFFFFFFFFFFFFFFFFFFFFFFFFFFFFFFFFFFFFFFFFFFF DUP3 PUSH3 0x48F JUMP JUMPDEST PUSH3 0x4D8 DUP7 DUP4 PUSH3 0x48F JUMP JUMPDEST SWAP6 POP DUP1 NOT DUP5 AND SWAP4 POP DUP1 DUP7 AND DUP5 OR SWAP3 POP POP POP SWAP4 SWAP3 POP POP POP JUMP JUMPDEST PUSH0 DUP2 SWAP1 POP SWAP2 SWAP1 POP JUMP JUMPDEST PUSH0 PUSH3 0x519 PUSH3 0x513 PUSH3 0x50D DUP5 PUSH3 0x2FF JUMP JUMPDEST PUSH3 0x4F0 JUMP JUMPDEST PUSH3 0x2FF JUMP JUMPDEST SWAP1 POP SWAP2 SWAP1 POP JUMP JUMPDEST PUSH0 DUP2 SWAP1 POP SWAP2 SWAP1 POP JUMP JUMPDEST PUSH3 0x534 DUP4 PUSH3 0x4F9 JUMP JUMPDEST PUSH3 0x54C PUSH3 0x543 DUP3 PUSH3 0x520 JUMP JUMPDEST DUP5 DUP5 SLOAD PUSH3 0x49B JUMP JUMPDEST DUP3 SSTORE POP POP POP POP JUMP JUMPDEST PUSH0 SWAP1 JUMP JUMPDEST PUSH3 0x562 PUSH3 0x554 JUMP JUMPDEST PUSH3 0x56F DUP2 DUP5 DUP5 PUSH3 0x529 JUMP JUMPDEST POP POP POP JUMP JUMPDEST JUMPDEST DUP2 DUP2 LT ISZERO PUSH3 0x596 JUMPI PUSH3 0x58A PUSH0 DUP3 PUSH3 0x558 JUMP JUMPDEST PUSH1 0x1 DUP2 ADD SWAP1 POP PUSH3 0x575 JUMP JUMPDEST POP POP JUMP JUMPDEST PUSH1 0x1F DUP3 GT ISZERO PUSH3 0x5E5 JUMPI PUSH3 0x5AF DUP2 PUSH3 0x46E JUMP JUMPDEST PUSH3 0x5BA DUP5 PUSH3 0x480 JUMP JUMPDEST DUP2 ADD PUSH1 0x20 DUP6 LT ISZERO PUSH3 0x5CA JUMPI DUP2 SWAP1 POP JUMPDEST PUSH3 0x5E2 PUSH3 0x5D9 DUP6 PUSH3 0x480 JUMP JUMPDEST DUP4 ADD DUP3 PUSH3 0x574 JUMP JUMPDEST POP POP JUMPDEST POP POP POP JUMP JUMPDEST PUSH0 DUP3 DUP3 SHR SWAP1 POP SWAP3 SWAP2 POP POP JUMP JUMPDEST PUSH0 PUSH3 0x607 PUSH0 NOT DUP5 PUSH1 0x8 MUL PUSH3 0x5EA JUMP JUMPDEST NOT DUP1 DUP4 AND SWAP2 POP POP SWAP3 SWAP2 POP POP JUMP JUMPDEST PUSH0 PUSH3 0x621 DUP4 DUP4 PUSH3 0x5F6 JUMP JUMPDEST SWAP2 POP DUP3 PUSH1 0x2 MUL DUP3 OR SWAP1 POP SWAP3 SWAP2 POP POP JUMP JUMPDEST PUSH3 0x63C DUP3 PUSH3 0x403 JUMP JUMPDEST PUSH8 0xFFFFFFFFFFFFFFFF DUP2 GT ISZERO PUSH3 0x658 JUMPI PUSH3 0x657 PUSH3 0x1A3 JUMP JUMPDEST JUMPDEST PUSH3 0x664 DUP3 SLOAD PUSH3 0x43A JUMP JUMPDEST PUSH3 0x671 DUP3 DUP3 DUP6 PUSH3 0x59A JUMP JUMPDEST PUSH0 PUSH1 0x20 SWAP1 POP PUSH1 0x1F DUP4 GT PUSH1 0x1 DUP2 EQ PUSH3 0x6A7 JUMPI PUSH0 DUP5 ISZERO PUSH3 0x692 JUMPI DUP3 DUP8 ADD MLOAD SWAP1 POP JUMPDEST PUSH3 0x69E DUP6 DUP3 PUSH3 0x614 JUMP JUMPDEST DUP7 SSTORE POP PUSH3 0x70D JUMP JUMPDEST PUSH1 0x1F NOT DUP5 AND PUSH3 0x6B7 DUP7 PUSH3 0x46E JUMP JUMPDEST PUSH0 JUMPDEST DUP3 DUP2 LT ISZERO PUSH3 0x6E0 JUMPI DUP5 DUP10 ADD MLOAD DUP3 SSTORE PUSH1 0x1 DUP3 ADD SWAP2 POP PUSH1 0x20 DUP6 ADD SWAP5 POP PUSH1 0x20 DUP2 ADD SWAP1 POP PUSH3 0x6B9 JUMP JUMPDEST DUP7 DUP4 LT ISZERO PUSH3 0x700 JUMPI DUP5 DUP10 ADD MLOAD PUSH3 0x6FC PUSH1 0x1F DUP10 AND DUP3 PUSH3 0x5F6 JUMP JUMPDEST DUP4 SSTORE POP JUMPDEST PUSH1 0x1 PUSH1 0x2 DUP9 MUL ADD DUP9 SSTORE POP POP POP JUMPDEST POP POP POP POP POP POP JUMP JUMPDEST PUSH2 0x138C DUP1 PUSH3 0x723 PUSH0 CODECOPY PUSH0 RETURN INVALID PUSH1 0x80 PUSH1 0x40 MSTORE PUSH1 0x4 CALLDATASIZE LT PUSH2 0x33 JUMPI PUSH0 CALLDATALOAD PUSH1 0xE0 SHR DUP1 PUSH4 0xB767050D EQ PUSH2 0x37 JUMPI DUP1 PUSH4 0xD63DC661 EQ PUSH2 0x5F JUMPI DUP1 PUSH4 0xF60CA60D EQ PUSH2 0x69 JUMPI JUMPDEST PUSH0 DUP1 REVERT JUMPDEST CALLVALUE DUP1 ISZERO PUSH2 0x42 JUMPI PUSH0 DUP1 REVERT JUMPDEST POP PUSH2 0x5D PUSH1 0x4 DUP1 CALLDATASIZE SUB DUP2 ADD SWAP1 PUSH2 0x58 SWAP2 SWAP1 PUSH2 0x837 JUMP JUMPDEST PUSH2 0x99 JUMP JUMPDEST STOP JUMPDEST PUSH2 0x67 PUSH2 0x2F5 JUMP JUMPDEST STOP JUMPDEST CALLVALUE DUP1 ISZERO PUSH2 0x74 JUMPI PUSH0 DUP1 REVERT JUMPDEST POP PUSH2 0x7D PUSH2 0x569 JUMP JUMPDEST PUSH1 0x40 MLOAD PUSH2 0x90 SWAP8 SWAP7 SWAP6 SWAP5 SWAP4 SWAP3 SWAP2 SWAP1 PUSH2 0x963 JUMP JUMPDEST PUSH1 0x40 MLOAD DUP1 SWAP2 SUB SWAP1 RETURN JUMPDEST PUSH0 PUSH1 0x3 ADD PUSH0 SWAP1 SLOAD SWAP1 PUSH2 0x100 EXP SWAP1 DIV PUSH20 0xFFFFFFFFFFFFFFFFFFFFFFFFFFFFFFFFFFFFFFFF AND PUSH20 0xFFFFFFFFFFFFFFFFFFFFFFFFFFFFFFFFFFFFFFFF AND CALLER PUSH20 0xFFFFFFFFFFFFFFFFFFFFFFFFFFFFFFFFFFFFFFFF AND EQ PUSH2 0x12A JUMPI PUSH1 0x40 MLOAD PUSH32 0x8C379A000000000000000000000000000000000000000000000000000000000 DUP2 MSTORE PUSH1 0x4 ADD PUSH2 0x121 SWAP1 PUSH2 0xA5C JUMP JUMPDEST PUSH1 0x40 MLOAD DUP1 SWAP2 SUB SWAP1 REVERT JUMPDEST PUSH1 0x40 MLOAD PUSH1 0x20 ADD PUSH2 0x139 SWAP1 PUSH2 0xACE JUMP JUMPDEST PUSH1 0x40 MLOAD PUSH1 0x20 DUP2 DUP4 SUB SUB DUP2 MSTORE SWAP1 PUSH1 0x40 MSTORE DUP1 MLOAD SWAP1 PUSH1 0x20 ADD KECCAK256 DUP3 DUP3 PUSH1 0x40 MLOAD PUSH1 0x20 ADD PUSH2 0x162 SWAP3 SWAP2 SWAP1 PUSH2 0xB14 JUMP JUMPDEST PUSH1 0x40 MLOAD PUSH1 0x20 DUP2 DUP4 SUB SUB DUP2 MSTORE SWAP1 PUSH1 0x40 MSTORE DUP1 MLOAD SWAP1 PUSH1 0x20 ADD KECCAK256 EQ DUP1 PUSH2 0x1CF JUMPI POP PUSH1 0x40 MLOAD PUSH1 0x20 ADD PUSH2 0x18E SWAP1 PUSH2 0xB76 JUMP JUMPDEST PUSH1 0x40 MLOAD PUSH1 0x20 DUP2 DUP4 SUB SUB DUP2 MSTORE SWAP1 PUSH1 0x40 MSTORE DUP1 MLOAD SWAP1 PUSH1 0x20 ADD KECCAK256 DUP3 DUP3 PUSH1 0x40 MLOAD PUSH1 0x20 ADD PUSH2 0x1B7 SWAP3 SWAP2 SWAP1 PUSH2 0xB14 JUMP JUMPDEST PUSH1 0x40 MLOAD PUSH1 0x20 DUP2 DUP4 SUB SUB DUP2 MSTORE SWAP1 PUSH1 0x40 MSTORE DUP1 MLOAD SWAP1 PUSH1 0x20 ADD KECCAK256 EQ JUMPDEST PUSH2 0x20E JUMPI PUSH1 0x40 MLOAD PUSH32 0x8C379A000000000000000000000000000000000000000000000000000000000 DUP2 MSTORE PUSH1 0x4 ADD PUSH2 0x205 SWAP1 PUSH2 0xBD4 JUMP JUMPDEST PUSH1 0x40 MLOAD DUP1 SWAP2 SUB SWAP1 REVERT JUMPDEST PUSH0 PUSH1 0x5 ADD PUSH1 0x40 MLOAD PUSH1 0x20 ADD PUSH2 0x222 SWAP2 SWAP1 PUSH2 0xCE1 JUMP JUMPDEST PUSH1 0x40 MLOAD PUSH1 0x20 DUP2 DUP4 SUB SUB DUP2 MSTORE SWAP1 PUSH1 0x40 MSTORE DUP1 MLOAD SWAP1 PUSH1 0x20 ADD KECCAK256 DUP3 DUP3 PUSH1 0x40 MLOAD PUSH1 0x20 ADD PUSH2 0x24B SWAP3 SWAP2 SWAP1 PUSH2 0xB14 JUMP JUMPDEST PUSH1 0x40 MLOAD PUSH1 0x20 DUP2 DUP4 SUB SUB DUP2 MSTORE SWAP1 PUSH1 0x40 MSTORE DUP1 MLOAD SWAP1 PUSH1 0x20 ADD KECCAK256 SUB PUSH2 0x2A1 JUMPI PUSH1 0x40 MLOAD PUSH32 0x8C379A000000000000000000000000000000000000000000000000000000000 DUP2 MSTORE PUSH1 0x4 ADD PUSH2 0x298 SWAP1 PUSH2 0xD8D JUMP JUMPDEST PUSH1 0x40 MLOAD DUP1 SWAP2 SUB SWAP1 REVERT JUMPDEST DUP2 DUP2 PUSH0 PUSH1 0x5 ADD SWAP2 DUP3 PUSH2 0x2B4 SWAP3 SWAP2 SWAP1 PUSH2 0xF6D JUMP JUMPDEST POP PUSH32 0xD74CC10E566844502B1013EB3AEE1E3200CC3FFA1F74BF59BE4B7C2A66FB9B7D CALLER PUSH0 PUSH1 0x5 ADD PUSH1 0x40 MLOAD PUSH2 0x2E9 SWAP3 SWAP2 SWAP1 PUSH2 0x10DB JUMP JUMPDEST PUSH1 0x40 MLOAD DUP1 SWAP2 SUB SWAP1 LOG1 POP POP JUMP JUMPDEST PUSH0 PUSH1 0x3 ADD PUSH0 SWAP1 SLOAD SWAP1 PUSH2 0x100 EXP SWAP1 DIV PUSH20 0xFFFFFFFFFFFFFFFFFFFFFFFFFFFFFFFFFFFFFFFF AND PUSH20 0xFFFFFFFFFFFFFFFFFFFFFFFFFFFFFFFFFFFFFFFF AND CALLER PUSH20 0xFFFFFFFFFFFFFFFFFFFFFFFFFFFFFFFFFFFFFFFF AND SUB PUSH2 0x386 JUMPI PUSH1 0x40 MLOAD PUSH32 0x8C379A000000000000000000000000000000000000000000000000000000000 DUP2 MSTORE PUSH1 0x4 ADD PUSH2 0x37D SWAP1 PUSH2 0x1153 JUMP JUMPDEST PUSH1 0x40 MLOAD DUP1 SWAP2 SUB SWAP1 REVERT JUMPDEST PUSH1 0x40 MLOAD PUSH1 0x20 ADD PUSH2 0x395 SWAP1 PUSH2 0xB76 JUMP JUMPDEST PUSH1 0x40 MLOAD PUSH1 0x20 DUP2 DUP4 SUB SUB DUP2 MSTORE SWAP1 PUSH1 0x40 MSTORE DUP1 MLOAD SWAP1 PUSH1 0x20 ADD KECCAK256 PUSH0 PUSH1 0x5 ADD PUSH1 0x40 MLOAD PUSH1 0x20 ADD PUSH2 0x3BF SWAP2 SWAP1 PUSH2 0xCE1 JUMP JUMPDEST PUSH1 0x40 MLOAD PUSH1 0x20 DUP2 DUP4 SUB SUB DUP2 MSTORE SWAP1 PUSH1 0x40 MSTORE DUP1 MLOAD SWAP1 PUSH1 0x20 ADD KECCAK256 SUB PUSH2 0x415 JUMPI PUSH1 0x40 MLOAD PUSH32 0x8C379A000000000000000000000000000000000000000000000000000000000 DUP2 MSTORE PUSH1 0x4 ADD PUSH2 0x40C SWAP1 PUSH2 0x11BB JUMP JUMPDEST PUSH1 0x40 MLOAD DUP1 SWAP2 SUB SWAP1 REVERT JUMPDEST PUSH0 CALLVALUE GT PUSH2 0x457 JUMPI PUSH1 0x40 MLOAD PUSH32 0x8C379A000000000000000000000000000000000000000000000000000000000 DUP2 MSTORE PUSH1 0x4 ADD PUSH2 0x44E SWAP1 PUSH2 0x1249 JUMP JUMPDEST PUSH1 0x40 MLOAD DUP1 SWAP2 SUB SWAP1 REVERT JUMPDEST PUSH0 PUSH1 0x6 ADD SLOAD CALLVALUE PUSH2 0x467 SWAP2 SWAP1 PUSH2 0x1294 JUMP JUMPDEST PUSH0 PUSH1 0x4 ADD SLOAD LT ISZERO PUSH2 0x4AD JUMPI PUSH1 0x40 MLOAD PUSH32 0x8C379A000000000000000000000000000000000000000000000000000000000 DUP2 MSTORE PUSH1 0x4 ADD PUSH2 0x4A4 SWAP1 PUSH2 0x1311 JUMP JUMPDEST PUSH1 0x40 MLOAD DUP1 SWAP2 SUB SWAP1 REVERT JUMPDEST PUSH0 PUSH1 0x3 ADD PUSH0 SWAP1 SLOAD SWAP1 PUSH2 0x100 EXP SWAP1 DIV PUSH20 0xFFFFFFFFFFFFFFFFFFFFFFFFFFFFFFFFFFFFFFFF AND PUSH20 0xFFFFFFFFFFFFFFFFFFFFFFFFFFFFFFFFFFFFFFFF AND PUSH2 0x8FC CALLVALUE SWAP1 DUP2 ISZERO MUL SWAP1 PUSH1 0x40 MLOAD PUSH0 PUSH1 0x40 MLOAD DUP1 DUP4 SUB DUP2 DUP6 DUP9 DUP9 CALL SWAP4 POP POP POP POP ISZERO DUP1 ISZERO PUSH2 0x513 JUMPI RETURNDATASIZE PUSH0 DUP1 RETURNDATACOPY RETURNDATASIZE PUSH0 REVERT JUMPDEST POP CALLVALUE PUSH0 PUSH1 0x6 ADD PUSH0 DUP3 DUP3 SLOAD PUSH2 0x527 SWAP2 SWAP1 PUSH2 0x1294 JUMP JUMPDEST SWAP3 POP POP DUP2 SWAP1 SSTORE POP PUSH32 0x9DBCB1D3ADC1305990F05754143D0BAF2F49FA6124B6E9F9EE509B31F2AD300B CALLER CALLVALUE PUSH1 0x40 MLOAD PUSH2 0x55F SWAP3 SWAP2 SWAP1 PUSH2 0x132F JUMP JUMPDEST PUSH1 0x40 MLOAD DUP1 SWAP2 SUB SWAP1 LOG1 JUMP JUMPDEST PUSH0 DUP1 PUSH0 ADD DUP1 SLOAD PUSH2 0x578 SWAP1 PUSH2 0xC1F JUMP JUMPDEST DUP1 PUSH1 0x1F ADD PUSH1 0x20 DUP1 SWAP2 DIV MUL PUSH1 0x20 ADD PUSH1 0x40 MLOAD SWAP1 DUP2 ADD PUSH1 0x40 MSTORE DUP1 SWAP3 SWAP2 SWAP1 DUP2 DUP2 MSTORE PUSH1 0x20 ADD DUP3 DUP1 SLOAD PUSH2 0x5A4 SWAP1 PUSH2 0xC1F JUMP JUMPDEST DUP1 ISZERO PUSH2 0x5EF JUMPI DUP1 PUSH1 0x1F LT PUSH2 0x5C6 JUMPI PUSH2 0x100 DUP1 DUP4 SLOAD DIV MUL DUP4 MSTORE SWAP2 PUSH1 0x20 ADD SWAP2 PUSH2 0x5EF JUMP JUMPDEST DUP3 ADD SWAP2 SWAP1 PUSH0 MSTORE PUSH1 0x20 PUSH0 KECCAK256 SWAP1 JUMPDEST DUP2 SLOAD DUP2 MSTORE SWAP1 PUSH1 0x1 ADD SWAP1 PUSH1 0x20 ADD DUP1 DUP4 GT PUSH2 0x5D2 JUMPI DUP3 SWAP1 SUB PUSH1 0x1F AND DUP3 ADD SWAP2 JUMPDEST POP POP POP POP POP SWAP1 DUP1 PUSH1 0x1 ADD DUP1 SLOAD PUSH2 0x604 SWAP1 PUSH2 0xC1F JUMP JUMPDEST DUP1 PUSH1 0x1F ADD PUSH1 0x20 DUP1 SWAP2 DIV MUL PUSH1 0x20 ADD PUSH1 0x40 MLOAD SWAP1 DUP2 ADD PUSH1 0x40 MSTORE DUP1 SWAP3 SWAP2 SWAP1 DUP2 DUP2 MSTORE PUSH1 0x20 ADD DUP3 DUP1 SLOAD PUSH2 0x630 SWAP1 PUSH2 0xC1F JUMP JUMPDEST DUP1 ISZERO PUSH2 0x67B JUMPI DUP1 PUSH1 0x1F LT PUSH2 0x652 JUMPI PUSH2 0x100 DUP1 DUP4 SLOAD DIV MUL DUP4 MSTORE SWAP2 PUSH1 0x20 ADD SWAP2 PUSH2 0x67B JUMP JUMPDEST DUP3 ADD SWAP2 SWAP1 PUSH0 MSTORE PUSH1 0x20 PUSH0 KECCAK256 SWAP1 JUMPDEST DUP2 SLOAD DUP2 MSTORE SWAP1 PUSH1 0x1 ADD SWAP1 PUSH1 0x20 ADD DUP1 DUP4 GT PUSH2 0x65E JUMPI DUP3 SWAP1 SUB PUSH1 0x1F AND DUP3 ADD SWAP2 JUMPDEST POP POP POP POP POP SWAP1 DUP1 PUSH1 0x2 ADD DUP1 SLOAD PUSH2 0x690 SWAP1 PUSH2 0xC1F JUMP JUMPDEST DUP1 PUSH1 0x1F ADD PUSH1 0x20 DUP1 SWAP2 DIV MUL PUSH1 0x20 ADD PUSH1 0x40 MLOAD SWAP1 DUP2 ADD PUSH1 0x40 MSTORE DUP1 SWAP3 SWAP2 SWAP1 DUP2 DUP2 MSTORE PUSH1 0x20 ADD DUP3 DUP1 SLOAD PUSH2 0x6BC SWAP1 PUSH2 0xC1F JUMP JUMPDEST DUP1 ISZERO PUSH2 0x707 JUMPI DUP1 PUSH1 0x1F LT PUSH2 0x6DE JUMPI PUSH2 0x100 DUP1 DUP4 SLOAD DIV MUL DUP4 MSTORE SWAP2 PUSH1 0x20 ADD SWAP2 PUSH2 0x707 JUMP JUMPDEST DUP3 ADD SWAP2 SWAP1 PUSH0 MSTORE PUSH1 0x20 PUSH0 KECCAK256 SWAP1 JUMPDEST DUP2 SLOAD DUP2 MSTORE SWAP1 PUSH1 0x1 ADD SWAP1 PUSH1 0x20 ADD DUP1 DUP4 GT PUSH2 0x6EA JUMPI DUP3 SWAP1 SUB PUSH1 0x1F AND DUP3 ADD SWAP2 JUMPDEST POP POP POP POP POP SWAP1 DUP1 PUSH1 0x3 ADD PUSH0 SWAP1 SLOAD SWAP1 PUSH2 0x100 EXP SWAP1 DIV PUSH20 0xFFFFFFFFFFFFFFFFFFFFFFFFFFFFFFFFFFFFFFFF AND SWAP1 DUP1 PUSH1 0x4 ADD SLOAD SWAP1 DUP1 PUSH1 0x5 ADD DUP1 SLOAD PUSH2 0x747 SWAP1 PUSH2 0xC1F JUMP JUMPDEST DUP1 PUSH1 0x1F ADD PUSH1 0x20 DUP1 SWAP2 DIV MUL PUSH1 0x20 ADD PUSH1 0x40 MLOAD SWAP1 DUP2 ADD PUSH1 0x40 MSTORE DUP1 SWAP3 SWAP2 SWAP1 DUP2 DUP2 MSTORE PUSH1 0x20 ADD DUP3 DUP1 SLOAD PUSH2 0x773 SWAP1 PUSH2 0xC1F JUMP JUMPDEST DUP1 ISZERO PUSH2 0x7BE JUMPI DUP1 PUSH1 0x1F LT PUSH2 0x795 JUMPI PUSH2 0x100 DUP1 DUP4 SLOAD DIV MUL DUP4 MSTORE SWAP2 PUSH1 0x20 ADD SWAP2 PUSH2 0x7BE JUMP JUMPDEST DUP3 ADD SWAP2 SWAP1 PUSH0 MSTORE PUSH1 0x20 PUSH0 KECCAK256 SWAP1 JUMPDEST DUP2 SLOAD DUP2 MSTORE SWAP1 PUSH1 0x1 ADD SWAP1 PUSH1 0x20 ADD DUP1 DUP4 GT PUSH2 0x7A1 JUMPI DUP3 SWAP1 SUB PUSH1 0x1F AND DUP3 ADD SWAP2 JUMPDEST POP POP POP POP POP SWAP1 DUP1 PUSH1 0x6 ADD SLOAD SWAP1 POP DUP8 JUMP JUMPDEST PUSH0 DUP1 REVERT JUMPDEST PUSH0 DUP1 REVERT JUMPDEST PUSH0 DUP1 REVERT JUMPDEST PUSH0 DUP1 REVERT JUMPDEST PUSH0 DUP1 REVERT JUMPDEST PUSH0 DUP1 DUP4 PUSH1 0x1F DUP5 ADD SLT PUSH2 0x7F7 JUMPI PUSH2 0x7F6 PUSH2 0x7D6 JUMP JUMPDEST JUMPDEST DUP3 CALLDATALOAD SWAP1 POP PUSH8 0xFFFFFFFFFFFFFFFF DUP2 GT ISZERO PUSH2 0x814 JUMPI PUSH2 0x813 PUSH2 0x7DA JUMP JUMPDEST JUMPDEST PUSH1 0x20 DUP4 ADD SWAP2 POP DUP4 PUSH1 0x1 DUP3 MUL DUP4 ADD GT ISZERO PUSH2 0x830 JUMPI PUSH2 0x82F PUSH2 0x7DE JUMP JUMPDEST JUMPDEST SWAP3 POP SWAP3 SWAP1 POP JUMP JUMPDEST PUSH0 DUP1 PUSH1 0x20 DUP4 DUP6 SUB SLT ISZERO PUSH2 0x84D JUMPI PUSH2 0x84C PUSH2 0x7CE JUMP JUMPDEST JUMPDEST PUSH0 DUP4 ADD CALLDATALOAD PUSH8 0xFFFFFFFFFFFFFFFF DUP2 GT ISZERO PUSH2 0x86A JUMPI PUSH2 0x869 PUSH2 0x7D2 JUMP JUMPDEST JUMPDEST PUSH2 0x876 DUP6 DUP3 DUP7 ADD PUSH2 0x7E2 JUMP JUMPDEST SWAP3 POP SWAP3 POP POP SWAP3 POP SWAP3 SWAP1 POP JUMP JUMPDEST PUSH0 DUP2 MLOAD SWAP1 POP SWAP2 SWAP1 POP JUMP JUMPDEST PUSH0 DUP3 DUP3 MSTORE PUSH1 0x20 DUP3 ADD SWAP1 POP SWAP3 SWAP2 POP POP JUMP JUMPDEST PUSH0 JUMPDEST DUP4 DUP2 LT ISZERO PUSH2 0x8B9 JUMPI DUP1 DUP3 ADD MLOAD DUP2 DUP5 ADD MSTORE PUSH1 0x20 DUP2 ADD SWAP1 POP PUSH2 0x89E JUMP JUMPDEST PUSH0 DUP5 DUP5 ADD MSTORE POP POP POP POP JUMP JUMPDEST PUSH0 PUSH1 0x1F NOT PUSH1 0x1F DUP4 ADD AND SWAP1 POP SWAP2 SWAP1 POP JUMP JUMPDEST PUSH0 PUSH2 0x8DE DUP3 PUSH2 0x882 JUMP JUMPDEST PUSH2 0x8E8 DUP2 DUP6 PUSH2 0x88C JUMP JUMPDEST SWAP4 POP PUSH2 0x8F8 DUP2 DUP6 PUSH1 0x20 DUP7 ADD PUSH2 0x89C JUMP JUMPDEST PUSH2 0x901 DUP2 PUSH2 0x8C4 JUMP JUMPDEST DUP5 ADD SWAP2 POP POP SWAP3 SWAP2 POP POP JUMP JUMPDEST PUSH0 PUSH20 0xFFFFFFFFFFFFFFFFFFFFFFFFFFFFFFFFFFFFFFFF DUP3 AND SWAP1 POP SWAP2 SWAP1 POP JUMP JUMPDEST PUSH0 PUSH2 0x935 DUP3 PUSH2 0x90C JUMP JUMPDEST SWAP1 POP SWAP2 SWAP1 POP JUMP JUMPDEST PUSH2 0x945 DUP2 PUSH2 0x92B JUMP JUMPDEST DUP3 MSTORE POP POP JUMP JUMPDEST PUSH0 DUP2 SWAP1 POP SWAP2 SWAP1 POP JUMP JUMPDEST PUSH2 0x95D DUP2 PUSH2 0x94B JUMP JUMPDEST DUP3 MSTORE POP POP JUMP JUMPDEST PUSH0 PUSH1 0xE0 DUP3 ADD SWAP1 POP DUP2 DUP2 SUB PUSH0 DUP4 ADD MSTORE PUSH2 0x97B DUP2 DUP11 PUSH2 0x8D4 JUMP JUMPDEST SWAP1 POP DUP2 DUP2 SUB PUSH1 0x20 DUP4 ADD MSTORE PUSH2 0x98F DUP2 DUP10 PUSH2 0x8D4 JUMP JUMPDEST SWAP1 POP DUP2 DUP2 SUB PUSH1 0x40 DUP4 ADD MSTORE PUSH2 0x9A3 DUP2 DUP9 PUSH2 0x8D4 JUMP JUMPDEST SWAP1 POP PUSH2 0x9B2 PUSH1 0x60 DUP4 ADD DUP8 PUSH2 0x93C JUMP JUMPDEST PUSH2 0x9BF PUSH1 0x80 DUP4 ADD DUP7 PUSH2 0x954 JUMP JUMPDEST DUP2 DUP2 SUB PUSH1 0xA0 DUP4 ADD MSTORE PUSH2 0x9D1 DUP2 DUP6 PUSH2 0x8D4 JUMP JUMPDEST SWAP1 POP PUSH2 0x9E0 PUSH1 0xC0 DUP4 ADD DUP5 PUSH2 0x954 JUMP JUMPDEST SWAP9 SWAP8 POP POP POP POP POP POP POP POP JUMP JUMPDEST PUSH32 0x4F6E6C7920746865206F776E65722063616E206368616E676520746865207072 PUSH0 DUP3 ADD MSTORE PUSH32 0x6F6A656374207374617465000000000000000000000000000000000000000000 PUSH1 0x20 DUP3 ADD MSTORE POP JUMP JUMPDEST PUSH0 PUSH2 0xA46 PUSH1 0x2B DUP4 PUSH2 0x88C JUMP JUMPDEST SWAP2 POP PUSH2 0xA51 DUP3 PUSH2 0x9EC JUMP JUMPDEST PUSH1 0x40 DUP3 ADD SWAP1 POP SWAP2 SWAP1 POP JUMP JUMPDEST PUSH0 PUSH1 0x20 DUP3 ADD SWAP1 POP DUP2 DUP2 SUB PUSH0 DUP4 ADD MSTORE PUSH2 0xA73 DUP2 PUSH2 0xA3A JUMP JUMPDEST SWAP1 POP SWAP2 SWAP1 POP JUMP JUMPDEST PUSH0 DUP2 SWAP1 POP SWAP3 SWAP2 POP POP JUMP JUMPDEST PUSH32 0x4F70656E65640000000000000000000000000000000000000000000000000000 PUSH0 DUP3 ADD MSTORE POP JUMP JUMPDEST PUSH0 PUSH2 0xAB8 PUSH1 0x6 DUP4 PUSH2 0xA7A JUMP JUMPDEST SWAP2 POP PUSH2 0xAC3 DUP3 PUSH2 0xA84 JUMP JUMPDEST PUSH1 0x6 DUP3 ADD SWAP1 POP SWAP2 SWAP1 POP JUMP JUMPDEST PUSH0 PUSH2 0xAD8 DUP3 PUSH2 0xAAC JUMP JUMPDEST SWAP2 POP DUP2 SWAP1 POP SWAP2 SWAP1 POP JUMP JUMPDEST DUP3 DUP2 DUP4 CALLDATACOPY PUSH0 DUP4 DUP4 ADD MSTORE POP POP POP JUMP JUMPDEST PUSH0 PUSH2 0xAFB DUP4 DUP6 PUSH2 0xA7A JUMP JUMPDEST SWAP4 POP PUSH2 0xB08 DUP4 DUP6 DUP5 PUSH2 0xAE2 JUMP JUMPDEST DUP3 DUP5 ADD SWAP1 POP SWAP4 SWAP3 POP POP POP JUMP JUMPDEST PUSH0 PUSH2 0xB20 DUP3 DUP5 DUP7 PUSH2 0xAF0 JUMP JUMPDEST SWAP2 POP DUP2 SWAP1 POP SWAP4 SWAP3 POP POP POP JUMP JUMPDEST PUSH32 0x436C6F7365640000000000000000000000000000000000000000000000000000 PUSH0 DUP3 ADD MSTORE POP JUMP JUMPDEST PUSH0 PUSH2 0xB60 PUSH1 0x6 DUP4 PUSH2 0xA7A JUMP JUMPDEST SWAP2 POP PUSH2 0xB6B DUP3 PUSH2 0xB2C JUMP JUMPDEST PUSH1 0x6 DUP3 ADD SWAP1 POP SWAP2 SWAP1 POP JUMP JUMPDEST PUSH0 PUSH2 0xB80 DUP3 PUSH2 0xB54 JUMP JUMPDEST SWAP2 POP DUP2 SWAP1 POP SWAP2 SWAP1 POP JUMP JUMPDEST PUSH32 0x53746174654E6F74446566696E65643A20496E76616C69642073746174650000 PUSH0 DUP3 ADD MSTORE POP JUMP JUMPDEST PUSH0 PUSH2 0xBBE PUSH1 0x1E DUP4 PUSH2 0x88C JUMP JUMPDEST SWAP2 POP PUSH2 0xBC9 DUP3 PUSH2 0xB8A JUMP JUMPDEST PUSH1 0x20 DUP3 ADD SWAP1 POP SWAP2 SWAP1 POP JUMP JUMPDEST PUSH0 PUSH1 0x20 DUP3 ADD SWAP1 POP DUP2 DUP2 SUB PUSH0 DUP4 ADD MSTORE PUSH2 0xBEB DUP2 PUSH2 0xBB2 JUMP JUMPDEST SWAP1 POP SWAP2 SWAP1 POP JUMP JUMPDEST PUSH32 0x4E487B7100000000000000000000000000000000000000000000000000000000 PUSH0 MSTORE PUSH1 0x22 PUSH1 0x4 MSTORE PUSH1 0x24 PUSH0 REVERT JUMPDEST PUSH0 PUSH1 0x2 DUP3 DIV SWAP1 POP PUSH1 0x1 DUP3 AND DUP1 PUSH2 0xC36 JUMPI PUSH1 0x7F DUP3 AND SWAP2 POP JUMPDEST PUSH1 0x20 DUP3 LT DUP2 SUB PUSH2 0xC49 JUMPI PUSH2 0xC48 PUSH2 0xBF2 JUMP JUMPDEST JUMPDEST POP SWAP2 SWAP1 POP JUMP JUMPDEST PUSH0 DUP2 SWAP1 POP DUP2 PUSH0 MSTORE PUSH1 0x20 PUSH0 KECCAK256 SWAP1 POP SWAP2 SWAP1 POP JUMP JUMPDEST PUSH0 DUP2 SLOAD PUSH2 0xC6D DUP2 PUSH2 0xC1F JUMP JUMPDEST PUSH2 0xC77 DUP2 DUP7 PUSH2 0xA7A JUMP JUMPDEST SWAP5 POP PUSH1 0x1 DUP3 AND PUSH0 DUP2 EQ PUSH2 0xC91 JUMPI PUSH1 0x1 DUP2 EQ PUSH2 0xCA6 JUMPI PUSH2 0xCD8 JUMP JUMPDEST PUSH1 0xFF NOT DUP4 AND DUP7 MSTORE DUP2 ISZERO ISZERO DUP3 MUL DUP7 ADD SWAP4 POP PUSH2 0xCD8 JUMP JUMPDEST PUSH2 0xCAF DUP6 PUSH2 0xC4F JUMP JUMPDEST PUSH0 JUMPDEST DUP4 DUP2 LT ISZERO PUSH2 0xCD0 JUMPI DUP2 SLOAD DUP2 DUP10 ADD MSTORE PUSH1 0x1 DUP3 ADD SWAP2 POP PUSH1 0x20 DUP2 ADD SWAP1 POP PUSH2 0xCB1 JUMP JUMPDEST DUP4 DUP9 ADD SWAP6 POP POP POP JUMPDEST POP POP POP SWAP3 SWAP2 POP POP JUMP JUMPDEST PUSH0 PUSH2 0xCEC DUP3 DUP5 PUSH2 0xC61 JUMP JUMPDEST SWAP2 POP DUP2 SWAP1 POP SWAP3 SWAP2 POP POP JUMP JUMPDEST PUSH32 0x53746174654E6F74446566696E65643A204E6577207374617465206D75737420 PUSH0 DUP3 ADD MSTORE PUSH32 0x626520646966666572656E742066726F6D207468652063757272656E74206F6E PUSH1 0x20 DUP3 ADD MSTORE PUSH32 0x6500000000000000000000000000000000000000000000000000000000000000 PUSH1 0x40 DUP3 ADD MSTORE POP JUMP JUMPDEST PUSH0 PUSH2 0xD77 PUSH1 0x41 DUP4 PUSH2 0x88C JUMP JUMPDEST SWAP2 POP PUSH2 0xD82 DUP3 PUSH2 0xCF7 JUMP JUMPDEST PUSH1 0x60 DUP3 ADD SWAP1 POP SWAP2 SWAP1 POP JUMP JUMPDEST PUSH0 PUSH1 0x20 DUP3 ADD SWAP1 POP DUP2 DUP2 SUB PUSH0 DUP4 ADD MSTORE PUSH2 0xDA4 DUP2 PUSH2 0xD6B JUMP JUMPDEST SWAP1 POP SWAP2 SWAP1 POP JUMP JUMPDEST PUSH0 DUP3 SWAP1 POP SWAP3 SWAP2 POP POP JUMP JUMPDEST PUSH32 0x4E487B7100000000000000000000000000000000000000000000000000000000 PUSH0 MSTORE PUSH1 0x41 PUSH1 0x4 MSTORE PUSH1 0x24 PUSH0 REVERT JUMPDEST PUSH0 PUSH1 0x20 PUSH1 0x1F DUP4 ADD DIV SWAP1 POP SWAP2 SWAP1 POP JUMP JUMPDEST PUSH0 DUP3 DUP3 SHL SWAP1 POP SWAP3 SWAP2 POP POP JUMP JUMPDEST PUSH0 PUSH1 0x8 DUP4 MUL PUSH2 0xE2C PUSH32 0xFFFFFFFFFFFFFFFFFFFFFFFFFFFFFFFFFFFFFFFFFFFFFFFFFFFFFFFFFFFFFFFF DUP3 PUSH2 0xDF1 JUMP JUMPDEST PUSH2 0xE36 DUP7 DUP4 PUSH2 0xDF1 JUMP JUMPDEST SWAP6 POP DUP1 NOT DUP5 AND SWAP4 POP DUP1 DUP7 AND DUP5 OR SWAP3 POP POP POP SWAP4 SWAP3 POP POP POP JUMP JUMPDEST PUSH0 DUP2 SWAP1 POP SWAP2 SWAP1 POP JUMP JUMPDEST PUSH0 PUSH2 0xE71 PUSH2 0xE6C PUSH2 0xE67 DUP5 PUSH2 0x94B JUMP JUMPDEST PUSH2 0xE4E JUMP JUMPDEST PUSH2 0x94B JUMP JUMPDEST SWAP1 POP SWAP2 SWAP1 POP JUMP JUMPDEST PUSH0 DUP2 SWAP1 POP SWAP2 SWAP1 POP JUMP JUMPDEST PUSH2 0xE8A DUP4 PUSH2 0xE57 JUMP JUMPDEST PUSH2 0xE9E PUSH2 0xE96 DUP3 PUSH2 0xE78 JUMP JUMPDEST DUP5 DUP5 SLOAD PUSH2 0xDFD JUMP JUMPDEST DUP3 SSTORE POP POP POP POP JUMP JUMPDEST PUSH0 SWAP1 JUMP JUMPDEST PUSH2 0xEB2 PUSH2 0xEA6 JUMP JUMPDEST PUSH2 0xEBD DUP2 DUP5 DUP5 PUSH2 0xE81 JUMP JUMPDEST POP POP POP JUMP JUMPDEST JUMPDEST DUP2 DUP2 LT ISZERO PUSH2 0xEE0 JUMPI PUSH2 0xED5 PUSH0 DUP3 PUSH2 0xEAA JUMP JUMPDEST PUSH1 0x1 DUP2 ADD SWAP1 POP PUSH2 0xEC3 JUMP JUMPDEST POP POP JUMP JUMPDEST PUSH1 0x1F DUP3 GT ISZERO PUSH2 0xF25 JUMPI PUSH2 0xEF6 DUP2 PUSH2 0xC4F JUMP JUMPDEST PUSH2 0xEFF DUP5 PUSH2 0xDE2 JUMP JUMPDEST DUP2 ADD PUSH1 0x20 DUP6 LT ISZERO PUSH2 0xF0E JUMPI DUP2 SWAP1 POP JUMPDEST PUSH2 0xF22 PUSH2 0xF1A DUP6 PUSH2 0xDE2 JUMP JUMPDEST DUP4 ADD DUP3 PUSH2 0xEC2 JUMP JUMPDEST POP POP JUMPDEST POP POP POP JUMP JUMPDEST PUSH0 DUP3 DUP3 SHR SWAP1 POP SWAP3 SWAP2 POP POP JUMP JUMPDEST PUSH0 PUSH2 0xF45 PUSH0 NOT DUP5 PUSH1 0x8 MUL PUSH2 0xF2A JUMP JUMPDEST NOT DUP1 DUP4 AND SWAP2 POP POP SWAP3 SWAP2 POP POP JUMP JUMPDEST PUSH0 PUSH2 0xF5D DUP4 DUP4 PUSH2 0xF36 JUMP JUMPDEST SWAP2 POP DUP3 PUSH1 0x2 MUL DUP3 OR SWAP1 POP SWAP3 SWAP2 POP POP JUMP JUMPDEST PUSH2 0xF77 DUP4 DUP4 PUSH2 0xDAB JUMP JUMPDEST PUSH8 0xFFFFFFFFFFFFFFFF DUP2 GT ISZERO PUSH2 0xF90 JUMPI PUSH2 0xF8F PUSH2 0xDB5 JUMP JUMPDEST JUMPDEST PUSH2 0xF9A DUP3 SLOAD PUSH2 0xC1F JUMP JUMPDEST PUSH2 0xFA5 DUP3 DUP3 DUP6 PUSH2 0xEE4 JUMP JUMPDEST PUSH0 PUSH1 0x1F DUP4 GT PUSH1 0x1 DUP2 EQ PUSH2 0xFD2 JUMPI PUSH0 DUP5 ISZERO PUSH2 0xFC0 JUMPI DUP3 DUP8 ADD CALLDATALOAD SWAP1 POP JUMPDEST PUSH2 0xFCA DUP6 DUP3 PUSH2 0xF52 JUMP JUMPDEST DUP7 SSTORE POP PUSH2 0x1031 JUMP JUMPDEST PUSH1 0x1F NOT DUP5 AND PUSH2 0xFE0 DUP7 PUSH2 0xC4F JUMP JUMPDEST PUSH0 JUMPDEST DUP3 DUP2 LT ISZERO PUSH2 0x1007 JUMPI DUP5 DUP10 ADD CALLDATALOAD DUP3 SSTORE PUSH1 0x1 DUP3 ADD SWAP2 POP PUSH1 0x20 DUP6 ADD SWAP5 POP PUSH1 0x20 DUP2 ADD SWAP1 POP PUSH2 0xFE2 JUMP JUMPDEST DUP7 DUP4 LT ISZERO PUSH2 0x1024 JUMPI DUP5 DUP10 ADD CALLDATALOAD PUSH2 0x1020 PUSH1 0x1F DUP10 AND DUP3 PUSH2 0xF36 JUMP JUMPDEST DUP4 SSTORE POP JUMPDEST PUSH1 0x1 PUSH1 0x2 DUP9 MUL ADD DUP9 SSTORE POP POP POP JUMPDEST POP POP POP POP POP POP POP JUMP JUMPDEST PUSH0 PUSH2 0x1044 DUP3 PUSH2 0x90C JUMP JUMPDEST SWAP1 POP SWAP2 SWAP1 POP JUMP JUMPDEST PUSH2 0x1054 DUP2 PUSH2 0x103A JUMP JUMPDEST DUP3 MSTORE POP POP JUMP JUMPDEST PUSH0 DUP2 SLOAD PUSH2 0x1066 DUP2 PUSH2 0xC1F JUMP JUMPDEST PUSH2 0x1070 DUP2 DUP7 PUSH2 0x88C JUMP JUMPDEST SWAP5 POP PUSH1 0x1 DUP3 AND PUSH0 DUP2 EQ PUSH2 0x108A JUMPI PUSH1 0x1 DUP2 EQ PUSH2 0x10A0 JUMPI PUSH2 0x10D2 JUMP JUMPDEST PUSH1 0xFF NOT DUP4 AND DUP7 MSTORE DUP2 ISZERO ISZERO PUSH1 0x20 MUL DUP7 ADD SWAP4 POP PUSH2 0x10D2 JUMP JUMPDEST PUSH2 0x10A9 DUP6 PUSH2 0xC4F JUMP JUMPDEST PUSH0 JUMPDEST DUP4 DUP2 LT ISZERO PUSH2 0x10CA JUMPI DUP2 SLOAD DUP2 DUP10 ADD MSTORE PUSH1 0x1 DUP3 ADD SWAP2 POP PUSH1 0x20 DUP2 ADD SWAP1 POP PUSH2 0x10AB JUMP JUMPDEST DUP1 DUP9 ADD SWAP6 POP POP POP JUMPDEST POP POP POP SWAP3 SWAP2 POP POP JUMP JUMPDEST PUSH0 PUSH1 0x40 DUP3 ADD SWAP1 POP PUSH2 0x10EE PUSH0 DUP4 ADD DUP6 PUSH2 0x104B JUMP JUMPDEST DUP2 DUP2 SUB PUSH1 0x20 DUP4 ADD MSTORE PUSH2 0x1100 DUP2 DUP5 PUSH2 0x105A JUMP JUMPDEST SWAP1 POP SWAP4 SWAP3 POP POP POP JUMP JUMPDEST PUSH32 0x4F776E6572732063616E27742066756E642074686569722070726F6A65637400 PUSH0 DUP3 ADD MSTORE POP JUMP JUMPDEST PUSH0 PUSH2 0x113D PUSH1 0x1F DUP4 PUSH2 0x88C JUMP JUMPDEST SWAP2 POP PUSH2 0x1148 DUP3 PUSH2 0x1109 JUMP JUMPDEST PUSH1 0x20 DUP3 ADD SWAP1 POP SWAP2 SWAP1 POP JUMP JUMPDEST PUSH0 PUSH1 0x20 DUP3 ADD SWAP1 POP DUP2 DUP2 SUB PUSH0 DUP4 ADD MSTORE PUSH2 0x116A DUP2 PUSH2 0x1131 JUMP JUMPDEST SWAP1 POP SWAP2 SWAP1 POP JUMP JUMPDEST PUSH32 0x5374617465436C6F7365643A2050726F6A65637420697320636C6F7365640000 PUSH0 DUP3 ADD MSTORE POP JUMP JUMPDEST PUSH0 PUSH2 0x11A5 PUSH1 0x1E DUP4 PUSH2 0x88C JUMP JUMPDEST SWAP2 POP PUSH2 0x11B0 DUP3 PUSH2 0x1171 JUMP JUMPDEST PUSH1 0x20 DUP3 ADD SWAP1 POP SWAP2 SWAP1 POP JUMP JUMPDEST PUSH0 PUSH1 0x20 DUP3 ADD SWAP1 POP DUP2 DUP2 SUB PUSH0 DUP4 ADD MSTORE PUSH2 0x11D2 DUP2 PUSH2 0x1199 JUMP JUMPDEST SWAP1 POP SWAP2 SWAP1 POP JUMP JUMPDEST PUSH32 0x54686520636F6E747269627574696F6E206D757374206861766520612076616C PUSH0 DUP3 ADD MSTORE PUSH32 0x75652067726561746572207468616E207A65726F000000000000000000000000 PUSH1 0x20 DUP3 ADD MSTORE POP JUMP JUMPDEST PUSH0 PUSH2 0x1233 PUSH1 0x34 DUP4 PUSH2 0x88C JUMP JUMPDEST SWAP2 POP PUSH2 0x123E DUP3 PUSH2 0x11D9 JUMP JUMPDEST PUSH1 0x40 DUP3 ADD SWAP1 POP SWAP2 SWAP1 POP JUMP JUMPDEST PUSH0 PUSH1 0x20 DUP3 ADD SWAP1 POP DUP2 DUP2 SUB PUSH0 DUP4 ADD MSTORE PUSH2 0x1260 DUP2 PUSH2 0x1227 JUMP JUMPDEST SWAP1 POP SWAP2 SWAP1 POP JUMP JUMPDEST PUSH32 0x4E487B7100000000000000000000000000000000000000000000000000000000 PUSH0 MSTORE PUSH1 0x11 PUSH1 0x4 MSTORE PUSH1 0x24 PUSH0 REVERT JUMPDEST PUSH0 PUSH2 0x129E DUP3 PUSH2 0x94B JUMP JUMPDEST SWAP2 POP PUSH2 0x12A9 DUP4 PUSH2 0x94B JUMP JUMPDEST SWAP3 POP DUP3 DUP3 ADD SWAP1 POP DUP1 DUP3 GT ISZERO PUSH2 0x12C1 JUMPI PUSH2 0x12C0 PUSH2 0x1267 JUMP JUMPDEST JUMPDEST SWAP3 SWAP2 POP POP JUMP JUMPDEST PUSH32 0x5468652066756E6472616973696E6720676F616C206973206578636565646564 PUSH0 DUP3 ADD MSTORE POP JUMP JUMPDEST PUSH0 PUSH2 0x12FB PUSH1 0x20 DUP4 PUSH2 0x88C JUMP JUMPDEST SWAP2 POP PUSH2 0x1306 DUP3 PUSH2 0x12C7 JUMP JUMPDEST PUSH1 0x20 DUP3 ADD SWAP1 POP SWAP2 SWAP1 POP JUMP JUMPDEST PUSH0 PUSH1 0x20 DUP3 ADD SWAP1 POP DUP2 DUP2 SUB PUSH0 DUP4 ADD MSTORE PUSH2 0x1328 DUP2 PUSH2 0x12EF JUMP JUMPDEST SWAP1 POP SWAP2 SWAP1 POP JUMP JUMPDEST PUSH0 PUSH1 0x40 DUP3 ADD SWAP1 POP PUSH2 0x1342 PUSH0 DUP4 ADD DUP6 PUSH2 0x104B JUMP JUMPDEST PUSH2 0x134F PUSH1 0x20 DUP4 ADD DUP5 PUSH2 0x954 JUMP JUMPDEST SWAP4 SWAP3 POP POP POP JUMP INVALID LOG2 PUSH5 0x6970667358 0x22 SLT KECCAK256 PUSH11 0xA7C577624EC780538CE727 0xC3 0xB5 MLOAD 0xB8 0xBC 0xE9 0xD8 0xB3 AND EXTCODESIZE 0xEC SSTORE 0xAE DUP16 DUP16 0xF 0x1F KECCAK256 0xD4 MSTORE PUSH5 0x736F6C6343 STOP ADDMOD XOR STOP CALLER "
				},
				"gasEstimates": {
					"creation": {
						"codeDepositCost": "1000800",
						"executionCost": "infinite",
						"totalCost": "infinite"
					},
					"external": {
						"changeProjectState(string)": "infinite",
						"fundProject()": "infinite",
						"project()": "infinite"
					}
				},
				"methodIdentifiers": {
					"changeProjectState(string)": "b767050d",
					"fundProject()": "d63dc661",
					"project()": "f60ca60d"
				}
			},
			"storageLayout": {
				"storage": [
					{
						"astId": 19,
						"contract": "contracts/Crowdfunding5.sol:Crowdfunding",
						"label": "project",
						"offset": 0,
						"slot": "0",
						"type": "t_struct(Project)16_storage"
					}
				],
				"types": {
					"t_address_payable": {
						"encoding": "inplace",
						"label": "address payable",
						"numberOfBytes": "20"
					},
					"t_string_storage": {
						"encoding": "bytes",
						"label": "string",
						"numberOfBytes": "32"
					},
					"t_struct(Project)16_storage": {
						"encoding": "inplace",
						"label": "struct Crowdfunding.Project",
						"members": [
							{
								"astId": 3,
								"contract": "contracts/Crowdfunding5.sol:Crowdfunding",
								"label": "id",
								"offset": 0,
								"slot": "0",
								"type": "t_string_storage"
							},
							{
								"astId": 5,
								"contract": "contracts/Crowdfunding5.sol:Crowdfunding",
								"label": "name",
								"offset": 0,
								"slot": "1",
								"type": "t_string_storage"
							},
							{
								"astId": 7,
								"contract": "contracts/Crowdfunding5.sol:Crowdfunding",
								"label": "description",
								"offset": 0,
								"slot": "2",
								"type": "t_string_storage"
							},
							{
								"astId": 9,
								"contract": "contracts/Crowdfunding5.sol:Crowdfunding",
								"label": "author",
								"offset": 0,
								"slot": "3",
								"type": "t_address_payable"
							},
							{
								"astId": 11,
								"contract": "contracts/Crowdfunding5.sol:Crowdfunding",
								"label": "fundraisingGoal",
								"offset": 0,
								"slot": "4",
								"type": "t_uint256"
							},
							{
								"astId": 13,
								"contract": "contracts/Crowdfunding5.sol:Crowdfunding",
								"label": "state",
								"offset": 0,
								"slot": "5",
								"type": "t_string_storage"
							},
							{
								"astId": 15,
								"contract": "contracts/Crowdfunding5.sol:Crowdfunding",
								"label": "funds",
								"offset": 0,
								"slot": "6",
								"type": "t_uint256"
							}
						],
						"numberOfBytes": "224"
					},
					"t_uint256": {
						"encoding": "inplace",
						"label": "uint256",
						"numberOfBytes": "32"
					}
				}
			},
			"userdoc": {
				"kind": "user",
				"methods": {},
				"version": 1
			}
		}
	}
}