{
	"contracts/Crowdfunding3.sol": {
		"Crowfonding": {
			"abi": [
				{
					"inputs": [
						{
							"internalType": "string",
							"name": "_id",
							"type": "string"
						},
						{
							"internalType": "string",
							"name": "_name",
							"type": "string"
						},
						{
							"internalType": "string",
							"name": "_description",
							"type": "string"
						},
						{
							"internalType": "uint256",
							"name": "_fundarisingGoal",
							"type": "uint256"
						}
					],
					"stateMutability": "nonpayable",
					"type": "constructor"
				},
				{
					"anonymous": false,
					"inputs": [
						{
							"indexed": false,
							"internalType": "address",
							"name": "editor",
							"type": "address"
						},
						{
							"indexed": false,
							"internalType": "string",
							"name": "newStatus",
							"type": "string"
						}
					],
					"name": "ChangeProjectState",
					"type": "event"
				},
				{
					"anonymous": false,
					"inputs": [
						{
							"indexed": false,
							"internalType": "address",
							"name": "funder",
							"type": "address"
						},
						{
							"indexed": false,
							"internalType": "uint256",
							"name": "amount",
							"type": "uint256"
						}
					],
					"name": "FundProject",
					"type": "event"
				},
				{
					"inputs": [],
					"name": "author",
					"outputs": [
						{
							"internalType": "address payable",
							"name": "",
							"type": "address"
						}
					],
					"stateMutability": "view",
					"type": "function"
				},
				{
					"inputs": [
						{
							"internalType": "string",
							"name": "_newState",
							"type": "string"
						}
					],
					"name": "changeProjectState",
					"outputs": [],
					"stateMutability": "nonpayable",
					"type": "function"
				},
				{
					"inputs": [],
					"name": "description",
					"outputs": [
						{
							"internalType": "string",
							"name": "",
							"type": "string"
						}
					],
					"stateMutability": "view",
					"type": "function"
				},
				{
					"inputs": [],
					"name": "fundProject",
					"outputs": [],
					"stateMutability": "payable",
					"type": "function"
				},
				{
					"inputs": [],
					"name": "fundarisingGoal",
					"outputs": [
						{
							"internalType": "uint256",
							"name": "",
							"type": "uint256"
						}
					],
					"stateMutability": "view",
					"type": "function"
				},
				{
					"inputs": [],
					"name": "funds",
					"outputs": [
						{
							"internalType": "uint256",
							"name": "",
							"type": "uint256"
						}
					],
					"stateMutability": "view",
					"type": "function"
				},
				{
					"inputs": [],
					"name": "id",
					"outputs": [
						{
							"internalType": "string",
							"name": "",
							"type": "string"
						}
					],
					"stateMutability": "view",
					"type": "function"
				},
				{
					"inputs": [],
					"name": "name",
					"outputs": [
						{
							"internalType": "string",
							"name": "",
							"type": "string"
						}
					],
					"stateMutability": "view",
					"type": "function"
				},
				{
					"inputs": [],
					"name": "state",
					"outputs": [
						{
							"internalType": "string",
							"name": "",
							"type": "string"
						}
					],
					"stateMutability": "view",
					"type": "function"
				}
			],
			"devdoc": {
				"kind": "dev",
				"methods": {},
				"version": 1
			},
			"evm": {
				"assembly": "    /* \"contracts/Crowdfunding3.sol\":224:1860  contract Crowfonding {... */\n  mstore(0x40, 0x80)\n    /* \"contracts/Crowdfunding3.sol\":450:762  constructor(string memory _id, string memory _name, string memory _description, uint _fundarisingGoal){... */\n  callvalue\n  dup1\n  iszero\n  tag_1\n  jumpi\n  0x00\n  dup1\n  revert\ntag_1:\n  pop\n  mload(0x40)\n  sub(codesize, bytecodeSize)\n  dup1\n  bytecodeSize\n  dup4\n  codecopy\n  dup2\n  dup2\n  add\n  0x40\n  mstore\n  dup2\n  add\n  swap1\n  tag_2\n  swap2\n  swap1\n  tag_3\n  jump\t// in\ntag_2:\n    /* \"contracts/Crowdfunding3.sol\":567:570  _id */\n  dup4\n    /* \"contracts/Crowdfunding3.sol\":562:564  id */\n  0x00\n    /* \"contracts/Crowdfunding3.sol\":562:570  id = _id */\n  swap1\n  dup2\n  tag_6\n  swap2\n  swap1\n  tag_7\n  jump\t// in\ntag_6:\n  pop\n    /* \"contracts/Crowdfunding3.sol\":586:591  _name */\n  dup3\n    /* \"contracts/Crowdfunding3.sol\":580:584  name */\n  0x01\n    /* \"contracts/Crowdfunding3.sol\":580:591  name =_name */\n  swap1\n  dup2\n  tag_8\n  swap2\n  swap1\n  tag_7\n  jump\t// in\ntag_8:\n  pop\n    /* \"contracts/Crowdfunding3.sol\":615:627  _description */\n  dup2\n    /* \"contracts/Crowdfunding3.sol\":601:612  description */\n  0x02\n    /* \"contracts/Crowdfunding3.sol\":601:627  description = _description */\n  swap1\n  dup2\n  tag_9\n  swap2\n  swap1\n  tag_7\n  jump\t// in\ntag_9:\n  pop\n    /* \"contracts/Crowdfunding3.sol\":654:664  msg.sender */\n  caller\n    /* \"contracts/Crowdfunding3.sol\":637:643  author */\n  0x03\n  0x00\n    /* \"contracts/Crowdfunding3.sol\":637:665  author = payable(msg.sender) */\n  0x0100\n  exp\n  dup2\n  sload\n  dup2\n  0xffffffffffffffffffffffffffffffffffffffff\n  mul\n  not\n  and\n  swap1\n  dup4\n  0xffffffffffffffffffffffffffffffffffffffff\n  and\n  mul\n  or\n  swap1\n  sstore\n  pop\n    /* \"contracts/Crowdfunding3.sol\":694:710  _fundarisingGoal */\n  dup1\n    /* \"contracts/Crowdfunding3.sol\":676:691  fundarisingGoal */\n  0x06\n    /* \"contracts/Crowdfunding3.sol\":676:710  fundarisingGoal = _fundarisingGoal */\n  dup2\n  swap1\n  sstore\n  pop\n    /* \"contracts/Crowdfunding3.sol\":720:736  state = 'Opened' */\n  mload(0x40)\n  dup1\n  0x40\n  add\n  0x40\n  mstore\n  dup1\n  0x06\n  dup2\n  mstore\n  0x20\n  add\n  0x4f70656e65640000000000000000000000000000000000000000000000000000\n  dup2\n  mstore\n  pop\n    /* \"contracts/Crowdfunding3.sol\":720:725  state */\n  0x04\n    /* \"contracts/Crowdfunding3.sol\":720:736  state = 'Opened' */\n  swap1\n  dup2\n  tag_10\n  swap2\n  swap1\n  tag_7\n  jump\t// in\ntag_10:\n  pop\n    /* \"contracts/Crowdfunding3.sol\":754:755  0 */\n  0x00\n    /* \"contracts/Crowdfunding3.sol\":746:751  funds */\n  0x05\n    /* \"contracts/Crowdfunding3.sol\":746:755  funds = 0 */\n  dup2\n  swap1\n  sstore\n  pop\n    /* \"contracts/Crowdfunding3.sol\":450:762  constructor(string memory _id, string memory _name, string memory _description, uint _fundarisingGoal){... */\n  pop\n  pop\n  pop\n  pop\n    /* \"contracts/Crowdfunding3.sol\":224:1860  contract Crowfonding {... */\n  jump(tag_11)\n    /* \"#utility.yul\":7:82   */\ntag_12:\n    /* \"#utility.yul\":40:46   */\n  0x00\n    /* \"#utility.yul\":73:75   */\n  0x40\n    /* \"#utility.yul\":67:76   */\n  mload\n    /* \"#utility.yul\":57:76   */\n  swap1\n  pop\n    /* \"#utility.yul\":7:82   */\n  swap1\n  jump\t// out\n    /* \"#utility.yul\":88:205   */\ntag_13:\n    /* \"#utility.yul\":197:198   */\n  0x00\n    /* \"#utility.yul\":194:195   */\n  dup1\n    /* \"#utility.yul\":187:199   */\n  revert\n    /* \"#utility.yul\":211:328   */\ntag_14:\n    /* \"#utility.yul\":320:321   */\n  0x00\n    /* \"#utility.yul\":317:318   */\n  dup1\n    /* \"#utility.yul\":310:322   */\n  revert\n    /* \"#utility.yul\":334:451   */\ntag_15:\n    /* \"#utility.yul\":443:444   */\n  0x00\n    /* \"#utility.yul\":440:441   */\n  dup1\n    /* \"#utility.yul\":433:445   */\n  revert\n    /* \"#utility.yul\":457:574   */\ntag_16:\n    /* \"#utility.yul\":566:567   */\n  0x00\n    /* \"#utility.yul\":563:564   */\n  dup1\n    /* \"#utility.yul\":556:568   */\n  revert\n    /* \"#utility.yul\":580:682   */\ntag_17:\n    /* \"#utility.yul\":621:627   */\n  0x00\n    /* \"#utility.yul\":672:674   */\n  0x1f\n    /* \"#utility.yul\":668:675   */\n  not\n    /* \"#utility.yul\":663:665   */\n  0x1f\n    /* \"#utility.yul\":656:661   */\n  dup4\n    /* \"#utility.yul\":652:666   */\n  add\n    /* \"#utility.yul\":648:676   */\n  and\n    /* \"#utility.yul\":638:676   */\n  swap1\n  pop\n    /* \"#utility.yul\":580:682   */\n  swap2\n  swap1\n  pop\n  jump\t// out\n    /* \"#utility.yul\":688:868   */\ntag_18:\n    /* \"#utility.yul\":736:813   */\n  0x4e487b7100000000000000000000000000000000000000000000000000000000\n    /* \"#utility.yul\":733:734   */\n  0x00\n    /* \"#utility.yul\":726:814   */\n  mstore\n    /* \"#utility.yul\":833:837   */\n  0x41\n    /* \"#utility.yul\":830:831   */\n  0x04\n    /* \"#utility.yul\":823:838   */\n  mstore\n    /* \"#utility.yul\":857:861   */\n  0x24\n    /* \"#utility.yul\":854:855   */\n  0x00\n    /* \"#utility.yul\":847:862   */\n  revert\n    /* \"#utility.yul\":874:1155   */\ntag_19:\n    /* \"#utility.yul\":957:984   */\n  tag_55\n    /* \"#utility.yul\":979:983   */\n  dup3\n    /* \"#utility.yul\":957:984   */\n  tag_17\n  jump\t// in\ntag_55:\n    /* \"#utility.yul\":949:955   */\n  dup2\n    /* \"#utility.yul\":945:985   */\n  add\n    /* \"#utility.yul\":1087:1093   */\n  dup2\n    /* \"#utility.yul\":1075:1085   */\n  dup2\n    /* \"#utility.yul\":1072:1094   */\n  lt\n    /* \"#utility.yul\":1051:1069   */\n  0xffffffffffffffff\n    /* \"#utility.yul\":1039:1049   */\n  dup3\n    /* \"#utility.yul\":1036:1070   */\n  gt\n    /* \"#utility.yul\":1033:1095   */\n  or\n    /* \"#utility.yul\":1030:1118   */\n  iszero\n  tag_56\n  jumpi\n    /* \"#utility.yul\":1098:1116   */\n  tag_57\n  tag_18\n  jump\t// in\ntag_57:\n    /* \"#utility.yul\":1030:1118   */\ntag_56:\n    /* \"#utility.yul\":1138:1148   */\n  dup1\n    /* \"#utility.yul\":1134:1136   */\n  0x40\n    /* \"#utility.yul\":1127:1149   */\n  mstore\n    /* \"#utility.yul\":917:1155   */\n  pop\n    /* \"#utility.yul\":874:1155   */\n  pop\n  pop\n  jump\t// out\n    /* \"#utility.yul\":1161:1290   */\ntag_20:\n    /* \"#utility.yul\":1195:1201   */\n  0x00\n    /* \"#utility.yul\":1222:1242   */\n  tag_59\n  tag_12\n  jump\t// in\ntag_59:\n    /* \"#utility.yul\":1212:1242   */\n  swap1\n  pop\n    /* \"#utility.yul\":1251:1284   */\n  tag_60\n    /* \"#utility.yul\":1279:1283   */\n  dup3\n    /* \"#utility.yul\":1271:1277   */\n  dup3\n    /* \"#utility.yul\":1251:1284   */\n  tag_19\n  jump\t// in\ntag_60:\n    /* \"#utility.yul\":1161:1290   */\n  swap2\n  swap1\n  pop\n  jump\t// out\n    /* \"#utility.yul\":1296:1604   */\ntag_21:\n    /* \"#utility.yul\":1358:1362   */\n  0x00\n    /* \"#utility.yul\":1448:1466   */\n  0xffffffffffffffff\n    /* \"#utility.yul\":1440:1446   */\n  dup3\n    /* \"#utility.yul\":1437:1467   */\n  gt\n    /* \"#utility.yul\":1434:1490   */\n  iszero\n  tag_62\n  jumpi\n    /* \"#utility.yul\":1470:1488   */\n  tag_63\n  tag_18\n  jump\t// in\ntag_63:\n    /* \"#utility.yul\":1434:1490   */\ntag_62:\n    /* \"#utility.yul\":1508:1537   */\n  tag_64\n    /* \"#utility.yul\":1530:1536   */\n  dup3\n    /* \"#utility.yul\":1508:1537   */\n  tag_17\n  jump\t// in\ntag_64:\n    /* \"#utility.yul\":1500:1537   */\n  swap1\n  pop\n    /* \"#utility.yul\":1592:1596   */\n  0x20\n    /* \"#utility.yul\":1586:1590   */\n  dup2\n    /* \"#utility.yul\":1582:1597   */\n  add\n    /* \"#utility.yul\":1574:1597   */\n  swap1\n  pop\n    /* \"#utility.yul\":1296:1604   */\n  swap2\n  swap1\n  pop\n  jump\t// out\n    /* \"#utility.yul\":1610:1856   */\ntag_22:\n    /* \"#utility.yul\":1691:1692   */\n  0x00\n    /* \"#utility.yul\":1701:1814   */\ntag_66:\n    /* \"#utility.yul\":1715:1721   */\n  dup4\n    /* \"#utility.yul\":1712:1713   */\n  dup2\n    /* \"#utility.yul\":1709:1722   */\n  lt\n    /* \"#utility.yul\":1701:1814   */\n  iszero\n  tag_68\n  jumpi\n    /* \"#utility.yul\":1800:1801   */\n  dup1\n    /* \"#utility.yul\":1795:1798   */\n  dup3\n    /* \"#utility.yul\":1791:1802   */\n  add\n    /* \"#utility.yul\":1785:1803   */\n  mload\n    /* \"#utility.yul\":1781:1782   */\n  dup2\n    /* \"#utility.yul\":1776:1779   */\n  dup5\n    /* \"#utility.yul\":1772:1783   */\n  add\n    /* \"#utility.yul\":1765:1804   */\n  mstore\n    /* \"#utility.yul\":1737:1739   */\n  0x20\n    /* \"#utility.yul\":1734:1735   */\n  dup2\n    /* \"#utility.yul\":1730:1740   */\n  add\n    /* \"#utility.yul\":1725:1740   */\n  swap1\n  pop\n    /* \"#utility.yul\":1701:1814   */\n  jump(tag_66)\ntag_68:\n    /* \"#utility.yul\":1848:1849   */\n  0x00\n    /* \"#utility.yul\":1839:1845   */\n  dup5\n    /* \"#utility.yul\":1834:1837   */\n  dup5\n    /* \"#utility.yul\":1830:1846   */\n  add\n    /* \"#utility.yul\":1823:1850   */\n  mstore\n    /* \"#utility.yul\":1672:1856   */\n  pop\n    /* \"#utility.yul\":1610:1856   */\n  pop\n  pop\n  pop\n  jump\t// out\n    /* \"#utility.yul\":1862:2296   */\ntag_23:\n    /* \"#utility.yul\":1951:1956   */\n  0x00\n    /* \"#utility.yul\":1976:2042   */\n  tag_70\n    /* \"#utility.yul\":1992:2041   */\n  tag_71\n    /* \"#utility.yul\":2034:2040   */\n  dup5\n    /* \"#utility.yul\":1992:2041   */\n  tag_21\n  jump\t// in\ntag_71:\n    /* \"#utility.yul\":1976:2042   */\n  tag_20\n  jump\t// in\ntag_70:\n    /* \"#utility.yul\":1967:2042   */\n  swap1\n  pop\n    /* \"#utility.yul\":2065:2071   */\n  dup3\n    /* \"#utility.yul\":2058:2063   */\n  dup2\n    /* \"#utility.yul\":2051:2072   */\n  mstore\n    /* \"#utility.yul\":2103:2107   */\n  0x20\n    /* \"#utility.yul\":2096:2101   */\n  dup2\n    /* \"#utility.yul\":2092:2108   */\n  add\n    /* \"#utility.yul\":2141:2144   */\n  dup5\n    /* \"#utility.yul\":2132:2138   */\n  dup5\n    /* \"#utility.yul\":2127:2130   */\n  dup5\n    /* \"#utility.yul\":2123:2139   */\n  add\n    /* \"#utility.yul\":2120:2145   */\n  gt\n    /* \"#utility.yul\":2117:2229   */\n  iszero\n  tag_72\n  jumpi\n    /* \"#utility.yul\":2148:2227   */\n  tag_73\n  tag_16\n  jump\t// in\ntag_73:\n    /* \"#utility.yul\":2117:2229   */\ntag_72:\n    /* \"#utility.yul\":2238:2290   */\n  tag_74\n    /* \"#utility.yul\":2283:2289   */\n  dup5\n    /* \"#utility.yul\":2278:2281   */\n  dup3\n    /* \"#utility.yul\":2273:2276   */\n  dup6\n    /* \"#utility.yul\":2238:2290   */\n  tag_22\n  jump\t// in\ntag_74:\n    /* \"#utility.yul\":1957:2296   */\n  pop\n    /* \"#utility.yul\":1862:2296   */\n  swap4\n  swap3\n  pop\n  pop\n  pop\n  jump\t// out\n    /* \"#utility.yul\":2316:2671   */\ntag_24:\n    /* \"#utility.yul\":2383:2388   */\n  0x00\n    /* \"#utility.yul\":2432:2435   */\n  dup3\n    /* \"#utility.yul\":2425:2429   */\n  0x1f\n    /* \"#utility.yul\":2417:2423   */\n  dup4\n    /* \"#utility.yul\":2413:2430   */\n  add\n    /* \"#utility.yul\":2409:2436   */\n  slt\n    /* \"#utility.yul\":2399:2521   */\n  tag_76\n  jumpi\n    /* \"#utility.yul\":2440:2519   */\n  tag_77\n  tag_15\n  jump\t// in\ntag_77:\n    /* \"#utility.yul\":2399:2521   */\ntag_76:\n    /* \"#utility.yul\":2550:2556   */\n  dup2\n    /* \"#utility.yul\":2544:2557   */\n  mload\n    /* \"#utility.yul\":2575:2665   */\n  tag_78\n    /* \"#utility.yul\":2661:2664   */\n  dup5\n    /* \"#utility.yul\":2653:2659   */\n  dup3\n    /* \"#utility.yul\":2646:2650   */\n  0x20\n    /* \"#utility.yul\":2638:2644   */\n  dup7\n    /* \"#utility.yul\":2634:2651   */\n  add\n    /* \"#utility.yul\":2575:2665   */\n  tag_23\n  jump\t// in\ntag_78:\n    /* \"#utility.yul\":2566:2665   */\n  swap2\n  pop\n    /* \"#utility.yul\":2389:2671   */\n  pop\n    /* \"#utility.yul\":2316:2671   */\n  swap3\n  swap2\n  pop\n  pop\n  jump\t// out\n    /* \"#utility.yul\":2677:2754   */\ntag_25:\n    /* \"#utility.yul\":2714:2721   */\n  0x00\n    /* \"#utility.yul\":2743:2748   */\n  dup2\n    /* \"#utility.yul\":2732:2748   */\n  swap1\n  pop\n    /* \"#utility.yul\":2677:2754   */\n  swap2\n  swap1\n  pop\n  jump\t// out\n    /* \"#utility.yul\":2760:2882   */\ntag_26:\n    /* \"#utility.yul\":2833:2857   */\n  tag_81\n    /* \"#utility.yul\":2851:2856   */\n  dup2\n    /* \"#utility.yul\":2833:2857   */\n  tag_25\n  jump\t// in\ntag_81:\n    /* \"#utility.yul\":2826:2831   */\n  dup2\n    /* \"#utility.yul\":2823:2858   */\n  eq\n    /* \"#utility.yul\":2813:2876   */\n  tag_82\n  jumpi\n    /* \"#utility.yul\":2872:2873   */\n  0x00\n    /* \"#utility.yul\":2869:2870   */\n  dup1\n    /* \"#utility.yul\":2862:2874   */\n  revert\n    /* \"#utility.yul\":2813:2876   */\ntag_82:\n    /* \"#utility.yul\":2760:2882   */\n  pop\n  jump\t// out\n    /* \"#utility.yul\":2888:3031   */\ntag_27:\n    /* \"#utility.yul\":2945:2950   */\n  0x00\n    /* \"#utility.yul\":2976:2982   */\n  dup2\n    /* \"#utility.yul\":2970:2983   */\n  mload\n    /* \"#utility.yul\":2961:2983   */\n  swap1\n  pop\n    /* \"#utility.yul\":2992:3025   */\n  tag_84\n    /* \"#utility.yul\":3019:3024   */\n  dup2\n    /* \"#utility.yul\":2992:3025   */\n  tag_26\n  jump\t// in\ntag_84:\n    /* \"#utility.yul\":2888:3031   */\n  swap3\n  swap2\n  pop\n  pop\n  jump\t// out\n    /* \"#utility.yul\":3037:4376   */\ntag_3:\n    /* \"#utility.yul\":3164:3170   */\n  0x00\n    /* \"#utility.yul\":3172:3178   */\n  dup1\n    /* \"#utility.yul\":3180:3186   */\n  0x00\n    /* \"#utility.yul\":3188:3194   */\n  dup1\n    /* \"#utility.yul\":3237:3240   */\n  0x80\n    /* \"#utility.yul\":3225:3234   */\n  dup6\n    /* \"#utility.yul\":3216:3223   */\n  dup8\n    /* \"#utility.yul\":3212:3235   */\n  sub\n    /* \"#utility.yul\":3208:3241   */\n  slt\n    /* \"#utility.yul\":3205:3325   */\n  iszero\n  tag_86\n  jumpi\n    /* \"#utility.yul\":3244:3323   */\n  tag_87\n  tag_13\n  jump\t// in\ntag_87:\n    /* \"#utility.yul\":3205:3325   */\ntag_86:\n    /* \"#utility.yul\":3385:3386   */\n  0x00\n    /* \"#utility.yul\":3374:3383   */\n  dup6\n    /* \"#utility.yul\":3370:3387   */\n  add\n    /* \"#utility.yul\":3364:3388   */\n  mload\n    /* \"#utility.yul\":3415:3433   */\n  0xffffffffffffffff\n    /* \"#utility.yul\":3407:3413   */\n  dup2\n    /* \"#utility.yul\":3404:3434   */\n  gt\n    /* \"#utility.yul\":3401:3518   */\n  iszero\n  tag_88\n  jumpi\n    /* \"#utility.yul\":3437:3516   */\n  tag_89\n  tag_14\n  jump\t// in\ntag_89:\n    /* \"#utility.yul\":3401:3518   */\ntag_88:\n    /* \"#utility.yul\":3542:3616   */\n  tag_90\n    /* \"#utility.yul\":3608:3615   */\n  dup8\n    /* \"#utility.yul\":3599:3605   */\n  dup3\n    /* \"#utility.yul\":3588:3597   */\n  dup9\n    /* \"#utility.yul\":3584:3606   */\n  add\n    /* \"#utility.yul\":3542:3616   */\n  tag_24\n  jump\t// in\ntag_90:\n    /* \"#utility.yul\":3532:3616   */\n  swap5\n  pop\n    /* \"#utility.yul\":3335:3626   */\n  pop\n    /* \"#utility.yul\":3686:3688   */\n  0x20\n    /* \"#utility.yul\":3675:3684   */\n  dup6\n    /* \"#utility.yul\":3671:3689   */\n  add\n    /* \"#utility.yul\":3665:3690   */\n  mload\n    /* \"#utility.yul\":3717:3735   */\n  0xffffffffffffffff\n    /* \"#utility.yul\":3709:3715   */\n  dup2\n    /* \"#utility.yul\":3706:3736   */\n  gt\n    /* \"#utility.yul\":3703:3820   */\n  iszero\n  tag_91\n  jumpi\n    /* \"#utility.yul\":3739:3818   */\n  tag_92\n  tag_14\n  jump\t// in\ntag_92:\n    /* \"#utility.yul\":3703:3820   */\ntag_91:\n    /* \"#utility.yul\":3844:3918   */\n  tag_93\n    /* \"#utility.yul\":3910:3917   */\n  dup8\n    /* \"#utility.yul\":3901:3907   */\n  dup3\n    /* \"#utility.yul\":3890:3899   */\n  dup9\n    /* \"#utility.yul\":3886:3908   */\n  add\n    /* \"#utility.yul\":3844:3918   */\n  tag_24\n  jump\t// in\ntag_93:\n    /* \"#utility.yul\":3834:3918   */\n  swap4\n  pop\n    /* \"#utility.yul\":3636:3928   */\n  pop\n    /* \"#utility.yul\":3988:3990   */\n  0x40\n    /* \"#utility.yul\":3977:3986   */\n  dup6\n    /* \"#utility.yul\":3973:3991   */\n  add\n    /* \"#utility.yul\":3967:3992   */\n  mload\n    /* \"#utility.yul\":4019:4037   */\n  0xffffffffffffffff\n    /* \"#utility.yul\":4011:4017   */\n  dup2\n    /* \"#utility.yul\":4008:4038   */\n  gt\n    /* \"#utility.yul\":4005:4122   */\n  iszero\n  tag_94\n  jumpi\n    /* \"#utility.yul\":4041:4120   */\n  tag_95\n  tag_14\n  jump\t// in\ntag_95:\n    /* \"#utility.yul\":4005:4122   */\ntag_94:\n    /* \"#utility.yul\":4146:4220   */\n  tag_96\n    /* \"#utility.yul\":4212:4219   */\n  dup8\n    /* \"#utility.yul\":4203:4209   */\n  dup3\n    /* \"#utility.yul\":4192:4201   */\n  dup9\n    /* \"#utility.yul\":4188:4210   */\n  add\n    /* \"#utility.yul\":4146:4220   */\n  tag_24\n  jump\t// in\ntag_96:\n    /* \"#utility.yul\":4136:4220   */\n  swap3\n  pop\n    /* \"#utility.yul\":3938:4230   */\n  pop\n    /* \"#utility.yul\":4269:4271   */\n  0x60\n    /* \"#utility.yul\":4295:4359   */\n  tag_97\n    /* \"#utility.yul\":4351:4358   */\n  dup8\n    /* \"#utility.yul\":4342:4348   */\n  dup3\n    /* \"#utility.yul\":4331:4340   */\n  dup9\n    /* \"#utility.yul\":4327:4349   */\n  add\n    /* \"#utility.yul\":4295:4359   */\n  tag_27\n  jump\t// in\ntag_97:\n    /* \"#utility.yul\":4285:4359   */\n  swap2\n  pop\n    /* \"#utility.yul\":4240:4369   */\n  pop\n    /* \"#utility.yul\":3037:4376   */\n  swap3\n  swap6\n  swap2\n  swap5\n  pop\n  swap3\n  pop\n  jump\t// out\n    /* \"#utility.yul\":4382:4481   */\ntag_28:\n    /* \"#utility.yul\":4434:4440   */\n  0x00\n    /* \"#utility.yul\":4468:4473   */\n  dup2\n    /* \"#utility.yul\":4462:4474   */\n  mload\n    /* \"#utility.yul\":4452:4474   */\n  swap1\n  pop\n    /* \"#utility.yul\":4382:4481   */\n  swap2\n  swap1\n  pop\n  jump\t// out\n    /* \"#utility.yul\":4487:4667   */\ntag_29:\n    /* \"#utility.yul\":4535:4612   */\n  0x4e487b7100000000000000000000000000000000000000000000000000000000\n    /* \"#utility.yul\":4532:4533   */\n  0x00\n    /* \"#utility.yul\":4525:4613   */\n  mstore\n    /* \"#utility.yul\":4632:4636   */\n  0x22\n    /* \"#utility.yul\":4629:4630   */\n  0x04\n    /* \"#utility.yul\":4622:4637   */\n  mstore\n    /* \"#utility.yul\":4656:4660   */\n  0x24\n    /* \"#utility.yul\":4653:4654   */\n  0x00\n    /* \"#utility.yul\":4646:4661   */\n  revert\n    /* \"#utility.yul\":4673:4993   */\ntag_30:\n    /* \"#utility.yul\":4717:4723   */\n  0x00\n    /* \"#utility.yul\":4754:4755   */\n  0x02\n    /* \"#utility.yul\":4748:4752   */\n  dup3\n    /* \"#utility.yul\":4744:4756   */\n  div\n    /* \"#utility.yul\":4734:4756   */\n  swap1\n  pop\n    /* \"#utility.yul\":4801:4802   */\n  0x01\n    /* \"#utility.yul\":4795:4799   */\n  dup3\n    /* \"#utility.yul\":4791:4803   */\n  and\n    /* \"#utility.yul\":4822:4840   */\n  dup1\n    /* \"#utility.yul\":4812:4893   */\n  tag_101\n  jumpi\n    /* \"#utility.yul\":4878:4882   */\n  0x7f\n    /* \"#utility.yul\":4870:4876   */\n  dup3\n    /* \"#utility.yul\":4866:4883   */\n  and\n    /* \"#utility.yul\":4856:4883   */\n  swap2\n  pop\n    /* \"#utility.yul\":4812:4893   */\ntag_101:\n    /* \"#utility.yul\":4940:4942   */\n  0x20\n    /* \"#utility.yul\":4932:4938   */\n  dup3\n    /* \"#utility.yul\":4929:4943   */\n  lt\n    /* \"#utility.yul\":4909:4927   */\n  dup2\n    /* \"#utility.yul\":4906:4944   */\n  sub\n    /* \"#utility.yul\":4903:4987   */\n  tag_102\n  jumpi\n    /* \"#utility.yul\":4959:4977   */\n  tag_103\n  tag_29\n  jump\t// in\ntag_103:\n    /* \"#utility.yul\":4903:4987   */\ntag_102:\n    /* \"#utility.yul\":4724:4993   */\n  pop\n    /* \"#utility.yul\":4673:4993   */\n  swap2\n  swap1\n  pop\n  jump\t// out\n    /* \"#utility.yul\":4999:5140   */\ntag_31:\n    /* \"#utility.yul\":5048:5052   */\n  0x00\n    /* \"#utility.yul\":5071:5074   */\n  dup2\n    /* \"#utility.yul\":5063:5074   */\n  swap1\n  pop\n    /* \"#utility.yul\":5094:5097   */\n  dup2\n    /* \"#utility.yul\":5091:5092   */\n  0x00\n    /* \"#utility.yul\":5084:5098   */\n  mstore\n    /* \"#utility.yul\":5128:5132   */\n  0x20\n    /* \"#utility.yul\":5125:5126   */\n  0x00\n    /* \"#utility.yul\":5115:5133   */\n  keccak256\n    /* \"#utility.yul\":5107:5133   */\n  swap1\n  pop\n    /* \"#utility.yul\":4999:5140   */\n  swap2\n  swap1\n  pop\n  jump\t// out\n    /* \"#utility.yul\":5146:5239   */\ntag_32:\n    /* \"#utility.yul\":5183:5189   */\n  0x00\n    /* \"#utility.yul\":5230:5232   */\n  0x20\n    /* \"#utility.yul\":5225:5227   */\n  0x1f\n    /* \"#utility.yul\":5218:5223   */\n  dup4\n    /* \"#utility.yul\":5214:5228   */\n  add\n    /* \"#utility.yul\":5210:5233   */\n  div\n    /* \"#utility.yul\":5200:5233   */\n  swap1\n  pop\n    /* \"#utility.yul\":5146:5239   */\n  swap2\n  swap1\n  pop\n  jump\t// out\n    /* \"#utility.yul\":5245:5352   */\ntag_33:\n    /* \"#utility.yul\":5289:5297   */\n  0x00\n    /* \"#utility.yul\":5339:5344   */\n  dup3\n    /* \"#utility.yul\":5333:5337   */\n  dup3\n    /* \"#utility.yul\":5329:5345   */\n  shl\n    /* \"#utility.yul\":5308:5345   */\n  swap1\n  pop\n    /* \"#utility.yul\":5245:5352   */\n  swap3\n  swap2\n  pop\n  pop\n  jump\t// out\n    /* \"#utility.yul\":5358:5751   */\ntag_34:\n    /* \"#utility.yul\":5427:5433   */\n  0x00\n    /* \"#utility.yul\":5477:5478   */\n  0x08\n    /* \"#utility.yul\":5465:5475   */\n  dup4\n    /* \"#utility.yul\":5461:5479   */\n  mul\n    /* \"#utility.yul\":5500:5597   */\n  tag_108\n    /* \"#utility.yul\":5530:5596   */\n  0xffffffffffffffffffffffffffffffffffffffffffffffffffffffffffffffff\n    /* \"#utility.yul\":5519:5528   */\n  dup3\n    /* \"#utility.yul\":5500:5597   */\n  tag_33\n  jump\t// in\ntag_108:\n    /* \"#utility.yul\":5618:5657   */\n  tag_109\n    /* \"#utility.yul\":5648:5656   */\n  dup7\n    /* \"#utility.yul\":5637:5646   */\n  dup4\n    /* \"#utility.yul\":5618:5657   */\n  tag_33\n  jump\t// in\ntag_109:\n    /* \"#utility.yul\":5606:5657   */\n  swap6\n  pop\n    /* \"#utility.yul\":5690:5694   */\n  dup1\n    /* \"#utility.yul\":5686:5695   */\n  not\n    /* \"#utility.yul\":5679:5684   */\n  dup5\n    /* \"#utility.yul\":5675:5696   */\n  and\n    /* \"#utility.yul\":5666:5696   */\n  swap4\n  pop\n    /* \"#utility.yul\":5739:5743   */\n  dup1\n    /* \"#utility.yul\":5729:5737   */\n  dup7\n    /* \"#utility.yul\":5725:5744   */\n  and\n    /* \"#utility.yul\":5718:5723   */\n  dup5\n    /* \"#utility.yul\":5715:5745   */\n  or\n    /* \"#utility.yul\":5705:5745   */\n  swap3\n  pop\n    /* \"#utility.yul\":5434:5751   */\n  pop\n  pop\n    /* \"#utility.yul\":5358:5751   */\n  swap4\n  swap3\n  pop\n  pop\n  pop\n  jump\t// out\n    /* \"#utility.yul\":5757:5817   */\ntag_35:\n    /* \"#utility.yul\":5785:5788   */\n  0x00\n    /* \"#utility.yul\":5806:5811   */\n  dup2\n    /* \"#utility.yul\":5799:5811   */\n  swap1\n  pop\n    /* \"#utility.yul\":5757:5817   */\n  swap2\n  swap1\n  pop\n  jump\t// out\n    /* \"#utility.yul\":5823:5965   */\ntag_36:\n    /* \"#utility.yul\":5873:5882   */\n  0x00\n    /* \"#utility.yul\":5906:5959   */\n  tag_112\n    /* \"#utility.yul\":5924:5958   */\n  tag_113\n    /* \"#utility.yul\":5933:5957   */\n  tag_114\n    /* \"#utility.yul\":5951:5956   */\n  dup5\n    /* \"#utility.yul\":5933:5957   */\n  tag_25\n  jump\t// in\ntag_114:\n    /* \"#utility.yul\":5924:5958   */\n  tag_35\n  jump\t// in\ntag_113:\n    /* \"#utility.yul\":5906:5959   */\n  tag_25\n  jump\t// in\ntag_112:\n    /* \"#utility.yul\":5893:5959   */\n  swap1\n  pop\n    /* \"#utility.yul\":5823:5965   */\n  swap2\n  swap1\n  pop\n  jump\t// out\n    /* \"#utility.yul\":5971:6046   */\ntag_37:\n    /* \"#utility.yul\":6014:6017   */\n  0x00\n    /* \"#utility.yul\":6035:6040   */\n  dup2\n    /* \"#utility.yul\":6028:6040   */\n  swap1\n  pop\n    /* \"#utility.yul\":5971:6046   */\n  swap2\n  swap1\n  pop\n  jump\t// out\n    /* \"#utility.yul\":6052:6321   */\ntag_38:\n    /* \"#utility.yul\":6162:6201   */\n  tag_117\n    /* \"#utility.yul\":6193:6200   */\n  dup4\n    /* \"#utility.yul\":6162:6201   */\n  tag_36\n  jump\t// in\ntag_117:\n    /* \"#utility.yul\":6223:6314   */\n  tag_118\n    /* \"#utility.yul\":6272:6313   */\n  tag_119\n    /* \"#utility.yul\":6296:6312   */\n  dup3\n    /* \"#utility.yul\":6272:6313   */\n  tag_37\n  jump\t// in\ntag_119:\n    /* \"#utility.yul\":6264:6270   */\n  dup5\n    /* \"#utility.yul\":6257:6261   */\n  dup5\n    /* \"#utility.yul\":6251:6262   */\n  sload\n    /* \"#utility.yul\":6223:6314   */\n  tag_34\n  jump\t// in\ntag_118:\n    /* \"#utility.yul\":6217:6221   */\n  dup3\n    /* \"#utility.yul\":6210:6315   */\n  sstore\n    /* \"#utility.yul\":6128:6321   */\n  pop\n    /* \"#utility.yul\":6052:6321   */\n  pop\n  pop\n  pop\n  jump\t// out\n    /* \"#utility.yul\":6327:6400   */\ntag_39:\n    /* \"#utility.yul\":6372:6375   */\n  0x00\n    /* \"#utility.yul\":6327:6400   */\n  swap1\n  jump\t// out\n    /* \"#utility.yul\":6406:6595   */\ntag_40:\n    /* \"#utility.yul\":6483:6515   */\n  tag_122\n  tag_39\n  jump\t// in\ntag_122:\n    /* \"#utility.yul\":6524:6589   */\n  tag_123\n    /* \"#utility.yul\":6582:6588   */\n  dup2\n    /* \"#utility.yul\":6574:6580   */\n  dup5\n    /* \"#utility.yul\":6568:6572   */\n  dup5\n    /* \"#utility.yul\":6524:6589   */\n  tag_38\n  jump\t// in\ntag_123:\n    /* \"#utility.yul\":6459:6595   */\n  pop\n    /* \"#utility.yul\":6406:6595   */\n  pop\n  pop\n  jump\t// out\n    /* \"#utility.yul\":6601:6787   */\ntag_41:\n    /* \"#utility.yul\":6661:6781   */\ntag_125:\n    /* \"#utility.yul\":6678:6681   */\n  dup2\n    /* \"#utility.yul\":6671:6676   */\n  dup2\n    /* \"#utility.yul\":6668:6682   */\n  lt\n    /* \"#utility.yul\":6661:6781   */\n  iszero\n  tag_127\n  jumpi\n    /* \"#utility.yul\":6732:6771   */\n  tag_128\n    /* \"#utility.yul\":6769:6770   */\n  0x00\n    /* \"#utility.yul\":6762:6767   */\n  dup3\n    /* \"#utility.yul\":6732:6771   */\n  tag_40\n  jump\t// in\ntag_128:\n    /* \"#utility.yul\":6705:6706   */\n  0x01\n    /* \"#utility.yul\":6698:6703   */\n  dup2\n    /* \"#utility.yul\":6694:6707   */\n  add\n    /* \"#utility.yul\":6685:6707   */\n  swap1\n  pop\n    /* \"#utility.yul\":6661:6781   */\n  jump(tag_125)\ntag_127:\n    /* \"#utility.yul\":6601:6787   */\n  pop\n  pop\n  jump\t// out\n    /* \"#utility.yul\":6793:7336   */\ntag_42:\n    /* \"#utility.yul\":6894:6896   */\n  0x1f\n    /* \"#utility.yul\":6889:6892   */\n  dup3\n    /* \"#utility.yul\":6886:6897   */\n  gt\n    /* \"#utility.yul\":6883:7329   */\n  iszero\n  tag_130\n  jumpi\n    /* \"#utility.yul\":6928:6966   */\n  tag_131\n    /* \"#utility.yul\":6960:6965   */\n  dup2\n    /* \"#utility.yul\":6928:6966   */\n  tag_31\n  jump\t// in\ntag_131:\n    /* \"#utility.yul\":7012:7041   */\n  tag_132\n    /* \"#utility.yul\":7030:7040   */\n  dup5\n    /* \"#utility.yul\":7012:7041   */\n  tag_32\n  jump\t// in\ntag_132:\n    /* \"#utility.yul\":7002:7010   */\n  dup2\n    /* \"#utility.yul\":6998:7042   */\n  add\n    /* \"#utility.yul\":7195:7197   */\n  0x20\n    /* \"#utility.yul\":7183:7193   */\n  dup6\n    /* \"#utility.yul\":7180:7198   */\n  lt\n    /* \"#utility.yul\":7177:7226   */\n  iszero\n  tag_133\n  jumpi\n    /* \"#utility.yul\":7216:7224   */\n  dup2\n    /* \"#utility.yul\":7201:7224   */\n  swap1\n  pop\n    /* \"#utility.yul\":7177:7226   */\ntag_133:\n    /* \"#utility.yul\":7239:7319   */\n  tag_134\n    /* \"#utility.yul\":7295:7317   */\n  tag_135\n    /* \"#utility.yul\":7313:7316   */\n  dup6\n    /* \"#utility.yul\":7295:7317   */\n  tag_32\n  jump\t// in\ntag_135:\n    /* \"#utility.yul\":7285:7293   */\n  dup4\n    /* \"#utility.yul\":7281:7318   */\n  add\n    /* \"#utility.yul\":7268:7279   */\n  dup3\n    /* \"#utility.yul\":7239:7319   */\n  tag_41\n  jump\t// in\ntag_134:\n    /* \"#utility.yul\":6898:7329   */\n  pop\n  pop\n    /* \"#utility.yul\":6883:7329   */\ntag_130:\n    /* \"#utility.yul\":6793:7336   */\n  pop\n  pop\n  pop\n  jump\t// out\n    /* \"#utility.yul\":7342:7459   */\ntag_43:\n    /* \"#utility.yul\":7396:7404   */\n  0x00\n    /* \"#utility.yul\":7446:7451   */\n  dup3\n    /* \"#utility.yul\":7440:7444   */\n  dup3\n    /* \"#utility.yul\":7436:7452   */\n  shr\n    /* \"#utility.yul\":7415:7452   */\n  swap1\n  pop\n    /* \"#utility.yul\":7342:7459   */\n  swap3\n  swap2\n  pop\n  pop\n  jump\t// out\n    /* \"#utility.yul\":7465:7634   */\ntag_44:\n    /* \"#utility.yul\":7509:7515   */\n  0x00\n    /* \"#utility.yul\":7542:7593   */\n  tag_138\n    /* \"#utility.yul\":7590:7591   */\n  0x00\n    /* \"#utility.yul\":7586:7592   */\n  not\n    /* \"#utility.yul\":7578:7583   */\n  dup5\n    /* \"#utility.yul\":7575:7576   */\n  0x08\n    /* \"#utility.yul\":7571:7584   */\n  mul\n    /* \"#utility.yul\":7542:7593   */\n  tag_43\n  jump\t// in\ntag_138:\n    /* \"#utility.yul\":7538:7594   */\n  not\n    /* \"#utility.yul\":7623:7627   */\n  dup1\n    /* \"#utility.yul\":7617:7621   */\n  dup4\n    /* \"#utility.yul\":7613:7628   */\n  and\n    /* \"#utility.yul\":7603:7628   */\n  swap2\n  pop\n    /* \"#utility.yul\":7516:7634   */\n  pop\n    /* \"#utility.yul\":7465:7634   */\n  swap3\n  swap2\n  pop\n  pop\n  jump\t// out\n    /* \"#utility.yul\":7639:7934   */\ntag_45:\n    /* \"#utility.yul\":7715:7719   */\n  0x00\n    /* \"#utility.yul\":7861:7890   */\n  tag_140\n    /* \"#utility.yul\":7886:7889   */\n  dup4\n    /* \"#utility.yul\":7880:7884   */\n  dup4\n    /* \"#utility.yul\":7861:7890   */\n  tag_44\n  jump\t// in\ntag_140:\n    /* \"#utility.yul\":7853:7890   */\n  swap2\n  pop\n    /* \"#utility.yul\":7923:7926   */\n  dup3\n    /* \"#utility.yul\":7920:7921   */\n  0x02\n    /* \"#utility.yul\":7916:7927   */\n  mul\n    /* \"#utility.yul\":7910:7914   */\n  dup3\n    /* \"#utility.yul\":7907:7928   */\n  or\n    /* \"#utility.yul\":7899:7928   */\n  swap1\n  pop\n    /* \"#utility.yul\":7639:7934   */\n  swap3\n  swap2\n  pop\n  pop\n  jump\t// out\n    /* \"#utility.yul\":7939:9334   */\ntag_7:\n    /* \"#utility.yul\":8056:8093   */\n  tag_142\n    /* \"#utility.yul\":8089:8092   */\n  dup3\n    /* \"#utility.yul\":8056:8093   */\n  tag_28\n  jump\t// in\ntag_142:\n    /* \"#utility.yul\":8158:8176   */\n  0xffffffffffffffff\n    /* \"#utility.yul\":8150:8156   */\n  dup2\n    /* \"#utility.yul\":8147:8177   */\n  gt\n    /* \"#utility.yul\":8144:8200   */\n  iszero\n  tag_143\n  jumpi\n    /* \"#utility.yul\":8180:8198   */\n  tag_144\n  tag_18\n  jump\t// in\ntag_144:\n    /* \"#utility.yul\":8144:8200   */\ntag_143:\n    /* \"#utility.yul\":8224:8262   */\n  tag_145\n    /* \"#utility.yul\":8256:8260   */\n  dup3\n    /* \"#utility.yul\":8250:8261   */\n  sload\n    /* \"#utility.yul\":8224:8262   */\n  tag_30\n  jump\t// in\ntag_145:\n    /* \"#utility.yul\":8309:8376   */\n  tag_146\n    /* \"#utility.yul\":8369:8375   */\n  dup3\n    /* \"#utility.yul\":8361:8367   */\n  dup3\n    /* \"#utility.yul\":8355:8359   */\n  dup6\n    /* \"#utility.yul\":8309:8376   */\n  tag_42\n  jump\t// in\ntag_146:\n    /* \"#utility.yul\":8403:8404   */\n  0x00\n    /* \"#utility.yul\":8427:8431   */\n  0x20\n    /* \"#utility.yul\":8414:8431   */\n  swap1\n  pop\n    /* \"#utility.yul\":8459:8461   */\n  0x1f\n    /* \"#utility.yul\":8451:8457   */\n  dup4\n    /* \"#utility.yul\":8448:8462   */\n  gt\n    /* \"#utility.yul\":8476:8477   */\n  0x01\n    /* \"#utility.yul\":8471:9089   */\n  dup2\n  eq\n  tag_148\n  jumpi\n    /* \"#utility.yul\":9133:9134   */\n  0x00\n    /* \"#utility.yul\":9150:9156   */\n  dup5\n    /* \"#utility.yul\":9147:9224   */\n  iszero\n  tag_149\n  jumpi\n    /* \"#utility.yul\":9199:9208   */\n  dup3\n    /* \"#utility.yul\":9194:9197   */\n  dup8\n    /* \"#utility.yul\":9190:9209   */\n  add\n    /* \"#utility.yul\":9184:9210   */\n  mload\n    /* \"#utility.yul\":9175:9210   */\n  swap1\n  pop\n    /* \"#utility.yul\":9147:9224   */\ntag_149:\n    /* \"#utility.yul\":9250:9317   */\n  tag_150\n    /* \"#utility.yul\":9310:9316   */\n  dup6\n    /* \"#utility.yul\":9303:9308   */\n  dup3\n    /* \"#utility.yul\":9250:9317   */\n  tag_45\n  jump\t// in\ntag_150:\n    /* \"#utility.yul\":9244:9248   */\n  dup7\n    /* \"#utility.yul\":9237:9318   */\n  sstore\n    /* \"#utility.yul\":9106:9328   */\n  pop\n    /* \"#utility.yul\":8441:9328   */\n  jump(tag_147)\n    /* \"#utility.yul\":8471:9089   */\ntag_148:\n    /* \"#utility.yul\":8523:8527   */\n  0x1f\n    /* \"#utility.yul\":8519:8528   */\n  not\n    /* \"#utility.yul\":8511:8517   */\n  dup5\n    /* \"#utility.yul\":8507:8529   */\n  and\n    /* \"#utility.yul\":8557:8594   */\n  tag_151\n    /* \"#utility.yul\":8589:8593   */\n  dup7\n    /* \"#utility.yul\":8557:8594   */\n  tag_31\n  jump\t// in\ntag_151:\n    /* \"#utility.yul\":8616:8617   */\n  0x00\n    /* \"#utility.yul\":8630:8838   */\ntag_152:\n    /* \"#utility.yul\":8644:8651   */\n  dup3\n    /* \"#utility.yul\":8641:8642   */\n  dup2\n    /* \"#utility.yul\":8638:8652   */\n  lt\n    /* \"#utility.yul\":8630:8838   */\n  iszero\n  tag_154\n  jumpi\n    /* \"#utility.yul\":8723:8732   */\n  dup5\n    /* \"#utility.yul\":8718:8721   */\n  dup10\n    /* \"#utility.yul\":8714:8733   */\n  add\n    /* \"#utility.yul\":8708:8734   */\n  mload\n    /* \"#utility.yul\":8700:8706   */\n  dup3\n    /* \"#utility.yul\":8693:8735   */\n  sstore\n    /* \"#utility.yul\":8774:8775   */\n  0x01\n    /* \"#utility.yul\":8766:8772   */\n  dup3\n    /* \"#utility.yul\":8762:8776   */\n  add\n    /* \"#utility.yul\":8752:8776   */\n  swap2\n  pop\n    /* \"#utility.yul\":8821:8823   */\n  0x20\n    /* \"#utility.yul\":8810:8819   */\n  dup6\n    /* \"#utility.yul\":8806:8824   */\n  add\n    /* \"#utility.yul\":8793:8824   */\n  swap5\n  pop\n    /* \"#utility.yul\":8667:8671   */\n  0x20\n    /* \"#utility.yul\":8664:8665   */\n  dup2\n    /* \"#utility.yul\":8660:8672   */\n  add\n    /* \"#utility.yul\":8655:8672   */\n  swap1\n  pop\n    /* \"#utility.yul\":8630:8838   */\n  jump(tag_152)\ntag_154:\n    /* \"#utility.yul\":8866:8872   */\n  dup7\n    /* \"#utility.yul\":8857:8864   */\n  dup4\n    /* \"#utility.yul\":8854:8873   */\n  lt\n    /* \"#utility.yul\":8851:9030   */\n  iszero\n  tag_155\n  jumpi\n    /* \"#utility.yul\":8924:8933   */\n  dup5\n    /* \"#utility.yul\":8919:8922   */\n  dup10\n    /* \"#utility.yul\":8915:8934   */\n  add\n    /* \"#utility.yul\":8909:8935   */\n  mload\n    /* \"#utility.yul\":8967:9015   */\n  tag_156\n    /* \"#utility.yul\":9009:9013   */\n  0x1f\n    /* \"#utility.yul\":9001:9007   */\n  dup10\n    /* \"#utility.yul\":8997:9014   */\n  and\n    /* \"#utility.yul\":8986:8995   */\n  dup3\n    /* \"#utility.yul\":8967:9015   */\n  tag_44\n  jump\t// in\ntag_156:\n    /* \"#utility.yul\":8959:8965   */\n  dup4\n    /* \"#utility.yul\":8952:9016   */\n  sstore\n    /* \"#utility.yul\":8874:9030   */\n  pop\n    /* \"#utility.yul\":8851:9030   */\ntag_155:\n    /* \"#utility.yul\":9076:9077   */\n  0x01\n    /* \"#utility.yul\":9072:9073   */\n  0x02\n    /* \"#utility.yul\":9064:9070   */\n  dup9\n    /* \"#utility.yul\":9060:9074   */\n  mul\n    /* \"#utility.yul\":9056:9078   */\n  add\n    /* \"#utility.yul\":9050:9054   */\n  dup9\n    /* \"#utility.yul\":9043:9079   */\n  sstore\n    /* \"#utility.yul\":8478:9089   */\n  pop\n  pop\n  pop\n    /* \"#utility.yul\":8441:9328   */\ntag_147:\n  pop\n    /* \"#utility.yul\":8031:9334   */\n  pop\n  pop\n  pop\n    /* \"#utility.yul\":7939:9334   */\n  pop\n  pop\n  jump\t// out\n    /* \"contracts/Crowdfunding3.sol\":224:1860  contract Crowfonding {... */\ntag_11:\n  dataSize(sub_0)\n  dup1\n  dataOffset(sub_0)\n  0x00\n  codecopy\n  0x00\n  return\nstop\n\nsub_0: assembly {\n        /* \"contracts/Crowdfunding3.sol\":224:1860  contract Crowfonding {... */\n      mstore(0x40, 0x80)\n      jumpi(tag_1, lt(calldatasize, 0x04))\n      shr(0xe0, calldataload(0x00))\n      dup1\n      0xaf640d0f\n      gt\n      tag_11\n      jumpi\n      dup1\n      0xaf640d0f\n      eq\n      tag_6\n      jumpi\n      dup1\n      0xb767050d\n      eq\n      tag_7\n      jumpi\n      dup1\n      0xc19d93fb\n      eq\n      tag_8\n      jumpi\n      dup1\n      0xc89f2ce4\n      eq\n      tag_9\n      jumpi\n      dup1\n      0xd63dc661\n      eq\n      tag_10\n      jumpi\n      jump(tag_1)\n    tag_11:\n      dup1\n      0x06fdde03\n      eq\n      tag_2\n      jumpi\n      dup1\n      0x7284e416\n      eq\n      tag_3\n      jumpi\n      dup1\n      0x922faac7\n      eq\n      tag_4\n      jumpi\n      dup1\n      0xa6c3e6b9\n      eq\n      tag_5\n      jumpi\n    tag_1:\n      0x00\n      dup1\n      revert\n        /* \"contracts/Crowdfunding3.sol\":274:292  string public name */\n    tag_2:\n      callvalue\n      dup1\n      iszero\n      tag_12\n      jumpi\n      0x00\n      dup1\n      revert\n    tag_12:\n      pop\n      tag_13\n      tag_14\n      jump\t// in\n    tag_13:\n      mload(0x40)\n      tag_15\n      swap2\n      swap1\n      tag_16\n      jump\t// in\n    tag_15:\n      mload(0x40)\n      dup1\n      swap2\n      sub\n      swap1\n      return\n        /* \"contracts/Crowdfunding3.sol\":298:323  string public description */\n    tag_3:\n      callvalue\n      dup1\n      iszero\n      tag_17\n      jumpi\n      0x00\n      dup1\n      revert\n    tag_17:\n      pop\n      tag_18\n      tag_19\n      jump\t// in\n    tag_18:\n      mload(0x40)\n      tag_20\n      swap2\n      swap1\n      tag_16\n      jump\t// in\n    tag_20:\n      mload(0x40)\n      dup1\n      swap2\n      sub\n      swap1\n      return\n        /* \"contracts/Crowdfunding3.sol\":412:439  uint public fundarisingGoal */\n    tag_4:\n      callvalue\n      dup1\n      iszero\n      tag_21\n      jumpi\n      0x00\n      dup1\n      revert\n    tag_21:\n      pop\n      tag_22\n      tag_23\n      jump\t// in\n    tag_22:\n      mload(0x40)\n      tag_24\n      swap2\n      swap1\n      tag_25\n      jump\t// in\n    tag_24:\n      mload(0x40)\n      dup1\n      swap2\n      sub\n      swap1\n      return\n        /* \"contracts/Crowdfunding3.sol\":329:358  address payable public author */\n    tag_5:\n      callvalue\n      dup1\n      iszero\n      tag_26\n      jumpi\n      0x00\n      dup1\n      revert\n    tag_26:\n      pop\n      tag_27\n      tag_28\n      jump\t// in\n    tag_27:\n      mload(0x40)\n      tag_29\n      swap2\n      swap1\n      tag_30\n      jump\t// in\n    tag_29:\n      mload(0x40)\n      dup1\n      swap2\n      sub\n      swap1\n      return\n        /* \"contracts/Crowdfunding3.sol\":252:268  string public id */\n    tag_6:\n      callvalue\n      dup1\n      iszero\n      tag_31\n      jumpi\n      0x00\n      dup1\n      revert\n    tag_31:\n      pop\n      tag_32\n      tag_33\n      jump\t// in\n    tag_32:\n      mload(0x40)\n      tag_34\n      swap2\n      swap1\n      tag_16\n      jump\t// in\n    tag_34:\n      mload(0x40)\n      dup1\n      swap2\n      sub\n      swap1\n      return\n        /* \"contracts/Crowdfunding3.sol\":1701:1858  function changeProjectState(string calldata _newState) public onlyOwner{... */\n    tag_7:\n      callvalue\n      dup1\n      iszero\n      tag_35\n      jumpi\n      0x00\n      dup1\n      revert\n    tag_35:\n      pop\n      tag_36\n      0x04\n      dup1\n      calldatasize\n      sub\n      dup2\n      add\n      swap1\n      tag_37\n      swap2\n      swap1\n      tag_38\n      jump\t// in\n    tag_37:\n      tag_39\n      jump\t// in\n    tag_36:\n      stop\n        /* \"contracts/Crowdfunding3.sol\":364:383  string public state */\n    tag_8:\n      callvalue\n      dup1\n      iszero\n      tag_40\n      jumpi\n      0x00\n      dup1\n      revert\n    tag_40:\n      pop\n      tag_41\n      tag_42\n      jump\t// in\n    tag_41:\n      mload(0x40)\n      tag_43\n      swap2\n      swap1\n      tag_16\n      jump\t// in\n    tag_43:\n      mload(0x40)\n      dup1\n      swap2\n      sub\n      swap1\n      return\n        /* \"contracts/Crowdfunding3.sol\":389:406  uint public funds */\n    tag_9:\n      callvalue\n      dup1\n      iszero\n      tag_44\n      jumpi\n      0x00\n      dup1\n      revert\n    tag_44:\n      pop\n      tag_45\n      tag_46\n      jump\t// in\n    tag_45:\n      mload(0x40)\n      tag_47\n      swap2\n      swap1\n      tag_25\n      jump\t// in\n    tag_47:\n      mload(0x40)\n      dup1\n      swap2\n      sub\n      swap1\n      return\n        /* \"contracts/Crowdfunding3.sol\":1361:1695  function fundProject() public payable notOwner{... */\n    tag_10:\n      tag_48\n      tag_49\n      jump\t// in\n    tag_48:\n      stop\n        /* \"contracts/Crowdfunding3.sol\":274:292  string public name */\n    tag_14:\n      0x01\n      dup1\n      sload\n      tag_50\n      swap1\n      tag_51\n      jump\t// in\n    tag_50:\n      dup1\n      0x1f\n      add\n      0x20\n      dup1\n      swap2\n      div\n      mul\n      0x20\n      add\n      mload(0x40)\n      swap1\n      dup2\n      add\n      0x40\n      mstore\n      dup1\n      swap3\n      swap2\n      swap1\n      dup2\n      dup2\n      mstore\n      0x20\n      add\n      dup3\n      dup1\n      sload\n      tag_52\n      swap1\n      tag_51\n      jump\t// in\n    tag_52:\n      dup1\n      iszero\n      tag_53\n      jumpi\n      dup1\n      0x1f\n      lt\n      tag_54\n      jumpi\n      0x0100\n      dup1\n      dup4\n      sload\n      div\n      mul\n      dup4\n      mstore\n      swap2\n      0x20\n      add\n      swap2\n      jump(tag_53)\n    tag_54:\n      dup3\n      add\n      swap2\n      swap1\n      0x00\n      mstore\n      keccak256(0x00, 0x20)\n      swap1\n    tag_55:\n      dup2\n      sload\n      dup2\n      mstore\n      swap1\n      0x01\n      add\n      swap1\n      0x20\n      add\n      dup1\n      dup4\n      gt\n      tag_55\n      jumpi\n      dup3\n      swap1\n      sub\n      0x1f\n      and\n      dup3\n      add\n      swap2\n    tag_53:\n      pop\n      pop\n      pop\n      pop\n      pop\n      dup2\n      jump\t// out\n        /* \"contracts/Crowdfunding3.sol\":298:323  string public description */\n    tag_19:\n      0x02\n      dup1\n      sload\n      tag_56\n      swap1\n      tag_51\n      jump\t// in\n    tag_56:\n      dup1\n      0x1f\n      add\n      0x20\n      dup1\n      swap2\n      div\n      mul\n      0x20\n      add\n      mload(0x40)\n      swap1\n      dup2\n      add\n      0x40\n      mstore\n      dup1\n      swap3\n      swap2\n      swap1\n      dup2\n      dup2\n      mstore\n      0x20\n      add\n      dup3\n      dup1\n      sload\n      tag_57\n      swap1\n      tag_51\n      jump\t// in\n    tag_57:\n      dup1\n      iszero\n      tag_58\n      jumpi\n      dup1\n      0x1f\n      lt\n      tag_59\n      jumpi\n      0x0100\n      dup1\n      dup4\n      sload\n      div\n      mul\n      dup4\n      mstore\n      swap2\n      0x20\n      add\n      swap2\n      jump(tag_58)\n    tag_59:\n      dup3\n      add\n      swap2\n      swap1\n      0x00\n      mstore\n      keccak256(0x00, 0x20)\n      swap1\n    tag_60:\n      dup2\n      sload\n      dup2\n      mstore\n      swap1\n      0x01\n      add\n      swap1\n      0x20\n      add\n      dup1\n      dup4\n      gt\n      tag_60\n      jumpi\n      dup3\n      swap1\n      sub\n      0x1f\n      and\n      dup3\n      add\n      swap2\n    tag_58:\n      pop\n      pop\n      pop\n      pop\n      pop\n      dup2\n      jump\t// out\n        /* \"contracts/Crowdfunding3.sol\":412:439  uint public fundarisingGoal */\n    tag_23:\n      sload(0x06)\n      dup2\n      jump\t// out\n        /* \"contracts/Crowdfunding3.sol\":329:358  address payable public author */\n    tag_28:\n      0x03\n      0x00\n      swap1\n      sload\n      swap1\n      0x0100\n      exp\n      swap1\n      div\n      0xffffffffffffffffffffffffffffffffffffffff\n      and\n      dup2\n      jump\t// out\n        /* \"contracts/Crowdfunding3.sol\":252:268  string public id */\n    tag_33:\n      0x00\n      dup1\n      sload\n      tag_61\n      swap1\n      tag_51\n      jump\t// in\n    tag_61:\n      dup1\n      0x1f\n      add\n      0x20\n      dup1\n      swap2\n      div\n      mul\n      0x20\n      add\n      mload(0x40)\n      swap1\n      dup2\n      add\n      0x40\n      mstore\n      dup1\n      swap3\n      swap2\n      swap1\n      dup2\n      dup2\n      mstore\n      0x20\n      add\n      dup3\n      dup1\n      sload\n      tag_62\n      swap1\n      tag_51\n      jump\t// in\n    tag_62:\n      dup1\n      iszero\n      tag_63\n      jumpi\n      dup1\n      0x1f\n      lt\n      tag_64\n      jumpi\n      0x0100\n      dup1\n      dup4\n      sload\n      div\n      mul\n      dup4\n      mstore\n      swap2\n      0x20\n      add\n      swap2\n      jump(tag_63)\n    tag_64:\n      dup3\n      add\n      swap2\n      swap1\n      0x00\n      mstore\n      keccak256(0x00, 0x20)\n      swap1\n    tag_65:\n      dup2\n      sload\n      dup2\n      mstore\n      swap1\n      0x01\n      add\n      swap1\n      0x20\n      add\n      dup1\n      dup4\n      gt\n      tag_65\n      jumpi\n      dup3\n      swap1\n      sub\n      0x1f\n      and\n      dup3\n      add\n      swap2\n    tag_63:\n      pop\n      pop\n      pop\n      pop\n      pop\n      dup2\n      jump\t// out\n        /* \"contracts/Crowdfunding3.sol\":1701:1858  function changeProjectState(string calldata _newState) public onlyOwner{... */\n    tag_39:\n        /* \"contracts/Crowdfunding3.sol\":1107:1113  author */\n      0x03\n      0x00\n      swap1\n      sload\n      swap1\n      0x0100\n      exp\n      swap1\n      div\n      0xffffffffffffffffffffffffffffffffffffffff\n      and\n        /* \"contracts/Crowdfunding3.sol\":1093:1113  msg.sender == author */\n      0xffffffffffffffffffffffffffffffffffffffff\n      and\n        /* \"contracts/Crowdfunding3.sol\":1093:1103  msg.sender */\n      caller\n        /* \"contracts/Crowdfunding3.sol\":1093:1113  msg.sender == author */\n      0xffffffffffffffffffffffffffffffffffffffff\n      and\n      eq\n        /* \"contracts/Crowdfunding3.sol\":1072:1184  require(... */\n      tag_67\n      jumpi\n      mload(0x40)\n      0x08c379a000000000000000000000000000000000000000000000000000000000\n      dup2\n      mstore\n      0x04\n      add\n      tag_68\n      swap1\n      tag_69\n      jump\t// in\n    tag_68:\n      mload(0x40)\n      dup1\n      swap2\n      sub\n      swap1\n      revert\n    tag_67:\n        /* \"contracts/Crowdfunding3.sol\":1790:1799  _newState */\n      dup2\n      dup2\n        /* \"contracts/Crowdfunding3.sol\":1782:1787  state */\n      0x04\n        /* \"contracts/Crowdfunding3.sol\":1782:1799  state = _newState */\n      swap2\n      dup3\n      tag_71\n      swap3\n      swap2\n      swap1\n      tag_72\n      jump\t// in\n    tag_71:\n      pop\n        /* \"contracts/Crowdfunding3.sol\":1814:1851  ChangeProjectState(msg.sender, state) */\n      0xd74cc10e566844502b1013eb3aee1e3200cc3ffa1f74bf59be4b7c2a66fb9b7d\n        /* \"contracts/Crowdfunding3.sol\":1833:1843  msg.sender */\n      caller\n        /* \"contracts/Crowdfunding3.sol\":1845:1850  state */\n      0x04\n        /* \"contracts/Crowdfunding3.sol\":1814:1851  ChangeProjectState(msg.sender, state) */\n      mload(0x40)\n      tag_73\n      swap3\n      swap2\n      swap1\n      tag_74\n      jump\t// in\n    tag_73:\n      mload(0x40)\n      dup1\n      swap2\n      sub\n      swap1\n      log1\n        /* \"contracts/Crowdfunding3.sol\":1701:1858  function changeProjectState(string calldata _newState) public onlyOwner{... */\n      pop\n      pop\n      jump\t// out\n        /* \"contracts/Crowdfunding3.sol\":364:383  string public state */\n    tag_42:\n      0x04\n      dup1\n      sload\n      tag_75\n      swap1\n      tag_51\n      jump\t// in\n    tag_75:\n      dup1\n      0x1f\n      add\n      0x20\n      dup1\n      swap2\n      div\n      mul\n      0x20\n      add\n      mload(0x40)\n      swap1\n      dup2\n      add\n      0x40\n      mstore\n      dup1\n      swap3\n      swap2\n      swap1\n      dup2\n      dup2\n      mstore\n      0x20\n      add\n      dup3\n      dup1\n      sload\n      tag_76\n      swap1\n      tag_51\n      jump\t// in\n    tag_76:\n      dup1\n      iszero\n      tag_77\n      jumpi\n      dup1\n      0x1f\n      lt\n      tag_78\n      jumpi\n      0x0100\n      dup1\n      dup4\n      sload\n      div\n      mul\n      dup4\n      mstore\n      swap2\n      0x20\n      add\n      swap2\n      jump(tag_77)\n    tag_78:\n      dup3\n      add\n      swap2\n      swap1\n      0x00\n      mstore\n      keccak256(0x00, 0x20)\n      swap1\n    tag_79:\n      dup2\n      sload\n      dup2\n      mstore\n      swap1\n      0x01\n      add\n      swap1\n      0x20\n      add\n      dup1\n      dup4\n      gt\n      tag_79\n      jumpi\n      dup3\n      swap1\n      sub\n      0x1f\n      and\n      dup3\n      add\n      swap2\n    tag_77:\n      pop\n      pop\n      pop\n      pop\n      pop\n      dup2\n      jump\t// out\n        /* \"contracts/Crowdfunding3.sol\":389:406  uint public funds */\n    tag_46:\n      sload(0x05)\n      dup2\n      jump\t// out\n        /* \"contracts/Crowdfunding3.sol\":1361:1695  function fundProject() public payable notOwner{... */\n    tag_49:\n        /* \"contracts/Crowdfunding3.sol\":1274:1280  author */\n      0x03\n      0x00\n      swap1\n      sload\n      swap1\n      0x0100\n      exp\n      swap1\n      div\n      0xffffffffffffffffffffffffffffffffffffffff\n      and\n        /* \"contracts/Crowdfunding3.sol\":1260:1280  msg.sender != author */\n      0xffffffffffffffffffffffffffffffffffffffff\n      and\n        /* \"contracts/Crowdfunding3.sol\":1260:1270  msg.sender */\n      caller\n        /* \"contracts/Crowdfunding3.sol\":1260:1280  msg.sender != author */\n      0xffffffffffffffffffffffffffffffffffffffff\n      and\n      sub\n        /* \"contracts/Crowdfunding3.sol\":1239:1337  require(... */\n      tag_81\n      jumpi\n      mload(0x40)\n      0x08c379a000000000000000000000000000000000000000000000000000000000\n      dup2\n      mstore\n      0x04\n      add\n      tag_82\n      swap1\n      tag_83\n      jump\t// in\n    tag_82:\n      mload(0x40)\n      dup1\n      swap2\n      sub\n      swap1\n      revert\n    tag_81:\n        /* \"contracts/Crowdfunding3.sol\":1486:1512  abi.encodePacked('Opened') */\n      add(0x20, mload(0x40))\n      tag_85\n      swap1\n      tag_86\n      jump\t// in\n    tag_85:\n      mload(0x40)\n      0x20\n      dup2\n      dup4\n      sub\n      sub\n      dup2\n      mstore\n      swap1\n      0x40\n      mstore\n        /* \"contracts/Crowdfunding3.sol\":1476:1513  keccak256(abi.encodePacked('Opened')) */\n      dup1\n      mload\n      swap1\n      0x20\n      add\n      keccak256\n        /* \"contracts/Crowdfunding3.sol\":1465:1470  state */\n      0x04\n        /* \"contracts/Crowdfunding3.sol\":1448:1471  abi.encodePacked(state) */\n      add(0x20, mload(0x40))\n      tag_87\n      swap2\n      swap1\n      tag_88\n      jump\t// in\n    tag_87:\n      mload(0x40)\n      0x20\n      dup2\n      dup4\n      sub\n      sub\n      dup2\n      mstore\n      swap1\n      0x40\n      mstore\n        /* \"contracts/Crowdfunding3.sol\":1438:1472  keccak256(abi.encodePacked(state)) */\n      dup1\n      mload\n      swap1\n      0x20\n      add\n      keccak256\n        /* \"contracts/Crowdfunding3.sol\":1438:1513  keccak256(abi.encodePacked(state)) == keccak256(abi.encodePacked('Opened')) */\n      eq\n        /* \"contracts/Crowdfunding3.sol\":1417:1575  require(... */\n      tag_89\n      jumpi\n      mload(0x40)\n      0x08c379a000000000000000000000000000000000000000000000000000000000\n      dup2\n      mstore\n      0x04\n      add\n      tag_90\n      swap1\n      tag_91\n      jump\t// in\n    tag_90:\n      mload(0x40)\n      dup1\n      swap2\n      sub\n      swap1\n      revert\n    tag_89:\n        /* \"contracts/Crowdfunding3.sol\":1585:1591  author */\n      0x03\n      0x00\n      swap1\n      sload\n      swap1\n      0x0100\n      exp\n      swap1\n      div\n      0xffffffffffffffffffffffffffffffffffffffff\n      and\n        /* \"contracts/Crowdfunding3.sol\":1585:1600  author.transfer */\n      0xffffffffffffffffffffffffffffffffffffffff\n      and\n        /* \"contracts/Crowdfunding3.sol\":1585:1611  author.transfer(msg.value) */\n      0x08fc\n        /* \"contracts/Crowdfunding3.sol\":1601:1610  msg.value */\n      callvalue\n        /* \"contracts/Crowdfunding3.sol\":1585:1611  author.transfer(msg.value) */\n      swap1\n      dup2\n      iszero\n      mul\n      swap1\n      mload(0x40)\n      0x00\n      mload(0x40)\n      dup1\n      dup4\n      sub\n      dup2\n      dup6\n      dup9\n      dup9\n      call\n      swap4\n      pop\n      pop\n      pop\n      pop\n      iszero\n      dup1\n      iszero\n      tag_93\n      jumpi\n      returndatasize\n      0x00\n      dup1\n      returndatacopy\n      revert(0x00, returndatasize)\n    tag_93:\n      pop\n        /* \"contracts/Crowdfunding3.sol\":1630:1639  msg.value */\n      callvalue\n        /* \"contracts/Crowdfunding3.sol\":1621:1626  funds */\n      0x05\n      0x00\n        /* \"contracts/Crowdfunding3.sol\":1621:1639  funds += msg.value */\n      dup3\n      dup3\n      sload\n      tag_94\n      swap2\n      swap1\n      tag_95\n      jump\t// in\n    tag_94:\n      swap3\n      pop\n      pop\n      dup2\n      swap1\n      sstore\n      pop\n        /* \"contracts/Crowdfunding3.sol\":1654:1688  FundProject(msg.sender, msg.value) */\n      0x9dbcb1d3adc1305990f05754143d0baf2f49fa6124b6e9f9ee509b31f2ad300b\n        /* \"contracts/Crowdfunding3.sol\":1666:1676  msg.sender */\n      caller\n        /* \"contracts/Crowdfunding3.sol\":1678:1687  msg.value */\n      callvalue\n        /* \"contracts/Crowdfunding3.sol\":1654:1688  FundProject(msg.sender, msg.value) */\n      mload(0x40)\n      tag_96\n      swap3\n      swap2\n      swap1\n      tag_97\n      jump\t// in\n    tag_96:\n      mload(0x40)\n      dup1\n      swap2\n      sub\n      swap1\n      log1\n        /* \"contracts/Crowdfunding3.sol\":1361:1695  function fundProject() public payable notOwner{... */\n      jump\t// out\n        /* \"#utility.yul\":7:106   */\n    tag_98:\n        /* \"#utility.yul\":59:65   */\n      0x00\n        /* \"#utility.yul\":93:98   */\n      dup2\n        /* \"#utility.yul\":87:99   */\n      mload\n        /* \"#utility.yul\":77:99   */\n      swap1\n      pop\n        /* \"#utility.yul\":7:106   */\n      swap2\n      swap1\n      pop\n      jump\t// out\n        /* \"#utility.yul\":112:281   */\n    tag_99:\n        /* \"#utility.yul\":196:207   */\n      0x00\n        /* \"#utility.yul\":230:236   */\n      dup3\n        /* \"#utility.yul\":225:228   */\n      dup3\n        /* \"#utility.yul\":218:237   */\n      mstore\n        /* \"#utility.yul\":270:274   */\n      0x20\n        /* \"#utility.yul\":265:268   */\n      dup3\n        /* \"#utility.yul\":261:275   */\n      add\n        /* \"#utility.yul\":246:275   */\n      swap1\n      pop\n        /* \"#utility.yul\":112:281   */\n      swap3\n      swap2\n      pop\n      pop\n      jump\t// out\n        /* \"#utility.yul\":287:533   */\n    tag_100:\n        /* \"#utility.yul\":368:369   */\n      0x00\n        /* \"#utility.yul\":378:491   */\n    tag_151:\n        /* \"#utility.yul\":392:398   */\n      dup4\n        /* \"#utility.yul\":389:390   */\n      dup2\n        /* \"#utility.yul\":386:399   */\n      lt\n        /* \"#utility.yul\":378:491   */\n      iszero\n      tag_153\n      jumpi\n        /* \"#utility.yul\":477:478   */\n      dup1\n        /* \"#utility.yul\":472:475   */\n      dup3\n        /* \"#utility.yul\":468:479   */\n      add\n        /* \"#utility.yul\":462:480   */\n      mload\n        /* \"#utility.yul\":458:459   */\n      dup2\n        /* \"#utility.yul\":453:456   */\n      dup5\n        /* \"#utility.yul\":449:460   */\n      add\n        /* \"#utility.yul\":442:481   */\n      mstore\n        /* \"#utility.yul\":414:416   */\n      0x20\n        /* \"#utility.yul\":411:412   */\n      dup2\n        /* \"#utility.yul\":407:417   */\n      add\n        /* \"#utility.yul\":402:417   */\n      swap1\n      pop\n        /* \"#utility.yul\":378:491   */\n      jump(tag_151)\n    tag_153:\n        /* \"#utility.yul\":525:526   */\n      0x00\n        /* \"#utility.yul\":516:522   */\n      dup5\n        /* \"#utility.yul\":511:514   */\n      dup5\n        /* \"#utility.yul\":507:523   */\n      add\n        /* \"#utility.yul\":500:527   */\n      mstore\n        /* \"#utility.yul\":349:533   */\n      pop\n        /* \"#utility.yul\":287:533   */\n      pop\n      pop\n      pop\n      jump\t// out\n        /* \"#utility.yul\":539:641   */\n    tag_101:\n        /* \"#utility.yul\":580:586   */\n      0x00\n        /* \"#utility.yul\":631:633   */\n      0x1f\n        /* \"#utility.yul\":627:634   */\n      not\n        /* \"#utility.yul\":622:624   */\n      0x1f\n        /* \"#utility.yul\":615:620   */\n      dup4\n        /* \"#utility.yul\":611:625   */\n      add\n        /* \"#utility.yul\":607:635   */\n      and\n        /* \"#utility.yul\":597:635   */\n      swap1\n      pop\n        /* \"#utility.yul\":539:641   */\n      swap2\n      swap1\n      pop\n      jump\t// out\n        /* \"#utility.yul\":647:1024   */\n    tag_102:\n        /* \"#utility.yul\":735:738   */\n      0x00\n        /* \"#utility.yul\":763:802   */\n      tag_156\n        /* \"#utility.yul\":796:801   */\n      dup3\n        /* \"#utility.yul\":763:802   */\n      tag_98\n      jump\t// in\n    tag_156:\n        /* \"#utility.yul\":818:889   */\n      tag_157\n        /* \"#utility.yul\":882:888   */\n      dup2\n        /* \"#utility.yul\":877:880   */\n      dup6\n        /* \"#utility.yul\":818:889   */\n      tag_99\n      jump\t// in\n    tag_157:\n        /* \"#utility.yul\":811:889   */\n      swap4\n      pop\n        /* \"#utility.yul\":898:963   */\n      tag_158\n        /* \"#utility.yul\":956:962   */\n      dup2\n        /* \"#utility.yul\":951:954   */\n      dup6\n        /* \"#utility.yul\":944:948   */\n      0x20\n        /* \"#utility.yul\":937:942   */\n      dup7\n        /* \"#utility.yul\":933:949   */\n      add\n        /* \"#utility.yul\":898:963   */\n      tag_100\n      jump\t// in\n    tag_158:\n        /* \"#utility.yul\":988:1017   */\n      tag_159\n        /* \"#utility.yul\":1010:1016   */\n      dup2\n        /* \"#utility.yul\":988:1017   */\n      tag_101\n      jump\t// in\n    tag_159:\n        /* \"#utility.yul\":983:986   */\n      dup5\n        /* \"#utility.yul\":979:1018   */\n      add\n        /* \"#utility.yul\":972:1018   */\n      swap2\n      pop\n        /* \"#utility.yul\":739:1024   */\n      pop\n        /* \"#utility.yul\":647:1024   */\n      swap3\n      swap2\n      pop\n      pop\n      jump\t// out\n        /* \"#utility.yul\":1030:1343   */\n    tag_16:\n        /* \"#utility.yul\":1143:1147   */\n      0x00\n        /* \"#utility.yul\":1181:1183   */\n      0x20\n        /* \"#utility.yul\":1170:1179   */\n      dup3\n        /* \"#utility.yul\":1166:1184   */\n      add\n        /* \"#utility.yul\":1158:1184   */\n      swap1\n      pop\n        /* \"#utility.yul\":1230:1239   */\n      dup2\n        /* \"#utility.yul\":1224:1228   */\n      dup2\n        /* \"#utility.yul\":1220:1240   */\n      sub\n        /* \"#utility.yul\":1216:1217   */\n      0x00\n        /* \"#utility.yul\":1205:1214   */\n      dup4\n        /* \"#utility.yul\":1201:1218   */\n      add\n        /* \"#utility.yul\":1194:1241   */\n      mstore\n        /* \"#utility.yul\":1258:1336   */\n      tag_161\n        /* \"#utility.yul\":1331:1335   */\n      dup2\n        /* \"#utility.yul\":1322:1328   */\n      dup5\n        /* \"#utility.yul\":1258:1336   */\n      tag_102\n      jump\t// in\n    tag_161:\n        /* \"#utility.yul\":1250:1336   */\n      swap1\n      pop\n        /* \"#utility.yul\":1030:1343   */\n      swap3\n      swap2\n      pop\n      pop\n      jump\t// out\n        /* \"#utility.yul\":1349:1426   */\n    tag_103:\n        /* \"#utility.yul\":1386:1393   */\n      0x00\n        /* \"#utility.yul\":1415:1420   */\n      dup2\n        /* \"#utility.yul\":1404:1420   */\n      swap1\n      pop\n        /* \"#utility.yul\":1349:1426   */\n      swap2\n      swap1\n      pop\n      jump\t// out\n        /* \"#utility.yul\":1432:1550   */\n    tag_104:\n        /* \"#utility.yul\":1519:1543   */\n      tag_164\n        /* \"#utility.yul\":1537:1542   */\n      dup2\n        /* \"#utility.yul\":1519:1543   */\n      tag_103\n      jump\t// in\n    tag_164:\n        /* \"#utility.yul\":1514:1517   */\n      dup3\n        /* \"#utility.yul\":1507:1544   */\n      mstore\n        /* \"#utility.yul\":1432:1550   */\n      pop\n      pop\n      jump\t// out\n        /* \"#utility.yul\":1556:1778   */\n    tag_25:\n        /* \"#utility.yul\":1649:1653   */\n      0x00\n        /* \"#utility.yul\":1687:1689   */\n      0x20\n        /* \"#utility.yul\":1676:1685   */\n      dup3\n        /* \"#utility.yul\":1672:1690   */\n      add\n        /* \"#utility.yul\":1664:1690   */\n      swap1\n      pop\n        /* \"#utility.yul\":1700:1771   */\n      tag_166\n        /* \"#utility.yul\":1768:1769   */\n      0x00\n        /* \"#utility.yul\":1757:1766   */\n      dup4\n        /* \"#utility.yul\":1753:1770   */\n      add\n        /* \"#utility.yul\":1744:1750   */\n      dup5\n        /* \"#utility.yul\":1700:1771   */\n      tag_104\n      jump\t// in\n    tag_166:\n        /* \"#utility.yul\":1556:1778   */\n      swap3\n      swap2\n      pop\n      pop\n      jump\t// out\n        /* \"#utility.yul\":1784:1910   */\n    tag_105:\n        /* \"#utility.yul\":1821:1828   */\n      0x00\n        /* \"#utility.yul\":1861:1903   */\n      0xffffffffffffffffffffffffffffffffffffffff\n        /* \"#utility.yul\":1854:1859   */\n      dup3\n        /* \"#utility.yul\":1850:1904   */\n      and\n        /* \"#utility.yul\":1839:1904   */\n      swap1\n      pop\n        /* \"#utility.yul\":1784:1910   */\n      swap2\n      swap1\n      pop\n      jump\t// out\n        /* \"#utility.yul\":1916:2020   */\n    tag_106:\n        /* \"#utility.yul\":1961:1968   */\n      0x00\n        /* \"#utility.yul\":1990:2014   */\n      tag_169\n        /* \"#utility.yul\":2008:2013   */\n      dup3\n        /* \"#utility.yul\":1990:2014   */\n      tag_105\n      jump\t// in\n    tag_169:\n        /* \"#utility.yul\":1979:2014   */\n      swap1\n      pop\n        /* \"#utility.yul\":1916:2020   */\n      swap2\n      swap1\n      pop\n      jump\t// out\n        /* \"#utility.yul\":2026:2168   */\n    tag_107:\n        /* \"#utility.yul\":2129:2161   */\n      tag_171\n        /* \"#utility.yul\":2155:2160   */\n      dup2\n        /* \"#utility.yul\":2129:2161   */\n      tag_106\n      jump\t// in\n    tag_171:\n        /* \"#utility.yul\":2124:2127   */\n      dup3\n        /* \"#utility.yul\":2117:2162   */\n      mstore\n        /* \"#utility.yul\":2026:2168   */\n      pop\n      pop\n      jump\t// out\n        /* \"#utility.yul\":2174:2428   */\n    tag_30:\n        /* \"#utility.yul\":2283:2287   */\n      0x00\n        /* \"#utility.yul\":2321:2323   */\n      0x20\n        /* \"#utility.yul\":2310:2319   */\n      dup3\n        /* \"#utility.yul\":2306:2324   */\n      add\n        /* \"#utility.yul\":2298:2324   */\n      swap1\n      pop\n        /* \"#utility.yul\":2334:2421   */\n      tag_173\n        /* \"#utility.yul\":2418:2419   */\n      0x00\n        /* \"#utility.yul\":2407:2416   */\n      dup4\n        /* \"#utility.yul\":2403:2420   */\n      add\n        /* \"#utility.yul\":2394:2400   */\n      dup5\n        /* \"#utility.yul\":2334:2421   */\n      tag_107\n      jump\t// in\n    tag_173:\n        /* \"#utility.yul\":2174:2428   */\n      swap3\n      swap2\n      pop\n      pop\n      jump\t// out\n        /* \"#utility.yul\":2515:2632   */\n    tag_109:\n        /* \"#utility.yul\":2624:2625   */\n      0x00\n        /* \"#utility.yul\":2621:2622   */\n      dup1\n        /* \"#utility.yul\":2614:2626   */\n      revert\n        /* \"#utility.yul\":2638:2755   */\n    tag_110:\n        /* \"#utility.yul\":2747:2748   */\n      0x00\n        /* \"#utility.yul\":2744:2745   */\n      dup1\n        /* \"#utility.yul\":2737:2749   */\n      revert\n        /* \"#utility.yul\":2761:2878   */\n    tag_111:\n        /* \"#utility.yul\":2870:2871   */\n      0x00\n        /* \"#utility.yul\":2867:2868   */\n      dup1\n        /* \"#utility.yul\":2860:2872   */\n      revert\n        /* \"#utility.yul\":2884:3001   */\n    tag_112:\n        /* \"#utility.yul\":2993:2994   */\n      0x00\n        /* \"#utility.yul\":2990:2991   */\n      dup1\n        /* \"#utility.yul\":2983:2995   */\n      revert\n        /* \"#utility.yul\":3007:3124   */\n    tag_113:\n        /* \"#utility.yul\":3116:3117   */\n      0x00\n        /* \"#utility.yul\":3113:3114   */\n      dup1\n        /* \"#utility.yul\":3106:3118   */\n      revert\n        /* \"#utility.yul\":3144:3697   */\n    tag_114:\n        /* \"#utility.yul\":3202:3210   */\n      0x00\n        /* \"#utility.yul\":3212:3218   */\n      dup1\n        /* \"#utility.yul\":3262:3265   */\n      dup4\n        /* \"#utility.yul\":3255:3259   */\n      0x1f\n        /* \"#utility.yul\":3247:3253   */\n      dup5\n        /* \"#utility.yul\":3243:3260   */\n      add\n        /* \"#utility.yul\":3239:3266   */\n      slt\n        /* \"#utility.yul\":3229:3351   */\n      tag_181\n      jumpi\n        /* \"#utility.yul\":3270:3349   */\n      tag_182\n      tag_111\n      jump\t// in\n    tag_182:\n        /* \"#utility.yul\":3229:3351   */\n    tag_181:\n        /* \"#utility.yul\":3383:3389   */\n      dup3\n        /* \"#utility.yul\":3370:3390   */\n      calldataload\n        /* \"#utility.yul\":3360:3390   */\n      swap1\n      pop\n        /* \"#utility.yul\":3413:3431   */\n      0xffffffffffffffff\n        /* \"#utility.yul\":3405:3411   */\n      dup2\n        /* \"#utility.yul\":3402:3432   */\n      gt\n        /* \"#utility.yul\":3399:3516   */\n      iszero\n      tag_183\n      jumpi\n        /* \"#utility.yul\":3435:3514   */\n      tag_184\n      tag_112\n      jump\t// in\n    tag_184:\n        /* \"#utility.yul\":3399:3516   */\n    tag_183:\n        /* \"#utility.yul\":3549:3553   */\n      0x20\n        /* \"#utility.yul\":3541:3547   */\n      dup4\n        /* \"#utility.yul\":3537:3554   */\n      add\n        /* \"#utility.yul\":3525:3554   */\n      swap2\n      pop\n        /* \"#utility.yul\":3603:3606   */\n      dup4\n        /* \"#utility.yul\":3595:3599   */\n      0x01\n        /* \"#utility.yul\":3587:3593   */\n      dup3\n        /* \"#utility.yul\":3583:3600   */\n      mul\n        /* \"#utility.yul\":3573:3581   */\n      dup4\n        /* \"#utility.yul\":3569:3601   */\n      add\n        /* \"#utility.yul\":3566:3607   */\n      gt\n        /* \"#utility.yul\":3563:3691   */\n      iszero\n      tag_185\n      jumpi\n        /* \"#utility.yul\":3610:3689   */\n      tag_186\n      tag_113\n      jump\t// in\n    tag_186:\n        /* \"#utility.yul\":3563:3691   */\n    tag_185:\n        /* \"#utility.yul\":3144:3697   */\n      swap3\n      pop\n      swap3\n      swap1\n      pop\n      jump\t// out\n        /* \"#utility.yul\":3703:4232   */\n    tag_38:\n        /* \"#utility.yul\":3774:3780   */\n      0x00\n        /* \"#utility.yul\":3782:3788   */\n      dup1\n        /* \"#utility.yul\":3831:3833   */\n      0x20\n        /* \"#utility.yul\":3819:3828   */\n      dup4\n        /* \"#utility.yul\":3810:3817   */\n      dup6\n        /* \"#utility.yul\":3806:3829   */\n      sub\n        /* \"#utility.yul\":3802:3834   */\n      slt\n        /* \"#utility.yul\":3799:3918   */\n      iszero\n      tag_188\n      jumpi\n        /* \"#utility.yul\":3837:3916   */\n      tag_189\n      tag_109\n      jump\t// in\n    tag_189:\n        /* \"#utility.yul\":3799:3918   */\n    tag_188:\n        /* \"#utility.yul\":3985:3986   */\n      0x00\n        /* \"#utility.yul\":3974:3983   */\n      dup4\n        /* \"#utility.yul\":3970:3987   */\n      add\n        /* \"#utility.yul\":3957:3988   */\n      calldataload\n        /* \"#utility.yul\":4015:4033   */\n      0xffffffffffffffff\n        /* \"#utility.yul\":4007:4013   */\n      dup2\n        /* \"#utility.yul\":4004:4034   */\n      gt\n        /* \"#utility.yul\":4001:4118   */\n      iszero\n      tag_190\n      jumpi\n        /* \"#utility.yul\":4037:4116   */\n      tag_191\n      tag_110\n      jump\t// in\n    tag_191:\n        /* \"#utility.yul\":4001:4118   */\n    tag_190:\n        /* \"#utility.yul\":4150:4215   */\n      tag_192\n        /* \"#utility.yul\":4207:4214   */\n      dup6\n        /* \"#utility.yul\":4198:4204   */\n      dup3\n        /* \"#utility.yul\":4187:4196   */\n      dup7\n        /* \"#utility.yul\":4183:4205   */\n      add\n        /* \"#utility.yul\":4150:4215   */\n      tag_114\n      jump\t// in\n    tag_192:\n        /* \"#utility.yul\":4132:4215   */\n      swap3\n      pop\n      swap3\n      pop\n        /* \"#utility.yul\":3928:4225   */\n      pop\n        /* \"#utility.yul\":3703:4232   */\n      swap3\n      pop\n      swap3\n      swap1\n      pop\n      jump\t// out\n        /* \"#utility.yul\":4238:4418   */\n    tag_115:\n        /* \"#utility.yul\":4286:4363   */\n      0x4e487b7100000000000000000000000000000000000000000000000000000000\n        /* \"#utility.yul\":4283:4284   */\n      0x00\n        /* \"#utility.yul\":4276:4364   */\n      mstore\n        /* \"#utility.yul\":4383:4387   */\n      0x22\n        /* \"#utility.yul\":4380:4381   */\n      0x04\n        /* \"#utility.yul\":4373:4388   */\n      mstore\n        /* \"#utility.yul\":4407:4411   */\n      0x24\n        /* \"#utility.yul\":4404:4405   */\n      0x00\n        /* \"#utility.yul\":4397:4412   */\n      revert\n        /* \"#utility.yul\":4424:4744   */\n    tag_51:\n        /* \"#utility.yul\":4468:4474   */\n      0x00\n        /* \"#utility.yul\":4505:4506   */\n      0x02\n        /* \"#utility.yul\":4499:4503   */\n      dup3\n        /* \"#utility.yul\":4495:4507   */\n      div\n        /* \"#utility.yul\":4485:4507   */\n      swap1\n      pop\n        /* \"#utility.yul\":4552:4553   */\n      0x01\n        /* \"#utility.yul\":4546:4550   */\n      dup3\n        /* \"#utility.yul\":4542:4554   */\n      and\n        /* \"#utility.yul\":4573:4591   */\n      dup1\n        /* \"#utility.yul\":4563:4644   */\n      tag_195\n      jumpi\n        /* \"#utility.yul\":4629:4633   */\n      0x7f\n        /* \"#utility.yul\":4621:4627   */\n      dup3\n        /* \"#utility.yul\":4617:4634   */\n      and\n        /* \"#utility.yul\":4607:4634   */\n      swap2\n      pop\n        /* \"#utility.yul\":4563:4644   */\n    tag_195:\n        /* \"#utility.yul\":4691:4693   */\n      0x20\n        /* \"#utility.yul\":4683:4689   */\n      dup3\n        /* \"#utility.yul\":4680:4694   */\n      lt\n        /* \"#utility.yul\":4660:4678   */\n      dup2\n        /* \"#utility.yul\":4657:4695   */\n      sub\n        /* \"#utility.yul\":4654:4738   */\n      tag_196\n      jumpi\n        /* \"#utility.yul\":4710:4728   */\n      tag_197\n      tag_115\n      jump\t// in\n    tag_197:\n        /* \"#utility.yul\":4654:4738   */\n    tag_196:\n        /* \"#utility.yul\":4475:4744   */\n      pop\n        /* \"#utility.yul\":4424:4744   */\n      swap2\n      swap1\n      pop\n      jump\t// out\n        /* \"#utility.yul\":4750:4981   */\n    tag_116:\n        /* \"#utility.yul\":4890:4924   */\n      0x4f6e6c7920746865206f776e65722063616e206368656e676520746865722070\n        /* \"#utility.yul\":4886:4887   */\n      0x00\n        /* \"#utility.yul\":4878:4884   */\n      dup3\n        /* \"#utility.yul\":4874:4888   */\n      add\n        /* \"#utility.yul\":4867:4925   */\n      mstore\n        /* \"#utility.yul\":4959:4973   */\n      0x726f6a6563742073746174650000000000000000000000000000000000000000\n        /* \"#utility.yul\":4954:4956   */\n      0x20\n        /* \"#utility.yul\":4946:4952   */\n      dup3\n        /* \"#utility.yul\":4942:4957   */\n      add\n        /* \"#utility.yul\":4935:4974   */\n      mstore\n        /* \"#utility.yul\":4750:4981   */\n      pop\n      jump\t// out\n        /* \"#utility.yul\":4987:5353   */\n    tag_117:\n        /* \"#utility.yul\":5129:5132   */\n      0x00\n        /* \"#utility.yul\":5150:5217   */\n      tag_200\n        /* \"#utility.yul\":5214:5216   */\n      0x2c\n        /* \"#utility.yul\":5209:5212   */\n      dup4\n        /* \"#utility.yul\":5150:5217   */\n      tag_99\n      jump\t// in\n    tag_200:\n        /* \"#utility.yul\":5143:5217   */\n      swap2\n      pop\n        /* \"#utility.yul\":5226:5319   */\n      tag_201\n        /* \"#utility.yul\":5315:5318   */\n      dup3\n        /* \"#utility.yul\":5226:5319   */\n      tag_116\n      jump\t// in\n    tag_201:\n        /* \"#utility.yul\":5344:5346   */\n      0x40\n        /* \"#utility.yul\":5339:5342   */\n      dup3\n        /* \"#utility.yul\":5335:5347   */\n      add\n        /* \"#utility.yul\":5328:5347   */\n      swap1\n      pop\n        /* \"#utility.yul\":4987:5353   */\n      swap2\n      swap1\n      pop\n      jump\t// out\n        /* \"#utility.yul\":5359:5778   */\n    tag_69:\n        /* \"#utility.yul\":5525:5529   */\n      0x00\n        /* \"#utility.yul\":5563:5565   */\n      0x20\n        /* \"#utility.yul\":5552:5561   */\n      dup3\n        /* \"#utility.yul\":5548:5566   */\n      add\n        /* \"#utility.yul\":5540:5566   */\n      swap1\n      pop\n        /* \"#utility.yul\":5612:5621   */\n      dup2\n        /* \"#utility.yul\":5606:5610   */\n      dup2\n        /* \"#utility.yul\":5602:5622   */\n      sub\n        /* \"#utility.yul\":5598:5599   */\n      0x00\n        /* \"#utility.yul\":5587:5596   */\n      dup4\n        /* \"#utility.yul\":5583:5600   */\n      add\n        /* \"#utility.yul\":5576:5623   */\n      mstore\n        /* \"#utility.yul\":5640:5771   */\n      tag_203\n        /* \"#utility.yul\":5766:5770   */\n      dup2\n        /* \"#utility.yul\":5640:5771   */\n      tag_117\n      jump\t// in\n    tag_203:\n        /* \"#utility.yul\":5632:5771   */\n      swap1\n      pop\n        /* \"#utility.yul\":5359:5778   */\n      swap2\n      swap1\n      pop\n      jump\t// out\n        /* \"#utility.yul\":5784:5881   */\n    tag_118:\n        /* \"#utility.yul\":5843:5849   */\n      0x00\n        /* \"#utility.yul\":5871:5874   */\n      dup3\n        /* \"#utility.yul\":5861:5874   */\n      swap1\n      pop\n        /* \"#utility.yul\":5784:5881   */\n      swap3\n      swap2\n      pop\n      pop\n      jump\t// out\n        /* \"#utility.yul\":5887:6067   */\n    tag_119:\n        /* \"#utility.yul\":5935:6012   */\n      0x4e487b7100000000000000000000000000000000000000000000000000000000\n        /* \"#utility.yul\":5932:5933   */\n      0x00\n        /* \"#utility.yul\":5925:6013   */\n      mstore\n        /* \"#utility.yul\":6032:6036   */\n      0x41\n        /* \"#utility.yul\":6029:6030   */\n      0x04\n        /* \"#utility.yul\":6022:6037   */\n      mstore\n        /* \"#utility.yul\":6056:6060   */\n      0x24\n        /* \"#utility.yul\":6053:6054   */\n      0x00\n        /* \"#utility.yul\":6046:6061   */\n      revert\n        /* \"#utility.yul\":6073:6214   */\n    tag_120:\n        /* \"#utility.yul\":6122:6126   */\n      0x00\n        /* \"#utility.yul\":6145:6148   */\n      dup2\n        /* \"#utility.yul\":6137:6148   */\n      swap1\n      pop\n        /* \"#utility.yul\":6168:6171   */\n      dup2\n        /* \"#utility.yul\":6165:6166   */\n      0x00\n        /* \"#utility.yul\":6158:6172   */\n      mstore\n        /* \"#utility.yul\":6202:6206   */\n      0x20\n        /* \"#utility.yul\":6199:6200   */\n      0x00\n        /* \"#utility.yul\":6189:6207   */\n      keccak256\n        /* \"#utility.yul\":6181:6207   */\n      swap1\n      pop\n        /* \"#utility.yul\":6073:6214   */\n      swap2\n      swap1\n      pop\n      jump\t// out\n        /* \"#utility.yul\":6220:6313   */\n    tag_121:\n        /* \"#utility.yul\":6257:6263   */\n      0x00\n        /* \"#utility.yul\":6304:6306   */\n      0x20\n        /* \"#utility.yul\":6299:6301   */\n      0x1f\n        /* \"#utility.yul\":6292:6297   */\n      dup4\n        /* \"#utility.yul\":6288:6302   */\n      add\n        /* \"#utility.yul\":6284:6307   */\n      div\n        /* \"#utility.yul\":6274:6307   */\n      swap1\n      pop\n        /* \"#utility.yul\":6220:6313   */\n      swap2\n      swap1\n      pop\n      jump\t// out\n        /* \"#utility.yul\":6319:6426   */\n    tag_122:\n        /* \"#utility.yul\":6363:6371   */\n      0x00\n        /* \"#utility.yul\":6413:6418   */\n      dup3\n        /* \"#utility.yul\":6407:6411   */\n      dup3\n        /* \"#utility.yul\":6403:6419   */\n      shl\n        /* \"#utility.yul\":6382:6419   */\n      swap1\n      pop\n        /* \"#utility.yul\":6319:6426   */\n      swap3\n      swap2\n      pop\n      pop\n      jump\t// out\n        /* \"#utility.yul\":6432:6825   */\n    tag_123:\n        /* \"#utility.yul\":6501:6507   */\n      0x00\n        /* \"#utility.yul\":6551:6552   */\n      0x08\n        /* \"#utility.yul\":6539:6549   */\n      dup4\n        /* \"#utility.yul\":6535:6553   */\n      mul\n        /* \"#utility.yul\":6574:6671   */\n      tag_210\n        /* \"#utility.yul\":6604:6670   */\n      0xffffffffffffffffffffffffffffffffffffffffffffffffffffffffffffffff\n        /* \"#utility.yul\":6593:6602   */\n      dup3\n        /* \"#utility.yul\":6574:6671   */\n      tag_122\n      jump\t// in\n    tag_210:\n        /* \"#utility.yul\":6692:6731   */\n      tag_211\n        /* \"#utility.yul\":6722:6730   */\n      dup7\n        /* \"#utility.yul\":6711:6720   */\n      dup4\n        /* \"#utility.yul\":6692:6731   */\n      tag_122\n      jump\t// in\n    tag_211:\n        /* \"#utility.yul\":6680:6731   */\n      swap6\n      pop\n        /* \"#utility.yul\":6764:6768   */\n      dup1\n        /* \"#utility.yul\":6760:6769   */\n      not\n        /* \"#utility.yul\":6753:6758   */\n      dup5\n        /* \"#utility.yul\":6749:6770   */\n      and\n        /* \"#utility.yul\":6740:6770   */\n      swap4\n      pop\n        /* \"#utility.yul\":6813:6817   */\n      dup1\n        /* \"#utility.yul\":6803:6811   */\n      dup7\n        /* \"#utility.yul\":6799:6818   */\n      and\n        /* \"#utility.yul\":6792:6797   */\n      dup5\n        /* \"#utility.yul\":6789:6819   */\n      or\n        /* \"#utility.yul\":6779:6819   */\n      swap3\n      pop\n        /* \"#utility.yul\":6508:6825   */\n      pop\n      pop\n        /* \"#utility.yul\":6432:6825   */\n      swap4\n      swap3\n      pop\n      pop\n      pop\n      jump\t// out\n        /* \"#utility.yul\":6831:6891   */\n    tag_124:\n        /* \"#utility.yul\":6859:6862   */\n      0x00\n        /* \"#utility.yul\":6880:6885   */\n      dup2\n        /* \"#utility.yul\":6873:6885   */\n      swap1\n      pop\n        /* \"#utility.yul\":6831:6891   */\n      swap2\n      swap1\n      pop\n      jump\t// out\n        /* \"#utility.yul\":6897:7039   */\n    tag_125:\n        /* \"#utility.yul\":6947:6956   */\n      0x00\n        /* \"#utility.yul\":6980:7033   */\n      tag_214\n        /* \"#utility.yul\":6998:7032   */\n      tag_215\n        /* \"#utility.yul\":7007:7031   */\n      tag_216\n        /* \"#utility.yul\":7025:7030   */\n      dup5\n        /* \"#utility.yul\":7007:7031   */\n      tag_103\n      jump\t// in\n    tag_216:\n        /* \"#utility.yul\":6998:7032   */\n      tag_124\n      jump\t// in\n    tag_215:\n        /* \"#utility.yul\":6980:7033   */\n      tag_103\n      jump\t// in\n    tag_214:\n        /* \"#utility.yul\":6967:7033   */\n      swap1\n      pop\n        /* \"#utility.yul\":6897:7039   */\n      swap2\n      swap1\n      pop\n      jump\t// out\n        /* \"#utility.yul\":7045:7120   */\n    tag_126:\n        /* \"#utility.yul\":7088:7091   */\n      0x00\n        /* \"#utility.yul\":7109:7114   */\n      dup2\n        /* \"#utility.yul\":7102:7114   */\n      swap1\n      pop\n        /* \"#utility.yul\":7045:7120   */\n      swap2\n      swap1\n      pop\n      jump\t// out\n        /* \"#utility.yul\":7126:7395   */\n    tag_127:\n        /* \"#utility.yul\":7236:7275   */\n      tag_219\n        /* \"#utility.yul\":7267:7274   */\n      dup4\n        /* \"#utility.yul\":7236:7275   */\n      tag_125\n      jump\t// in\n    tag_219:\n        /* \"#utility.yul\":7297:7388   */\n      tag_220\n        /* \"#utility.yul\":7346:7387   */\n      tag_221\n        /* \"#utility.yul\":7370:7386   */\n      dup3\n        /* \"#utility.yul\":7346:7387   */\n      tag_126\n      jump\t// in\n    tag_221:\n        /* \"#utility.yul\":7338:7344   */\n      dup5\n        /* \"#utility.yul\":7331:7335   */\n      dup5\n        /* \"#utility.yul\":7325:7336   */\n      sload\n        /* \"#utility.yul\":7297:7388   */\n      tag_123\n      jump\t// in\n    tag_220:\n        /* \"#utility.yul\":7291:7295   */\n      dup3\n        /* \"#utility.yul\":7284:7389   */\n      sstore\n        /* \"#utility.yul\":7202:7395   */\n      pop\n        /* \"#utility.yul\":7126:7395   */\n      pop\n      pop\n      pop\n      jump\t// out\n        /* \"#utility.yul\":7401:7474   */\n    tag_128:\n        /* \"#utility.yul\":7446:7449   */\n      0x00\n        /* \"#utility.yul\":7401:7474   */\n      swap1\n      jump\t// out\n        /* \"#utility.yul\":7480:7669   */\n    tag_129:\n        /* \"#utility.yul\":7557:7589   */\n      tag_224\n      tag_128\n      jump\t// in\n    tag_224:\n        /* \"#utility.yul\":7598:7663   */\n      tag_225\n        /* \"#utility.yul\":7656:7662   */\n      dup2\n        /* \"#utility.yul\":7648:7654   */\n      dup5\n        /* \"#utility.yul\":7642:7646   */\n      dup5\n        /* \"#utility.yul\":7598:7663   */\n      tag_127\n      jump\t// in\n    tag_225:\n        /* \"#utility.yul\":7533:7669   */\n      pop\n        /* \"#utility.yul\":7480:7669   */\n      pop\n      pop\n      jump\t// out\n        /* \"#utility.yul\":7675:7861   */\n    tag_130:\n        /* \"#utility.yul\":7735:7855   */\n    tag_227:\n        /* \"#utility.yul\":7752:7755   */\n      dup2\n        /* \"#utility.yul\":7745:7750   */\n      dup2\n        /* \"#utility.yul\":7742:7756   */\n      lt\n        /* \"#utility.yul\":7735:7855   */\n      iszero\n      tag_229\n      jumpi\n        /* \"#utility.yul\":7806:7845   */\n      tag_230\n        /* \"#utility.yul\":7843:7844   */\n      0x00\n        /* \"#utility.yul\":7836:7841   */\n      dup3\n        /* \"#utility.yul\":7806:7845   */\n      tag_129\n      jump\t// in\n    tag_230:\n        /* \"#utility.yul\":7779:7780   */\n      0x01\n        /* \"#utility.yul\":7772:7777   */\n      dup2\n        /* \"#utility.yul\":7768:7781   */\n      add\n        /* \"#utility.yul\":7759:7781   */\n      swap1\n      pop\n        /* \"#utility.yul\":7735:7855   */\n      jump(tag_227)\n    tag_229:\n        /* \"#utility.yul\":7675:7861   */\n      pop\n      pop\n      jump\t// out\n        /* \"#utility.yul\":7867:8410   */\n    tag_131:\n        /* \"#utility.yul\":7968:7970   */\n      0x1f\n        /* \"#utility.yul\":7963:7966   */\n      dup3\n        /* \"#utility.yul\":7960:7971   */\n      gt\n        /* \"#utility.yul\":7957:8403   */\n      iszero\n      tag_232\n      jumpi\n        /* \"#utility.yul\":8002:8040   */\n      tag_233\n        /* \"#utility.yul\":8034:8039   */\n      dup2\n        /* \"#utility.yul\":8002:8040   */\n      tag_120\n      jump\t// in\n    tag_233:\n        /* \"#utility.yul\":8086:8115   */\n      tag_234\n        /* \"#utility.yul\":8104:8114   */\n      dup5\n        /* \"#utility.yul\":8086:8115   */\n      tag_121\n      jump\t// in\n    tag_234:\n        /* \"#utility.yul\":8076:8084   */\n      dup2\n        /* \"#utility.yul\":8072:8116   */\n      add\n        /* \"#utility.yul\":8269:8271   */\n      0x20\n        /* \"#utility.yul\":8257:8267   */\n      dup6\n        /* \"#utility.yul\":8254:8272   */\n      lt\n        /* \"#utility.yul\":8251:8300   */\n      iszero\n      tag_235\n      jumpi\n        /* \"#utility.yul\":8290:8298   */\n      dup2\n        /* \"#utility.yul\":8275:8298   */\n      swap1\n      pop\n        /* \"#utility.yul\":8251:8300   */\n    tag_235:\n        /* \"#utility.yul\":8313:8393   */\n      tag_236\n        /* \"#utility.yul\":8369:8391   */\n      tag_237\n        /* \"#utility.yul\":8387:8390   */\n      dup6\n        /* \"#utility.yul\":8369:8391   */\n      tag_121\n      jump\t// in\n    tag_237:\n        /* \"#utility.yul\":8359:8367   */\n      dup4\n        /* \"#utility.yul\":8355:8392   */\n      add\n        /* \"#utility.yul\":8342:8353   */\n      dup3\n        /* \"#utility.yul\":8313:8393   */\n      tag_130\n      jump\t// in\n    tag_236:\n        /* \"#utility.yul\":7972:8403   */\n      pop\n      pop\n        /* \"#utility.yul\":7957:8403   */\n    tag_232:\n        /* \"#utility.yul\":7867:8410   */\n      pop\n      pop\n      pop\n      jump\t// out\n        /* \"#utility.yul\":8416:8533   */\n    tag_132:\n        /* \"#utility.yul\":8470:8478   */\n      0x00\n        /* \"#utility.yul\":8520:8525   */\n      dup3\n        /* \"#utility.yul\":8514:8518   */\n      dup3\n        /* \"#utility.yul\":8510:8526   */\n      shr\n        /* \"#utility.yul\":8489:8526   */\n      swap1\n      pop\n        /* \"#utility.yul\":8416:8533   */\n      swap3\n      swap2\n      pop\n      pop\n      jump\t// out\n        /* \"#utility.yul\":8539:8708   */\n    tag_133:\n        /* \"#utility.yul\":8583:8589   */\n      0x00\n        /* \"#utility.yul\":8616:8667   */\n      tag_240\n        /* \"#utility.yul\":8664:8665   */\n      0x00\n        /* \"#utility.yul\":8660:8666   */\n      not\n        /* \"#utility.yul\":8652:8657   */\n      dup5\n        /* \"#utility.yul\":8649:8650   */\n      0x08\n        /* \"#utility.yul\":8645:8658   */\n      mul\n        /* \"#utility.yul\":8616:8667   */\n      tag_132\n      jump\t// in\n    tag_240:\n        /* \"#utility.yul\":8612:8668   */\n      not\n        /* \"#utility.yul\":8697:8701   */\n      dup1\n        /* \"#utility.yul\":8691:8695   */\n      dup4\n        /* \"#utility.yul\":8687:8702   */\n      and\n        /* \"#utility.yul\":8677:8702   */\n      swap2\n      pop\n        /* \"#utility.yul\":8590:8708   */\n      pop\n        /* \"#utility.yul\":8539:8708   */\n      swap3\n      swap2\n      pop\n      pop\n      jump\t// out\n        /* \"#utility.yul\":8713:9008   */\n    tag_134:\n        /* \"#utility.yul\":8789:8793   */\n      0x00\n        /* \"#utility.yul\":8935:8964   */\n      tag_242\n        /* \"#utility.yul\":8960:8963   */\n      dup4\n        /* \"#utility.yul\":8954:8958   */\n      dup4\n        /* \"#utility.yul\":8935:8964   */\n      tag_133\n      jump\t// in\n    tag_242:\n        /* \"#utility.yul\":8927:8964   */\n      swap2\n      pop\n        /* \"#utility.yul\":8997:9000   */\n      dup3\n        /* \"#utility.yul\":8994:8995   */\n      0x02\n        /* \"#utility.yul\":8990:9001   */\n      mul\n        /* \"#utility.yul\":8984:8988   */\n      dup3\n        /* \"#utility.yul\":8981:9002   */\n      or\n        /* \"#utility.yul\":8973:9002   */\n      swap1\n      pop\n        /* \"#utility.yul\":8713:9008   */\n      swap3\n      swap2\n      pop\n      pop\n      jump\t// out\n        /* \"#utility.yul\":9013:10416   */\n    tag_72:\n        /* \"#utility.yul\":9137:9181   */\n      tag_244\n        /* \"#utility.yul\":9177:9180   */\n      dup4\n        /* \"#utility.yul\":9172:9175   */\n      dup4\n        /* \"#utility.yul\":9137:9181   */\n      tag_118\n      jump\t// in\n    tag_244:\n        /* \"#utility.yul\":9246:9264   */\n      0xffffffffffffffff\n        /* \"#utility.yul\":9238:9244   */\n      dup2\n        /* \"#utility.yul\":9235:9265   */\n      gt\n        /* \"#utility.yul\":9232:9288   */\n      iszero\n      tag_245\n      jumpi\n        /* \"#utility.yul\":9268:9286   */\n      tag_246\n      tag_119\n      jump\t// in\n    tag_246:\n        /* \"#utility.yul\":9232:9288   */\n    tag_245:\n        /* \"#utility.yul\":9312:9350   */\n      tag_247\n        /* \"#utility.yul\":9344:9348   */\n      dup3\n        /* \"#utility.yul\":9338:9349   */\n      sload\n        /* \"#utility.yul\":9312:9350   */\n      tag_51\n      jump\t// in\n    tag_247:\n        /* \"#utility.yul\":9397:9464   */\n      tag_248\n        /* \"#utility.yul\":9457:9463   */\n      dup3\n        /* \"#utility.yul\":9449:9455   */\n      dup3\n        /* \"#utility.yul\":9443:9447   */\n      dup6\n        /* \"#utility.yul\":9397:9464   */\n      tag_131\n      jump\t// in\n    tag_248:\n        /* \"#utility.yul\":9491:9492   */\n      0x00\n        /* \"#utility.yul\":9520:9522   */\n      0x1f\n        /* \"#utility.yul\":9512:9518   */\n      dup4\n        /* \"#utility.yul\":9509:9523   */\n      gt\n        /* \"#utility.yul\":9537:9538   */\n      0x01\n        /* \"#utility.yul\":9532:10164   */\n      dup2\n      eq\n      tag_250\n      jumpi\n        /* \"#utility.yul\":10208:10209   */\n      0x00\n        /* \"#utility.yul\":10225:10231   */\n      dup5\n        /* \"#utility.yul\":10222:10306   */\n      iszero\n      tag_251\n      jumpi\n        /* \"#utility.yul\":10281:10290   */\n      dup3\n        /* \"#utility.yul\":10276:10279   */\n      dup8\n        /* \"#utility.yul\":10272:10291   */\n      add\n        /* \"#utility.yul\":10259:10292   */\n      calldataload\n        /* \"#utility.yul\":10250:10292   */\n      swap1\n      pop\n        /* \"#utility.yul\":10222:10306   */\n    tag_251:\n        /* \"#utility.yul\":10332:10399   */\n      tag_252\n        /* \"#utility.yul\":10392:10398   */\n      dup6\n        /* \"#utility.yul\":10385:10390   */\n      dup3\n        /* \"#utility.yul\":10332:10399   */\n      tag_134\n      jump\t// in\n    tag_252:\n        /* \"#utility.yul\":10326:10330   */\n      dup7\n        /* \"#utility.yul\":10319:10400   */\n      sstore\n        /* \"#utility.yul\":10181:10410   */\n      pop\n        /* \"#utility.yul\":9502:10410   */\n      jump(tag_249)\n        /* \"#utility.yul\":9532:10164   */\n    tag_250:\n        /* \"#utility.yul\":9584:9588   */\n      0x1f\n        /* \"#utility.yul\":9580:9589   */\n      not\n        /* \"#utility.yul\":9572:9578   */\n      dup5\n        /* \"#utility.yul\":9568:9590   */\n      and\n        /* \"#utility.yul\":9618:9655   */\n      tag_253\n        /* \"#utility.yul\":9650:9654   */\n      dup7\n        /* \"#utility.yul\":9618:9655   */\n      tag_120\n      jump\t// in\n    tag_253:\n        /* \"#utility.yul\":9677:9678   */\n      0x00\n        /* \"#utility.yul\":9691:9906   */\n    tag_254:\n        /* \"#utility.yul\":9705:9712   */\n      dup3\n        /* \"#utility.yul\":9702:9703   */\n      dup2\n        /* \"#utility.yul\":9699:9713   */\n      lt\n        /* \"#utility.yul\":9691:9906   */\n      iszero\n      tag_256\n      jumpi\n        /* \"#utility.yul\":9791:9800   */\n      dup5\n        /* \"#utility.yul\":9786:9789   */\n      dup10\n        /* \"#utility.yul\":9782:9801   */\n      add\n        /* \"#utility.yul\":9769:9802   */\n      calldataload\n        /* \"#utility.yul\":9761:9767   */\n      dup3\n        /* \"#utility.yul\":9754:9803   */\n      sstore\n        /* \"#utility.yul\":9842:9843   */\n      0x01\n        /* \"#utility.yul\":9834:9840   */\n      dup3\n        /* \"#utility.yul\":9830:9844   */\n      add\n        /* \"#utility.yul\":9820:9844   */\n      swap2\n      pop\n        /* \"#utility.yul\":9889:9891   */\n      0x20\n        /* \"#utility.yul\":9878:9887   */\n      dup6\n        /* \"#utility.yul\":9874:9892   */\n      add\n        /* \"#utility.yul\":9861:9892   */\n      swap5\n      pop\n        /* \"#utility.yul\":9728:9732   */\n      0x20\n        /* \"#utility.yul\":9725:9726   */\n      dup2\n        /* \"#utility.yul\":9721:9733   */\n      add\n        /* \"#utility.yul\":9716:9733   */\n      swap1\n      pop\n        /* \"#utility.yul\":9691:9906   */\n      jump(tag_254)\n    tag_256:\n        /* \"#utility.yul\":9934:9940   */\n      dup7\n        /* \"#utility.yul\":9925:9932   */\n      dup4\n        /* \"#utility.yul\":9922:9941   */\n      lt\n        /* \"#utility.yul\":9919:10105   */\n      iszero\n      tag_257\n      jumpi\n        /* \"#utility.yul\":9999:10008   */\n      dup5\n        /* \"#utility.yul\":9994:9997   */\n      dup10\n        /* \"#utility.yul\":9990:10009   */\n      add\n        /* \"#utility.yul\":9977:10010   */\n      calldataload\n        /* \"#utility.yul\":10042:10090   */\n      tag_258\n        /* \"#utility.yul\":10084:10088   */\n      0x1f\n        /* \"#utility.yul\":10076:10082   */\n      dup10\n        /* \"#utility.yul\":10072:10089   */\n      and\n        /* \"#utility.yul\":10061:10070   */\n      dup3\n        /* \"#utility.yul\":10042:10090   */\n      tag_133\n      jump\t// in\n    tag_258:\n        /* \"#utility.yul\":10034:10040   */\n      dup4\n        /* \"#utility.yul\":10027:10091   */\n      sstore\n        /* \"#utility.yul\":9942:10105   */\n      pop\n        /* \"#utility.yul\":9919:10105   */\n    tag_257:\n        /* \"#utility.yul\":10151:10152   */\n      0x01\n        /* \"#utility.yul\":10147:10148   */\n      0x02\n        /* \"#utility.yul\":10139:10145   */\n      dup9\n        /* \"#utility.yul\":10135:10149   */\n      mul\n        /* \"#utility.yul\":10131:10153   */\n      add\n        /* \"#utility.yul\":10125:10129   */\n      dup9\n        /* \"#utility.yul\":10118:10154   */\n      sstore\n        /* \"#utility.yul\":9539:10164   */\n      pop\n      pop\n      pop\n        /* \"#utility.yul\":9502:10410   */\n    tag_249:\n      pop\n        /* \"#utility.yul\":9112:10416   */\n      pop\n      pop\n      pop\n        /* \"#utility.yul\":9013:10416   */\n      pop\n      pop\n      pop\n      jump\t// out\n        /* \"#utility.yul\":10422:10518   */\n    tag_135:\n        /* \"#utility.yul\":10459:10466   */\n      0x00\n        /* \"#utility.yul\":10488:10512   */\n      tag_260\n        /* \"#utility.yul\":10506:10511   */\n      dup3\n        /* \"#utility.yul\":10488:10512   */\n      tag_105\n      jump\t// in\n    tag_260:\n        /* \"#utility.yul\":10477:10512   */\n      swap1\n      pop\n        /* \"#utility.yul\":10422:10518   */\n      swap2\n      swap1\n      pop\n      jump\t// out\n        /* \"#utility.yul\":10524:10642   */\n    tag_136:\n        /* \"#utility.yul\":10611:10635   */\n      tag_262\n        /* \"#utility.yul\":10629:10634   */\n      dup2\n        /* \"#utility.yul\":10611:10635   */\n      tag_135\n      jump\t// in\n    tag_262:\n        /* \"#utility.yul\":10606:10609   */\n      dup3\n        /* \"#utility.yul\":10599:10636   */\n      mstore\n        /* \"#utility.yul\":10524:10642   */\n      pop\n      pop\n      jump\t// out\n        /* \"#utility.yul\":10672:11503   */\n    tag_137:\n        /* \"#utility.yul\":10757:10760   */\n      0x00\n        /* \"#utility.yul\":10794:10799   */\n      dup2\n        /* \"#utility.yul\":10788:10800   */\n      sload\n        /* \"#utility.yul\":10823:10859   */\n      tag_264\n        /* \"#utility.yul\":10849:10858   */\n      dup2\n        /* \"#utility.yul\":10823:10859   */\n      tag_51\n      jump\t// in\n    tag_264:\n        /* \"#utility.yul\":10875:10946   */\n      tag_265\n        /* \"#utility.yul\":10939:10945   */\n      dup2\n        /* \"#utility.yul\":10934:10937   */\n      dup7\n        /* \"#utility.yul\":10875:10946   */\n      tag_99\n      jump\t// in\n    tag_265:\n        /* \"#utility.yul\":10868:10946   */\n      swap5\n      pop\n        /* \"#utility.yul\":10977:10978   */\n      0x01\n        /* \"#utility.yul\":10966:10975   */\n      dup3\n        /* \"#utility.yul\":10962:10979   */\n      and\n        /* \"#utility.yul\":10993:10994   */\n      0x00\n        /* \"#utility.yul\":10988:11152   */\n      dup2\n      eq\n      tag_267\n      jumpi\n        /* \"#utility.yul\":11166:11167   */\n      0x01\n        /* \"#utility.yul\":11161:11497   */\n      dup2\n      eq\n      tag_268\n      jumpi\n        /* \"#utility.yul\":10955:11497   */\n      jump(tag_266)\n        /* \"#utility.yul\":10988:11152   */\n    tag_267:\n        /* \"#utility.yul\":11072:11076   */\n      0xff\n        /* \"#utility.yul\":11068:11077   */\n      not\n        /* \"#utility.yul\":11057:11066   */\n      dup4\n        /* \"#utility.yul\":11053:11078   */\n      and\n        /* \"#utility.yul\":11048:11051   */\n      dup7\n        /* \"#utility.yul\":11041:11079   */\n      mstore\n        /* \"#utility.yul\":11132:11138   */\n      dup2\n        /* \"#utility.yul\":11125:11139   */\n      iszero\n        /* \"#utility.yul\":11118:11140   */\n      iszero\n        /* \"#utility.yul\":11112:11116   */\n      0x20\n        /* \"#utility.yul\":11108:11141   */\n      mul\n        /* \"#utility.yul\":11103:11106   */\n      dup7\n        /* \"#utility.yul\":11099:11142   */\n      add\n        /* \"#utility.yul\":11092:11142   */\n      swap4\n      pop\n        /* \"#utility.yul\":10988:11152   */\n      jump(tag_266)\n        /* \"#utility.yul\":11161:11497   */\n    tag_268:\n        /* \"#utility.yul\":11228:11266   */\n      tag_269\n        /* \"#utility.yul\":11260:11265   */\n      dup6\n        /* \"#utility.yul\":11228:11266   */\n      tag_120\n      jump\t// in\n    tag_269:\n        /* \"#utility.yul\":11288:11289   */\n      0x00\n        /* \"#utility.yul\":11302:11456   */\n    tag_270:\n        /* \"#utility.yul\":11316:11322   */\n      dup4\n        /* \"#utility.yul\":11313:11314   */\n      dup2\n        /* \"#utility.yul\":11310:11323   */\n      lt\n        /* \"#utility.yul\":11302:11456   */\n      iszero\n      tag_272\n      jumpi\n        /* \"#utility.yul\":11390:11397   */\n      dup2\n        /* \"#utility.yul\":11384:11398   */\n      sload\n        /* \"#utility.yul\":11380:11381   */\n      dup2\n        /* \"#utility.yul\":11375:11378   */\n      dup10\n        /* \"#utility.yul\":11371:11382   */\n      add\n        /* \"#utility.yul\":11364:11399   */\n      mstore\n        /* \"#utility.yul\":11440:11441   */\n      0x01\n        /* \"#utility.yul\":11431:11438   */\n      dup3\n        /* \"#utility.yul\":11427:11442   */\n      add\n        /* \"#utility.yul\":11416:11442   */\n      swap2\n      pop\n        /* \"#utility.yul\":11338:11342   */\n      0x20\n        /* \"#utility.yul\":11335:11336   */\n      dup2\n        /* \"#utility.yul\":11331:11343   */\n      add\n        /* \"#utility.yul\":11326:11343   */\n      swap1\n      pop\n        /* \"#utility.yul\":11302:11456   */\n      jump(tag_270)\n    tag_272:\n        /* \"#utility.yul\":11485:11486   */\n      dup1\n        /* \"#utility.yul\":11480:11483   */\n      dup9\n        /* \"#utility.yul\":11476:11487   */\n      add\n        /* \"#utility.yul\":11469:11487   */\n      swap6\n      pop\n        /* \"#utility.yul\":11168:11497   */\n      pop\n      pop\n        /* \"#utility.yul\":10955:11497   */\n    tag_266:\n      pop\n        /* \"#utility.yul\":10761:11503   */\n      pop\n      pop\n        /* \"#utility.yul\":10672:11503   */\n      swap3\n      swap2\n      pop\n      pop\n      jump\t// out\n        /* \"#utility.yul\":11509:11926   */\n    tag_74:\n        /* \"#utility.yul\":11647:11651   */\n      0x00\n        /* \"#utility.yul\":11685:11687   */\n      0x40\n        /* \"#utility.yul\":11674:11683   */\n      dup3\n        /* \"#utility.yul\":11670:11688   */\n      add\n        /* \"#utility.yul\":11662:11688   */\n      swap1\n      pop\n        /* \"#utility.yul\":11698:11769   */\n      tag_274\n        /* \"#utility.yul\":11766:11767   */\n      0x00\n        /* \"#utility.yul\":11755:11764   */\n      dup4\n        /* \"#utility.yul\":11751:11768   */\n      add\n        /* \"#utility.yul\":11742:11748   */\n      dup6\n        /* \"#utility.yul\":11698:11769   */\n      tag_136\n      jump\t// in\n    tag_274:\n        /* \"#utility.yul\":11816:11825   */\n      dup2\n        /* \"#utility.yul\":11810:11814   */\n      dup2\n        /* \"#utility.yul\":11806:11826   */\n      sub\n        /* \"#utility.yul\":11801:11803   */\n      0x20\n        /* \"#utility.yul\":11790:11799   */\n      dup4\n        /* \"#utility.yul\":11786:11804   */\n      add\n        /* \"#utility.yul\":11779:11827   */\n      mstore\n        /* \"#utility.yul\":11844:11919   */\n      tag_275\n        /* \"#utility.yul\":11914:11918   */\n      dup2\n        /* \"#utility.yul\":11905:11911   */\n      dup5\n        /* \"#utility.yul\":11844:11919   */\n      tag_137\n      jump\t// in\n    tag_275:\n        /* \"#utility.yul\":11836:11919   */\n      swap1\n      pop\n        /* \"#utility.yul\":11509:11926   */\n      swap4\n      swap3\n      pop\n      pop\n      pop\n      jump\t// out\n        /* \"#utility.yul\":11932:12112   */\n    tag_138:\n        /* \"#utility.yul\":12072:12104   */\n      0x4f776e6572732063616e27742066756e64207468697220706f726a6563740000\n        /* \"#utility.yul\":12068:12069   */\n      0x00\n        /* \"#utility.yul\":12060:12066   */\n      dup3\n        /* \"#utility.yul\":12056:12070   */\n      add\n        /* \"#utility.yul\":12049:12105   */\n      mstore\n        /* \"#utility.yul\":11932:12112   */\n      pop\n      jump\t// out\n        /* \"#utility.yul\":12118:12484   */\n    tag_139:\n        /* \"#utility.yul\":12260:12263   */\n      0x00\n        /* \"#utility.yul\":12281:12348   */\n      tag_278\n        /* \"#utility.yul\":12345:12347   */\n      0x1e\n        /* \"#utility.yul\":12340:12343   */\n      dup4\n        /* \"#utility.yul\":12281:12348   */\n      tag_99\n      jump\t// in\n    tag_278:\n        /* \"#utility.yul\":12274:12348   */\n      swap2\n      pop\n        /* \"#utility.yul\":12357:12450   */\n      tag_279\n        /* \"#utility.yul\":12446:12449   */\n      dup3\n        /* \"#utility.yul\":12357:12450   */\n      tag_138\n      jump\t// in\n    tag_279:\n        /* \"#utility.yul\":12475:12477   */\n      0x20\n        /* \"#utility.yul\":12470:12473   */\n      dup3\n        /* \"#utility.yul\":12466:12478   */\n      add\n        /* \"#utility.yul\":12459:12478   */\n      swap1\n      pop\n        /* \"#utility.yul\":12118:12484   */\n      swap2\n      swap1\n      pop\n      jump\t// out\n        /* \"#utility.yul\":12490:12909   */\n    tag_83:\n        /* \"#utility.yul\":12656:12660   */\n      0x00\n        /* \"#utility.yul\":12694:12696   */\n      0x20\n        /* \"#utility.yul\":12683:12692   */\n      dup3\n        /* \"#utility.yul\":12679:12697   */\n      add\n        /* \"#utility.yul\":12671:12697   */\n      swap1\n      pop\n        /* \"#utility.yul\":12743:12752   */\n      dup2\n        /* \"#utility.yul\":12737:12741   */\n      dup2\n        /* \"#utility.yul\":12733:12753   */\n      sub\n        /* \"#utility.yul\":12729:12730   */\n      0x00\n        /* \"#utility.yul\":12718:12727   */\n      dup4\n        /* \"#utility.yul\":12714:12731   */\n      add\n        /* \"#utility.yul\":12707:12754   */\n      mstore\n        /* \"#utility.yul\":12771:12902   */\n      tag_281\n        /* \"#utility.yul\":12897:12901   */\n      dup2\n        /* \"#utility.yul\":12771:12902   */\n      tag_139\n      jump\t// in\n    tag_281:\n        /* \"#utility.yul\":12763:12902   */\n      swap1\n      pop\n        /* \"#utility.yul\":12490:12909   */\n      swap2\n      swap1\n      pop\n      jump\t// out\n        /* \"#utility.yul\":12915:13063   */\n    tag_140:\n        /* \"#utility.yul\":13017:13028   */\n      0x00\n        /* \"#utility.yul\":13054:13057   */\n      dup2\n        /* \"#utility.yul\":13039:13057   */\n      swap1\n      pop\n        /* \"#utility.yul\":12915:13063   */\n      swap3\n      swap2\n      pop\n      pop\n      jump\t// out\n        /* \"#utility.yul\":13069:13225   */\n    tag_141:\n        /* \"#utility.yul\":13209:13217   */\n      0x4f70656e65640000000000000000000000000000000000000000000000000000\n        /* \"#utility.yul\":13205:13206   */\n      0x00\n        /* \"#utility.yul\":13197:13203   */\n      dup3\n        /* \"#utility.yul\":13193:13207   */\n      add\n        /* \"#utility.yul\":13186:13218   */\n      mstore\n        /* \"#utility.yul\":13069:13225   */\n      pop\n      jump\t// out\n        /* \"#utility.yul\":13231:13631   */\n    tag_142:\n        /* \"#utility.yul\":13391:13394   */\n      0x00\n        /* \"#utility.yul\":13412:13496   */\n      tag_285\n        /* \"#utility.yul\":13494:13495   */\n      0x06\n        /* \"#utility.yul\":13489:13492   */\n      dup4\n        /* \"#utility.yul\":13412:13496   */\n      tag_140\n      jump\t// in\n    tag_285:\n        /* \"#utility.yul\":13405:13496   */\n      swap2\n      pop\n        /* \"#utility.yul\":13505:13598   */\n      tag_286\n        /* \"#utility.yul\":13594:13597   */\n      dup3\n        /* \"#utility.yul\":13505:13598   */\n      tag_141\n      jump\t// in\n    tag_286:\n        /* \"#utility.yul\":13623:13624   */\n      0x06\n        /* \"#utility.yul\":13618:13621   */\n      dup3\n        /* \"#utility.yul\":13614:13625   */\n      add\n        /* \"#utility.yul\":13607:13625   */\n      swap1\n      pop\n        /* \"#utility.yul\":13231:13631   */\n      swap2\n      swap1\n      pop\n      jump\t// out\n        /* \"#utility.yul\":13637:14018   */\n    tag_86:\n        /* \"#utility.yul\":13822:13825   */\n      0x00\n        /* \"#utility.yul\":13844:13992   */\n      tag_288\n        /* \"#utility.yul\":13988:13991   */\n      dup3\n        /* \"#utility.yul\":13844:13992   */\n      tag_142\n      jump\t// in\n    tag_288:\n        /* \"#utility.yul\":13837:13992   */\n      swap2\n      pop\n        /* \"#utility.yul\":14009:14012   */\n      dup2\n        /* \"#utility.yul\":14002:14012   */\n      swap1\n      pop\n        /* \"#utility.yul\":13637:14018   */\n      swap2\n      swap1\n      pop\n      jump\t// out\n        /* \"#utility.yul\":14048:14922   */\n    tag_143:\n        /* \"#utility.yul\":14151:14154   */\n      0x00\n        /* \"#utility.yul\":14188:14193   */\n      dup2\n        /* \"#utility.yul\":14182:14194   */\n      sload\n        /* \"#utility.yul\":14217:14253   */\n      tag_290\n        /* \"#utility.yul\":14243:14252   */\n      dup2\n        /* \"#utility.yul\":14217:14253   */\n      tag_51\n      jump\t// in\n    tag_290:\n        /* \"#utility.yul\":14269:14358   */\n      tag_291\n        /* \"#utility.yul\":14351:14357   */\n      dup2\n        /* \"#utility.yul\":14346:14349   */\n      dup7\n        /* \"#utility.yul\":14269:14358   */\n      tag_140\n      jump\t// in\n    tag_291:\n        /* \"#utility.yul\":14262:14358   */\n      swap5\n      pop\n        /* \"#utility.yul\":14389:14390   */\n      0x01\n        /* \"#utility.yul\":14378:14387   */\n      dup3\n        /* \"#utility.yul\":14374:14391   */\n      and\n        /* \"#utility.yul\":14405:14406   */\n      0x00\n        /* \"#utility.yul\":14400:14566   */\n      dup2\n      eq\n      tag_293\n      jumpi\n        /* \"#utility.yul\":14580:14581   */\n      0x01\n        /* \"#utility.yul\":14575:14916   */\n      dup2\n      eq\n      tag_294\n      jumpi\n        /* \"#utility.yul\":14367:14916   */\n      jump(tag_292)\n        /* \"#utility.yul\":14400:14566   */\n    tag_293:\n        /* \"#utility.yul\":14484:14488   */\n      0xff\n        /* \"#utility.yul\":14480:14489   */\n      not\n        /* \"#utility.yul\":14469:14478   */\n      dup4\n        /* \"#utility.yul\":14465:14490   */\n      and\n        /* \"#utility.yul\":14460:14463   */\n      dup7\n        /* \"#utility.yul\":14453:14491   */\n      mstore\n        /* \"#utility.yul\":14546:14552   */\n      dup2\n        /* \"#utility.yul\":14539:14553   */\n      iszero\n        /* \"#utility.yul\":14532:14554   */\n      iszero\n        /* \"#utility.yul\":14524:14530   */\n      dup3\n        /* \"#utility.yul\":14520:14555   */\n      mul\n        /* \"#utility.yul\":14515:14518   */\n      dup7\n        /* \"#utility.yul\":14511:14556   */\n      add\n        /* \"#utility.yul\":14504:14556   */\n      swap4\n      pop\n        /* \"#utility.yul\":14400:14566   */\n      jump(tag_292)\n        /* \"#utility.yul\":14575:14916   */\n    tag_294:\n        /* \"#utility.yul\":14642:14680   */\n      tag_295\n        /* \"#utility.yul\":14674:14679   */\n      dup6\n        /* \"#utility.yul\":14642:14680   */\n      tag_120\n      jump\t// in\n    tag_295:\n        /* \"#utility.yul\":14702:14703   */\n      0x00\n        /* \"#utility.yul\":14716:14870   */\n    tag_296:\n        /* \"#utility.yul\":14730:14736   */\n      dup4\n        /* \"#utility.yul\":14727:14728   */\n      dup2\n        /* \"#utility.yul\":14724:14737   */\n      lt\n        /* \"#utility.yul\":14716:14870   */\n      iszero\n      tag_298\n      jumpi\n        /* \"#utility.yul\":14804:14811   */\n      dup2\n        /* \"#utility.yul\":14798:14812   */\n      sload\n        /* \"#utility.yul\":14794:14795   */\n      dup2\n        /* \"#utility.yul\":14789:14792   */\n      dup10\n        /* \"#utility.yul\":14785:14796   */\n      add\n        /* \"#utility.yul\":14778:14813   */\n      mstore\n        /* \"#utility.yul\":14854:14855   */\n      0x01\n        /* \"#utility.yul\":14845:14852   */\n      dup3\n        /* \"#utility.yul\":14841:14856   */\n      add\n        /* \"#utility.yul\":14830:14856   */\n      swap2\n      pop\n        /* \"#utility.yul\":14752:14756   */\n      0x20\n        /* \"#utility.yul\":14749:14750   */\n      dup2\n        /* \"#utility.yul\":14745:14757   */\n      add\n        /* \"#utility.yul\":14740:14757   */\n      swap1\n      pop\n        /* \"#utility.yul\":14716:14870   */\n      jump(tag_296)\n    tag_298:\n        /* \"#utility.yul\":14899:14905   */\n      dup4\n        /* \"#utility.yul\":14894:14897   */\n      dup9\n        /* \"#utility.yul\":14890:14906   */\n      add\n        /* \"#utility.yul\":14883:14906   */\n      swap6\n      pop\n        /* \"#utility.yul\":14582:14916   */\n      pop\n      pop\n        /* \"#utility.yul\":14367:14916   */\n    tag_292:\n      pop\n        /* \"#utility.yul\":14155:14922   */\n      pop\n      pop\n        /* \"#utility.yul\":14048:14922   */\n      swap3\n      swap2\n      pop\n      pop\n      jump\t// out\n        /* \"#utility.yul\":14928:15197   */\n    tag_88:\n        /* \"#utility.yul\":15057:15060   */\n      0x00\n        /* \"#utility.yul\":15079:15171   */\n      tag_300\n        /* \"#utility.yul\":15167:15170   */\n      dup3\n        /* \"#utility.yul\":15158:15164   */\n      dup5\n        /* \"#utility.yul\":15079:15171   */\n      tag_143\n      jump\t// in\n    tag_300:\n        /* \"#utility.yul\":15072:15171   */\n      swap2\n      pop\n        /* \"#utility.yul\":15188:15191   */\n      dup2\n        /* \"#utility.yul\":15181:15191   */\n      swap1\n      pop\n        /* \"#utility.yul\":14928:15197   */\n      swap3\n      swap2\n      pop\n      pop\n      jump\t// out\n        /* \"#utility.yul\":15203:15425   */\n    tag_144:\n        /* \"#utility.yul\":15343:15377   */\n      0x50726f6a656374206973206e6f742061626c6520746f20616363657074206675\n        /* \"#utility.yul\":15339:15340   */\n      0x00\n        /* \"#utility.yul\":15331:15337   */\n      dup3\n        /* \"#utility.yul\":15327:15341   */\n      add\n        /* \"#utility.yul\":15320:15378   */\n      mstore\n        /* \"#utility.yul\":15412:15417   */\n      0x6e64730000000000000000000000000000000000000000000000000000000000\n        /* \"#utility.yul\":15407:15409   */\n      0x20\n        /* \"#utility.yul\":15399:15405   */\n      dup3\n        /* \"#utility.yul\":15395:15410   */\n      add\n        /* \"#utility.yul\":15388:15418   */\n      mstore\n        /* \"#utility.yul\":15203:15425   */\n      pop\n      jump\t// out\n        /* \"#utility.yul\":15431:15797   */\n    tag_145:\n        /* \"#utility.yul\":15573:15576   */\n      0x00\n        /* \"#utility.yul\":15594:15661   */\n      tag_303\n        /* \"#utility.yul\":15658:15660   */\n      0x23\n        /* \"#utility.yul\":15653:15656   */\n      dup4\n        /* \"#utility.yul\":15594:15661   */\n      tag_99\n      jump\t// in\n    tag_303:\n        /* \"#utility.yul\":15587:15661   */\n      swap2\n      pop\n        /* \"#utility.yul\":15670:15763   */\n      tag_304\n        /* \"#utility.yul\":15759:15762   */\n      dup3\n        /* \"#utility.yul\":15670:15763   */\n      tag_144\n      jump\t// in\n    tag_304:\n        /* \"#utility.yul\":15788:15790   */\n      0x40\n        /* \"#utility.yul\":15783:15786   */\n      dup3\n        /* \"#utility.yul\":15779:15791   */\n      add\n        /* \"#utility.yul\":15772:15791   */\n      swap1\n      pop\n        /* \"#utility.yul\":15431:15797   */\n      swap2\n      swap1\n      pop\n      jump\t// out\n        /* \"#utility.yul\":15803:16222   */\n    tag_91:\n        /* \"#utility.yul\":15969:15973   */\n      0x00\n        /* \"#utility.yul\":16007:16009   */\n      0x20\n        /* \"#utility.yul\":15996:16005   */\n      dup3\n        /* \"#utility.yul\":15992:16010   */\n      add\n        /* \"#utility.yul\":15984:16010   */\n      swap1\n      pop\n        /* \"#utility.yul\":16056:16065   */\n      dup2\n        /* \"#utility.yul\":16050:16054   */\n      dup2\n        /* \"#utility.yul\":16046:16066   */\n      sub\n        /* \"#utility.yul\":16042:16043   */\n      0x00\n        /* \"#utility.yul\":16031:16040   */\n      dup4\n        /* \"#utility.yul\":16027:16044   */\n      add\n        /* \"#utility.yul\":16020:16067   */\n      mstore\n        /* \"#utility.yul\":16084:16215   */\n      tag_306\n        /* \"#utility.yul\":16210:16214   */\n      dup2\n        /* \"#utility.yul\":16084:16215   */\n      tag_145\n      jump\t// in\n    tag_306:\n        /* \"#utility.yul\":16076:16215   */\n      swap1\n      pop\n        /* \"#utility.yul\":15803:16222   */\n      swap2\n      swap1\n      pop\n      jump\t// out\n        /* \"#utility.yul\":16228:16408   */\n    tag_146:\n        /* \"#utility.yul\":16276:16353   */\n      0x4e487b7100000000000000000000000000000000000000000000000000000000\n        /* \"#utility.yul\":16273:16274   */\n      0x00\n        /* \"#utility.yul\":16266:16354   */\n      mstore\n        /* \"#utility.yul\":16373:16377   */\n      0x11\n        /* \"#utility.yul\":16370:16371   */\n      0x04\n        /* \"#utility.yul\":16363:16378   */\n      mstore\n        /* \"#utility.yul\":16397:16401   */\n      0x24\n        /* \"#utility.yul\":16394:16395   */\n      0x00\n        /* \"#utility.yul\":16387:16402   */\n      revert\n        /* \"#utility.yul\":16414:16605   */\n    tag_95:\n        /* \"#utility.yul\":16454:16457   */\n      0x00\n        /* \"#utility.yul\":16473:16493   */\n      tag_309\n        /* \"#utility.yul\":16491:16492   */\n      dup3\n        /* \"#utility.yul\":16473:16493   */\n      tag_103\n      jump\t// in\n    tag_309:\n        /* \"#utility.yul\":16468:16493   */\n      swap2\n      pop\n        /* \"#utility.yul\":16507:16527   */\n      tag_310\n        /* \"#utility.yul\":16525:16526   */\n      dup4\n        /* \"#utility.yul\":16507:16527   */\n      tag_103\n      jump\t// in\n    tag_310:\n        /* \"#utility.yul\":16502:16527   */\n      swap3\n      pop\n        /* \"#utility.yul\":16550:16551   */\n      dup3\n        /* \"#utility.yul\":16547:16548   */\n      dup3\n        /* \"#utility.yul\":16543:16552   */\n      add\n        /* \"#utility.yul\":16536:16552   */\n      swap1\n      pop\n        /* \"#utility.yul\":16571:16574   */\n      dup1\n        /* \"#utility.yul\":16568:16569   */\n      dup3\n        /* \"#utility.yul\":16565:16575   */\n      gt\n        /* \"#utility.yul\":16562:16598   */\n      iszero\n      tag_311\n      jumpi\n        /* \"#utility.yul\":16578:16596   */\n      tag_312\n      tag_146\n      jump\t// in\n    tag_312:\n        /* \"#utility.yul\":16562:16598   */\n    tag_311:\n        /* \"#utility.yul\":16414:16605   */\n      swap3\n      swap2\n      pop\n      pop\n      jump\t// out\n        /* \"#utility.yul\":16611:16943   */\n    tag_97:\n        /* \"#utility.yul\":16732:16736   */\n      0x00\n        /* \"#utility.yul\":16770:16772   */\n      0x40\n        /* \"#utility.yul\":16759:16768   */\n      dup3\n        /* \"#utility.yul\":16755:16773   */\n      add\n        /* \"#utility.yul\":16747:16773   */\n      swap1\n      pop\n        /* \"#utility.yul\":16783:16854   */\n      tag_314\n        /* \"#utility.yul\":16851:16852   */\n      0x00\n        /* \"#utility.yul\":16840:16849   */\n      dup4\n        /* \"#utility.yul\":16836:16853   */\n      add\n        /* \"#utility.yul\":16827:16833   */\n      dup6\n        /* \"#utility.yul\":16783:16854   */\n      tag_136\n      jump\t// in\n    tag_314:\n        /* \"#utility.yul\":16864:16936   */\n      tag_315\n        /* \"#utility.yul\":16932:16934   */\n      0x20\n        /* \"#utility.yul\":16921:16930   */\n      dup4\n        /* \"#utility.yul\":16917:16935   */\n      add\n        /* \"#utility.yul\":16908:16914   */\n      dup5\n        /* \"#utility.yul\":16864:16936   */\n      tag_104\n      jump\t// in\n    tag_315:\n        /* \"#utility.yul\":16611:16943   */\n      swap4\n      swap3\n      pop\n      pop\n      pop\n      jump\t// out\n\n    auxdata: 0xa26469706673582212202417772e2ffbb03e689be2d6713fd999ce3ff452497f5429bc43024bbfff8ff064736f6c63430008180033\n}\n",
				"bytecode": {
					"linkReferences": {},
					"object": "608060405234801562000010575f80fd5b506040516200169a3803806200169a8339818101604052810190620000369190620002c7565b835f9081620000469190620005c1565b508260019081620000589190620005c1565b5081600290816200006a9190620005c1565b503360035f6101000a81548173ffffffffffffffffffffffffffffffffffffffff021916908373ffffffffffffffffffffffffffffffffffffffff160217905550806006819055506040518060400160405280600681526020017f4f70656e6564000000000000000000000000000000000000000000000000000081525060049081620000f89190620005c1565b505f60058190555050505050620006a5565b5f604051905090565b5f80fd5b5f80fd5b5f80fd5b5f80fd5b5f601f19601f8301169050919050565b7f4e487b71000000000000000000000000000000000000000000000000000000005f52604160045260245ffd5b6200016b8262000123565b810181811067ffffffffffffffff821117156200018d576200018c62000133565b5b80604052505050565b5f620001a16200010a565b9050620001af828262000160565b919050565b5f67ffffffffffffffff821115620001d157620001d062000133565b5b620001dc8262000123565b9050602081019050919050565b5f5b8381101562000208578082015181840152602081019050620001eb565b5f8484015250505050565b5f620002296200022384620001b4565b62000196565b9050828152602081018484840111156200024857620002476200011f565b5b62000255848285620001e9565b509392505050565b5f82601f8301126200027457620002736200011b565b5b81516200028684826020860162000213565b91505092915050565b5f819050919050565b620002a3816200028f565b8114620002ae575f80fd5b50565b5f81519050620002c18162000298565b92915050565b5f805f8060808587031215620002e257620002e162000113565b5b5f85015167ffffffffffffffff81111562000302576200030162000117565b5b62000310878288016200025d565b945050602085015167ffffffffffffffff81111562000334576200033362000117565b5b62000342878288016200025d565b935050604085015167ffffffffffffffff81111562000366576200036562000117565b5b62000374878288016200025d565b92505060606200038787828801620002b1565b91505092959194509250565b5f81519050919050565b7f4e487b71000000000000000000000000000000000000000000000000000000005f52602260045260245ffd5b5f6002820490506001821680620003e257607f821691505b602082108103620003f857620003f76200039d565b5b50919050565b5f819050815f5260205f209050919050565b5f6020601f8301049050919050565b5f82821b905092915050565b5f600883026200045c7fffffffffffffffffffffffffffffffffffffffffffffffffffffffffffffffff826200041f565b6200046886836200041f565b95508019841693508086168417925050509392505050565b5f819050919050565b5f620004a9620004a36200049d846200028f565b62000480565b6200028f565b9050919050565b5f819050919050565b620004c48362000489565b620004dc620004d382620004b0565b8484546200042b565b825550505050565b5f90565b620004f2620004e4565b620004ff818484620004b9565b505050565b5b8181101562000526576200051a5f82620004e8565b60018101905062000505565b5050565b601f82111562000575576200053f81620003fe565b6200054a8462000410565b810160208510156200055a578190505b62000572620005698562000410565b83018262000504565b50505b505050565b5f82821c905092915050565b5f620005975f19846008026200057a565b1980831691505092915050565b5f620005b1838362000586565b9150826002028217905092915050565b620005cc8262000393565b67ffffffffffffffff811115620005e857620005e762000133565b5b620005f48254620003ca565b620006018282856200052a565b5f60209050601f83116001811462000637575f841562000622578287015190505b6200062e8582620005a4565b8655506200069d565b601f1984166200064786620003fe565b5f5b82811015620006705784890151825560018201915060208501945060208101905062000649565b868310156200069057848901516200068c601f89168262000586565b8355505b6001600288020188555050505b505050505050565b610fe780620006b35f395ff3fe608060405260043610610085575f3560e01c8063af640d0f11610058578063af640d0f14610131578063b767050d1461015b578063c19d93fb14610183578063c89f2ce4146101ad578063d63dc661146101d757610085565b806306fdde03146100895780637284e416146100b3578063922faac7146100dd578063a6c3e6b914610107575b5f80fd5b348015610094575f80fd5b5061009d6101e1565b6040516100aa919061077e565b60405180910390f35b3480156100be575f80fd5b506100c761026d565b6040516100d4919061077e565b60405180910390f35b3480156100e8575f80fd5b506100f16102f9565b6040516100fe91906107b6565b60405180910390f35b348015610112575f80fd5b5061011b6102ff565b604051610128919061080e565b60405180910390f35b34801561013c575f80fd5b50610145610324565b604051610152919061077e565b60405180910390f35b348015610166575f80fd5b50610181600480360381019061017c9190610890565b6103af565b005b34801561018e575f80fd5b5061019761048e565b6040516101a4919061077e565b60405180910390f35b3480156101b8575f80fd5b506101c161051a565b6040516101ce91906107b6565b60405180910390f35b6101df610520565b005b600180546101ee90610908565b80601f016020809104026020016040519081016040528092919081815260200182805461021a90610908565b80156102655780601f1061023c57610100808354040283529160200191610265565b820191905f5260205f20905b81548152906001019060200180831161024857829003601f168201915b505050505081565b6002805461027a90610908565b80601f01602080910402602001604051908101604052809291908181526020018280546102a690610908565b80156102f15780601f106102c8576101008083540402835291602001916102f1565b820191905f5260205f20905b8154815290600101906020018083116102d457829003601f168201915b505050505081565b60065481565b60035f9054906101000a900473ffffffffffffffffffffffffffffffffffffffff1681565b5f805461033090610908565b80601f016020809104026020016040519081016040528092919081815260200182805461035c90610908565b80156103a75780601f1061037e576101008083540402835291602001916103a7565b820191905f5260205f20905b81548152906001019060200180831161038a57829003601f168201915b505050505081565b60035f9054906101000a900473ffffffffffffffffffffffffffffffffffffffff1673ffffffffffffffffffffffffffffffffffffffff163373ffffffffffffffffffffffffffffffffffffffff161461043e576040517f08c379a0000000000000000000000000000000000000000000000000000000008152600401610435906109a8565b60405180910390fd5b81816004918261044f929190610b9a565b507fd74cc10e566844502b1013eb3aee1e3200cc3ffa1f74bf59be4b7c2a66fb9b7d336004604051610482929190610d08565b60405180910390a15050565b6004805461049b90610908565b80601f01602080910402602001604051908101604052809291908181526020018280546104c790610908565b80156105125780601f106104e957610100808354040283529160200191610512565b820191905f5260205f20905b8154815290600101906020018083116104f557829003601f168201915b505050505081565b60055481565b60035f9054906101000a900473ffffffffffffffffffffffffffffffffffffffff1673ffffffffffffffffffffffffffffffffffffffff163373ffffffffffffffffffffffffffffffffffffffff16036105af576040517f08c379a00000000000000000000000000000000000000000000000000000000081526004016105a690610d80565b60405180910390fd5b6040516020016105be90610df2565b6040516020818303038152906040528051906020012060046040516020016105e69190610e86565b604051602081830303815290604052805190602001201461063c576040517f08c379a000000000000000000000000000000000000000000000000000000000815260040161063390610f0c565b60405180910390fd5b60035f9054906101000a900473ffffffffffffffffffffffffffffffffffffffff1673ffffffffffffffffffffffffffffffffffffffff166108fc3490811502906040515f60405180830381858888f193505050501580156106a0573d5f803e3d5ffd5b503460055f8282546106b29190610f57565b925050819055507f9dbcb1d3adc1305990f05754143d0baf2f49fa6124b6e9f9ee509b31f2ad300b33346040516106ea929190610f8a565b60405180910390a1565b5f81519050919050565b5f82825260208201905092915050565b5f5b8381101561072b578082015181840152602081019050610710565b5f8484015250505050565b5f601f19601f8301169050919050565b5f610750826106f4565b61075a81856106fe565b935061076a81856020860161070e565b61077381610736565b840191505092915050565b5f6020820190508181035f8301526107968184610746565b905092915050565b5f819050919050565b6107b08161079e565b82525050565b5f6020820190506107c95f8301846107a7565b92915050565b5f73ffffffffffffffffffffffffffffffffffffffff82169050919050565b5f6107f8826107cf565b9050919050565b610808816107ee565b82525050565b5f6020820190506108215f8301846107ff565b92915050565b5f80fd5b5f80fd5b5f80fd5b5f80fd5b5f80fd5b5f8083601f8401126108505761084f61082f565b5b8235905067ffffffffffffffff81111561086d5761086c610833565b5b60208301915083600182028301111561088957610888610837565b5b9250929050565b5f80602083850312156108a6576108a5610827565b5b5f83013567ffffffffffffffff8111156108c3576108c261082b565b5b6108cf8582860161083b565b92509250509250929050565b7f4e487b71000000000000000000000000000000000000000000000000000000005f52602260045260245ffd5b5f600282049050600182168061091f57607f821691505b602082108103610932576109316108db565b5b50919050565b7f4f6e6c7920746865206f776e65722063616e206368656e6765207468657220705f8201527f726f6a6563742073746174650000000000000000000000000000000000000000602082015250565b5f610992602c836106fe565b915061099d82610938565b604082019050919050565b5f6020820190508181035f8301526109bf81610986565b9050919050565b5f82905092915050565b7f4e487b71000000000000000000000000000000000000000000000000000000005f52604160045260245ffd5b5f819050815f5260205f209050919050565b5f6020601f8301049050919050565b5f82821b905092915050565b5f60088302610a597fffffffffffffffffffffffffffffffffffffffffffffffffffffffffffffffff82610a1e565b610a638683610a1e565b95508019841693508086168417925050509392505050565b5f819050919050565b5f610a9e610a99610a948461079e565b610a7b565b61079e565b9050919050565b5f819050919050565b610ab783610a84565b610acb610ac382610aa5565b848454610a2a565b825550505050565b5f90565b610adf610ad3565b610aea818484610aae565b505050565b5b81811015610b0d57610b025f82610ad7565b600181019050610af0565b5050565b601f821115610b5257610b23816109fd565b610b2c84610a0f565b81016020851015610b3b578190505b610b4f610b4785610a0f565b830182610aef565b50505b505050565b5f82821c905092915050565b5f610b725f1984600802610b57565b1980831691505092915050565b5f610b8a8383610b63565b9150826002028217905092915050565b610ba483836109c6565b67ffffffffffffffff811115610bbd57610bbc6109d0565b5b610bc78254610908565b610bd2828285610b11565b5f601f831160018114610bff575f8415610bed578287013590505b610bf78582610b7f565b865550610c5e565b601f198416610c0d866109fd565b5f5b82811015610c3457848901358255600182019150602085019450602081019050610c0f565b86831015610c515784890135610c4d601f891682610b63565b8355505b6001600288020188555050505b50505050505050565b5f610c71826107cf565b9050919050565b610c8181610c67565b82525050565b5f8154610c9381610908565b610c9d81866106fe565b9450600182165f8114610cb75760018114610ccd57610cff565b60ff198316865281151560200286019350610cff565b610cd6856109fd565b5f5b83811015610cf757815481890152600182019150602081019050610cd8565b808801955050505b50505092915050565b5f604082019050610d1b5f830185610c78565b8181036020830152610d2d8184610c87565b90509392505050565b7f4f776e6572732063616e27742066756e64207468697220706f726a65637400005f82015250565b5f610d6a601e836106fe565b9150610d7582610d36565b602082019050919050565b5f6020820190508181035f830152610d9781610d5e565b9050919050565b5f81905092915050565b7f4f70656e656400000000000000000000000000000000000000000000000000005f82015250565b5f610ddc600683610d9e565b9150610de782610da8565b600682019050919050565b5f610dfc82610dd0565b9150819050919050565b5f8154610e1281610908565b610e1c8186610d9e565b9450600182165f8114610e365760018114610e4b57610e7d565b60ff1983168652811515820286019350610e7d565b610e54856109fd565b5f5b83811015610e7557815481890152600182019150602081019050610e56565b838801955050505b50505092915050565b5f610e918284610e06565b915081905092915050565b7f50726f6a656374206973206e6f742061626c6520746f206163636570742066755f8201527f6e64730000000000000000000000000000000000000000000000000000000000602082015250565b5f610ef66023836106fe565b9150610f0182610e9c565b604082019050919050565b5f6020820190508181035f830152610f2381610eea565b9050919050565b7f4e487b71000000000000000000000000000000000000000000000000000000005f52601160045260245ffd5b5f610f618261079e565b9150610f6c8361079e565b9250828201905080821115610f8457610f83610f2a565b5b92915050565b5f604082019050610f9d5f830185610c78565b610faa60208301846107a7565b939250505056fea26469706673582212202417772e2ffbb03e689be2d6713fd999ce3ff452497f5429bc43024bbfff8ff064736f6c63430008180033",
					"opcodes": "PUSH1 0x80 PUSH1 0x40 MSTORE CALLVALUE DUP1 ISZERO PUSH3 0x10 JUMPI PUSH0 DUP1 REVERT JUMPDEST POP PUSH1 0x40 MLOAD PUSH3 0x169A CODESIZE SUB DUP1 PUSH3 0x169A DUP4 CODECOPY DUP2 DUP2 ADD PUSH1 0x40 MSTORE DUP2 ADD SWAP1 PUSH3 0x36 SWAP2 SWAP1 PUSH3 0x2C7 JUMP JUMPDEST DUP4 PUSH0 SWAP1 DUP2 PUSH3 0x46 SWAP2 SWAP1 PUSH3 0x5C1 JUMP JUMPDEST POP DUP3 PUSH1 0x1 SWAP1 DUP2 PUSH3 0x58 SWAP2 SWAP1 PUSH3 0x5C1 JUMP JUMPDEST POP DUP2 PUSH1 0x2 SWAP1 DUP2 PUSH3 0x6A SWAP2 SWAP1 PUSH3 0x5C1 JUMP JUMPDEST POP CALLER PUSH1 0x3 PUSH0 PUSH2 0x100 EXP DUP2 SLOAD DUP2 PUSH20 0xFFFFFFFFFFFFFFFFFFFFFFFFFFFFFFFFFFFFFFFF MUL NOT AND SWAP1 DUP4 PUSH20 0xFFFFFFFFFFFFFFFFFFFFFFFFFFFFFFFFFFFFFFFF AND MUL OR SWAP1 SSTORE POP DUP1 PUSH1 0x6 DUP2 SWAP1 SSTORE POP PUSH1 0x40 MLOAD DUP1 PUSH1 0x40 ADD PUSH1 0x40 MSTORE DUP1 PUSH1 0x6 DUP2 MSTORE PUSH1 0x20 ADD PUSH32 0x4F70656E65640000000000000000000000000000000000000000000000000000 DUP2 MSTORE POP PUSH1 0x4 SWAP1 DUP2 PUSH3 0xF8 SWAP2 SWAP1 PUSH3 0x5C1 JUMP JUMPDEST POP PUSH0 PUSH1 0x5 DUP2 SWAP1 SSTORE POP POP POP POP POP PUSH3 0x6A5 JUMP JUMPDEST PUSH0 PUSH1 0x40 MLOAD SWAP1 POP SWAP1 JUMP JUMPDEST PUSH0 DUP1 REVERT JUMPDEST PUSH0 DUP1 REVERT JUMPDEST PUSH0 DUP1 REVERT JUMPDEST PUSH0 DUP1 REVERT JUMPDEST PUSH0 PUSH1 0x1F NOT PUSH1 0x1F DUP4 ADD AND SWAP1 POP SWAP2 SWAP1 POP JUMP JUMPDEST PUSH32 0x4E487B7100000000000000000000000000000000000000000000000000000000 PUSH0 MSTORE PUSH1 0x41 PUSH1 0x4 MSTORE PUSH1 0x24 PUSH0 REVERT JUMPDEST PUSH3 0x16B DUP3 PUSH3 0x123 JUMP JUMPDEST DUP2 ADD DUP2 DUP2 LT PUSH8 0xFFFFFFFFFFFFFFFF DUP3 GT OR ISZERO PUSH3 0x18D JUMPI PUSH3 0x18C PUSH3 0x133 JUMP JUMPDEST JUMPDEST DUP1 PUSH1 0x40 MSTORE POP POP POP JUMP JUMPDEST PUSH0 PUSH3 0x1A1 PUSH3 0x10A JUMP JUMPDEST SWAP1 POP PUSH3 0x1AF DUP3 DUP3 PUSH3 0x160 JUMP JUMPDEST SWAP2 SWAP1 POP JUMP JUMPDEST PUSH0 PUSH8 0xFFFFFFFFFFFFFFFF DUP3 GT ISZERO PUSH3 0x1D1 JUMPI PUSH3 0x1D0 PUSH3 0x133 JUMP JUMPDEST JUMPDEST PUSH3 0x1DC DUP3 PUSH3 0x123 JUMP JUMPDEST SWAP1 POP PUSH1 0x20 DUP2 ADD SWAP1 POP SWAP2 SWAP1 POP JUMP JUMPDEST PUSH0 JUMPDEST DUP4 DUP2 LT ISZERO PUSH3 0x208 JUMPI DUP1 DUP3 ADD MLOAD DUP2 DUP5 ADD MSTORE PUSH1 0x20 DUP2 ADD SWAP1 POP PUSH3 0x1EB JUMP JUMPDEST PUSH0 DUP5 DUP5 ADD MSTORE POP POP POP POP JUMP JUMPDEST PUSH0 PUSH3 0x229 PUSH3 0x223 DUP5 PUSH3 0x1B4 JUMP JUMPDEST PUSH3 0x196 JUMP JUMPDEST SWAP1 POP DUP3 DUP2 MSTORE PUSH1 0x20 DUP2 ADD DUP5 DUP5 DUP5 ADD GT ISZERO PUSH3 0x248 JUMPI PUSH3 0x247 PUSH3 0x11F JUMP JUMPDEST JUMPDEST PUSH3 0x255 DUP5 DUP3 DUP6 PUSH3 0x1E9 JUMP JUMPDEST POP SWAP4 SWAP3 POP POP POP JUMP JUMPDEST PUSH0 DUP3 PUSH1 0x1F DUP4 ADD SLT PUSH3 0x274 JUMPI PUSH3 0x273 PUSH3 0x11B JUMP JUMPDEST JUMPDEST DUP2 MLOAD PUSH3 0x286 DUP5 DUP3 PUSH1 0x20 DUP7 ADD PUSH3 0x213 JUMP JUMPDEST SWAP2 POP POP SWAP3 SWAP2 POP POP JUMP JUMPDEST PUSH0 DUP2 SWAP1 POP SWAP2 SWAP1 POP JUMP JUMPDEST PUSH3 0x2A3 DUP2 PUSH3 0x28F JUMP JUMPDEST DUP2 EQ PUSH3 0x2AE JUMPI PUSH0 DUP1 REVERT JUMPDEST POP JUMP JUMPDEST PUSH0 DUP2 MLOAD SWAP1 POP PUSH3 0x2C1 DUP2 PUSH3 0x298 JUMP JUMPDEST SWAP3 SWAP2 POP POP JUMP JUMPDEST PUSH0 DUP1 PUSH0 DUP1 PUSH1 0x80 DUP6 DUP8 SUB SLT ISZERO PUSH3 0x2E2 JUMPI PUSH3 0x2E1 PUSH3 0x113 JUMP JUMPDEST JUMPDEST PUSH0 DUP6 ADD MLOAD PUSH8 0xFFFFFFFFFFFFFFFF DUP2 GT ISZERO PUSH3 0x302 JUMPI PUSH3 0x301 PUSH3 0x117 JUMP JUMPDEST JUMPDEST PUSH3 0x310 DUP8 DUP3 DUP9 ADD PUSH3 0x25D JUMP JUMPDEST SWAP5 POP POP PUSH1 0x20 DUP6 ADD MLOAD PUSH8 0xFFFFFFFFFFFFFFFF DUP2 GT ISZERO PUSH3 0x334 JUMPI PUSH3 0x333 PUSH3 0x117 JUMP JUMPDEST JUMPDEST PUSH3 0x342 DUP8 DUP3 DUP9 ADD PUSH3 0x25D JUMP JUMPDEST SWAP4 POP POP PUSH1 0x40 DUP6 ADD MLOAD PUSH8 0xFFFFFFFFFFFFFFFF DUP2 GT ISZERO PUSH3 0x366 JUMPI PUSH3 0x365 PUSH3 0x117 JUMP JUMPDEST JUMPDEST PUSH3 0x374 DUP8 DUP3 DUP9 ADD PUSH3 0x25D JUMP JUMPDEST SWAP3 POP POP PUSH1 0x60 PUSH3 0x387 DUP8 DUP3 DUP9 ADD PUSH3 0x2B1 JUMP JUMPDEST SWAP2 POP POP SWAP3 SWAP6 SWAP2 SWAP5 POP SWAP3 POP JUMP JUMPDEST PUSH0 DUP2 MLOAD SWAP1 POP SWAP2 SWAP1 POP JUMP JUMPDEST PUSH32 0x4E487B7100000000000000000000000000000000000000000000000000000000 PUSH0 MSTORE PUSH1 0x22 PUSH1 0x4 MSTORE PUSH1 0x24 PUSH0 REVERT JUMPDEST PUSH0 PUSH1 0x2 DUP3 DIV SWAP1 POP PUSH1 0x1 DUP3 AND DUP1 PUSH3 0x3E2 JUMPI PUSH1 0x7F DUP3 AND SWAP2 POP JUMPDEST PUSH1 0x20 DUP3 LT DUP2 SUB PUSH3 0x3F8 JUMPI PUSH3 0x3F7 PUSH3 0x39D JUMP JUMPDEST JUMPDEST POP SWAP2 SWAP1 POP JUMP JUMPDEST PUSH0 DUP2 SWAP1 POP DUP2 PUSH0 MSTORE PUSH1 0x20 PUSH0 KECCAK256 SWAP1 POP SWAP2 SWAP1 POP JUMP JUMPDEST PUSH0 PUSH1 0x20 PUSH1 0x1F DUP4 ADD DIV SWAP1 POP SWAP2 SWAP1 POP JUMP JUMPDEST PUSH0 DUP3 DUP3 SHL SWAP1 POP SWAP3 SWAP2 POP POP JUMP JUMPDEST PUSH0 PUSH1 0x8 DUP4 MUL PUSH3 0x45C PUSH32 0xFFFFFFFFFFFFFFFFFFFFFFFFFFFFFFFFFFFFFFFFFFFFFFFFFFFFFFFFFFFFFFFF DUP3 PUSH3 0x41F JUMP JUMPDEST PUSH3 0x468 DUP7 DUP4 PUSH3 0x41F JUMP JUMPDEST SWAP6 POP DUP1 NOT DUP5 AND SWAP4 POP DUP1 DUP7 AND DUP5 OR SWAP3 POP POP POP SWAP4 SWAP3 POP POP POP JUMP JUMPDEST PUSH0 DUP2 SWAP1 POP SWAP2 SWAP1 POP JUMP JUMPDEST PUSH0 PUSH3 0x4A9 PUSH3 0x4A3 PUSH3 0x49D DUP5 PUSH3 0x28F JUMP JUMPDEST PUSH3 0x480 JUMP JUMPDEST PUSH3 0x28F JUMP JUMPDEST SWAP1 POP SWAP2 SWAP1 POP JUMP JUMPDEST PUSH0 DUP2 SWAP1 POP SWAP2 SWAP1 POP JUMP JUMPDEST PUSH3 0x4C4 DUP4 PUSH3 0x489 JUMP JUMPDEST PUSH3 0x4DC PUSH3 0x4D3 DUP3 PUSH3 0x4B0 JUMP JUMPDEST DUP5 DUP5 SLOAD PUSH3 0x42B JUMP JUMPDEST DUP3 SSTORE POP POP POP POP JUMP JUMPDEST PUSH0 SWAP1 JUMP JUMPDEST PUSH3 0x4F2 PUSH3 0x4E4 JUMP JUMPDEST PUSH3 0x4FF DUP2 DUP5 DUP5 PUSH3 0x4B9 JUMP JUMPDEST POP POP POP JUMP JUMPDEST JUMPDEST DUP2 DUP2 LT ISZERO PUSH3 0x526 JUMPI PUSH3 0x51A PUSH0 DUP3 PUSH3 0x4E8 JUMP JUMPDEST PUSH1 0x1 DUP2 ADD SWAP1 POP PUSH3 0x505 JUMP JUMPDEST POP POP JUMP JUMPDEST PUSH1 0x1F DUP3 GT ISZERO PUSH3 0x575 JUMPI PUSH3 0x53F DUP2 PUSH3 0x3FE JUMP JUMPDEST PUSH3 0x54A DUP5 PUSH3 0x410 JUMP JUMPDEST DUP2 ADD PUSH1 0x20 DUP6 LT ISZERO PUSH3 0x55A JUMPI DUP2 SWAP1 POP JUMPDEST PUSH3 0x572 PUSH3 0x569 DUP6 PUSH3 0x410 JUMP JUMPDEST DUP4 ADD DUP3 PUSH3 0x504 JUMP JUMPDEST POP POP JUMPDEST POP POP POP JUMP JUMPDEST PUSH0 DUP3 DUP3 SHR SWAP1 POP SWAP3 SWAP2 POP POP JUMP JUMPDEST PUSH0 PUSH3 0x597 PUSH0 NOT DUP5 PUSH1 0x8 MUL PUSH3 0x57A JUMP JUMPDEST NOT DUP1 DUP4 AND SWAP2 POP POP SWAP3 SWAP2 POP POP JUMP JUMPDEST PUSH0 PUSH3 0x5B1 DUP4 DUP4 PUSH3 0x586 JUMP JUMPDEST SWAP2 POP DUP3 PUSH1 0x2 MUL DUP3 OR SWAP1 POP SWAP3 SWAP2 POP POP JUMP JUMPDEST PUSH3 0x5CC DUP3 PUSH3 0x393 JUMP JUMPDEST PUSH8 0xFFFFFFFFFFFFFFFF DUP2 GT ISZERO PUSH3 0x5E8 JUMPI PUSH3 0x5E7 PUSH3 0x133 JUMP JUMPDEST JUMPDEST PUSH3 0x5F4 DUP3 SLOAD PUSH3 0x3CA JUMP JUMPDEST PUSH3 0x601 DUP3 DUP3 DUP6 PUSH3 0x52A JUMP JUMPDEST PUSH0 PUSH1 0x20 SWAP1 POP PUSH1 0x1F DUP4 GT PUSH1 0x1 DUP2 EQ PUSH3 0x637 JUMPI PUSH0 DUP5 ISZERO PUSH3 0x622 JUMPI DUP3 DUP8 ADD MLOAD SWAP1 POP JUMPDEST PUSH3 0x62E DUP6 DUP3 PUSH3 0x5A4 JUMP JUMPDEST DUP7 SSTORE POP PUSH3 0x69D JUMP JUMPDEST PUSH1 0x1F NOT DUP5 AND PUSH3 0x647 DUP7 PUSH3 0x3FE JUMP JUMPDEST PUSH0 JUMPDEST DUP3 DUP2 LT ISZERO PUSH3 0x670 JUMPI DUP5 DUP10 ADD MLOAD DUP3 SSTORE PUSH1 0x1 DUP3 ADD SWAP2 POP PUSH1 0x20 DUP6 ADD SWAP5 POP PUSH1 0x20 DUP2 ADD SWAP1 POP PUSH3 0x649 JUMP JUMPDEST DUP7 DUP4 LT ISZERO PUSH3 0x690 JUMPI DUP5 DUP10 ADD MLOAD PUSH3 0x68C PUSH1 0x1F DUP10 AND DUP3 PUSH3 0x586 JUMP JUMPDEST DUP4 SSTORE POP JUMPDEST PUSH1 0x1 PUSH1 0x2 DUP9 MUL ADD DUP9 SSTORE POP POP POP JUMPDEST POP POP POP POP POP POP JUMP JUMPDEST PUSH2 0xFE7 DUP1 PUSH3 0x6B3 PUSH0 CODECOPY PUSH0 RETURN INVALID PUSH1 0x80 PUSH1 0x40 MSTORE PUSH1 0x4 CALLDATASIZE LT PUSH2 0x85 JUMPI PUSH0 CALLDATALOAD PUSH1 0xE0 SHR DUP1 PUSH4 0xAF640D0F GT PUSH2 0x58 JUMPI DUP1 PUSH4 0xAF640D0F EQ PUSH2 0x131 JUMPI DUP1 PUSH4 0xB767050D EQ PUSH2 0x15B JUMPI DUP1 PUSH4 0xC19D93FB EQ PUSH2 0x183 JUMPI DUP1 PUSH4 0xC89F2CE4 EQ PUSH2 0x1AD JUMPI DUP1 PUSH4 0xD63DC661 EQ PUSH2 0x1D7 JUMPI PUSH2 0x85 JUMP JUMPDEST DUP1 PUSH4 0x6FDDE03 EQ PUSH2 0x89 JUMPI DUP1 PUSH4 0x7284E416 EQ PUSH2 0xB3 JUMPI DUP1 PUSH4 0x922FAAC7 EQ PUSH2 0xDD JUMPI DUP1 PUSH4 0xA6C3E6B9 EQ PUSH2 0x107 JUMPI JUMPDEST PUSH0 DUP1 REVERT JUMPDEST CALLVALUE DUP1 ISZERO PUSH2 0x94 JUMPI PUSH0 DUP1 REVERT JUMPDEST POP PUSH2 0x9D PUSH2 0x1E1 JUMP JUMPDEST PUSH1 0x40 MLOAD PUSH2 0xAA SWAP2 SWAP1 PUSH2 0x77E JUMP JUMPDEST PUSH1 0x40 MLOAD DUP1 SWAP2 SUB SWAP1 RETURN JUMPDEST CALLVALUE DUP1 ISZERO PUSH2 0xBE JUMPI PUSH0 DUP1 REVERT JUMPDEST POP PUSH2 0xC7 PUSH2 0x26D JUMP JUMPDEST PUSH1 0x40 MLOAD PUSH2 0xD4 SWAP2 SWAP1 PUSH2 0x77E JUMP JUMPDEST PUSH1 0x40 MLOAD DUP1 SWAP2 SUB SWAP1 RETURN JUMPDEST CALLVALUE DUP1 ISZERO PUSH2 0xE8 JUMPI PUSH0 DUP1 REVERT JUMPDEST POP PUSH2 0xF1 PUSH2 0x2F9 JUMP JUMPDEST PUSH1 0x40 MLOAD PUSH2 0xFE SWAP2 SWAP1 PUSH2 0x7B6 JUMP JUMPDEST PUSH1 0x40 MLOAD DUP1 SWAP2 SUB SWAP1 RETURN JUMPDEST CALLVALUE DUP1 ISZERO PUSH2 0x112 JUMPI PUSH0 DUP1 REVERT JUMPDEST POP PUSH2 0x11B PUSH2 0x2FF JUMP JUMPDEST PUSH1 0x40 MLOAD PUSH2 0x128 SWAP2 SWAP1 PUSH2 0x80E JUMP JUMPDEST PUSH1 0x40 MLOAD DUP1 SWAP2 SUB SWAP1 RETURN JUMPDEST CALLVALUE DUP1 ISZERO PUSH2 0x13C JUMPI PUSH0 DUP1 REVERT JUMPDEST POP PUSH2 0x145 PUSH2 0x324 JUMP JUMPDEST PUSH1 0x40 MLOAD PUSH2 0x152 SWAP2 SWAP1 PUSH2 0x77E JUMP JUMPDEST PUSH1 0x40 MLOAD DUP1 SWAP2 SUB SWAP1 RETURN JUMPDEST CALLVALUE DUP1 ISZERO PUSH2 0x166 JUMPI PUSH0 DUP1 REVERT JUMPDEST POP PUSH2 0x181 PUSH1 0x4 DUP1 CALLDATASIZE SUB DUP2 ADD SWAP1 PUSH2 0x17C SWAP2 SWAP1 PUSH2 0x890 JUMP JUMPDEST PUSH2 0x3AF JUMP JUMPDEST STOP JUMPDEST CALLVALUE DUP1 ISZERO PUSH2 0x18E JUMPI PUSH0 DUP1 REVERT JUMPDEST POP PUSH2 0x197 PUSH2 0x48E JUMP JUMPDEST PUSH1 0x40 MLOAD PUSH2 0x1A4 SWAP2 SWAP1 PUSH2 0x77E JUMP JUMPDEST PUSH1 0x40 MLOAD DUP1 SWAP2 SUB SWAP1 RETURN JUMPDEST CALLVALUE DUP1 ISZERO PUSH2 0x1B8 JUMPI PUSH0 DUP1 REVERT JUMPDEST POP PUSH2 0x1C1 PUSH2 0x51A JUMP JUMPDEST PUSH1 0x40 MLOAD PUSH2 0x1CE SWAP2 SWAP1 PUSH2 0x7B6 JUMP JUMPDEST PUSH1 0x40 MLOAD DUP1 SWAP2 SUB SWAP1 RETURN JUMPDEST PUSH2 0x1DF PUSH2 0x520 JUMP JUMPDEST STOP JUMPDEST PUSH1 0x1 DUP1 SLOAD PUSH2 0x1EE SWAP1 PUSH2 0x908 JUMP JUMPDEST DUP1 PUSH1 0x1F ADD PUSH1 0x20 DUP1 SWAP2 DIV MUL PUSH1 0x20 ADD PUSH1 0x40 MLOAD SWAP1 DUP2 ADD PUSH1 0x40 MSTORE DUP1 SWAP3 SWAP2 SWAP1 DUP2 DUP2 MSTORE PUSH1 0x20 ADD DUP3 DUP1 SLOAD PUSH2 0x21A SWAP1 PUSH2 0x908 JUMP JUMPDEST DUP1 ISZERO PUSH2 0x265 JUMPI DUP1 PUSH1 0x1F LT PUSH2 0x23C JUMPI PUSH2 0x100 DUP1 DUP4 SLOAD DIV MUL DUP4 MSTORE SWAP2 PUSH1 0x20 ADD SWAP2 PUSH2 0x265 JUMP JUMPDEST DUP3 ADD SWAP2 SWAP1 PUSH0 MSTORE PUSH1 0x20 PUSH0 KECCAK256 SWAP1 JUMPDEST DUP2 SLOAD DUP2 MSTORE SWAP1 PUSH1 0x1 ADD SWAP1 PUSH1 0x20 ADD DUP1 DUP4 GT PUSH2 0x248 JUMPI DUP3 SWAP1 SUB PUSH1 0x1F AND DUP3 ADD SWAP2 JUMPDEST POP POP POP POP POP DUP2 JUMP JUMPDEST PUSH1 0x2 DUP1 SLOAD PUSH2 0x27A SWAP1 PUSH2 0x908 JUMP JUMPDEST DUP1 PUSH1 0x1F ADD PUSH1 0x20 DUP1 SWAP2 DIV MUL PUSH1 0x20 ADD PUSH1 0x40 MLOAD SWAP1 DUP2 ADD PUSH1 0x40 MSTORE DUP1 SWAP3 SWAP2 SWAP1 DUP2 DUP2 MSTORE PUSH1 0x20 ADD DUP3 DUP1 SLOAD PUSH2 0x2A6 SWAP1 PUSH2 0x908 JUMP JUMPDEST DUP1 ISZERO PUSH2 0x2F1 JUMPI DUP1 PUSH1 0x1F LT PUSH2 0x2C8 JUMPI PUSH2 0x100 DUP1 DUP4 SLOAD DIV MUL DUP4 MSTORE SWAP2 PUSH1 0x20 ADD SWAP2 PUSH2 0x2F1 JUMP JUMPDEST DUP3 ADD SWAP2 SWAP1 PUSH0 MSTORE PUSH1 0x20 PUSH0 KECCAK256 SWAP1 JUMPDEST DUP2 SLOAD DUP2 MSTORE SWAP1 PUSH1 0x1 ADD SWAP1 PUSH1 0x20 ADD DUP1 DUP4 GT PUSH2 0x2D4 JUMPI DUP3 SWAP1 SUB PUSH1 0x1F AND DUP3 ADD SWAP2 JUMPDEST POP POP POP POP POP DUP2 JUMP JUMPDEST PUSH1 0x6 SLOAD DUP2 JUMP JUMPDEST PUSH1 0x3 PUSH0 SWAP1 SLOAD SWAP1 PUSH2 0x100 EXP SWAP1 DIV PUSH20 0xFFFFFFFFFFFFFFFFFFFFFFFFFFFFFFFFFFFFFFFF AND DUP2 JUMP JUMPDEST PUSH0 DUP1 SLOAD PUSH2 0x330 SWAP1 PUSH2 0x908 JUMP JUMPDEST DUP1 PUSH1 0x1F ADD PUSH1 0x20 DUP1 SWAP2 DIV MUL PUSH1 0x20 ADD PUSH1 0x40 MLOAD SWAP1 DUP2 ADD PUSH1 0x40 MSTORE DUP1 SWAP3 SWAP2 SWAP1 DUP2 DUP2 MSTORE PUSH1 0x20 ADD DUP3 DUP1 SLOAD PUSH2 0x35C SWAP1 PUSH2 0x908 JUMP JUMPDEST DUP1 ISZERO PUSH2 0x3A7 JUMPI DUP1 PUSH1 0x1F LT PUSH2 0x37E JUMPI PUSH2 0x100 DUP1 DUP4 SLOAD DIV MUL DUP4 MSTORE SWAP2 PUSH1 0x20 ADD SWAP2 PUSH2 0x3A7 JUMP JUMPDEST DUP3 ADD SWAP2 SWAP1 PUSH0 MSTORE PUSH1 0x20 PUSH0 KECCAK256 SWAP1 JUMPDEST DUP2 SLOAD DUP2 MSTORE SWAP1 PUSH1 0x1 ADD SWAP1 PUSH1 0x20 ADD DUP1 DUP4 GT PUSH2 0x38A JUMPI DUP3 SWAP1 SUB PUSH1 0x1F AND DUP3 ADD SWAP2 JUMPDEST POP POP POP POP POP DUP2 JUMP JUMPDEST PUSH1 0x3 PUSH0 SWAP1 SLOAD SWAP1 PUSH2 0x100 EXP SWAP1 DIV PUSH20 0xFFFFFFFFFFFFFFFFFFFFFFFFFFFFFFFFFFFFFFFF AND PUSH20 0xFFFFFFFFFFFFFFFFFFFFFFFFFFFFFFFFFFFFFFFF AND CALLER PUSH20 0xFFFFFFFFFFFFFFFFFFFFFFFFFFFFFFFFFFFFFFFF AND EQ PUSH2 0x43E JUMPI PUSH1 0x40 MLOAD PUSH32 0x8C379A000000000000000000000000000000000000000000000000000000000 DUP2 MSTORE PUSH1 0x4 ADD PUSH2 0x435 SWAP1 PUSH2 0x9A8 JUMP JUMPDEST PUSH1 0x40 MLOAD DUP1 SWAP2 SUB SWAP1 REVERT JUMPDEST DUP2 DUP2 PUSH1 0x4 SWAP2 DUP3 PUSH2 0x44F SWAP3 SWAP2 SWAP1 PUSH2 0xB9A JUMP JUMPDEST POP PUSH32 0xD74CC10E566844502B1013EB3AEE1E3200CC3FFA1F74BF59BE4B7C2A66FB9B7D CALLER PUSH1 0x4 PUSH1 0x40 MLOAD PUSH2 0x482 SWAP3 SWAP2 SWAP1 PUSH2 0xD08 JUMP JUMPDEST PUSH1 0x40 MLOAD DUP1 SWAP2 SUB SWAP1 LOG1 POP POP JUMP JUMPDEST PUSH1 0x4 DUP1 SLOAD PUSH2 0x49B SWAP1 PUSH2 0x908 JUMP JUMPDEST DUP1 PUSH1 0x1F ADD PUSH1 0x20 DUP1 SWAP2 DIV MUL PUSH1 0x20 ADD PUSH1 0x40 MLOAD SWAP1 DUP2 ADD PUSH1 0x40 MSTORE DUP1 SWAP3 SWAP2 SWAP1 DUP2 DUP2 MSTORE PUSH1 0x20 ADD DUP3 DUP1 SLOAD PUSH2 0x4C7 SWAP1 PUSH2 0x908 JUMP JUMPDEST DUP1 ISZERO PUSH2 0x512 JUMPI DUP1 PUSH1 0x1F LT PUSH2 0x4E9 JUMPI PUSH2 0x100 DUP1 DUP4 SLOAD DIV MUL DUP4 MSTORE SWAP2 PUSH1 0x20 ADD SWAP2 PUSH2 0x512 JUMP JUMPDEST DUP3 ADD SWAP2 SWAP1 PUSH0 MSTORE PUSH1 0x20 PUSH0 KECCAK256 SWAP1 JUMPDEST DUP2 SLOAD DUP2 MSTORE SWAP1 PUSH1 0x1 ADD SWAP1 PUSH1 0x20 ADD DUP1 DUP4 GT PUSH2 0x4F5 JUMPI DUP3 SWAP1 SUB PUSH1 0x1F AND DUP3 ADD SWAP2 JUMPDEST POP POP POP POP POP DUP2 JUMP JUMPDEST PUSH1 0x5 SLOAD DUP2 JUMP JUMPDEST PUSH1 0x3 PUSH0 SWAP1 SLOAD SWAP1 PUSH2 0x100 EXP SWAP1 DIV PUSH20 0xFFFFFFFFFFFFFFFFFFFFFFFFFFFFFFFFFFFFFFFF AND PUSH20 0xFFFFFFFFFFFFFFFFFFFFFFFFFFFFFFFFFFFFFFFF AND CALLER PUSH20 0xFFFFFFFFFFFFFFFFFFFFFFFFFFFFFFFFFFFFFFFF AND SUB PUSH2 0x5AF JUMPI PUSH1 0x40 MLOAD PUSH32 0x8C379A000000000000000000000000000000000000000000000000000000000 DUP2 MSTORE PUSH1 0x4 ADD PUSH2 0x5A6 SWAP1 PUSH2 0xD80 JUMP JUMPDEST PUSH1 0x40 MLOAD DUP1 SWAP2 SUB SWAP1 REVERT JUMPDEST PUSH1 0x40 MLOAD PUSH1 0x20 ADD PUSH2 0x5BE SWAP1 PUSH2 0xDF2 JUMP JUMPDEST PUSH1 0x40 MLOAD PUSH1 0x20 DUP2 DUP4 SUB SUB DUP2 MSTORE SWAP1 PUSH1 0x40 MSTORE DUP1 MLOAD SWAP1 PUSH1 0x20 ADD KECCAK256 PUSH1 0x4 PUSH1 0x40 MLOAD PUSH1 0x20 ADD PUSH2 0x5E6 SWAP2 SWAP1 PUSH2 0xE86 JUMP JUMPDEST PUSH1 0x40 MLOAD PUSH1 0x20 DUP2 DUP4 SUB SUB DUP2 MSTORE SWAP1 PUSH1 0x40 MSTORE DUP1 MLOAD SWAP1 PUSH1 0x20 ADD KECCAK256 EQ PUSH2 0x63C JUMPI PUSH1 0x40 MLOAD PUSH32 0x8C379A000000000000000000000000000000000000000000000000000000000 DUP2 MSTORE PUSH1 0x4 ADD PUSH2 0x633 SWAP1 PUSH2 0xF0C JUMP JUMPDEST PUSH1 0x40 MLOAD DUP1 SWAP2 SUB SWAP1 REVERT JUMPDEST PUSH1 0x3 PUSH0 SWAP1 SLOAD SWAP1 PUSH2 0x100 EXP SWAP1 DIV PUSH20 0xFFFFFFFFFFFFFFFFFFFFFFFFFFFFFFFFFFFFFFFF AND PUSH20 0xFFFFFFFFFFFFFFFFFFFFFFFFFFFFFFFFFFFFFFFF AND PUSH2 0x8FC CALLVALUE SWAP1 DUP2 ISZERO MUL SWAP1 PUSH1 0x40 MLOAD PUSH0 PUSH1 0x40 MLOAD DUP1 DUP4 SUB DUP2 DUP6 DUP9 DUP9 CALL SWAP4 POP POP POP POP ISZERO DUP1 ISZERO PUSH2 0x6A0 JUMPI RETURNDATASIZE PUSH0 DUP1 RETURNDATACOPY RETURNDATASIZE PUSH0 REVERT JUMPDEST POP CALLVALUE PUSH1 0x5 PUSH0 DUP3 DUP3 SLOAD PUSH2 0x6B2 SWAP2 SWAP1 PUSH2 0xF57 JUMP JUMPDEST SWAP3 POP POP DUP2 SWAP1 SSTORE POP PUSH32 0x9DBCB1D3ADC1305990F05754143D0BAF2F49FA6124B6E9F9EE509B31F2AD300B CALLER CALLVALUE PUSH1 0x40 MLOAD PUSH2 0x6EA SWAP3 SWAP2 SWAP1 PUSH2 0xF8A JUMP JUMPDEST PUSH1 0x40 MLOAD DUP1 SWAP2 SUB SWAP1 LOG1 JUMP JUMPDEST PUSH0 DUP2 MLOAD SWAP1 POP SWAP2 SWAP1 POP JUMP JUMPDEST PUSH0 DUP3 DUP3 MSTORE PUSH1 0x20 DUP3 ADD SWAP1 POP SWAP3 SWAP2 POP POP JUMP JUMPDEST PUSH0 JUMPDEST DUP4 DUP2 LT ISZERO PUSH2 0x72B JUMPI DUP1 DUP3 ADD MLOAD DUP2 DUP5 ADD MSTORE PUSH1 0x20 DUP2 ADD SWAP1 POP PUSH2 0x710 JUMP JUMPDEST PUSH0 DUP5 DUP5 ADD MSTORE POP POP POP POP JUMP JUMPDEST PUSH0 PUSH1 0x1F NOT PUSH1 0x1F DUP4 ADD AND SWAP1 POP SWAP2 SWAP1 POP JUMP JUMPDEST PUSH0 PUSH2 0x750 DUP3 PUSH2 0x6F4 JUMP JUMPDEST PUSH2 0x75A DUP2 DUP6 PUSH2 0x6FE JUMP JUMPDEST SWAP4 POP PUSH2 0x76A DUP2 DUP6 PUSH1 0x20 DUP7 ADD PUSH2 0x70E JUMP JUMPDEST PUSH2 0x773 DUP2 PUSH2 0x736 JUMP JUMPDEST DUP5 ADD SWAP2 POP POP SWAP3 SWAP2 POP POP JUMP JUMPDEST PUSH0 PUSH1 0x20 DUP3 ADD SWAP1 POP DUP2 DUP2 SUB PUSH0 DUP4 ADD MSTORE PUSH2 0x796 DUP2 DUP5 PUSH2 0x746 JUMP JUMPDEST SWAP1 POP SWAP3 SWAP2 POP POP JUMP JUMPDEST PUSH0 DUP2 SWAP1 POP SWAP2 SWAP1 POP JUMP JUMPDEST PUSH2 0x7B0 DUP2 PUSH2 0x79E JUMP JUMPDEST DUP3 MSTORE POP POP JUMP JUMPDEST PUSH0 PUSH1 0x20 DUP3 ADD SWAP1 POP PUSH2 0x7C9 PUSH0 DUP4 ADD DUP5 PUSH2 0x7A7 JUMP JUMPDEST SWAP3 SWAP2 POP POP JUMP JUMPDEST PUSH0 PUSH20 0xFFFFFFFFFFFFFFFFFFFFFFFFFFFFFFFFFFFFFFFF DUP3 AND SWAP1 POP SWAP2 SWAP1 POP JUMP JUMPDEST PUSH0 PUSH2 0x7F8 DUP3 PUSH2 0x7CF JUMP JUMPDEST SWAP1 POP SWAP2 SWAP1 POP JUMP JUMPDEST PUSH2 0x808 DUP2 PUSH2 0x7EE JUMP JUMPDEST DUP3 MSTORE POP POP JUMP JUMPDEST PUSH0 PUSH1 0x20 DUP3 ADD SWAP1 POP PUSH2 0x821 PUSH0 DUP4 ADD DUP5 PUSH2 0x7FF JUMP JUMPDEST SWAP3 SWAP2 POP POP JUMP JUMPDEST PUSH0 DUP1 REVERT JUMPDEST PUSH0 DUP1 REVERT JUMPDEST PUSH0 DUP1 REVERT JUMPDEST PUSH0 DUP1 REVERT JUMPDEST PUSH0 DUP1 REVERT JUMPDEST PUSH0 DUP1 DUP4 PUSH1 0x1F DUP5 ADD SLT PUSH2 0x850 JUMPI PUSH2 0x84F PUSH2 0x82F JUMP JUMPDEST JUMPDEST DUP3 CALLDATALOAD SWAP1 POP PUSH8 0xFFFFFFFFFFFFFFFF DUP2 GT ISZERO PUSH2 0x86D JUMPI PUSH2 0x86C PUSH2 0x833 JUMP JUMPDEST JUMPDEST PUSH1 0x20 DUP4 ADD SWAP2 POP DUP4 PUSH1 0x1 DUP3 MUL DUP4 ADD GT ISZERO PUSH2 0x889 JUMPI PUSH2 0x888 PUSH2 0x837 JUMP JUMPDEST JUMPDEST SWAP3 POP SWAP3 SWAP1 POP JUMP JUMPDEST PUSH0 DUP1 PUSH1 0x20 DUP4 DUP6 SUB SLT ISZERO PUSH2 0x8A6 JUMPI PUSH2 0x8A5 PUSH2 0x827 JUMP JUMPDEST JUMPDEST PUSH0 DUP4 ADD CALLDATALOAD PUSH8 0xFFFFFFFFFFFFFFFF DUP2 GT ISZERO PUSH2 0x8C3 JUMPI PUSH2 0x8C2 PUSH2 0x82B JUMP JUMPDEST JUMPDEST PUSH2 0x8CF DUP6 DUP3 DUP7 ADD PUSH2 0x83B JUMP JUMPDEST SWAP3 POP SWAP3 POP POP SWAP3 POP SWAP3 SWAP1 POP JUMP JUMPDEST PUSH32 0x4E487B7100000000000000000000000000000000000000000000000000000000 PUSH0 MSTORE PUSH1 0x22 PUSH1 0x4 MSTORE PUSH1 0x24 PUSH0 REVERT JUMPDEST PUSH0 PUSH1 0x2 DUP3 DIV SWAP1 POP PUSH1 0x1 DUP3 AND DUP1 PUSH2 0x91F JUMPI PUSH1 0x7F DUP3 AND SWAP2 POP JUMPDEST PUSH1 0x20 DUP3 LT DUP2 SUB PUSH2 0x932 JUMPI PUSH2 0x931 PUSH2 0x8DB JUMP JUMPDEST JUMPDEST POP SWAP2 SWAP1 POP JUMP JUMPDEST PUSH32 0x4F6E6C7920746865206F776E65722063616E206368656E676520746865722070 PUSH0 DUP3 ADD MSTORE PUSH32 0x726F6A6563742073746174650000000000000000000000000000000000000000 PUSH1 0x20 DUP3 ADD MSTORE POP JUMP JUMPDEST PUSH0 PUSH2 0x992 PUSH1 0x2C DUP4 PUSH2 0x6FE JUMP JUMPDEST SWAP2 POP PUSH2 0x99D DUP3 PUSH2 0x938 JUMP JUMPDEST PUSH1 0x40 DUP3 ADD SWAP1 POP SWAP2 SWAP1 POP JUMP JUMPDEST PUSH0 PUSH1 0x20 DUP3 ADD SWAP1 POP DUP2 DUP2 SUB PUSH0 DUP4 ADD MSTORE PUSH2 0x9BF DUP2 PUSH2 0x986 JUMP JUMPDEST SWAP1 POP SWAP2 SWAP1 POP JUMP JUMPDEST PUSH0 DUP3 SWAP1 POP SWAP3 SWAP2 POP POP JUMP JUMPDEST PUSH32 0x4E487B7100000000000000000000000000000000000000000000000000000000 PUSH0 MSTORE PUSH1 0x41 PUSH1 0x4 MSTORE PUSH1 0x24 PUSH0 REVERT JUMPDEST PUSH0 DUP2 SWAP1 POP DUP2 PUSH0 MSTORE PUSH1 0x20 PUSH0 KECCAK256 SWAP1 POP SWAP2 SWAP1 POP JUMP JUMPDEST PUSH0 PUSH1 0x20 PUSH1 0x1F DUP4 ADD DIV SWAP1 POP SWAP2 SWAP1 POP JUMP JUMPDEST PUSH0 DUP3 DUP3 SHL SWAP1 POP SWAP3 SWAP2 POP POP JUMP JUMPDEST PUSH0 PUSH1 0x8 DUP4 MUL PUSH2 0xA59 PUSH32 0xFFFFFFFFFFFFFFFFFFFFFFFFFFFFFFFFFFFFFFFFFFFFFFFFFFFFFFFFFFFFFFFF DUP3 PUSH2 0xA1E JUMP JUMPDEST PUSH2 0xA63 DUP7 DUP4 PUSH2 0xA1E JUMP JUMPDEST SWAP6 POP DUP1 NOT DUP5 AND SWAP4 POP DUP1 DUP7 AND DUP5 OR SWAP3 POP POP POP SWAP4 SWAP3 POP POP POP JUMP JUMPDEST PUSH0 DUP2 SWAP1 POP SWAP2 SWAP1 POP JUMP JUMPDEST PUSH0 PUSH2 0xA9E PUSH2 0xA99 PUSH2 0xA94 DUP5 PUSH2 0x79E JUMP JUMPDEST PUSH2 0xA7B JUMP JUMPDEST PUSH2 0x79E JUMP JUMPDEST SWAP1 POP SWAP2 SWAP1 POP JUMP JUMPDEST PUSH0 DUP2 SWAP1 POP SWAP2 SWAP1 POP JUMP JUMPDEST PUSH2 0xAB7 DUP4 PUSH2 0xA84 JUMP JUMPDEST PUSH2 0xACB PUSH2 0xAC3 DUP3 PUSH2 0xAA5 JUMP JUMPDEST DUP5 DUP5 SLOAD PUSH2 0xA2A JUMP JUMPDEST DUP3 SSTORE POP POP POP POP JUMP JUMPDEST PUSH0 SWAP1 JUMP JUMPDEST PUSH2 0xADF PUSH2 0xAD3 JUMP JUMPDEST PUSH2 0xAEA DUP2 DUP5 DUP5 PUSH2 0xAAE JUMP JUMPDEST POP POP POP JUMP JUMPDEST JUMPDEST DUP2 DUP2 LT ISZERO PUSH2 0xB0D JUMPI PUSH2 0xB02 PUSH0 DUP3 PUSH2 0xAD7 JUMP JUMPDEST PUSH1 0x1 DUP2 ADD SWAP1 POP PUSH2 0xAF0 JUMP JUMPDEST POP POP JUMP JUMPDEST PUSH1 0x1F DUP3 GT ISZERO PUSH2 0xB52 JUMPI PUSH2 0xB23 DUP2 PUSH2 0x9FD JUMP JUMPDEST PUSH2 0xB2C DUP5 PUSH2 0xA0F JUMP JUMPDEST DUP2 ADD PUSH1 0x20 DUP6 LT ISZERO PUSH2 0xB3B JUMPI DUP2 SWAP1 POP JUMPDEST PUSH2 0xB4F PUSH2 0xB47 DUP6 PUSH2 0xA0F JUMP JUMPDEST DUP4 ADD DUP3 PUSH2 0xAEF JUMP JUMPDEST POP POP JUMPDEST POP POP POP JUMP JUMPDEST PUSH0 DUP3 DUP3 SHR SWAP1 POP SWAP3 SWAP2 POP POP JUMP JUMPDEST PUSH0 PUSH2 0xB72 PUSH0 NOT DUP5 PUSH1 0x8 MUL PUSH2 0xB57 JUMP JUMPDEST NOT DUP1 DUP4 AND SWAP2 POP POP SWAP3 SWAP2 POP POP JUMP JUMPDEST PUSH0 PUSH2 0xB8A DUP4 DUP4 PUSH2 0xB63 JUMP JUMPDEST SWAP2 POP DUP3 PUSH1 0x2 MUL DUP3 OR SWAP1 POP SWAP3 SWAP2 POP POP JUMP JUMPDEST PUSH2 0xBA4 DUP4 DUP4 PUSH2 0x9C6 JUMP JUMPDEST PUSH8 0xFFFFFFFFFFFFFFFF DUP2 GT ISZERO PUSH2 0xBBD JUMPI PUSH2 0xBBC PUSH2 0x9D0 JUMP JUMPDEST JUMPDEST PUSH2 0xBC7 DUP3 SLOAD PUSH2 0x908 JUMP JUMPDEST PUSH2 0xBD2 DUP3 DUP3 DUP6 PUSH2 0xB11 JUMP JUMPDEST PUSH0 PUSH1 0x1F DUP4 GT PUSH1 0x1 DUP2 EQ PUSH2 0xBFF JUMPI PUSH0 DUP5 ISZERO PUSH2 0xBED JUMPI DUP3 DUP8 ADD CALLDATALOAD SWAP1 POP JUMPDEST PUSH2 0xBF7 DUP6 DUP3 PUSH2 0xB7F JUMP JUMPDEST DUP7 SSTORE POP PUSH2 0xC5E JUMP JUMPDEST PUSH1 0x1F NOT DUP5 AND PUSH2 0xC0D DUP7 PUSH2 0x9FD JUMP JUMPDEST PUSH0 JUMPDEST DUP3 DUP2 LT ISZERO PUSH2 0xC34 JUMPI DUP5 DUP10 ADD CALLDATALOAD DUP3 SSTORE PUSH1 0x1 DUP3 ADD SWAP2 POP PUSH1 0x20 DUP6 ADD SWAP5 POP PUSH1 0x20 DUP2 ADD SWAP1 POP PUSH2 0xC0F JUMP JUMPDEST DUP7 DUP4 LT ISZERO PUSH2 0xC51 JUMPI DUP5 DUP10 ADD CALLDATALOAD PUSH2 0xC4D PUSH1 0x1F DUP10 AND DUP3 PUSH2 0xB63 JUMP JUMPDEST DUP4 SSTORE POP JUMPDEST PUSH1 0x1 PUSH1 0x2 DUP9 MUL ADD DUP9 SSTORE POP POP POP JUMPDEST POP POP POP POP POP POP POP JUMP JUMPDEST PUSH0 PUSH2 0xC71 DUP3 PUSH2 0x7CF JUMP JUMPDEST SWAP1 POP SWAP2 SWAP1 POP JUMP JUMPDEST PUSH2 0xC81 DUP2 PUSH2 0xC67 JUMP JUMPDEST DUP3 MSTORE POP POP JUMP JUMPDEST PUSH0 DUP2 SLOAD PUSH2 0xC93 DUP2 PUSH2 0x908 JUMP JUMPDEST PUSH2 0xC9D DUP2 DUP7 PUSH2 0x6FE JUMP JUMPDEST SWAP5 POP PUSH1 0x1 DUP3 AND PUSH0 DUP2 EQ PUSH2 0xCB7 JUMPI PUSH1 0x1 DUP2 EQ PUSH2 0xCCD JUMPI PUSH2 0xCFF JUMP JUMPDEST PUSH1 0xFF NOT DUP4 AND DUP7 MSTORE DUP2 ISZERO ISZERO PUSH1 0x20 MUL DUP7 ADD SWAP4 POP PUSH2 0xCFF JUMP JUMPDEST PUSH2 0xCD6 DUP6 PUSH2 0x9FD JUMP JUMPDEST PUSH0 JUMPDEST DUP4 DUP2 LT ISZERO PUSH2 0xCF7 JUMPI DUP2 SLOAD DUP2 DUP10 ADD MSTORE PUSH1 0x1 DUP3 ADD SWAP2 POP PUSH1 0x20 DUP2 ADD SWAP1 POP PUSH2 0xCD8 JUMP JUMPDEST DUP1 DUP9 ADD SWAP6 POP POP POP JUMPDEST POP POP POP SWAP3 SWAP2 POP POP JUMP JUMPDEST PUSH0 PUSH1 0x40 DUP3 ADD SWAP1 POP PUSH2 0xD1B PUSH0 DUP4 ADD DUP6 PUSH2 0xC78 JUMP JUMPDEST DUP2 DUP2 SUB PUSH1 0x20 DUP4 ADD MSTORE PUSH2 0xD2D DUP2 DUP5 PUSH2 0xC87 JUMP JUMPDEST SWAP1 POP SWAP4 SWAP3 POP POP POP JUMP JUMPDEST PUSH32 0x4F776E6572732063616E27742066756E64207468697220706F726A6563740000 PUSH0 DUP3 ADD MSTORE POP JUMP JUMPDEST PUSH0 PUSH2 0xD6A PUSH1 0x1E DUP4 PUSH2 0x6FE JUMP JUMPDEST SWAP2 POP PUSH2 0xD75 DUP3 PUSH2 0xD36 JUMP JUMPDEST PUSH1 0x20 DUP3 ADD SWAP1 POP SWAP2 SWAP1 POP JUMP JUMPDEST PUSH0 PUSH1 0x20 DUP3 ADD SWAP1 POP DUP2 DUP2 SUB PUSH0 DUP4 ADD MSTORE PUSH2 0xD97 DUP2 PUSH2 0xD5E JUMP JUMPDEST SWAP1 POP SWAP2 SWAP1 POP JUMP JUMPDEST PUSH0 DUP2 SWAP1 POP SWAP3 SWAP2 POP POP JUMP JUMPDEST PUSH32 0x4F70656E65640000000000000000000000000000000000000000000000000000 PUSH0 DUP3 ADD MSTORE POP JUMP JUMPDEST PUSH0 PUSH2 0xDDC PUSH1 0x6 DUP4 PUSH2 0xD9E JUMP JUMPDEST SWAP2 POP PUSH2 0xDE7 DUP3 PUSH2 0xDA8 JUMP JUMPDEST PUSH1 0x6 DUP3 ADD SWAP1 POP SWAP2 SWAP1 POP JUMP JUMPDEST PUSH0 PUSH2 0xDFC DUP3 PUSH2 0xDD0 JUMP JUMPDEST SWAP2 POP DUP2 SWAP1 POP SWAP2 SWAP1 POP JUMP JUMPDEST PUSH0 DUP2 SLOAD PUSH2 0xE12 DUP2 PUSH2 0x908 JUMP JUMPDEST PUSH2 0xE1C DUP2 DUP7 PUSH2 0xD9E JUMP JUMPDEST SWAP5 POP PUSH1 0x1 DUP3 AND PUSH0 DUP2 EQ PUSH2 0xE36 JUMPI PUSH1 0x1 DUP2 EQ PUSH2 0xE4B JUMPI PUSH2 0xE7D JUMP JUMPDEST PUSH1 0xFF NOT DUP4 AND DUP7 MSTORE DUP2 ISZERO ISZERO DUP3 MUL DUP7 ADD SWAP4 POP PUSH2 0xE7D JUMP JUMPDEST PUSH2 0xE54 DUP6 PUSH2 0x9FD JUMP JUMPDEST PUSH0 JUMPDEST DUP4 DUP2 LT ISZERO PUSH2 0xE75 JUMPI DUP2 SLOAD DUP2 DUP10 ADD MSTORE PUSH1 0x1 DUP3 ADD SWAP2 POP PUSH1 0x20 DUP2 ADD SWAP1 POP PUSH2 0xE56 JUMP JUMPDEST DUP4 DUP9 ADD SWAP6 POP POP POP JUMPDEST POP POP POP SWAP3 SWAP2 POP POP JUMP JUMPDEST PUSH0 PUSH2 0xE91 DUP3 DUP5 PUSH2 0xE06 JUMP JUMPDEST SWAP2 POP DUP2 SWAP1 POP SWAP3 SWAP2 POP POP JUMP JUMPDEST PUSH32 0x50726F6A656374206973206E6F742061626C6520746F20616363657074206675 PUSH0 DUP3 ADD MSTORE PUSH32 0x6E64730000000000000000000000000000000000000000000000000000000000 PUSH1 0x20 DUP3 ADD MSTORE POP JUMP JUMPDEST PUSH0 PUSH2 0xEF6 PUSH1 0x23 DUP4 PUSH2 0x6FE JUMP JUMPDEST SWAP2 POP PUSH2 0xF01 DUP3 PUSH2 0xE9C JUMP JUMPDEST PUSH1 0x40 DUP3 ADD SWAP1 POP SWAP2 SWAP1 POP JUMP JUMPDEST PUSH0 PUSH1 0x20 DUP3 ADD SWAP1 POP DUP2 DUP2 SUB PUSH0 DUP4 ADD MSTORE PUSH2 0xF23 DUP2 PUSH2 0xEEA JUMP JUMPDEST SWAP1 POP SWAP2 SWAP1 POP JUMP JUMPDEST PUSH32 0x4E487B7100000000000000000000000000000000000000000000000000000000 PUSH0 MSTORE PUSH1 0x11 PUSH1 0x4 MSTORE PUSH1 0x24 PUSH0 REVERT JUMPDEST PUSH0 PUSH2 0xF61 DUP3 PUSH2 0x79E JUMP JUMPDEST SWAP2 POP PUSH2 0xF6C DUP4 PUSH2 0x79E JUMP JUMPDEST SWAP3 POP DUP3 DUP3 ADD SWAP1 POP DUP1 DUP3 GT ISZERO PUSH2 0xF84 JUMPI PUSH2 0xF83 PUSH2 0xF2A JUMP JUMPDEST JUMPDEST SWAP3 SWAP2 POP POP JUMP JUMPDEST PUSH0 PUSH1 0x40 DUP3 ADD SWAP1 POP PUSH2 0xF9D PUSH0 DUP4 ADD DUP6 PUSH2 0xC78 JUMP JUMPDEST PUSH2 0xFAA PUSH1 0x20 DUP4 ADD DUP5 PUSH2 0x7A7 JUMP JUMPDEST SWAP4 SWAP3 POP POP POP JUMP INVALID LOG2 PUSH5 0x6970667358 0x22 SLT KECCAK256 0x24 OR PUSH24 0x2E2FFBB03E689BE2D6713FD999CE3FF452497F5429BC4302 0x4B 0xBF SELFDESTRUCT DUP16 CREATE PUSH5 0x736F6C6343 STOP ADDMOD XOR STOP CALLER "
				},
				"gasEstimates": {
					"creation": {
						"codeDepositCost": "814200",
						"executionCost": "infinite",
						"totalCost": "infinite"
					},
					"external": {
						"author()": "2575",
						"changeProjectState(string)": "infinite",
						"description()": "infinite",
						"fundProject()": "infinite",
						"fundarisingGoal()": "2470",
						"funds()": "2491",
						"id()": "infinite",
						"name()": "infinite",
						"state()": "infinite"
					}
				},
				"methodIdentifiers": {
					"author()": "a6c3e6b9",
					"changeProjectState(string)": "b767050d",
					"description()": "7284e416",
					"fundProject()": "d63dc661",
					"fundarisingGoal()": "922faac7",
					"funds()": "c89f2ce4",
					"id()": "af640d0f",
					"name()": "06fdde03",
					"state()": "c19d93fb"
				}
			},
			"storageLayout": {
				"storage": [
					{
						"astId": 3,
						"contract": "contracts/Crowdfunding3.sol:Crowfonding",
						"label": "id",
						"offset": 0,
						"slot": "0",
						"type": "t_string_storage"
					},
					{
						"astId": 5,
						"contract": "contracts/Crowdfunding3.sol:Crowfonding",
						"label": "name",
						"offset": 0,
						"slot": "1",
						"type": "t_string_storage"
					},
					{
						"astId": 7,
						"contract": "contracts/Crowdfunding3.sol:Crowfonding",
						"label": "description",
						"offset": 0,
						"slot": "2",
						"type": "t_string_storage"
					},
					{
						"astId": 9,
						"contract": "contracts/Crowdfunding3.sol:Crowfonding",
						"label": "author",
						"offset": 0,
						"slot": "3",
						"type": "t_address_payable"
					},
					{
						"astId": 11,
						"contract": "contracts/Crowdfunding3.sol:Crowfonding",
						"label": "state",
						"offset": 0,
						"slot": "4",
						"type": "t_string_storage"
					},
					{
						"astId": 13,
						"contract": "contracts/Crowdfunding3.sol:Crowfonding",
						"label": "funds",
						"offset": 0,
						"slot": "5",
						"type": "t_uint256"
					},
					{
						"astId": 15,
						"contract": "contracts/Crowdfunding3.sol:Crowfonding",
						"label": "fundarisingGoal",
						"offset": 0,
						"slot": "6",
						"type": "t_uint256"
					}
				],
				"types": {
					"t_address_payable": {
						"encoding": "inplace",
						"label": "address payable",
						"numberOfBytes": "20"
					},
					"t_string_storage": {
						"encoding": "bytes",
						"label": "string",
						"numberOfBytes": "32"
					},
					"t_uint256": {
						"encoding": "inplace",
						"label": "uint256",
						"numberOfBytes": "32"
					}
				}
			},
			"userdoc": {
				"kind": "user",
				"methods": {},
				"version": 1
			}
		}
	}
}