{
	"contracts/Crowdfunding6.sol": {
		"Crowdfunding": {
			"abi": [
				{
					"inputs": [
						{
							"internalType": "string",
							"name": "_id",
							"type": "string"
						},
						{
							"internalType": "string",
							"name": "_name",
							"type": "string"
						},
						{
							"internalType": "string",
							"name": "_description",
							"type": "string"
						},
						{
							"internalType": "uint256",
							"name": "_fundraisingGoal",
							"type": "uint256"
						}
					],
					"stateMutability": "nonpayable",
					"type": "constructor"
				},
				{
					"inputs": [
						{
							"internalType": "string",
							"name": "newState",
							"type": "string"
						}
					],
					"name": "StateNotDefined",
					"type": "error"
				},
				{
					"anonymous": false,
					"inputs": [
						{
							"indexed": false,
							"internalType": "address",
							"name": "editor",
							"type": "address"
						},
						{
							"indexed": false,
							"internalType": "enum Crowdfunding.State",
							"name": "newState",
							"type": "uint8"
						}
					],
					"name": "ChangeProjectState",
					"type": "event"
				},
				{
					"anonymous": false,
					"inputs": [
						{
							"indexed": false,
							"internalType": "address",
							"name": "funder",
							"type": "address"
						},
						{
							"indexed": false,
							"internalType": "uint256",
							"name": "amount",
							"type": "uint256"
						}
					],
					"name": "FundProject",
					"type": "event"
				},
				{
					"inputs": [
						{
							"internalType": "enum Crowdfunding.State",
							"name": "_newState",
							"type": "uint8"
						}
					],
					"name": "changeProjectState",
					"outputs": [],
					"stateMutability": "nonpayable",
					"type": "function"
				},
				{
					"inputs": [],
					"name": "fundProject",
					"outputs": [],
					"stateMutability": "payable",
					"type": "function"
				},
				{
					"inputs": [],
					"name": "project",
					"outputs": [
						{
							"internalType": "string",
							"name": "id",
							"type": "string"
						},
						{
							"internalType": "string",
							"name": "name",
							"type": "string"
						},
						{
							"internalType": "string",
							"name": "description",
							"type": "string"
						},
						{
							"internalType": "address payable",
							"name": "author",
							"type": "address"
						},
						{
							"internalType": "uint256",
							"name": "fundraisingGoal",
							"type": "uint256"
						},
						{
							"internalType": "enum Crowdfunding.State",
							"name": "state",
							"type": "uint8"
						},
						{
							"internalType": "uint256",
							"name": "funds",
							"type": "uint256"
						}
					],
					"stateMutability": "view",
					"type": "function"
				}
			],
			"devdoc": {
				"kind": "dev",
				"methods": {},
				"version": 1
			},
			"evm": {
				"assembly": "    /* \"contracts/Crowdfunding6.sol\":154:2364  contract Crowdfunding {... */\n  mstore(0x40, 0x80)\n    /* \"contracts/Crowdfunding6.sol\":449:668  constructor(string memory _id, string memory _name, string memory _description, uint _fundraisingGoal) {... */\n  callvalue\n  dup1\n  iszero\n  tag_1\n  jumpi\n  0x00\n  dup1\n  revert\ntag_1:\n  pop\n  mload(0x40)\n  sub(codesize, bytecodeSize)\n  dup1\n  bytecodeSize\n  dup4\n  codecopy\n  dup2\n  dup2\n  add\n  0x40\n  mstore\n  dup2\n  add\n  swap1\n  tag_2\n  swap2\n  swap1\n  tag_3\n  jump\t// in\ntag_2:\n    /* \"contracts/Crowdfunding6.sol\":572:661  Project(_id, _name, _description, payable(msg.sender), _fundraisingGoal, State.Opened, 0) */\n  mload(0x40)\n  dup1\n  0xe0\n  add\n  0x40\n  mstore\n  dup1\n    /* \"contracts/Crowdfunding6.sol\":580:583  _id */\n  dup6\n    /* \"contracts/Crowdfunding6.sol\":572:661  Project(_id, _name, _description, payable(msg.sender), _fundraisingGoal, State.Opened, 0) */\n  dup2\n  mstore\n  0x20\n  add\n    /* \"contracts/Crowdfunding6.sol\":585:590  _name */\n  dup5\n    /* \"contracts/Crowdfunding6.sol\":572:661  Project(_id, _name, _description, payable(msg.sender), _fundraisingGoal, State.Opened, 0) */\n  dup2\n  mstore\n  0x20\n  add\n    /* \"contracts/Crowdfunding6.sol\":592:604  _description */\n  dup4\n    /* \"contracts/Crowdfunding6.sol\":572:661  Project(_id, _name, _description, payable(msg.sender), _fundraisingGoal, State.Opened, 0) */\n  dup2\n  mstore\n  0x20\n  add\n    /* \"contracts/Crowdfunding6.sol\":614:624  msg.sender */\n  caller\n    /* \"contracts/Crowdfunding6.sol\":572:661  Project(_id, _name, _description, payable(msg.sender), _fundraisingGoal, State.Opened, 0) */\n  0xffffffffffffffffffffffffffffffffffffffff\n  and\n  dup2\n  mstore\n  0x20\n  add\n    /* \"contracts/Crowdfunding6.sol\":627:643  _fundraisingGoal */\n  dup3\n    /* \"contracts/Crowdfunding6.sol\":572:661  Project(_id, _name, _description, payable(msg.sender), _fundraisingGoal, State.Opened, 0) */\n  dup2\n  mstore\n  0x20\n  add\n    /* \"contracts/Crowdfunding6.sol\":645:657  State.Opened */\n  0x01\n    /* \"contracts/Crowdfunding6.sol\":572:661  Project(_id, _name, _description, payable(msg.sender), _fundraisingGoal, State.Opened, 0) */\n  dup1\n  dup2\n  gt\n  iszero\n  tag_6\n  jumpi\n  tag_7\n  tag_8\n  jump\t// in\ntag_7:\ntag_6:\n  dup2\n  mstore\n  0x20\n  add\n    /* \"contracts/Crowdfunding6.sol\":659:660  0 */\n  0x00\n    /* \"contracts/Crowdfunding6.sol\":572:661  Project(_id, _name, _description, payable(msg.sender), _fundraisingGoal, State.Opened, 0) */\n  dup2\n  mstore\n  pop\n    /* \"contracts/Crowdfunding6.sol\":562:569  project */\n  0x00\n    /* \"contracts/Crowdfunding6.sol\":562:661  project = Project(_id, _name, _description, payable(msg.sender), _fundraisingGoal, State.Opened, 0) */\n  dup1\n  dup3\n  add\n  mload\n  dup2\n  0x00\n  add\n  swap1\n  dup2\n  tag_9\n  swap2\n  swap1\n  tag_10\n  jump\t// in\ntag_9:\n  pop\n  0x20\n  dup3\n  add\n  mload\n  dup2\n  0x01\n  add\n  swap1\n  dup2\n  tag_11\n  swap2\n  swap1\n  tag_10\n  jump\t// in\ntag_11:\n  pop\n  0x40\n  dup3\n  add\n  mload\n  dup2\n  0x02\n  add\n  swap1\n  dup2\n  tag_12\n  swap2\n  swap1\n  tag_10\n  jump\t// in\ntag_12:\n  pop\n  0x60\n  dup3\n  add\n  mload\n  dup2\n  0x03\n  add\n  exp(0x0100, 0x00)\n  dup2\n  sload\n  dup2\n  0xffffffffffffffffffffffffffffffffffffffff\n  mul\n  not\n  and\n  swap1\n  dup4\n  0xffffffffffffffffffffffffffffffffffffffff\n  and\n  mul\n  or\n  swap1\n  sstore\n  pop\n  0x80\n  dup3\n  add\n  mload\n  dup2\n  0x04\n  add\n  sstore\n  0xa0\n  dup3\n  add\n  mload\n  dup2\n  0x05\n  add\n  exp(0x0100, 0x00)\n  dup2\n  sload\n  dup2\n  0xff\n  mul\n  not\n  and\n  swap1\n  dup4\n  0x01\n  dup2\n  gt\n  iszero\n  tag_13\n  jumpi\n  tag_14\n  tag_8\n  jump\t// in\ntag_14:\ntag_13:\n  mul\n  or\n  swap1\n  sstore\n  pop\n  0xc0\n  dup3\n  add\n  mload\n  dup2\n  0x06\n  add\n  sstore\n  swap1\n  pop\n  pop\n    /* \"contracts/Crowdfunding6.sol\":449:668  constructor(string memory _id, string memory _name, string memory _description, uint _fundraisingGoal) {... */\n  pop\n  pop\n  pop\n  pop\n    /* \"contracts/Crowdfunding6.sol\":154:2364  contract Crowdfunding {... */\n  jump(tag_15)\n    /* \"#utility.yul\":7:82   */\ntag_16:\n    /* \"#utility.yul\":40:46   */\n  0x00\n    /* \"#utility.yul\":73:75   */\n  0x40\n    /* \"#utility.yul\":67:76   */\n  mload\n    /* \"#utility.yul\":57:76   */\n  swap1\n  pop\n    /* \"#utility.yul\":7:82   */\n  swap1\n  jump\t// out\n    /* \"#utility.yul\":88:205   */\ntag_17:\n    /* \"#utility.yul\":197:198   */\n  0x00\n    /* \"#utility.yul\":194:195   */\n  dup1\n    /* \"#utility.yul\":187:199   */\n  revert\n    /* \"#utility.yul\":211:328   */\ntag_18:\n    /* \"#utility.yul\":320:321   */\n  0x00\n    /* \"#utility.yul\":317:318   */\n  dup1\n    /* \"#utility.yul\":310:322   */\n  revert\n    /* \"#utility.yul\":334:451   */\ntag_19:\n    /* \"#utility.yul\":443:444   */\n  0x00\n    /* \"#utility.yul\":440:441   */\n  dup1\n    /* \"#utility.yul\":433:445   */\n  revert\n    /* \"#utility.yul\":457:574   */\ntag_20:\n    /* \"#utility.yul\":566:567   */\n  0x00\n    /* \"#utility.yul\":563:564   */\n  dup1\n    /* \"#utility.yul\":556:568   */\n  revert\n    /* \"#utility.yul\":580:682   */\ntag_21:\n    /* \"#utility.yul\":621:627   */\n  0x00\n    /* \"#utility.yul\":672:674   */\n  0x1f\n    /* \"#utility.yul\":668:675   */\n  not\n    /* \"#utility.yul\":663:665   */\n  0x1f\n    /* \"#utility.yul\":656:661   */\n  dup4\n    /* \"#utility.yul\":652:666   */\n  add\n    /* \"#utility.yul\":648:676   */\n  and\n    /* \"#utility.yul\":638:676   */\n  swap1\n  pop\n    /* \"#utility.yul\":580:682   */\n  swap2\n  swap1\n  pop\n  jump\t// out\n    /* \"#utility.yul\":688:868   */\ntag_22:\n    /* \"#utility.yul\":736:813   */\n  0x4e487b7100000000000000000000000000000000000000000000000000000000\n    /* \"#utility.yul\":733:734   */\n  0x00\n    /* \"#utility.yul\":726:814   */\n  mstore\n    /* \"#utility.yul\":833:837   */\n  0x41\n    /* \"#utility.yul\":830:831   */\n  0x04\n    /* \"#utility.yul\":823:838   */\n  mstore\n    /* \"#utility.yul\":857:861   */\n  0x24\n    /* \"#utility.yul\":854:855   */\n  0x00\n    /* \"#utility.yul\":847:862   */\n  revert\n    /* \"#utility.yul\":874:1155   */\ntag_23:\n    /* \"#utility.yul\":957:984   */\n  tag_59\n    /* \"#utility.yul\":979:983   */\n  dup3\n    /* \"#utility.yul\":957:984   */\n  tag_21\n  jump\t// in\ntag_59:\n    /* \"#utility.yul\":949:955   */\n  dup2\n    /* \"#utility.yul\":945:985   */\n  add\n    /* \"#utility.yul\":1087:1093   */\n  dup2\n    /* \"#utility.yul\":1075:1085   */\n  dup2\n    /* \"#utility.yul\":1072:1094   */\n  lt\n    /* \"#utility.yul\":1051:1069   */\n  0xffffffffffffffff\n    /* \"#utility.yul\":1039:1049   */\n  dup3\n    /* \"#utility.yul\":1036:1070   */\n  gt\n    /* \"#utility.yul\":1033:1095   */\n  or\n    /* \"#utility.yul\":1030:1118   */\n  iszero\n  tag_60\n  jumpi\n    /* \"#utility.yul\":1098:1116   */\n  tag_61\n  tag_22\n  jump\t// in\ntag_61:\n    /* \"#utility.yul\":1030:1118   */\ntag_60:\n    /* \"#utility.yul\":1138:1148   */\n  dup1\n    /* \"#utility.yul\":1134:1136   */\n  0x40\n    /* \"#utility.yul\":1127:1149   */\n  mstore\n    /* \"#utility.yul\":917:1155   */\n  pop\n    /* \"#utility.yul\":874:1155   */\n  pop\n  pop\n  jump\t// out\n    /* \"#utility.yul\":1161:1290   */\ntag_24:\n    /* \"#utility.yul\":1195:1201   */\n  0x00\n    /* \"#utility.yul\":1222:1242   */\n  tag_63\n  tag_16\n  jump\t// in\ntag_63:\n    /* \"#utility.yul\":1212:1242   */\n  swap1\n  pop\n    /* \"#utility.yul\":1251:1284   */\n  tag_64\n    /* \"#utility.yul\":1279:1283   */\n  dup3\n    /* \"#utility.yul\":1271:1277   */\n  dup3\n    /* \"#utility.yul\":1251:1284   */\n  tag_23\n  jump\t// in\ntag_64:\n    /* \"#utility.yul\":1161:1290   */\n  swap2\n  swap1\n  pop\n  jump\t// out\n    /* \"#utility.yul\":1296:1604   */\ntag_25:\n    /* \"#utility.yul\":1358:1362   */\n  0x00\n    /* \"#utility.yul\":1448:1466   */\n  0xffffffffffffffff\n    /* \"#utility.yul\":1440:1446   */\n  dup3\n    /* \"#utility.yul\":1437:1467   */\n  gt\n    /* \"#utility.yul\":1434:1490   */\n  iszero\n  tag_66\n  jumpi\n    /* \"#utility.yul\":1470:1488   */\n  tag_67\n  tag_22\n  jump\t// in\ntag_67:\n    /* \"#utility.yul\":1434:1490   */\ntag_66:\n    /* \"#utility.yul\":1508:1537   */\n  tag_68\n    /* \"#utility.yul\":1530:1536   */\n  dup3\n    /* \"#utility.yul\":1508:1537   */\n  tag_21\n  jump\t// in\ntag_68:\n    /* \"#utility.yul\":1500:1537   */\n  swap1\n  pop\n    /* \"#utility.yul\":1592:1596   */\n  0x20\n    /* \"#utility.yul\":1586:1590   */\n  dup2\n    /* \"#utility.yul\":1582:1597   */\n  add\n    /* \"#utility.yul\":1574:1597   */\n  swap1\n  pop\n    /* \"#utility.yul\":1296:1604   */\n  swap2\n  swap1\n  pop\n  jump\t// out\n    /* \"#utility.yul\":1610:1856   */\ntag_26:\n    /* \"#utility.yul\":1691:1692   */\n  0x00\n    /* \"#utility.yul\":1701:1814   */\ntag_70:\n    /* \"#utility.yul\":1715:1721   */\n  dup4\n    /* \"#utility.yul\":1712:1713   */\n  dup2\n    /* \"#utility.yul\":1709:1722   */\n  lt\n    /* \"#utility.yul\":1701:1814   */\n  iszero\n  tag_72\n  jumpi\n    /* \"#utility.yul\":1800:1801   */\n  dup1\n    /* \"#utility.yul\":1795:1798   */\n  dup3\n    /* \"#utility.yul\":1791:1802   */\n  add\n    /* \"#utility.yul\":1785:1803   */\n  mload\n    /* \"#utility.yul\":1781:1782   */\n  dup2\n    /* \"#utility.yul\":1776:1779   */\n  dup5\n    /* \"#utility.yul\":1772:1783   */\n  add\n    /* \"#utility.yul\":1765:1804   */\n  mstore\n    /* \"#utility.yul\":1737:1739   */\n  0x20\n    /* \"#utility.yul\":1734:1735   */\n  dup2\n    /* \"#utility.yul\":1730:1740   */\n  add\n    /* \"#utility.yul\":1725:1740   */\n  swap1\n  pop\n    /* \"#utility.yul\":1701:1814   */\n  jump(tag_70)\ntag_72:\n    /* \"#utility.yul\":1848:1849   */\n  0x00\n    /* \"#utility.yul\":1839:1845   */\n  dup5\n    /* \"#utility.yul\":1834:1837   */\n  dup5\n    /* \"#utility.yul\":1830:1846   */\n  add\n    /* \"#utility.yul\":1823:1850   */\n  mstore\n    /* \"#utility.yul\":1672:1856   */\n  pop\n    /* \"#utility.yul\":1610:1856   */\n  pop\n  pop\n  pop\n  jump\t// out\n    /* \"#utility.yul\":1862:2296   */\ntag_27:\n    /* \"#utility.yul\":1951:1956   */\n  0x00\n    /* \"#utility.yul\":1976:2042   */\n  tag_74\n    /* \"#utility.yul\":1992:2041   */\n  tag_75\n    /* \"#utility.yul\":2034:2040   */\n  dup5\n    /* \"#utility.yul\":1992:2041   */\n  tag_25\n  jump\t// in\ntag_75:\n    /* \"#utility.yul\":1976:2042   */\n  tag_24\n  jump\t// in\ntag_74:\n    /* \"#utility.yul\":1967:2042   */\n  swap1\n  pop\n    /* \"#utility.yul\":2065:2071   */\n  dup3\n    /* \"#utility.yul\":2058:2063   */\n  dup2\n    /* \"#utility.yul\":2051:2072   */\n  mstore\n    /* \"#utility.yul\":2103:2107   */\n  0x20\n    /* \"#utility.yul\":2096:2101   */\n  dup2\n    /* \"#utility.yul\":2092:2108   */\n  add\n    /* \"#utility.yul\":2141:2144   */\n  dup5\n    /* \"#utility.yul\":2132:2138   */\n  dup5\n    /* \"#utility.yul\":2127:2130   */\n  dup5\n    /* \"#utility.yul\":2123:2139   */\n  add\n    /* \"#utility.yul\":2120:2145   */\n  gt\n    /* \"#utility.yul\":2117:2229   */\n  iszero\n  tag_76\n  jumpi\n    /* \"#utility.yul\":2148:2227   */\n  tag_77\n  tag_20\n  jump\t// in\ntag_77:\n    /* \"#utility.yul\":2117:2229   */\ntag_76:\n    /* \"#utility.yul\":2238:2290   */\n  tag_78\n    /* \"#utility.yul\":2283:2289   */\n  dup5\n    /* \"#utility.yul\":2278:2281   */\n  dup3\n    /* \"#utility.yul\":2273:2276   */\n  dup6\n    /* \"#utility.yul\":2238:2290   */\n  tag_26\n  jump\t// in\ntag_78:\n    /* \"#utility.yul\":1957:2296   */\n  pop\n    /* \"#utility.yul\":1862:2296   */\n  swap4\n  swap3\n  pop\n  pop\n  pop\n  jump\t// out\n    /* \"#utility.yul\":2316:2671   */\ntag_28:\n    /* \"#utility.yul\":2383:2388   */\n  0x00\n    /* \"#utility.yul\":2432:2435   */\n  dup3\n    /* \"#utility.yul\":2425:2429   */\n  0x1f\n    /* \"#utility.yul\":2417:2423   */\n  dup4\n    /* \"#utility.yul\":2413:2430   */\n  add\n    /* \"#utility.yul\":2409:2436   */\n  slt\n    /* \"#utility.yul\":2399:2521   */\n  tag_80\n  jumpi\n    /* \"#utility.yul\":2440:2519   */\n  tag_81\n  tag_19\n  jump\t// in\ntag_81:\n    /* \"#utility.yul\":2399:2521   */\ntag_80:\n    /* \"#utility.yul\":2550:2556   */\n  dup2\n    /* \"#utility.yul\":2544:2557   */\n  mload\n    /* \"#utility.yul\":2575:2665   */\n  tag_82\n    /* \"#utility.yul\":2661:2664   */\n  dup5\n    /* \"#utility.yul\":2653:2659   */\n  dup3\n    /* \"#utility.yul\":2646:2650   */\n  0x20\n    /* \"#utility.yul\":2638:2644   */\n  dup7\n    /* \"#utility.yul\":2634:2651   */\n  add\n    /* \"#utility.yul\":2575:2665   */\n  tag_27\n  jump\t// in\ntag_82:\n    /* \"#utility.yul\":2566:2665   */\n  swap2\n  pop\n    /* \"#utility.yul\":2389:2671   */\n  pop\n    /* \"#utility.yul\":2316:2671   */\n  swap3\n  swap2\n  pop\n  pop\n  jump\t// out\n    /* \"#utility.yul\":2677:2754   */\ntag_29:\n    /* \"#utility.yul\":2714:2721   */\n  0x00\n    /* \"#utility.yul\":2743:2748   */\n  dup2\n    /* \"#utility.yul\":2732:2748   */\n  swap1\n  pop\n    /* \"#utility.yul\":2677:2754   */\n  swap2\n  swap1\n  pop\n  jump\t// out\n    /* \"#utility.yul\":2760:2882   */\ntag_30:\n    /* \"#utility.yul\":2833:2857   */\n  tag_85\n    /* \"#utility.yul\":2851:2856   */\n  dup2\n    /* \"#utility.yul\":2833:2857   */\n  tag_29\n  jump\t// in\ntag_85:\n    /* \"#utility.yul\":2826:2831   */\n  dup2\n    /* \"#utility.yul\":2823:2858   */\n  eq\n    /* \"#utility.yul\":2813:2876   */\n  tag_86\n  jumpi\n    /* \"#utility.yul\":2872:2873   */\n  0x00\n    /* \"#utility.yul\":2869:2870   */\n  dup1\n    /* \"#utility.yul\":2862:2874   */\n  revert\n    /* \"#utility.yul\":2813:2876   */\ntag_86:\n    /* \"#utility.yul\":2760:2882   */\n  pop\n  jump\t// out\n    /* \"#utility.yul\":2888:3031   */\ntag_31:\n    /* \"#utility.yul\":2945:2950   */\n  0x00\n    /* \"#utility.yul\":2976:2982   */\n  dup2\n    /* \"#utility.yul\":2970:2983   */\n  mload\n    /* \"#utility.yul\":2961:2983   */\n  swap1\n  pop\n    /* \"#utility.yul\":2992:3025   */\n  tag_88\n    /* \"#utility.yul\":3019:3024   */\n  dup2\n    /* \"#utility.yul\":2992:3025   */\n  tag_30\n  jump\t// in\ntag_88:\n    /* \"#utility.yul\":2888:3031   */\n  swap3\n  swap2\n  pop\n  pop\n  jump\t// out\n    /* \"#utility.yul\":3037:4376   */\ntag_3:\n    /* \"#utility.yul\":3164:3170   */\n  0x00\n    /* \"#utility.yul\":3172:3178   */\n  dup1\n    /* \"#utility.yul\":3180:3186   */\n  0x00\n    /* \"#utility.yul\":3188:3194   */\n  dup1\n    /* \"#utility.yul\":3237:3240   */\n  0x80\n    /* \"#utility.yul\":3225:3234   */\n  dup6\n    /* \"#utility.yul\":3216:3223   */\n  dup8\n    /* \"#utility.yul\":3212:3235   */\n  sub\n    /* \"#utility.yul\":3208:3241   */\n  slt\n    /* \"#utility.yul\":3205:3325   */\n  iszero\n  tag_90\n  jumpi\n    /* \"#utility.yul\":3244:3323   */\n  tag_91\n  tag_17\n  jump\t// in\ntag_91:\n    /* \"#utility.yul\":3205:3325   */\ntag_90:\n    /* \"#utility.yul\":3385:3386   */\n  0x00\n    /* \"#utility.yul\":3374:3383   */\n  dup6\n    /* \"#utility.yul\":3370:3387   */\n  add\n    /* \"#utility.yul\":3364:3388   */\n  mload\n    /* \"#utility.yul\":3415:3433   */\n  0xffffffffffffffff\n    /* \"#utility.yul\":3407:3413   */\n  dup2\n    /* \"#utility.yul\":3404:3434   */\n  gt\n    /* \"#utility.yul\":3401:3518   */\n  iszero\n  tag_92\n  jumpi\n    /* \"#utility.yul\":3437:3516   */\n  tag_93\n  tag_18\n  jump\t// in\ntag_93:\n    /* \"#utility.yul\":3401:3518   */\ntag_92:\n    /* \"#utility.yul\":3542:3616   */\n  tag_94\n    /* \"#utility.yul\":3608:3615   */\n  dup8\n    /* \"#utility.yul\":3599:3605   */\n  dup3\n    /* \"#utility.yul\":3588:3597   */\n  dup9\n    /* \"#utility.yul\":3584:3606   */\n  add\n    /* \"#utility.yul\":3542:3616   */\n  tag_28\n  jump\t// in\ntag_94:\n    /* \"#utility.yul\":3532:3616   */\n  swap5\n  pop\n    /* \"#utility.yul\":3335:3626   */\n  pop\n    /* \"#utility.yul\":3686:3688   */\n  0x20\n    /* \"#utility.yul\":3675:3684   */\n  dup6\n    /* \"#utility.yul\":3671:3689   */\n  add\n    /* \"#utility.yul\":3665:3690   */\n  mload\n    /* \"#utility.yul\":3717:3735   */\n  0xffffffffffffffff\n    /* \"#utility.yul\":3709:3715   */\n  dup2\n    /* \"#utility.yul\":3706:3736   */\n  gt\n    /* \"#utility.yul\":3703:3820   */\n  iszero\n  tag_95\n  jumpi\n    /* \"#utility.yul\":3739:3818   */\n  tag_96\n  tag_18\n  jump\t// in\ntag_96:\n    /* \"#utility.yul\":3703:3820   */\ntag_95:\n    /* \"#utility.yul\":3844:3918   */\n  tag_97\n    /* \"#utility.yul\":3910:3917   */\n  dup8\n    /* \"#utility.yul\":3901:3907   */\n  dup3\n    /* \"#utility.yul\":3890:3899   */\n  dup9\n    /* \"#utility.yul\":3886:3908   */\n  add\n    /* \"#utility.yul\":3844:3918   */\n  tag_28\n  jump\t// in\ntag_97:\n    /* \"#utility.yul\":3834:3918   */\n  swap4\n  pop\n    /* \"#utility.yul\":3636:3928   */\n  pop\n    /* \"#utility.yul\":3988:3990   */\n  0x40\n    /* \"#utility.yul\":3977:3986   */\n  dup6\n    /* \"#utility.yul\":3973:3991   */\n  add\n    /* \"#utility.yul\":3967:3992   */\n  mload\n    /* \"#utility.yul\":4019:4037   */\n  0xffffffffffffffff\n    /* \"#utility.yul\":4011:4017   */\n  dup2\n    /* \"#utility.yul\":4008:4038   */\n  gt\n    /* \"#utility.yul\":4005:4122   */\n  iszero\n  tag_98\n  jumpi\n    /* \"#utility.yul\":4041:4120   */\n  tag_99\n  tag_18\n  jump\t// in\ntag_99:\n    /* \"#utility.yul\":4005:4122   */\ntag_98:\n    /* \"#utility.yul\":4146:4220   */\n  tag_100\n    /* \"#utility.yul\":4212:4219   */\n  dup8\n    /* \"#utility.yul\":4203:4209   */\n  dup3\n    /* \"#utility.yul\":4192:4201   */\n  dup9\n    /* \"#utility.yul\":4188:4210   */\n  add\n    /* \"#utility.yul\":4146:4220   */\n  tag_28\n  jump\t// in\ntag_100:\n    /* \"#utility.yul\":4136:4220   */\n  swap3\n  pop\n    /* \"#utility.yul\":3938:4230   */\n  pop\n    /* \"#utility.yul\":4269:4271   */\n  0x60\n    /* \"#utility.yul\":4295:4359   */\n  tag_101\n    /* \"#utility.yul\":4351:4358   */\n  dup8\n    /* \"#utility.yul\":4342:4348   */\n  dup3\n    /* \"#utility.yul\":4331:4340   */\n  dup9\n    /* \"#utility.yul\":4327:4349   */\n  add\n    /* \"#utility.yul\":4295:4359   */\n  tag_31\n  jump\t// in\ntag_101:\n    /* \"#utility.yul\":4285:4359   */\n  swap2\n  pop\n    /* \"#utility.yul\":4240:4369   */\n  pop\n    /* \"#utility.yul\":3037:4376   */\n  swap3\n  swap6\n  swap2\n  swap5\n  pop\n  swap3\n  pop\n  jump\t// out\n    /* \"#utility.yul\":4382:4562   */\ntag_8:\n    /* \"#utility.yul\":4430:4507   */\n  0x4e487b7100000000000000000000000000000000000000000000000000000000\n    /* \"#utility.yul\":4427:4428   */\n  0x00\n    /* \"#utility.yul\":4420:4508   */\n  mstore\n    /* \"#utility.yul\":4527:4531   */\n  0x21\n    /* \"#utility.yul\":4524:4525   */\n  0x04\n    /* \"#utility.yul\":4517:4532   */\n  mstore\n    /* \"#utility.yul\":4551:4555   */\n  0x24\n    /* \"#utility.yul\":4548:4549   */\n  0x00\n    /* \"#utility.yul\":4541:4556   */\n  revert\n    /* \"#utility.yul\":4568:4667   */\ntag_32:\n    /* \"#utility.yul\":4620:4626   */\n  0x00\n    /* \"#utility.yul\":4654:4659   */\n  dup2\n    /* \"#utility.yul\":4648:4660   */\n  mload\n    /* \"#utility.yul\":4638:4660   */\n  swap1\n  pop\n    /* \"#utility.yul\":4568:4667   */\n  swap2\n  swap1\n  pop\n  jump\t// out\n    /* \"#utility.yul\":4673:4853   */\ntag_33:\n    /* \"#utility.yul\":4721:4798   */\n  0x4e487b7100000000000000000000000000000000000000000000000000000000\n    /* \"#utility.yul\":4718:4719   */\n  0x00\n    /* \"#utility.yul\":4711:4799   */\n  mstore\n    /* \"#utility.yul\":4818:4822   */\n  0x22\n    /* \"#utility.yul\":4815:4816   */\n  0x04\n    /* \"#utility.yul\":4808:4823   */\n  mstore\n    /* \"#utility.yul\":4842:4846   */\n  0x24\n    /* \"#utility.yul\":4839:4840   */\n  0x00\n    /* \"#utility.yul\":4832:4847   */\n  revert\n    /* \"#utility.yul\":4859:5179   */\ntag_34:\n    /* \"#utility.yul\":4903:4909   */\n  0x00\n    /* \"#utility.yul\":4940:4941   */\n  0x02\n    /* \"#utility.yul\":4934:4938   */\n  dup3\n    /* \"#utility.yul\":4930:4942   */\n  div\n    /* \"#utility.yul\":4920:4942   */\n  swap1\n  pop\n    /* \"#utility.yul\":4987:4988   */\n  0x01\n    /* \"#utility.yul\":4981:4985   */\n  dup3\n    /* \"#utility.yul\":4977:4989   */\n  and\n    /* \"#utility.yul\":5008:5026   */\n  dup1\n    /* \"#utility.yul\":4998:5079   */\n  tag_106\n  jumpi\n    /* \"#utility.yul\":5064:5068   */\n  0x7f\n    /* \"#utility.yul\":5056:5062   */\n  dup3\n    /* \"#utility.yul\":5052:5069   */\n  and\n    /* \"#utility.yul\":5042:5069   */\n  swap2\n  pop\n    /* \"#utility.yul\":4998:5079   */\ntag_106:\n    /* \"#utility.yul\":5126:5128   */\n  0x20\n    /* \"#utility.yul\":5118:5124   */\n  dup3\n    /* \"#utility.yul\":5115:5129   */\n  lt\n    /* \"#utility.yul\":5095:5113   */\n  dup2\n    /* \"#utility.yul\":5092:5130   */\n  sub\n    /* \"#utility.yul\":5089:5173   */\n  tag_107\n  jumpi\n    /* \"#utility.yul\":5145:5163   */\n  tag_108\n  tag_33\n  jump\t// in\ntag_108:\n    /* \"#utility.yul\":5089:5173   */\ntag_107:\n    /* \"#utility.yul\":4910:5179   */\n  pop\n    /* \"#utility.yul\":4859:5179   */\n  swap2\n  swap1\n  pop\n  jump\t// out\n    /* \"#utility.yul\":5185:5326   */\ntag_35:\n    /* \"#utility.yul\":5234:5238   */\n  0x00\n    /* \"#utility.yul\":5257:5260   */\n  dup2\n    /* \"#utility.yul\":5249:5260   */\n  swap1\n  pop\n    /* \"#utility.yul\":5280:5283   */\n  dup2\n    /* \"#utility.yul\":5277:5278   */\n  0x00\n    /* \"#utility.yul\":5270:5284   */\n  mstore\n    /* \"#utility.yul\":5314:5318   */\n  0x20\n    /* \"#utility.yul\":5311:5312   */\n  0x00\n    /* \"#utility.yul\":5301:5319   */\n  keccak256\n    /* \"#utility.yul\":5293:5319   */\n  swap1\n  pop\n    /* \"#utility.yul\":5185:5326   */\n  swap2\n  swap1\n  pop\n  jump\t// out\n    /* \"#utility.yul\":5332:5425   */\ntag_36:\n    /* \"#utility.yul\":5369:5375   */\n  0x00\n    /* \"#utility.yul\":5416:5418   */\n  0x20\n    /* \"#utility.yul\":5411:5413   */\n  0x1f\n    /* \"#utility.yul\":5404:5409   */\n  dup4\n    /* \"#utility.yul\":5400:5414   */\n  add\n    /* \"#utility.yul\":5396:5419   */\n  div\n    /* \"#utility.yul\":5386:5419   */\n  swap1\n  pop\n    /* \"#utility.yul\":5332:5425   */\n  swap2\n  swap1\n  pop\n  jump\t// out\n    /* \"#utility.yul\":5431:5538   */\ntag_37:\n    /* \"#utility.yul\":5475:5483   */\n  0x00\n    /* \"#utility.yul\":5525:5530   */\n  dup3\n    /* \"#utility.yul\":5519:5523   */\n  dup3\n    /* \"#utility.yul\":5515:5531   */\n  shl\n    /* \"#utility.yul\":5494:5531   */\n  swap1\n  pop\n    /* \"#utility.yul\":5431:5538   */\n  swap3\n  swap2\n  pop\n  pop\n  jump\t// out\n    /* \"#utility.yul\":5544:5937   */\ntag_38:\n    /* \"#utility.yul\":5613:5619   */\n  0x00\n    /* \"#utility.yul\":5663:5664   */\n  0x08\n    /* \"#utility.yul\":5651:5661   */\n  dup4\n    /* \"#utility.yul\":5647:5665   */\n  mul\n    /* \"#utility.yul\":5686:5783   */\n  tag_113\n    /* \"#utility.yul\":5716:5782   */\n  0xffffffffffffffffffffffffffffffffffffffffffffffffffffffffffffffff\n    /* \"#utility.yul\":5705:5714   */\n  dup3\n    /* \"#utility.yul\":5686:5783   */\n  tag_37\n  jump\t// in\ntag_113:\n    /* \"#utility.yul\":5804:5843   */\n  tag_114\n    /* \"#utility.yul\":5834:5842   */\n  dup7\n    /* \"#utility.yul\":5823:5832   */\n  dup4\n    /* \"#utility.yul\":5804:5843   */\n  tag_37\n  jump\t// in\ntag_114:\n    /* \"#utility.yul\":5792:5843   */\n  swap6\n  pop\n    /* \"#utility.yul\":5876:5880   */\n  dup1\n    /* \"#utility.yul\":5872:5881   */\n  not\n    /* \"#utility.yul\":5865:5870   */\n  dup5\n    /* \"#utility.yul\":5861:5882   */\n  and\n    /* \"#utility.yul\":5852:5882   */\n  swap4\n  pop\n    /* \"#utility.yul\":5925:5929   */\n  dup1\n    /* \"#utility.yul\":5915:5923   */\n  dup7\n    /* \"#utility.yul\":5911:5930   */\n  and\n    /* \"#utility.yul\":5904:5909   */\n  dup5\n    /* \"#utility.yul\":5901:5931   */\n  or\n    /* \"#utility.yul\":5891:5931   */\n  swap3\n  pop\n    /* \"#utility.yul\":5620:5937   */\n  pop\n  pop\n    /* \"#utility.yul\":5544:5937   */\n  swap4\n  swap3\n  pop\n  pop\n  pop\n  jump\t// out\n    /* \"#utility.yul\":5943:6003   */\ntag_39:\n    /* \"#utility.yul\":5971:5974   */\n  0x00\n    /* \"#utility.yul\":5992:5997   */\n  dup2\n    /* \"#utility.yul\":5985:5997   */\n  swap1\n  pop\n    /* \"#utility.yul\":5943:6003   */\n  swap2\n  swap1\n  pop\n  jump\t// out\n    /* \"#utility.yul\":6009:6151   */\ntag_40:\n    /* \"#utility.yul\":6059:6068   */\n  0x00\n    /* \"#utility.yul\":6092:6145   */\n  tag_117\n    /* \"#utility.yul\":6110:6144   */\n  tag_118\n    /* \"#utility.yul\":6119:6143   */\n  tag_119\n    /* \"#utility.yul\":6137:6142   */\n  dup5\n    /* \"#utility.yul\":6119:6143   */\n  tag_29\n  jump\t// in\ntag_119:\n    /* \"#utility.yul\":6110:6144   */\n  tag_39\n  jump\t// in\ntag_118:\n    /* \"#utility.yul\":6092:6145   */\n  tag_29\n  jump\t// in\ntag_117:\n    /* \"#utility.yul\":6079:6145   */\n  swap1\n  pop\n    /* \"#utility.yul\":6009:6151   */\n  swap2\n  swap1\n  pop\n  jump\t// out\n    /* \"#utility.yul\":6157:6232   */\ntag_41:\n    /* \"#utility.yul\":6200:6203   */\n  0x00\n    /* \"#utility.yul\":6221:6226   */\n  dup2\n    /* \"#utility.yul\":6214:6226   */\n  swap1\n  pop\n    /* \"#utility.yul\":6157:6232   */\n  swap2\n  swap1\n  pop\n  jump\t// out\n    /* \"#utility.yul\":6238:6507   */\ntag_42:\n    /* \"#utility.yul\":6348:6387   */\n  tag_122\n    /* \"#utility.yul\":6379:6386   */\n  dup4\n    /* \"#utility.yul\":6348:6387   */\n  tag_40\n  jump\t// in\ntag_122:\n    /* \"#utility.yul\":6409:6500   */\n  tag_123\n    /* \"#utility.yul\":6458:6499   */\n  tag_124\n    /* \"#utility.yul\":6482:6498   */\n  dup3\n    /* \"#utility.yul\":6458:6499   */\n  tag_41\n  jump\t// in\ntag_124:\n    /* \"#utility.yul\":6450:6456   */\n  dup5\n    /* \"#utility.yul\":6443:6447   */\n  dup5\n    /* \"#utility.yul\":6437:6448   */\n  sload\n    /* \"#utility.yul\":6409:6500   */\n  tag_38\n  jump\t// in\ntag_123:\n    /* \"#utility.yul\":6403:6407   */\n  dup3\n    /* \"#utility.yul\":6396:6501   */\n  sstore\n    /* \"#utility.yul\":6314:6507   */\n  pop\n    /* \"#utility.yul\":6238:6507   */\n  pop\n  pop\n  pop\n  jump\t// out\n    /* \"#utility.yul\":6513:6586   */\ntag_43:\n    /* \"#utility.yul\":6558:6561   */\n  0x00\n    /* \"#utility.yul\":6513:6586   */\n  swap1\n  jump\t// out\n    /* \"#utility.yul\":6592:6781   */\ntag_44:\n    /* \"#utility.yul\":6669:6701   */\n  tag_127\n  tag_43\n  jump\t// in\ntag_127:\n    /* \"#utility.yul\":6710:6775   */\n  tag_128\n    /* \"#utility.yul\":6768:6774   */\n  dup2\n    /* \"#utility.yul\":6760:6766   */\n  dup5\n    /* \"#utility.yul\":6754:6758   */\n  dup5\n    /* \"#utility.yul\":6710:6775   */\n  tag_42\n  jump\t// in\ntag_128:\n    /* \"#utility.yul\":6645:6781   */\n  pop\n    /* \"#utility.yul\":6592:6781   */\n  pop\n  pop\n  jump\t// out\n    /* \"#utility.yul\":6787:6973   */\ntag_45:\n    /* \"#utility.yul\":6847:6967   */\ntag_130:\n    /* \"#utility.yul\":6864:6867   */\n  dup2\n    /* \"#utility.yul\":6857:6862   */\n  dup2\n    /* \"#utility.yul\":6854:6868   */\n  lt\n    /* \"#utility.yul\":6847:6967   */\n  iszero\n  tag_132\n  jumpi\n    /* \"#utility.yul\":6918:6957   */\n  tag_133\n    /* \"#utility.yul\":6955:6956   */\n  0x00\n    /* \"#utility.yul\":6948:6953   */\n  dup3\n    /* \"#utility.yul\":6918:6957   */\n  tag_44\n  jump\t// in\ntag_133:\n    /* \"#utility.yul\":6891:6892   */\n  0x01\n    /* \"#utility.yul\":6884:6889   */\n  dup2\n    /* \"#utility.yul\":6880:6893   */\n  add\n    /* \"#utility.yul\":6871:6893   */\n  swap1\n  pop\n    /* \"#utility.yul\":6847:6967   */\n  jump(tag_130)\ntag_132:\n    /* \"#utility.yul\":6787:6973   */\n  pop\n  pop\n  jump\t// out\n    /* \"#utility.yul\":6979:7522   */\ntag_46:\n    /* \"#utility.yul\":7080:7082   */\n  0x1f\n    /* \"#utility.yul\":7075:7078   */\n  dup3\n    /* \"#utility.yul\":7072:7083   */\n  gt\n    /* \"#utility.yul\":7069:7515   */\n  iszero\n  tag_135\n  jumpi\n    /* \"#utility.yul\":7114:7152   */\n  tag_136\n    /* \"#utility.yul\":7146:7151   */\n  dup2\n    /* \"#utility.yul\":7114:7152   */\n  tag_35\n  jump\t// in\ntag_136:\n    /* \"#utility.yul\":7198:7227   */\n  tag_137\n    /* \"#utility.yul\":7216:7226   */\n  dup5\n    /* \"#utility.yul\":7198:7227   */\n  tag_36\n  jump\t// in\ntag_137:\n    /* \"#utility.yul\":7188:7196   */\n  dup2\n    /* \"#utility.yul\":7184:7228   */\n  add\n    /* \"#utility.yul\":7381:7383   */\n  0x20\n    /* \"#utility.yul\":7369:7379   */\n  dup6\n    /* \"#utility.yul\":7366:7384   */\n  lt\n    /* \"#utility.yul\":7363:7412   */\n  iszero\n  tag_138\n  jumpi\n    /* \"#utility.yul\":7402:7410   */\n  dup2\n    /* \"#utility.yul\":7387:7410   */\n  swap1\n  pop\n    /* \"#utility.yul\":7363:7412   */\ntag_138:\n    /* \"#utility.yul\":7425:7505   */\n  tag_139\n    /* \"#utility.yul\":7481:7503   */\n  tag_140\n    /* \"#utility.yul\":7499:7502   */\n  dup6\n    /* \"#utility.yul\":7481:7503   */\n  tag_36\n  jump\t// in\ntag_140:\n    /* \"#utility.yul\":7471:7479   */\n  dup4\n    /* \"#utility.yul\":7467:7504   */\n  add\n    /* \"#utility.yul\":7454:7465   */\n  dup3\n    /* \"#utility.yul\":7425:7505   */\n  tag_45\n  jump\t// in\ntag_139:\n    /* \"#utility.yul\":7084:7515   */\n  pop\n  pop\n    /* \"#utility.yul\":7069:7515   */\ntag_135:\n    /* \"#utility.yul\":6979:7522   */\n  pop\n  pop\n  pop\n  jump\t// out\n    /* \"#utility.yul\":7528:7645   */\ntag_47:\n    /* \"#utility.yul\":7582:7590   */\n  0x00\n    /* \"#utility.yul\":7632:7637   */\n  dup3\n    /* \"#utility.yul\":7626:7630   */\n  dup3\n    /* \"#utility.yul\":7622:7638   */\n  shr\n    /* \"#utility.yul\":7601:7638   */\n  swap1\n  pop\n    /* \"#utility.yul\":7528:7645   */\n  swap3\n  swap2\n  pop\n  pop\n  jump\t// out\n    /* \"#utility.yul\":7651:7820   */\ntag_48:\n    /* \"#utility.yul\":7695:7701   */\n  0x00\n    /* \"#utility.yul\":7728:7779   */\n  tag_143\n    /* \"#utility.yul\":7776:7777   */\n  0x00\n    /* \"#utility.yul\":7772:7778   */\n  not\n    /* \"#utility.yul\":7764:7769   */\n  dup5\n    /* \"#utility.yul\":7761:7762   */\n  0x08\n    /* \"#utility.yul\":7757:7770   */\n  mul\n    /* \"#utility.yul\":7728:7779   */\n  tag_47\n  jump\t// in\ntag_143:\n    /* \"#utility.yul\":7724:7780   */\n  not\n    /* \"#utility.yul\":7809:7813   */\n  dup1\n    /* \"#utility.yul\":7803:7807   */\n  dup4\n    /* \"#utility.yul\":7799:7814   */\n  and\n    /* \"#utility.yul\":7789:7814   */\n  swap2\n  pop\n    /* \"#utility.yul\":7702:7820   */\n  pop\n    /* \"#utility.yul\":7651:7820   */\n  swap3\n  swap2\n  pop\n  pop\n  jump\t// out\n    /* \"#utility.yul\":7825:8120   */\ntag_49:\n    /* \"#utility.yul\":7901:7905   */\n  0x00\n    /* \"#utility.yul\":8047:8076   */\n  tag_145\n    /* \"#utility.yul\":8072:8075   */\n  dup4\n    /* \"#utility.yul\":8066:8070   */\n  dup4\n    /* \"#utility.yul\":8047:8076   */\n  tag_48\n  jump\t// in\ntag_145:\n    /* \"#utility.yul\":8039:8076   */\n  swap2\n  pop\n    /* \"#utility.yul\":8109:8112   */\n  dup3\n    /* \"#utility.yul\":8106:8107   */\n  0x02\n    /* \"#utility.yul\":8102:8113   */\n  mul\n    /* \"#utility.yul\":8096:8100   */\n  dup3\n    /* \"#utility.yul\":8093:8114   */\n  or\n    /* \"#utility.yul\":8085:8114   */\n  swap1\n  pop\n    /* \"#utility.yul\":7825:8120   */\n  swap3\n  swap2\n  pop\n  pop\n  jump\t// out\n    /* \"#utility.yul\":8125:9520   */\ntag_10:\n    /* \"#utility.yul\":8242:8279   */\n  tag_147\n    /* \"#utility.yul\":8275:8278   */\n  dup3\n    /* \"#utility.yul\":8242:8279   */\n  tag_32\n  jump\t// in\ntag_147:\n    /* \"#utility.yul\":8344:8362   */\n  0xffffffffffffffff\n    /* \"#utility.yul\":8336:8342   */\n  dup2\n    /* \"#utility.yul\":8333:8363   */\n  gt\n    /* \"#utility.yul\":8330:8386   */\n  iszero\n  tag_148\n  jumpi\n    /* \"#utility.yul\":8366:8384   */\n  tag_149\n  tag_22\n  jump\t// in\ntag_149:\n    /* \"#utility.yul\":8330:8386   */\ntag_148:\n    /* \"#utility.yul\":8410:8448   */\n  tag_150\n    /* \"#utility.yul\":8442:8446   */\n  dup3\n    /* \"#utility.yul\":8436:8447   */\n  sload\n    /* \"#utility.yul\":8410:8448   */\n  tag_34\n  jump\t// in\ntag_150:\n    /* \"#utility.yul\":8495:8562   */\n  tag_151\n    /* \"#utility.yul\":8555:8561   */\n  dup3\n    /* \"#utility.yul\":8547:8553   */\n  dup3\n    /* \"#utility.yul\":8541:8545   */\n  dup6\n    /* \"#utility.yul\":8495:8562   */\n  tag_46\n  jump\t// in\ntag_151:\n    /* \"#utility.yul\":8589:8590   */\n  0x00\n    /* \"#utility.yul\":8613:8617   */\n  0x20\n    /* \"#utility.yul\":8600:8617   */\n  swap1\n  pop\n    /* \"#utility.yul\":8645:8647   */\n  0x1f\n    /* \"#utility.yul\":8637:8643   */\n  dup4\n    /* \"#utility.yul\":8634:8648   */\n  gt\n    /* \"#utility.yul\":8662:8663   */\n  0x01\n    /* \"#utility.yul\":8657:9275   */\n  dup2\n  eq\n  tag_153\n  jumpi\n    /* \"#utility.yul\":9319:9320   */\n  0x00\n    /* \"#utility.yul\":9336:9342   */\n  dup5\n    /* \"#utility.yul\":9333:9410   */\n  iszero\n  tag_154\n  jumpi\n    /* \"#utility.yul\":9385:9394   */\n  dup3\n    /* \"#utility.yul\":9380:9383   */\n  dup8\n    /* \"#utility.yul\":9376:9395   */\n  add\n    /* \"#utility.yul\":9370:9396   */\n  mload\n    /* \"#utility.yul\":9361:9396   */\n  swap1\n  pop\n    /* \"#utility.yul\":9333:9410   */\ntag_154:\n    /* \"#utility.yul\":9436:9503   */\n  tag_155\n    /* \"#utility.yul\":9496:9502   */\n  dup6\n    /* \"#utility.yul\":9489:9494   */\n  dup3\n    /* \"#utility.yul\":9436:9503   */\n  tag_49\n  jump\t// in\ntag_155:\n    /* \"#utility.yul\":9430:9434   */\n  dup7\n    /* \"#utility.yul\":9423:9504   */\n  sstore\n    /* \"#utility.yul\":9292:9514   */\n  pop\n    /* \"#utility.yul\":8627:9514   */\n  jump(tag_152)\n    /* \"#utility.yul\":8657:9275   */\ntag_153:\n    /* \"#utility.yul\":8709:8713   */\n  0x1f\n    /* \"#utility.yul\":8705:8714   */\n  not\n    /* \"#utility.yul\":8697:8703   */\n  dup5\n    /* \"#utility.yul\":8693:8715   */\n  and\n    /* \"#utility.yul\":8743:8780   */\n  tag_156\n    /* \"#utility.yul\":8775:8779   */\n  dup7\n    /* \"#utility.yul\":8743:8780   */\n  tag_35\n  jump\t// in\ntag_156:\n    /* \"#utility.yul\":8802:8803   */\n  0x00\n    /* \"#utility.yul\":8816:9024   */\ntag_157:\n    /* \"#utility.yul\":8830:8837   */\n  dup3\n    /* \"#utility.yul\":8827:8828   */\n  dup2\n    /* \"#utility.yul\":8824:8838   */\n  lt\n    /* \"#utility.yul\":8816:9024   */\n  iszero\n  tag_159\n  jumpi\n    /* \"#utility.yul\":8909:8918   */\n  dup5\n    /* \"#utility.yul\":8904:8907   */\n  dup10\n    /* \"#utility.yul\":8900:8919   */\n  add\n    /* \"#utility.yul\":8894:8920   */\n  mload\n    /* \"#utility.yul\":8886:8892   */\n  dup3\n    /* \"#utility.yul\":8879:8921   */\n  sstore\n    /* \"#utility.yul\":8960:8961   */\n  0x01\n    /* \"#utility.yul\":8952:8958   */\n  dup3\n    /* \"#utility.yul\":8948:8962   */\n  add\n    /* \"#utility.yul\":8938:8962   */\n  swap2\n  pop\n    /* \"#utility.yul\":9007:9009   */\n  0x20\n    /* \"#utility.yul\":8996:9005   */\n  dup6\n    /* \"#utility.yul\":8992:9010   */\n  add\n    /* \"#utility.yul\":8979:9010   */\n  swap5\n  pop\n    /* \"#utility.yul\":8853:8857   */\n  0x20\n    /* \"#utility.yul\":8850:8851   */\n  dup2\n    /* \"#utility.yul\":8846:8858   */\n  add\n    /* \"#utility.yul\":8841:8858   */\n  swap1\n  pop\n    /* \"#utility.yul\":8816:9024   */\n  jump(tag_157)\ntag_159:\n    /* \"#utility.yul\":9052:9058   */\n  dup7\n    /* \"#utility.yul\":9043:9050   */\n  dup4\n    /* \"#utility.yul\":9040:9059   */\n  lt\n    /* \"#utility.yul\":9037:9216   */\n  iszero\n  tag_160\n  jumpi\n    /* \"#utility.yul\":9110:9119   */\n  dup5\n    /* \"#utility.yul\":9105:9108   */\n  dup10\n    /* \"#utility.yul\":9101:9120   */\n  add\n    /* \"#utility.yul\":9095:9121   */\n  mload\n    /* \"#utility.yul\":9153:9201   */\n  tag_161\n    /* \"#utility.yul\":9195:9199   */\n  0x1f\n    /* \"#utility.yul\":9187:9193   */\n  dup10\n    /* \"#utility.yul\":9183:9200   */\n  and\n    /* \"#utility.yul\":9172:9181   */\n  dup3\n    /* \"#utility.yul\":9153:9201   */\n  tag_48\n  jump\t// in\ntag_161:\n    /* \"#utility.yul\":9145:9151   */\n  dup4\n    /* \"#utility.yul\":9138:9202   */\n  sstore\n    /* \"#utility.yul\":9060:9216   */\n  pop\n    /* \"#utility.yul\":9037:9216   */\ntag_160:\n    /* \"#utility.yul\":9262:9263   */\n  0x01\n    /* \"#utility.yul\":9258:9259   */\n  0x02\n    /* \"#utility.yul\":9250:9256   */\n  dup9\n    /* \"#utility.yul\":9246:9260   */\n  mul\n    /* \"#utility.yul\":9242:9264   */\n  add\n    /* \"#utility.yul\":9236:9240   */\n  dup9\n    /* \"#utility.yul\":9229:9265   */\n  sstore\n    /* \"#utility.yul\":8664:9275   */\n  pop\n  pop\n  pop\n    /* \"#utility.yul\":8627:9514   */\ntag_152:\n  pop\n    /* \"#utility.yul\":8217:9520   */\n  pop\n  pop\n  pop\n    /* \"#utility.yul\":8125:9520   */\n  pop\n  pop\n  jump\t// out\n    /* \"contracts/Crowdfunding6.sol\":154:2364  contract Crowdfunding {... */\ntag_15:\n  dataSize(sub_0)\n  dup1\n  dataOffset(sub_0)\n  0x00\n  codecopy\n  0x00\n  return\nstop\n\nsub_0: assembly {\n        /* \"contracts/Crowdfunding6.sol\":154:2364  contract Crowdfunding {... */\n      mstore(0x40, 0x80)\n      jumpi(tag_1, lt(calldatasize, 0x04))\n      shr(0xe0, calldataload(0x00))\n      dup1\n      0x5699fadc\n      eq\n      tag_2\n      jumpi\n      dup1\n      0xd63dc661\n      eq\n      tag_3\n      jumpi\n      dup1\n      0xf60ca60d\n      eq\n      tag_4\n      jumpi\n    tag_1:\n      0x00\n      dup1\n      revert\n        /* \"contracts/Crowdfunding6.sol\":1849:2362  function changeProjectState(State _newState) public onlyOwner {... */\n    tag_2:\n      callvalue\n      dup1\n      iszero\n      tag_5\n      jumpi\n      0x00\n      dup1\n      revert\n    tag_5:\n      pop\n      tag_6\n      0x04\n      dup1\n      calldatasize\n      sub\n      dup2\n      add\n      swap1\n      tag_7\n      swap2\n      swap1\n      tag_8\n      jump\t// in\n    tag_7:\n      tag_9\n      jump\t// in\n    tag_6:\n      stop\n        /* \"contracts/Crowdfunding6.sol\":1175:1798  function fundProject() public payable notOwner {... */\n    tag_3:\n      tag_10\n      tag_11\n      jump\t// in\n    tag_10:\n      stop\n        /* \"contracts/Crowdfunding6.sol\":415:437  Project public project */\n    tag_4:\n      callvalue\n      dup1\n      iszero\n      tag_12\n      jumpi\n      0x00\n      dup1\n      revert\n    tag_12:\n      pop\n      tag_13\n      tag_14\n      jump\t// in\n    tag_13:\n      mload(0x40)\n      tag_15\n      swap8\n      swap7\n      swap6\n      swap5\n      swap4\n      swap3\n      swap2\n      swap1\n      tag_16\n      jump\t// in\n    tag_15:\n      mload(0x40)\n      dup1\n      swap2\n      sub\n      swap1\n      return\n        /* \"contracts/Crowdfunding6.sol\":1849:2362  function changeProjectState(State _newState) public onlyOwner {... */\n    tag_9:\n        /* \"contracts/Crowdfunding6.sol\":905:912  project */\n      0x00\n        /* \"contracts/Crowdfunding6.sol\":905:919  project.author */\n      0x03\n      add\n      0x00\n      swap1\n      sload\n      swap1\n      0x0100\n      exp\n      swap1\n      div\n      0xffffffffffffffffffffffffffffffffffffffff\n      and\n        /* \"contracts/Crowdfunding6.sol\":891:919  msg.sender == project.author */\n      0xffffffffffffffffffffffffffffffffffffffff\n      and\n        /* \"contracts/Crowdfunding6.sol\":891:901  msg.sender */\n      caller\n        /* \"contracts/Crowdfunding6.sol\":891:919  msg.sender == project.author */\n      0xffffffffffffffffffffffffffffffffffffffff\n      and\n      eq\n        /* \"contracts/Crowdfunding6.sol\":870:989  require(... */\n      tag_18\n      jumpi\n      mload(0x40)\n      0x08c379a000000000000000000000000000000000000000000000000000000000\n      dup2\n      mstore\n      0x04\n      add\n      tag_19\n      swap1\n      tag_20\n      jump\t// in\n    tag_19:\n      mload(0x40)\n      dup1\n      swap2\n      sub\n      swap1\n      revert\n    tag_18:\n        /* \"contracts/Crowdfunding6.sol\":1955:1967  State.Opened */\n      0x01\n        /* \"contracts/Crowdfunding6.sol\":1942:1967  _newState == State.Opened */\n      dup1\n      dup2\n      gt\n      iszero\n      tag_22\n      jumpi\n      tag_23\n      tag_24\n      jump\t// in\n    tag_23:\n    tag_22:\n        /* \"contracts/Crowdfunding6.sol\":1942:1951  _newState */\n      dup2\n        /* \"contracts/Crowdfunding6.sol\":1942:1967  _newState == State.Opened */\n      0x01\n      dup2\n      gt\n      iszero\n      tag_25\n      jumpi\n      tag_26\n      tag_24\n      jump\t// in\n    tag_26:\n    tag_25:\n      eq\n        /* \"contracts/Crowdfunding6.sol\":1942:1996  _newState == State.Opened || _newState == State.Closed */\n      dup1\n      tag_27\n      jumpi\n      pop\n        /* \"contracts/Crowdfunding6.sol\":1984:1996  State.Closed */\n      0x00\n        /* \"contracts/Crowdfunding6.sol\":1971:1996  _newState == State.Closed */\n      0x01\n      dup2\n      gt\n      iszero\n      tag_28\n      jumpi\n      tag_29\n      tag_24\n      jump\t// in\n    tag_29:\n    tag_28:\n        /* \"contracts/Crowdfunding6.sol\":1971:1980  _newState */\n      dup2\n        /* \"contracts/Crowdfunding6.sol\":1971:1996  _newState == State.Closed */\n      0x01\n      dup2\n      gt\n      iszero\n      tag_30\n      jumpi\n      tag_31\n      tag_24\n      jump\t// in\n    tag_31:\n    tag_30:\n      eq\n        /* \"contracts/Crowdfunding6.sol\":1942:1996  _newState == State.Opened || _newState == State.Closed */\n    tag_27:\n        /* \"contracts/Crowdfunding6.sol\":1921:2052  require(... */\n      tag_32\n      jumpi\n      mload(0x40)\n      0x08c379a000000000000000000000000000000000000000000000000000000000\n      dup2\n      mstore\n      0x04\n      add\n      tag_33\n      swap1\n      tag_34\n      jump\t// in\n    tag_33:\n      mload(0x40)\n      dup1\n      swap2\n      sub\n      swap1\n      revert\n    tag_32:\n        /* \"contracts/Crowdfunding6.sol\":2153:2160  project */\n      0x00\n        /* \"contracts/Crowdfunding6.sol\":2153:2166  project.state */\n      0x05\n      add\n      0x00\n      swap1\n      sload\n      swap1\n      0x0100\n      exp\n      swap1\n      div\n      0xff\n      and\n        /* \"contracts/Crowdfunding6.sol\":2136:2167  abi.encodePacked(project.state) */\n      add(0x20, mload(0x40))\n      tag_35\n      swap2\n      swap1\n      tag_36\n      jump\t// in\n    tag_35:\n      mload(0x40)\n      0x20\n      dup2\n      dup4\n      sub\n      sub\n      dup2\n      mstore\n      swap1\n      0x40\n      mstore\n        /* \"contracts/Crowdfunding6.sol\":2126:2168  keccak256(abi.encodePacked(project.state)) */\n      dup1\n      mload\n      swap1\n      0x20\n      add\n      keccak256\n        /* \"contracts/Crowdfunding6.sol\":2111:2120  _newState */\n      dup2\n        /* \"contracts/Crowdfunding6.sol\":2094:2121  abi.encodePacked(_newState) */\n      add(0x20, mload(0x40))\n      tag_37\n      swap2\n      swap1\n      tag_36\n      jump\t// in\n    tag_37:\n      mload(0x40)\n      0x20\n      dup2\n      dup4\n      sub\n      sub\n      dup2\n      mstore\n      swap1\n      0x40\n      mstore\n        /* \"contracts/Crowdfunding6.sol\":2084:2122  keccak256(abi.encodePacked(_newState)) */\n      dup1\n      mload\n      swap1\n      0x20\n      add\n      keccak256\n        /* \"contracts/Crowdfunding6.sol\":2084:2168  keccak256(abi.encodePacked(_newState)) != keccak256(abi.encodePacked(project.state)) */\n      sub\n        /* \"contracts/Crowdfunding6.sol\":2063:2259  require(... */\n      tag_38\n      jumpi\n      mload(0x40)\n      0x08c379a000000000000000000000000000000000000000000000000000000000\n      dup2\n      mstore\n      0x04\n      add\n      tag_39\n      swap1\n      tag_40\n      jump\t// in\n    tag_39:\n      mload(0x40)\n      dup1\n      swap2\n      sub\n      swap1\n      revert\n    tag_38:\n        /* \"contracts/Crowdfunding6.sol\":2286:2295  _newState */\n      dup1\n        /* \"contracts/Crowdfunding6.sol\":2270:2277  project */\n      0x00\n        /* \"contracts/Crowdfunding6.sol\":2270:2283  project.state */\n      0x05\n      add\n      0x00\n        /* \"contracts/Crowdfunding6.sol\":2270:2295  project.state = _newState */\n      0x0100\n      exp\n      dup2\n      sload\n      dup2\n      0xff\n      mul\n      not\n      and\n      swap1\n      dup4\n      0x01\n      dup2\n      gt\n      iszero\n      tag_41\n      jumpi\n      tag_42\n      tag_24\n      jump\t// in\n    tag_42:\n    tag_41:\n      mul\n      or\n      swap1\n      sstore\n      pop\n        /* \"contracts/Crowdfunding6.sol\":2310:2355  ChangeProjectState(msg.sender, project.state) */\n      0xac1b5c5df620e722e8a652942d621721fafecfe339e66b5db61ba54c5e530b29\n        /* \"contracts/Crowdfunding6.sol\":2329:2339  msg.sender */\n      caller\n        /* \"contracts/Crowdfunding6.sol\":2341:2348  project */\n      0x00\n        /* \"contracts/Crowdfunding6.sol\":2341:2354  project.state */\n      0x05\n      add\n      0x00\n      swap1\n      sload\n      swap1\n      0x0100\n      exp\n      swap1\n      div\n      0xff\n      and\n        /* \"contracts/Crowdfunding6.sol\":2310:2355  ChangeProjectState(msg.sender, project.state) */\n      mload(0x40)\n      tag_43\n      swap3\n      swap2\n      swap1\n      tag_44\n      jump\t// in\n    tag_43:\n      mload(0x40)\n      dup1\n      swap2\n      sub\n      swap1\n      log1\n        /* \"contracts/Crowdfunding6.sol\":1849:2362  function changeProjectState(State _newState) public onlyOwner {... */\n      pop\n      jump\t// out\n        /* \"contracts/Crowdfunding6.sol\":1175:1798  function fundProject() public payable notOwner {... */\n    tag_11:\n        /* \"contracts/Crowdfunding6.sol\":1079:1086  project */\n      0x00\n        /* \"contracts/Crowdfunding6.sol\":1079:1093  project.author */\n      0x03\n      add\n      0x00\n      swap1\n      sload\n      swap1\n      0x0100\n      exp\n      swap1\n      div\n      0xffffffffffffffffffffffffffffffffffffffff\n      and\n        /* \"contracts/Crowdfunding6.sol\":1065:1093  msg.sender != project.author */\n      0xffffffffffffffffffffffffffffffffffffffff\n      and\n        /* \"contracts/Crowdfunding6.sol\":1065:1075  msg.sender */\n      caller\n        /* \"contracts/Crowdfunding6.sol\":1065:1093  msg.sender != project.author */\n      0xffffffffffffffffffffffffffffffffffffffff\n      and\n      sub\n        /* \"contracts/Crowdfunding6.sol\":1044:1151  require(... */\n      tag_46\n      jumpi\n      mload(0x40)\n      0x08c379a000000000000000000000000000000000000000000000000000000000\n      dup2\n      mstore\n      0x04\n      add\n      tag_47\n      swap1\n      tag_48\n      jump\t// in\n    tag_47:\n      mload(0x40)\n      dup1\n      swap2\n      sub\n      swap1\n      revert\n    tag_46:\n        /* \"contracts/Crowdfunding6.sol\":1309:1335  abi.encodePacked('Closed') */\n      add(0x20, mload(0x40))\n      tag_50\n      swap1\n      tag_51\n      jump\t// in\n    tag_50:\n      mload(0x40)\n      0x20\n      dup2\n      dup4\n      sub\n      sub\n      dup2\n      mstore\n      swap1\n      0x40\n      mstore\n        /* \"contracts/Crowdfunding6.sol\":1299:1336  keccak256(abi.encodePacked('Closed')) */\n      dup1\n      mload\n      swap1\n      0x20\n      add\n      keccak256\n        /* \"contracts/Crowdfunding6.sol\":1280:1287  project */\n      0x00\n        /* \"contracts/Crowdfunding6.sol\":1280:1293  project.state */\n      0x05\n      add\n      0x00\n      swap1\n      sload\n      swap1\n      0x0100\n      exp\n      swap1\n      div\n      0xff\n      and\n        /* \"contracts/Crowdfunding6.sol\":1263:1294  abi.encodePacked(project.state) */\n      add(0x20, mload(0x40))\n      tag_52\n      swap2\n      swap1\n      tag_36\n      jump\t// in\n    tag_52:\n      mload(0x40)\n      0x20\n      dup2\n      dup4\n      sub\n      sub\n      dup2\n      mstore\n      swap1\n      0x40\n      mstore\n        /* \"contracts/Crowdfunding6.sol\":1253:1295  keccak256(abi.encodePacked(project.state)) */\n      dup1\n      mload\n      swap1\n      0x20\n      add\n      keccak256\n        /* \"contracts/Crowdfunding6.sol\":1253:1336  keccak256(abi.encodePacked(project.state)) != keccak256(abi.encodePacked('Closed')) */\n      sub\n        /* \"contracts/Crowdfunding6.sol\":1232:1393  require(... */\n      tag_53\n      jumpi\n      mload(0x40)\n      0x08c379a000000000000000000000000000000000000000000000000000000000\n      dup2\n      mstore\n      0x04\n      add\n      tag_54\n      swap1\n      tag_55\n      jump\t// in\n    tag_54:\n      mload(0x40)\n      dup1\n      swap2\n      sub\n      swap1\n      revert\n    tag_53:\n        /* \"contracts/Crowdfunding6.sol\":1437:1438  0 */\n      0x00\n        /* \"contracts/Crowdfunding6.sol\":1425:1434  msg.value */\n      callvalue\n        /* \"contracts/Crowdfunding6.sol\":1425:1438  msg.value > 0 */\n      gt\n        /* \"contracts/Crowdfunding6.sol\":1404:1517  require(... */\n      tag_56\n      jumpi\n      mload(0x40)\n      0x08c379a000000000000000000000000000000000000000000000000000000000\n      dup2\n      mstore\n      0x04\n      add\n      tag_57\n      swap1\n      tag_58\n      jump\t// in\n    tag_57:\n      mload(0x40)\n      dup1\n      swap2\n      sub\n      swap1\n      revert\n    tag_56:\n        /* \"contracts/Crowdfunding6.sol\":1589:1596  project */\n      0x00\n        /* \"contracts/Crowdfunding6.sol\":1589:1602  project.funds */\n      0x06\n      add\n      sload\n        /* \"contracts/Crowdfunding6.sol\":1577:1586  msg.value */\n      callvalue\n        /* \"contracts/Crowdfunding6.sol\":1577:1602  msg.value + project.funds */\n      tag_59\n      swap2\n      swap1\n      tag_60\n      jump\t// in\n    tag_59:\n        /* \"contracts/Crowdfunding6.sol\":1549:1556  project */\n      0x00\n        /* \"contracts/Crowdfunding6.sol\":1549:1572  project.fundraisingGoal */\n      0x04\n      add\n      sload\n        /* \"contracts/Crowdfunding6.sol\":1549:1603  project.fundraisingGoal >= (msg.value + project.funds) */\n      lt\n      iszero\n        /* \"contracts/Crowdfunding6.sol\":1528:1661  require(... */\n      tag_61\n      jumpi\n      mload(0x40)\n      0x08c379a000000000000000000000000000000000000000000000000000000000\n      dup2\n      mstore\n      0x04\n      add\n      tag_62\n      swap1\n      tag_63\n      jump\t// in\n    tag_62:\n      mload(0x40)\n      dup1\n      swap2\n      sub\n      swap1\n      revert\n    tag_61:\n        /* \"contracts/Crowdfunding6.sol\":1672:1679  project */\n      0x00\n        /* \"contracts/Crowdfunding6.sol\":1672:1686  project.author */\n      0x03\n      add\n      0x00\n      swap1\n      sload\n      swap1\n      0x0100\n      exp\n      swap1\n      div\n      0xffffffffffffffffffffffffffffffffffffffff\n      and\n        /* \"contracts/Crowdfunding6.sol\":1672:1695  project.author.transfer */\n      0xffffffffffffffffffffffffffffffffffffffff\n      and\n        /* \"contracts/Crowdfunding6.sol\":1672:1706  project.author.transfer(msg.value) */\n      0x08fc\n        /* \"contracts/Crowdfunding6.sol\":1696:1705  msg.value */\n      callvalue\n        /* \"contracts/Crowdfunding6.sol\":1672:1706  project.author.transfer(msg.value) */\n      swap1\n      dup2\n      iszero\n      mul\n      swap1\n      mload(0x40)\n      0x00\n      mload(0x40)\n      dup1\n      dup4\n      sub\n      dup2\n      dup6\n      dup9\n      dup9\n      call\n      swap4\n      pop\n      pop\n      pop\n      pop\n      iszero\n      dup1\n      iszero\n      tag_65\n      jumpi\n      returndatasize\n      0x00\n      dup1\n      returndatacopy\n      revert(0x00, returndatasize)\n    tag_65:\n      pop\n        /* \"contracts/Crowdfunding6.sol\":1733:1742  msg.value */\n      callvalue\n        /* \"contracts/Crowdfunding6.sol\":1716:1723  project */\n      0x00\n        /* \"contracts/Crowdfunding6.sol\":1716:1729  project.funds */\n      0x06\n      add\n      0x00\n        /* \"contracts/Crowdfunding6.sol\":1716:1742  project.funds += msg.value */\n      dup3\n      dup3\n      sload\n      tag_66\n      swap2\n      swap1\n      tag_60\n      jump\t// in\n    tag_66:\n      swap3\n      pop\n      pop\n      dup2\n      swap1\n      sstore\n      pop\n        /* \"contracts/Crowdfunding6.sol\":1757:1791  FundProject(msg.sender, msg.value) */\n      0x9dbcb1d3adc1305990f05754143d0baf2f49fa6124b6e9f9ee509b31f2ad300b\n        /* \"contracts/Crowdfunding6.sol\":1769:1779  msg.sender */\n      caller\n        /* \"contracts/Crowdfunding6.sol\":1781:1790  msg.value */\n      callvalue\n        /* \"contracts/Crowdfunding6.sol\":1757:1791  FundProject(msg.sender, msg.value) */\n      mload(0x40)\n      tag_67\n      swap3\n      swap2\n      swap1\n      tag_68\n      jump\t// in\n    tag_67:\n      mload(0x40)\n      dup1\n      swap2\n      sub\n      swap1\n      log1\n        /* \"contracts/Crowdfunding6.sol\":1175:1798  function fundProject() public payable notOwner {... */\n      jump\t// out\n        /* \"contracts/Crowdfunding6.sol\":415:437  Project public project */\n    tag_14:\n      0x00\n      dup1\n      0x00\n      add\n      dup1\n      sload\n      tag_69\n      swap1\n      tag_70\n      jump\t// in\n    tag_69:\n      dup1\n      0x1f\n      add\n      0x20\n      dup1\n      swap2\n      div\n      mul\n      0x20\n      add\n      mload(0x40)\n      swap1\n      dup2\n      add\n      0x40\n      mstore\n      dup1\n      swap3\n      swap2\n      swap1\n      dup2\n      dup2\n      mstore\n      0x20\n      add\n      dup3\n      dup1\n      sload\n      tag_71\n      swap1\n      tag_70\n      jump\t// in\n    tag_71:\n      dup1\n      iszero\n      tag_72\n      jumpi\n      dup1\n      0x1f\n      lt\n      tag_73\n      jumpi\n      0x0100\n      dup1\n      dup4\n      sload\n      div\n      mul\n      dup4\n      mstore\n      swap2\n      0x20\n      add\n      swap2\n      jump(tag_72)\n    tag_73:\n      dup3\n      add\n      swap2\n      swap1\n      0x00\n      mstore\n      keccak256(0x00, 0x20)\n      swap1\n    tag_74:\n      dup2\n      sload\n      dup2\n      mstore\n      swap1\n      0x01\n      add\n      swap1\n      0x20\n      add\n      dup1\n      dup4\n      gt\n      tag_74\n      jumpi\n      dup3\n      swap1\n      sub\n      0x1f\n      and\n      dup3\n      add\n      swap2\n    tag_72:\n      pop\n      pop\n      pop\n      pop\n      pop\n      swap1\n      dup1\n      0x01\n      add\n      dup1\n      sload\n      tag_75\n      swap1\n      tag_70\n      jump\t// in\n    tag_75:\n      dup1\n      0x1f\n      add\n      0x20\n      dup1\n      swap2\n      div\n      mul\n      0x20\n      add\n      mload(0x40)\n      swap1\n      dup2\n      add\n      0x40\n      mstore\n      dup1\n      swap3\n      swap2\n      swap1\n      dup2\n      dup2\n      mstore\n      0x20\n      add\n      dup3\n      dup1\n      sload\n      tag_76\n      swap1\n      tag_70\n      jump\t// in\n    tag_76:\n      dup1\n      iszero\n      tag_77\n      jumpi\n      dup1\n      0x1f\n      lt\n      tag_78\n      jumpi\n      0x0100\n      dup1\n      dup4\n      sload\n      div\n      mul\n      dup4\n      mstore\n      swap2\n      0x20\n      add\n      swap2\n      jump(tag_77)\n    tag_78:\n      dup3\n      add\n      swap2\n      swap1\n      0x00\n      mstore\n      keccak256(0x00, 0x20)\n      swap1\n    tag_79:\n      dup2\n      sload\n      dup2\n      mstore\n      swap1\n      0x01\n      add\n      swap1\n      0x20\n      add\n      dup1\n      dup4\n      gt\n      tag_79\n      jumpi\n      dup3\n      swap1\n      sub\n      0x1f\n      and\n      dup3\n      add\n      swap2\n    tag_77:\n      pop\n      pop\n      pop\n      pop\n      pop\n      swap1\n      dup1\n      0x02\n      add\n      dup1\n      sload\n      tag_80\n      swap1\n      tag_70\n      jump\t// in\n    tag_80:\n      dup1\n      0x1f\n      add\n      0x20\n      dup1\n      swap2\n      div\n      mul\n      0x20\n      add\n      mload(0x40)\n      swap1\n      dup2\n      add\n      0x40\n      mstore\n      dup1\n      swap3\n      swap2\n      swap1\n      dup2\n      dup2\n      mstore\n      0x20\n      add\n      dup3\n      dup1\n      sload\n      tag_81\n      swap1\n      tag_70\n      jump\t// in\n    tag_81:\n      dup1\n      iszero\n      tag_82\n      jumpi\n      dup1\n      0x1f\n      lt\n      tag_83\n      jumpi\n      0x0100\n      dup1\n      dup4\n      sload\n      div\n      mul\n      dup4\n      mstore\n      swap2\n      0x20\n      add\n      swap2\n      jump(tag_82)\n    tag_83:\n      dup3\n      add\n      swap2\n      swap1\n      0x00\n      mstore\n      keccak256(0x00, 0x20)\n      swap1\n    tag_84:\n      dup2\n      sload\n      dup2\n      mstore\n      swap1\n      0x01\n      add\n      swap1\n      0x20\n      add\n      dup1\n      dup4\n      gt\n      tag_84\n      jumpi\n      dup3\n      swap1\n      sub\n      0x1f\n      and\n      dup3\n      add\n      swap2\n    tag_82:\n      pop\n      pop\n      pop\n      pop\n      pop\n      swap1\n      dup1\n      0x03\n      add\n      0x00\n      swap1\n      sload\n      swap1\n      0x0100\n      exp\n      swap1\n      div\n      0xffffffffffffffffffffffffffffffffffffffff\n      and\n      swap1\n      dup1\n      0x04\n      add\n      sload\n      swap1\n      dup1\n      0x05\n      add\n      0x00\n      swap1\n      sload\n      swap1\n      0x0100\n      exp\n      swap1\n      div\n      0xff\n      and\n      swap1\n      dup1\n      0x06\n      add\n      sload\n      swap1\n      pop\n      dup8\n      jump\t// out\n        /* \"#utility.yul\":88:205   */\n    tag_86:\n        /* \"#utility.yul\":197:198   */\n      0x00\n        /* \"#utility.yul\":194:195   */\n      dup1\n        /* \"#utility.yul\":187:199   */\n      revert\n        /* \"#utility.yul\":334:440   */\n    tag_88:\n        /* \"#utility.yul\":414:415   */\n      0x02\n        /* \"#utility.yul\":407:412   */\n      dup2\n        /* \"#utility.yul\":404:416   */\n      lt\n        /* \"#utility.yul\":394:434   */\n      tag_133\n      jumpi\n        /* \"#utility.yul\":430:431   */\n      0x00\n        /* \"#utility.yul\":427:428   */\n      dup1\n        /* \"#utility.yul\":420:432   */\n      revert\n        /* \"#utility.yul\":394:434   */\n    tag_133:\n        /* \"#utility.yul\":334:440   */\n      pop\n      jump\t// out\n        /* \"#utility.yul\":446:599   */\n    tag_89:\n        /* \"#utility.yul\":499:504   */\n      0x00\n        /* \"#utility.yul\":537:543   */\n      dup2\n        /* \"#utility.yul\":524:544   */\n      calldataload\n        /* \"#utility.yul\":515:544   */\n      swap1\n      pop\n        /* \"#utility.yul\":553:593   */\n      tag_135\n        /* \"#utility.yul\":587:592   */\n      dup2\n        /* \"#utility.yul\":553:593   */\n      tag_88\n      jump\t// in\n    tag_135:\n        /* \"#utility.yul\":446:599   */\n      swap3\n      swap2\n      pop\n      pop\n      jump\t// out\n        /* \"#utility.yul\":605:948   */\n    tag_8:\n        /* \"#utility.yul\":671:677   */\n      0x00\n        /* \"#utility.yul\":720:722   */\n      0x20\n        /* \"#utility.yul\":708:717   */\n      dup3\n        /* \"#utility.yul\":699:706   */\n      dup5\n        /* \"#utility.yul\":695:718   */\n      sub\n        /* \"#utility.yul\":691:723   */\n      slt\n        /* \"#utility.yul\":688:807   */\n      iszero\n      tag_137\n      jumpi\n        /* \"#utility.yul\":726:805   */\n      tag_138\n      tag_86\n      jump\t// in\n    tag_138:\n        /* \"#utility.yul\":688:807   */\n    tag_137:\n        /* \"#utility.yul\":846:847   */\n      0x00\n        /* \"#utility.yul\":871:931   */\n      tag_139\n        /* \"#utility.yul\":923:930   */\n      dup5\n        /* \"#utility.yul\":914:920   */\n      dup3\n        /* \"#utility.yul\":903:912   */\n      dup6\n        /* \"#utility.yul\":899:921   */\n      add\n        /* \"#utility.yul\":871:931   */\n      tag_89\n      jump\t// in\n    tag_139:\n        /* \"#utility.yul\":861:931   */\n      swap2\n      pop\n        /* \"#utility.yul\":817:941   */\n      pop\n        /* \"#utility.yul\":605:948   */\n      swap3\n      swap2\n      pop\n      pop\n      jump\t// out\n        /* \"#utility.yul\":954:1053   */\n    tag_90:\n        /* \"#utility.yul\":1006:1012   */\n      0x00\n        /* \"#utility.yul\":1040:1045   */\n      dup2\n        /* \"#utility.yul\":1034:1046   */\n      mload\n        /* \"#utility.yul\":1024:1046   */\n      swap1\n      pop\n        /* \"#utility.yul\":954:1053   */\n      swap2\n      swap1\n      pop\n      jump\t// out\n        /* \"#utility.yul\":1059:1228   */\n    tag_91:\n        /* \"#utility.yul\":1143:1154   */\n      0x00\n        /* \"#utility.yul\":1177:1183   */\n      dup3\n        /* \"#utility.yul\":1172:1175   */\n      dup3\n        /* \"#utility.yul\":1165:1184   */\n      mstore\n        /* \"#utility.yul\":1217:1221   */\n      0x20\n        /* \"#utility.yul\":1212:1215   */\n      dup3\n        /* \"#utility.yul\":1208:1222   */\n      add\n        /* \"#utility.yul\":1193:1222   */\n      swap1\n      pop\n        /* \"#utility.yul\":1059:1228   */\n      swap3\n      swap2\n      pop\n      pop\n      jump\t// out\n        /* \"#utility.yul\":1234:1480   */\n    tag_92:\n        /* \"#utility.yul\":1315:1316   */\n      0x00\n        /* \"#utility.yul\":1325:1438   */\n    tag_143:\n        /* \"#utility.yul\":1339:1345   */\n      dup4\n        /* \"#utility.yul\":1336:1337   */\n      dup2\n        /* \"#utility.yul\":1333:1346   */\n      lt\n        /* \"#utility.yul\":1325:1438   */\n      iszero\n      tag_145\n      jumpi\n        /* \"#utility.yul\":1424:1425   */\n      dup1\n        /* \"#utility.yul\":1419:1422   */\n      dup3\n        /* \"#utility.yul\":1415:1426   */\n      add\n        /* \"#utility.yul\":1409:1427   */\n      mload\n        /* \"#utility.yul\":1405:1406   */\n      dup2\n        /* \"#utility.yul\":1400:1403   */\n      dup5\n        /* \"#utility.yul\":1396:1407   */\n      add\n        /* \"#utility.yul\":1389:1428   */\n      mstore\n        /* \"#utility.yul\":1361:1363   */\n      0x20\n        /* \"#utility.yul\":1358:1359   */\n      dup2\n        /* \"#utility.yul\":1354:1364   */\n      add\n        /* \"#utility.yul\":1349:1364   */\n      swap1\n      pop\n        /* \"#utility.yul\":1325:1438   */\n      jump(tag_143)\n    tag_145:\n        /* \"#utility.yul\":1472:1473   */\n      0x00\n        /* \"#utility.yul\":1463:1469   */\n      dup5\n        /* \"#utility.yul\":1458:1461   */\n      dup5\n        /* \"#utility.yul\":1454:1470   */\n      add\n        /* \"#utility.yul\":1447:1474   */\n      mstore\n        /* \"#utility.yul\":1296:1480   */\n      pop\n        /* \"#utility.yul\":1234:1480   */\n      pop\n      pop\n      pop\n      jump\t// out\n        /* \"#utility.yul\":1486:1588   */\n    tag_93:\n        /* \"#utility.yul\":1527:1533   */\n      0x00\n        /* \"#utility.yul\":1578:1580   */\n      0x1f\n        /* \"#utility.yul\":1574:1581   */\n      not\n        /* \"#utility.yul\":1569:1571   */\n      0x1f\n        /* \"#utility.yul\":1562:1567   */\n      dup4\n        /* \"#utility.yul\":1558:1572   */\n      add\n        /* \"#utility.yul\":1554:1582   */\n      and\n        /* \"#utility.yul\":1544:1582   */\n      swap1\n      pop\n        /* \"#utility.yul\":1486:1588   */\n      swap2\n      swap1\n      pop\n      jump\t// out\n        /* \"#utility.yul\":1594:1971   */\n    tag_94:\n        /* \"#utility.yul\":1682:1685   */\n      0x00\n        /* \"#utility.yul\":1710:1749   */\n      tag_148\n        /* \"#utility.yul\":1743:1748   */\n      dup3\n        /* \"#utility.yul\":1710:1749   */\n      tag_90\n      jump\t// in\n    tag_148:\n        /* \"#utility.yul\":1765:1836   */\n      tag_149\n        /* \"#utility.yul\":1829:1835   */\n      dup2\n        /* \"#utility.yul\":1824:1827   */\n      dup6\n        /* \"#utility.yul\":1765:1836   */\n      tag_91\n      jump\t// in\n    tag_149:\n        /* \"#utility.yul\":1758:1836   */\n      swap4\n      pop\n        /* \"#utility.yul\":1845:1910   */\n      tag_150\n        /* \"#utility.yul\":1903:1909   */\n      dup2\n        /* \"#utility.yul\":1898:1901   */\n      dup6\n        /* \"#utility.yul\":1891:1895   */\n      0x20\n        /* \"#utility.yul\":1884:1889   */\n      dup7\n        /* \"#utility.yul\":1880:1896   */\n      add\n        /* \"#utility.yul\":1845:1910   */\n      tag_92\n      jump\t// in\n    tag_150:\n        /* \"#utility.yul\":1935:1964   */\n      tag_151\n        /* \"#utility.yul\":1957:1963   */\n      dup2\n        /* \"#utility.yul\":1935:1964   */\n      tag_93\n      jump\t// in\n    tag_151:\n        /* \"#utility.yul\":1930:1933   */\n      dup5\n        /* \"#utility.yul\":1926:1965   */\n      add\n        /* \"#utility.yul\":1919:1965   */\n      swap2\n      pop\n        /* \"#utility.yul\":1686:1971   */\n      pop\n        /* \"#utility.yul\":1594:1971   */\n      swap3\n      swap2\n      pop\n      pop\n      jump\t// out\n        /* \"#utility.yul\":1977:2103   */\n    tag_95:\n        /* \"#utility.yul\":2014:2021   */\n      0x00\n        /* \"#utility.yul\":2054:2096   */\n      0xffffffffffffffffffffffffffffffffffffffff\n        /* \"#utility.yul\":2047:2052   */\n      dup3\n        /* \"#utility.yul\":2043:2097   */\n      and\n        /* \"#utility.yul\":2032:2097   */\n      swap1\n      pop\n        /* \"#utility.yul\":1977:2103   */\n      swap2\n      swap1\n      pop\n      jump\t// out\n        /* \"#utility.yul\":2109:2213   */\n    tag_96:\n        /* \"#utility.yul\":2154:2161   */\n      0x00\n        /* \"#utility.yul\":2183:2207   */\n      tag_154\n        /* \"#utility.yul\":2201:2206   */\n      dup3\n        /* \"#utility.yul\":2183:2207   */\n      tag_95\n      jump\t// in\n    tag_154:\n        /* \"#utility.yul\":2172:2207   */\n      swap1\n      pop\n        /* \"#utility.yul\":2109:2213   */\n      swap2\n      swap1\n      pop\n      jump\t// out\n        /* \"#utility.yul\":2219:2361   */\n    tag_97:\n        /* \"#utility.yul\":2322:2354   */\n      tag_156\n        /* \"#utility.yul\":2348:2353   */\n      dup2\n        /* \"#utility.yul\":2322:2354   */\n      tag_96\n      jump\t// in\n    tag_156:\n        /* \"#utility.yul\":2317:2320   */\n      dup3\n        /* \"#utility.yul\":2310:2355   */\n      mstore\n        /* \"#utility.yul\":2219:2361   */\n      pop\n      pop\n      jump\t// out\n        /* \"#utility.yul\":2367:2444   */\n    tag_98:\n        /* \"#utility.yul\":2404:2411   */\n      0x00\n        /* \"#utility.yul\":2433:2438   */\n      dup2\n        /* \"#utility.yul\":2422:2438   */\n      swap1\n      pop\n        /* \"#utility.yul\":2367:2444   */\n      swap2\n      swap1\n      pop\n      jump\t// out\n        /* \"#utility.yul\":2450:2568   */\n    tag_99:\n        /* \"#utility.yul\":2537:2561   */\n      tag_159\n        /* \"#utility.yul\":2555:2560   */\n      dup2\n        /* \"#utility.yul\":2537:2561   */\n      tag_98\n      jump\t// in\n    tag_159:\n        /* \"#utility.yul\":2532:2535   */\n      dup3\n        /* \"#utility.yul\":2525:2562   */\n      mstore\n        /* \"#utility.yul\":2450:2568   */\n      pop\n      pop\n      jump\t// out\n        /* \"#utility.yul\":2574:2754   */\n    tag_24:\n        /* \"#utility.yul\":2622:2699   */\n      0x4e487b7100000000000000000000000000000000000000000000000000000000\n        /* \"#utility.yul\":2619:2620   */\n      0x00\n        /* \"#utility.yul\":2612:2700   */\n      mstore\n        /* \"#utility.yul\":2719:2723   */\n      0x21\n        /* \"#utility.yul\":2716:2717   */\n      0x04\n        /* \"#utility.yul\":2709:2724   */\n      mstore\n        /* \"#utility.yul\":2743:2747   */\n      0x24\n        /* \"#utility.yul\":2740:2741   */\n      0x00\n        /* \"#utility.yul\":2733:2748   */\n      revert\n        /* \"#utility.yul\":2760:2872   */\n    tag_100:\n        /* \"#utility.yul\":2840:2841   */\n      0x02\n        /* \"#utility.yul\":2833:2838   */\n      dup2\n        /* \"#utility.yul\":2830:2842   */\n      lt\n        /* \"#utility.yul\":2820:2866   */\n      tag_162\n      jumpi\n        /* \"#utility.yul\":2846:2864   */\n      tag_163\n      tag_24\n      jump\t// in\n    tag_163:\n        /* \"#utility.yul\":2820:2866   */\n    tag_162:\n        /* \"#utility.yul\":2760:2872   */\n      pop\n      jump\t// out\n        /* \"#utility.yul\":2878:3003   */\n    tag_101:\n        /* \"#utility.yul\":2922:2929   */\n      0x00\n        /* \"#utility.yul\":2951:2956   */\n      dup2\n        /* \"#utility.yul\":2940:2956   */\n      swap1\n      pop\n        /* \"#utility.yul\":2957:2997   */\n      tag_165\n        /* \"#utility.yul\":2991:2996   */\n      dup3\n        /* \"#utility.yul\":2957:2997   */\n      tag_100\n      jump\t// in\n    tag_165:\n        /* \"#utility.yul\":2878:3003   */\n      swap2\n      swap1\n      pop\n      jump\t// out\n        /* \"#utility.yul\":3009:3134   */\n    tag_102:\n        /* \"#utility.yul\":3064:3073   */\n      0x00\n        /* \"#utility.yul\":3097:3128   */\n      tag_167\n        /* \"#utility.yul\":3122:3127   */\n      dup3\n        /* \"#utility.yul\":3097:3128   */\n      tag_101\n      jump\t// in\n    tag_167:\n        /* \"#utility.yul\":3084:3128   */\n      swap1\n      pop\n        /* \"#utility.yul\":3009:3134   */\n      swap2\n      swap1\n      pop\n      jump\t// out\n        /* \"#utility.yul\":3140:3281   */\n    tag_103:\n        /* \"#utility.yul\":3232:3274   */\n      tag_169\n        /* \"#utility.yul\":3268:3273   */\n      dup2\n        /* \"#utility.yul\":3232:3274   */\n      tag_102\n      jump\t// in\n    tag_169:\n        /* \"#utility.yul\":3227:3230   */\n      dup3\n        /* \"#utility.yul\":3220:3275   */\n      mstore\n        /* \"#utility.yul\":3140:3281   */\n      pop\n      pop\n      jump\t// out\n        /* \"#utility.yul\":3287:4488   */\n    tag_16:\n        /* \"#utility.yul\":3629:3633   */\n      0x00\n        /* \"#utility.yul\":3667:3670   */\n      0xe0\n        /* \"#utility.yul\":3656:3665   */\n      dup3\n        /* \"#utility.yul\":3652:3671   */\n      add\n        /* \"#utility.yul\":3644:3671   */\n      swap1\n      pop\n        /* \"#utility.yul\":3717:3726   */\n      dup2\n        /* \"#utility.yul\":3711:3715   */\n      dup2\n        /* \"#utility.yul\":3707:3727   */\n      sub\n        /* \"#utility.yul\":3703:3704   */\n      0x00\n        /* \"#utility.yul\":3692:3701   */\n      dup4\n        /* \"#utility.yul\":3688:3705   */\n      add\n        /* \"#utility.yul\":3681:3728   */\n      mstore\n        /* \"#utility.yul\":3745:3823   */\n      tag_171\n        /* \"#utility.yul\":3818:3822   */\n      dup2\n        /* \"#utility.yul\":3809:3815   */\n      dup11\n        /* \"#utility.yul\":3745:3823   */\n      tag_94\n      jump\t// in\n    tag_171:\n        /* \"#utility.yul\":3737:3823   */\n      swap1\n      pop\n        /* \"#utility.yul\":3870:3879   */\n      dup2\n        /* \"#utility.yul\":3864:3868   */\n      dup2\n        /* \"#utility.yul\":3860:3880   */\n      sub\n        /* \"#utility.yul\":3855:3857   */\n      0x20\n        /* \"#utility.yul\":3844:3853   */\n      dup4\n        /* \"#utility.yul\":3840:3858   */\n      add\n        /* \"#utility.yul\":3833:3881   */\n      mstore\n        /* \"#utility.yul\":3898:3976   */\n      tag_172\n        /* \"#utility.yul\":3971:3975   */\n      dup2\n        /* \"#utility.yul\":3962:3968   */\n      dup10\n        /* \"#utility.yul\":3898:3976   */\n      tag_94\n      jump\t// in\n    tag_172:\n        /* \"#utility.yul\":3890:3976   */\n      swap1\n      pop\n        /* \"#utility.yul\":4023:4032   */\n      dup2\n        /* \"#utility.yul\":4017:4021   */\n      dup2\n        /* \"#utility.yul\":4013:4033   */\n      sub\n        /* \"#utility.yul\":4008:4010   */\n      0x40\n        /* \"#utility.yul\":3997:4006   */\n      dup4\n        /* \"#utility.yul\":3993:4011   */\n      add\n        /* \"#utility.yul\":3986:4034   */\n      mstore\n        /* \"#utility.yul\":4051:4129   */\n      tag_173\n        /* \"#utility.yul\":4124:4128   */\n      dup2\n        /* \"#utility.yul\":4115:4121   */\n      dup9\n        /* \"#utility.yul\":4051:4129   */\n      tag_94\n      jump\t// in\n    tag_173:\n        /* \"#utility.yul\":4043:4129   */\n      swap1\n      pop\n        /* \"#utility.yul\":4139:4227   */\n      tag_174\n        /* \"#utility.yul\":4223:4225   */\n      0x60\n        /* \"#utility.yul\":4212:4221   */\n      dup4\n        /* \"#utility.yul\":4208:4226   */\n      add\n        /* \"#utility.yul\":4199:4205   */\n      dup8\n        /* \"#utility.yul\":4139:4227   */\n      tag_97\n      jump\t// in\n    tag_174:\n        /* \"#utility.yul\":4237:4310   */\n      tag_175\n        /* \"#utility.yul\":4305:4308   */\n      0x80\n        /* \"#utility.yul\":4294:4303   */\n      dup4\n        /* \"#utility.yul\":4290:4309   */\n      add\n        /* \"#utility.yul\":4281:4287   */\n      dup7\n        /* \"#utility.yul\":4237:4310   */\n      tag_99\n      jump\t// in\n    tag_175:\n        /* \"#utility.yul\":4320:4398   */\n      tag_176\n        /* \"#utility.yul\":4393:4396   */\n      0xa0\n        /* \"#utility.yul\":4382:4391   */\n      dup4\n        /* \"#utility.yul\":4378:4397   */\n      add\n        /* \"#utility.yul\":4369:4375   */\n      dup6\n        /* \"#utility.yul\":4320:4398   */\n      tag_103\n      jump\t// in\n    tag_176:\n        /* \"#utility.yul\":4408:4481   */\n      tag_177\n        /* \"#utility.yul\":4476:4479   */\n      0xc0\n        /* \"#utility.yul\":4465:4474   */\n      dup4\n        /* \"#utility.yul\":4461:4480   */\n      add\n        /* \"#utility.yul\":4452:4458   */\n      dup5\n        /* \"#utility.yul\":4408:4481   */\n      tag_99\n      jump\t// in\n    tag_177:\n        /* \"#utility.yul\":3287:4488   */\n      swap9\n      swap8\n      pop\n      pop\n      pop\n      pop\n      pop\n      pop\n      pop\n      pop\n      jump\t// out\n        /* \"#utility.yul\":4494:4724   */\n    tag_104:\n        /* \"#utility.yul\":4634:4668   */\n      0x4f6e6c7920746865206f776e65722063616e206368616e676520746865207072\n        /* \"#utility.yul\":4630:4631   */\n      0x00\n        /* \"#utility.yul\":4622:4628   */\n      dup3\n        /* \"#utility.yul\":4618:4632   */\n      add\n        /* \"#utility.yul\":4611:4669   */\n      mstore\n        /* \"#utility.yul\":4703:4716   */\n      0x6f6a656374207374617465000000000000000000000000000000000000000000\n        /* \"#utility.yul\":4698:4700   */\n      0x20\n        /* \"#utility.yul\":4690:4696   */\n      dup3\n        /* \"#utility.yul\":4686:4701   */\n      add\n        /* \"#utility.yul\":4679:4717   */\n      mstore\n        /* \"#utility.yul\":4494:4724   */\n      pop\n      jump\t// out\n        /* \"#utility.yul\":4730:5096   */\n    tag_105:\n        /* \"#utility.yul\":4872:4875   */\n      0x00\n        /* \"#utility.yul\":4893:4960   */\n      tag_180\n        /* \"#utility.yul\":4957:4959   */\n      0x2b\n        /* \"#utility.yul\":4952:4955   */\n      dup4\n        /* \"#utility.yul\":4893:4960   */\n      tag_91\n      jump\t// in\n    tag_180:\n        /* \"#utility.yul\":4886:4960   */\n      swap2\n      pop\n        /* \"#utility.yul\":4969:5062   */\n      tag_181\n        /* \"#utility.yul\":5058:5061   */\n      dup3\n        /* \"#utility.yul\":4969:5062   */\n      tag_104\n      jump\t// in\n    tag_181:\n        /* \"#utility.yul\":5087:5089   */\n      0x40\n        /* \"#utility.yul\":5082:5085   */\n      dup3\n        /* \"#utility.yul\":5078:5090   */\n      add\n        /* \"#utility.yul\":5071:5090   */\n      swap1\n      pop\n        /* \"#utility.yul\":4730:5096   */\n      swap2\n      swap1\n      pop\n      jump\t// out\n        /* \"#utility.yul\":5102:5521   */\n    tag_20:\n        /* \"#utility.yul\":5268:5272   */\n      0x00\n        /* \"#utility.yul\":5306:5308   */\n      0x20\n        /* \"#utility.yul\":5295:5304   */\n      dup3\n        /* \"#utility.yul\":5291:5309   */\n      add\n        /* \"#utility.yul\":5283:5309   */\n      swap1\n      pop\n        /* \"#utility.yul\":5355:5364   */\n      dup2\n        /* \"#utility.yul\":5349:5353   */\n      dup2\n        /* \"#utility.yul\":5345:5365   */\n      sub\n        /* \"#utility.yul\":5341:5342   */\n      0x00\n        /* \"#utility.yul\":5330:5339   */\n      dup4\n        /* \"#utility.yul\":5326:5343   */\n      add\n        /* \"#utility.yul\":5319:5366   */\n      mstore\n        /* \"#utility.yul\":5383:5514   */\n      tag_183\n        /* \"#utility.yul\":5509:5513   */\n      dup2\n        /* \"#utility.yul\":5383:5514   */\n      tag_105\n      jump\t// in\n    tag_183:\n        /* \"#utility.yul\":5375:5514   */\n      swap1\n      pop\n        /* \"#utility.yul\":5102:5521   */\n      swap2\n      swap1\n      pop\n      jump\t// out\n        /* \"#utility.yul\":5527:5707   */\n    tag_106:\n        /* \"#utility.yul\":5667:5699   */\n      0x53746174654e6f74446566696e65643a20496e76616c69642073746174650000\n        /* \"#utility.yul\":5663:5664   */\n      0x00\n        /* \"#utility.yul\":5655:5661   */\n      dup3\n        /* \"#utility.yul\":5651:5665   */\n      add\n        /* \"#utility.yul\":5644:5700   */\n      mstore\n        /* \"#utility.yul\":5527:5707   */\n      pop\n      jump\t// out\n        /* \"#utility.yul\":5713:6079   */\n    tag_107:\n        /* \"#utility.yul\":5855:5858   */\n      0x00\n        /* \"#utility.yul\":5876:5943   */\n      tag_186\n        /* \"#utility.yul\":5940:5942   */\n      0x1e\n        /* \"#utility.yul\":5935:5938   */\n      dup4\n        /* \"#utility.yul\":5876:5943   */\n      tag_91\n      jump\t// in\n    tag_186:\n        /* \"#utility.yul\":5869:5943   */\n      swap2\n      pop\n        /* \"#utility.yul\":5952:6045   */\n      tag_187\n        /* \"#utility.yul\":6041:6044   */\n      dup3\n        /* \"#utility.yul\":5952:6045   */\n      tag_106\n      jump\t// in\n    tag_187:\n        /* \"#utility.yul\":6070:6072   */\n      0x20\n        /* \"#utility.yul\":6065:6068   */\n      dup3\n        /* \"#utility.yul\":6061:6073   */\n      add\n        /* \"#utility.yul\":6054:6073   */\n      swap1\n      pop\n        /* \"#utility.yul\":5713:6079   */\n      swap2\n      swap1\n      pop\n      jump\t// out\n        /* \"#utility.yul\":6085:6504   */\n    tag_34:\n        /* \"#utility.yul\":6251:6255   */\n      0x00\n        /* \"#utility.yul\":6289:6291   */\n      0x20\n        /* \"#utility.yul\":6278:6287   */\n      dup3\n        /* \"#utility.yul\":6274:6292   */\n      add\n        /* \"#utility.yul\":6266:6292   */\n      swap1\n      pop\n        /* \"#utility.yul\":6338:6347   */\n      dup2\n        /* \"#utility.yul\":6332:6336   */\n      dup2\n        /* \"#utility.yul\":6328:6348   */\n      sub\n        /* \"#utility.yul\":6324:6325   */\n      0x00\n        /* \"#utility.yul\":6313:6322   */\n      dup4\n        /* \"#utility.yul\":6309:6326   */\n      add\n        /* \"#utility.yul\":6302:6349   */\n      mstore\n        /* \"#utility.yul\":6366:6497   */\n      tag_189\n        /* \"#utility.yul\":6492:6496   */\n      dup2\n        /* \"#utility.yul\":6366:6497   */\n      tag_107\n      jump\t// in\n    tag_189:\n        /* \"#utility.yul\":6358:6497   */\n      swap1\n      pop\n        /* \"#utility.yul\":6085:6504   */\n      swap2\n      swap1\n      pop\n      jump\t// out\n        /* \"#utility.yul\":6510:6606   */\n    tag_108:\n        /* \"#utility.yul\":6544:6552   */\n      0x00\n        /* \"#utility.yul\":6593:6598   */\n      dup2\n        /* \"#utility.yul\":6588:6591   */\n      0xf8\n        /* \"#utility.yul\":6584:6599   */\n      shl\n        /* \"#utility.yul\":6563:6599   */\n      swap1\n      pop\n        /* \"#utility.yul\":6510:6606   */\n      swap2\n      swap1\n      pop\n      jump\t// out\n        /* \"#utility.yul\":6612:6705   */\n    tag_109:\n        /* \"#utility.yul\":6649:6656   */\n      0x00\n        /* \"#utility.yul\":6678:6699   */\n      tag_192\n        /* \"#utility.yul\":6693:6698   */\n      dup3\n        /* \"#utility.yul\":6678:6699   */\n      tag_108\n      jump\t// in\n    tag_192:\n        /* \"#utility.yul\":6667:6699   */\n      swap1\n      pop\n        /* \"#utility.yul\":6612:6705   */\n      swap2\n      swap1\n      pop\n      jump\t// out\n        /* \"#utility.yul\":6711:6889   */\n    tag_110:\n        /* \"#utility.yul\":6821:6882   */\n      tag_194\n        /* \"#utility.yul\":6839:6881   */\n      tag_195\n        /* \"#utility.yul\":6875:6880   */\n      dup3\n        /* \"#utility.yul\":6839:6881   */\n      tag_102\n      jump\t// in\n    tag_195:\n        /* \"#utility.yul\":6821:6882   */\n      tag_109\n      jump\t// in\n    tag_194:\n        /* \"#utility.yul\":6816:6819   */\n      dup3\n        /* \"#utility.yul\":6809:6883   */\n      mstore\n        /* \"#utility.yul\":6711:6889   */\n      pop\n      pop\n      jump\t// out\n        /* \"#utility.yul\":6895:7160   */\n    tag_36:\n        /* \"#utility.yul\":7012:7015   */\n      0x00\n        /* \"#utility.yul\":7027:7107   */\n      tag_197\n        /* \"#utility.yul\":7103:7106   */\n      dup3\n        /* \"#utility.yul\":7094:7100   */\n      dup5\n        /* \"#utility.yul\":7027:7107   */\n      tag_110\n      jump\t// in\n    tag_197:\n        /* \"#utility.yul\":7132:7133   */\n      0x01\n        /* \"#utility.yul\":7127:7130   */\n      dup3\n        /* \"#utility.yul\":7123:7134   */\n      add\n        /* \"#utility.yul\":7116:7134   */\n      swap2\n      pop\n        /* \"#utility.yul\":7151:7154   */\n      dup2\n        /* \"#utility.yul\":7144:7154   */\n      swap1\n      pop\n        /* \"#utility.yul\":6895:7160   */\n      swap3\n      swap2\n      pop\n      pop\n      jump\t// out\n        /* \"#utility.yul\":7166:7455   */\n    tag_111:\n        /* \"#utility.yul\":7306:7340   */\n      0x53746174654e6f74446566696e65643a204e6577207374617465206d75737420\n        /* \"#utility.yul\":7302:7303   */\n      0x00\n        /* \"#utility.yul\":7294:7300   */\n      dup3\n        /* \"#utility.yul\":7290:7304   */\n      add\n        /* \"#utility.yul\":7283:7341   */\n      mstore\n        /* \"#utility.yul\":7375:7409   */\n      0x626520646966666572656e742066726f6d207468652063757272656e74206f6e\n        /* \"#utility.yul\":7370:7372   */\n      0x20\n        /* \"#utility.yul\":7362:7368   */\n      dup3\n        /* \"#utility.yul\":7358:7373   */\n      add\n        /* \"#utility.yul\":7351:7410   */\n      mstore\n        /* \"#utility.yul\":7444:7447   */\n      0x6500000000000000000000000000000000000000000000000000000000000000\n        /* \"#utility.yul\":7439:7441   */\n      0x40\n        /* \"#utility.yul\":7431:7437   */\n      dup3\n        /* \"#utility.yul\":7427:7442   */\n      add\n        /* \"#utility.yul\":7420:7448   */\n      mstore\n        /* \"#utility.yul\":7166:7455   */\n      pop\n      jump\t// out\n        /* \"#utility.yul\":7461:7827   */\n    tag_112:\n        /* \"#utility.yul\":7603:7606   */\n      0x00\n        /* \"#utility.yul\":7624:7691   */\n      tag_200\n        /* \"#utility.yul\":7688:7690   */\n      0x41\n        /* \"#utility.yul\":7683:7686   */\n      dup4\n        /* \"#utility.yul\":7624:7691   */\n      tag_91\n      jump\t// in\n    tag_200:\n        /* \"#utility.yul\":7617:7691   */\n      swap2\n      pop\n        /* \"#utility.yul\":7700:7793   */\n      tag_201\n        /* \"#utility.yul\":7789:7792   */\n      dup3\n        /* \"#utility.yul\":7700:7793   */\n      tag_111\n      jump\t// in\n    tag_201:\n        /* \"#utility.yul\":7818:7820   */\n      0x60\n        /* \"#utility.yul\":7813:7816   */\n      dup3\n        /* \"#utility.yul\":7809:7821   */\n      add\n        /* \"#utility.yul\":7802:7821   */\n      swap1\n      pop\n        /* \"#utility.yul\":7461:7827   */\n      swap2\n      swap1\n      pop\n      jump\t// out\n        /* \"#utility.yul\":7833:8252   */\n    tag_40:\n        /* \"#utility.yul\":7999:8003   */\n      0x00\n        /* \"#utility.yul\":8037:8039   */\n      0x20\n        /* \"#utility.yul\":8026:8035   */\n      dup3\n        /* \"#utility.yul\":8022:8040   */\n      add\n        /* \"#utility.yul\":8014:8040   */\n      swap1\n      pop\n        /* \"#utility.yul\":8086:8095   */\n      dup2\n        /* \"#utility.yul\":8080:8084   */\n      dup2\n        /* \"#utility.yul\":8076:8096   */\n      sub\n        /* \"#utility.yul\":8072:8073   */\n      0x00\n        /* \"#utility.yul\":8061:8070   */\n      dup4\n        /* \"#utility.yul\":8057:8074   */\n      add\n        /* \"#utility.yul\":8050:8097   */\n      mstore\n        /* \"#utility.yul\":8114:8245   */\n      tag_203\n        /* \"#utility.yul\":8240:8244   */\n      dup2\n        /* \"#utility.yul\":8114:8245   */\n      tag_112\n      jump\t// in\n    tag_203:\n        /* \"#utility.yul\":8106:8245   */\n      swap1\n      pop\n        /* \"#utility.yul\":7833:8252   */\n      swap2\n      swap1\n      pop\n      jump\t// out\n        /* \"#utility.yul\":8258:8354   */\n    tag_113:\n        /* \"#utility.yul\":8295:8302   */\n      0x00\n        /* \"#utility.yul\":8324:8348   */\n      tag_205\n        /* \"#utility.yul\":8342:8347   */\n      dup3\n        /* \"#utility.yul\":8324:8348   */\n      tag_95\n      jump\t// in\n    tag_205:\n        /* \"#utility.yul\":8313:8348   */\n      swap1\n      pop\n        /* \"#utility.yul\":8258:8354   */\n      swap2\n      swap1\n      pop\n      jump\t// out\n        /* \"#utility.yul\":8360:8478   */\n    tag_114:\n        /* \"#utility.yul\":8447:8471   */\n      tag_207\n        /* \"#utility.yul\":8465:8470   */\n      dup2\n        /* \"#utility.yul\":8447:8471   */\n      tag_113\n      jump\t// in\n    tag_207:\n        /* \"#utility.yul\":8442:8445   */\n      dup3\n        /* \"#utility.yul\":8435:8472   */\n      mstore\n        /* \"#utility.yul\":8360:8478   */\n      pop\n      pop\n      jump\t// out\n        /* \"#utility.yul\":8484:8826   */\n    tag_44:\n        /* \"#utility.yul\":8610:8614   */\n      0x00\n        /* \"#utility.yul\":8648:8650   */\n      0x40\n        /* \"#utility.yul\":8637:8646   */\n      dup3\n        /* \"#utility.yul\":8633:8651   */\n      add\n        /* \"#utility.yul\":8625:8651   */\n      swap1\n      pop\n        /* \"#utility.yul\":8661:8732   */\n      tag_209\n        /* \"#utility.yul\":8729:8730   */\n      0x00\n        /* \"#utility.yul\":8718:8727   */\n      dup4\n        /* \"#utility.yul\":8714:8731   */\n      add\n        /* \"#utility.yul\":8705:8711   */\n      dup6\n        /* \"#utility.yul\":8661:8732   */\n      tag_114\n      jump\t// in\n    tag_209:\n        /* \"#utility.yul\":8742:8819   */\n      tag_210\n        /* \"#utility.yul\":8815:8817   */\n      0x20\n        /* \"#utility.yul\":8804:8813   */\n      dup4\n        /* \"#utility.yul\":8800:8818   */\n      add\n        /* \"#utility.yul\":8791:8797   */\n      dup5\n        /* \"#utility.yul\":8742:8819   */\n      tag_103\n      jump\t// in\n    tag_210:\n        /* \"#utility.yul\":8484:8826   */\n      swap4\n      swap3\n      pop\n      pop\n      pop\n      jump\t// out\n        /* \"#utility.yul\":8832:9013   */\n    tag_115:\n        /* \"#utility.yul\":8972:9005   */\n      0x4f776e6572732063616e27742066756e642074686569722070726f6a65637400\n        /* \"#utility.yul\":8968:8969   */\n      0x00\n        /* \"#utility.yul\":8960:8966   */\n      dup3\n        /* \"#utility.yul\":8956:8970   */\n      add\n        /* \"#utility.yul\":8949:9006   */\n      mstore\n        /* \"#utility.yul\":8832:9013   */\n      pop\n      jump\t// out\n        /* \"#utility.yul\":9019:9385   */\n    tag_116:\n        /* \"#utility.yul\":9161:9164   */\n      0x00\n        /* \"#utility.yul\":9182:9249   */\n      tag_213\n        /* \"#utility.yul\":9246:9248   */\n      0x1f\n        /* \"#utility.yul\":9241:9244   */\n      dup4\n        /* \"#utility.yul\":9182:9249   */\n      tag_91\n      jump\t// in\n    tag_213:\n        /* \"#utility.yul\":9175:9249   */\n      swap2\n      pop\n        /* \"#utility.yul\":9258:9351   */\n      tag_214\n        /* \"#utility.yul\":9347:9350   */\n      dup3\n        /* \"#utility.yul\":9258:9351   */\n      tag_115\n      jump\t// in\n    tag_214:\n        /* \"#utility.yul\":9376:9378   */\n      0x20\n        /* \"#utility.yul\":9371:9374   */\n      dup3\n        /* \"#utility.yul\":9367:9379   */\n      add\n        /* \"#utility.yul\":9360:9379   */\n      swap1\n      pop\n        /* \"#utility.yul\":9019:9385   */\n      swap2\n      swap1\n      pop\n      jump\t// out\n        /* \"#utility.yul\":9391:9810   */\n    tag_48:\n        /* \"#utility.yul\":9557:9561   */\n      0x00\n        /* \"#utility.yul\":9595:9597   */\n      0x20\n        /* \"#utility.yul\":9584:9593   */\n      dup3\n        /* \"#utility.yul\":9580:9598   */\n      add\n        /* \"#utility.yul\":9572:9598   */\n      swap1\n      pop\n        /* \"#utility.yul\":9644:9653   */\n      dup2\n        /* \"#utility.yul\":9638:9642   */\n      dup2\n        /* \"#utility.yul\":9634:9654   */\n      sub\n        /* \"#utility.yul\":9630:9631   */\n      0x00\n        /* \"#utility.yul\":9619:9628   */\n      dup4\n        /* \"#utility.yul\":9615:9632   */\n      add\n        /* \"#utility.yul\":9608:9655   */\n      mstore\n        /* \"#utility.yul\":9672:9803   */\n      tag_216\n        /* \"#utility.yul\":9798:9802   */\n      dup2\n        /* \"#utility.yul\":9672:9803   */\n      tag_116\n      jump\t// in\n    tag_216:\n        /* \"#utility.yul\":9664:9803   */\n      swap1\n      pop\n        /* \"#utility.yul\":9391:9810   */\n      swap2\n      swap1\n      pop\n      jump\t// out\n        /* \"#utility.yul\":9816:9964   */\n    tag_117:\n        /* \"#utility.yul\":9918:9929   */\n      0x00\n        /* \"#utility.yul\":9955:9958   */\n      dup2\n        /* \"#utility.yul\":9940:9958   */\n      swap1\n      pop\n        /* \"#utility.yul\":9816:9964   */\n      swap3\n      swap2\n      pop\n      pop\n      jump\t// out\n        /* \"#utility.yul\":9970:10126   */\n    tag_118:\n        /* \"#utility.yul\":10110:10118   */\n      0x436c6f7365640000000000000000000000000000000000000000000000000000\n        /* \"#utility.yul\":10106:10107   */\n      0x00\n        /* \"#utility.yul\":10098:10104   */\n      dup3\n        /* \"#utility.yul\":10094:10108   */\n      add\n        /* \"#utility.yul\":10087:10119   */\n      mstore\n        /* \"#utility.yul\":9970:10126   */\n      pop\n      jump\t// out\n        /* \"#utility.yul\":10132:10532   */\n    tag_119:\n        /* \"#utility.yul\":10292:10295   */\n      0x00\n        /* \"#utility.yul\":10313:10397   */\n      tag_220\n        /* \"#utility.yul\":10395:10396   */\n      0x06\n        /* \"#utility.yul\":10390:10393   */\n      dup4\n        /* \"#utility.yul\":10313:10397   */\n      tag_117\n      jump\t// in\n    tag_220:\n        /* \"#utility.yul\":10306:10397   */\n      swap2\n      pop\n        /* \"#utility.yul\":10406:10499   */\n      tag_221\n        /* \"#utility.yul\":10495:10498   */\n      dup3\n        /* \"#utility.yul\":10406:10499   */\n      tag_118\n      jump\t// in\n    tag_221:\n        /* \"#utility.yul\":10524:10525   */\n      0x06\n        /* \"#utility.yul\":10519:10522   */\n      dup3\n        /* \"#utility.yul\":10515:10526   */\n      add\n        /* \"#utility.yul\":10508:10526   */\n      swap1\n      pop\n        /* \"#utility.yul\":10132:10532   */\n      swap2\n      swap1\n      pop\n      jump\t// out\n        /* \"#utility.yul\":10538:10919   */\n    tag_51:\n        /* \"#utility.yul\":10723:10726   */\n      0x00\n        /* \"#utility.yul\":10745:10893   */\n      tag_223\n        /* \"#utility.yul\":10889:10892   */\n      dup3\n        /* \"#utility.yul\":10745:10893   */\n      tag_119\n      jump\t// in\n    tag_223:\n        /* \"#utility.yul\":10738:10893   */\n      swap2\n      pop\n        /* \"#utility.yul\":10910:10913   */\n      dup2\n        /* \"#utility.yul\":10903:10913   */\n      swap1\n      pop\n        /* \"#utility.yul\":10538:10919   */\n      swap2\n      swap1\n      pop\n      jump\t// out\n        /* \"#utility.yul\":10925:11105   */\n    tag_120:\n        /* \"#utility.yul\":11065:11097   */\n      0x5374617465436c6f7365643a2050726f6a65637420697320636c6f7365640000\n        /* \"#utility.yul\":11061:11062   */\n      0x00\n        /* \"#utility.yul\":11053:11059   */\n      dup3\n        /* \"#utility.yul\":11049:11063   */\n      add\n        /* \"#utility.yul\":11042:11098   */\n      mstore\n        /* \"#utility.yul\":10925:11105   */\n      pop\n      jump\t// out\n        /* \"#utility.yul\":11111:11477   */\n    tag_121:\n        /* \"#utility.yul\":11253:11256   */\n      0x00\n        /* \"#utility.yul\":11274:11341   */\n      tag_226\n        /* \"#utility.yul\":11338:11340   */\n      0x1e\n        /* \"#utility.yul\":11333:11336   */\n      dup4\n        /* \"#utility.yul\":11274:11341   */\n      tag_91\n      jump\t// in\n    tag_226:\n        /* \"#utility.yul\":11267:11341   */\n      swap2\n      pop\n        /* \"#utility.yul\":11350:11443   */\n      tag_227\n        /* \"#utility.yul\":11439:11442   */\n      dup3\n        /* \"#utility.yul\":11350:11443   */\n      tag_120\n      jump\t// in\n    tag_227:\n        /* \"#utility.yul\":11468:11470   */\n      0x20\n        /* \"#utility.yul\":11463:11466   */\n      dup3\n        /* \"#utility.yul\":11459:11471   */\n      add\n        /* \"#utility.yul\":11452:11471   */\n      swap1\n      pop\n        /* \"#utility.yul\":11111:11477   */\n      swap2\n      swap1\n      pop\n      jump\t// out\n        /* \"#utility.yul\":11483:11902   */\n    tag_55:\n        /* \"#utility.yul\":11649:11653   */\n      0x00\n        /* \"#utility.yul\":11687:11689   */\n      0x20\n        /* \"#utility.yul\":11676:11685   */\n      dup3\n        /* \"#utility.yul\":11672:11690   */\n      add\n        /* \"#utility.yul\":11664:11690   */\n      swap1\n      pop\n        /* \"#utility.yul\":11736:11745   */\n      dup2\n        /* \"#utility.yul\":11730:11734   */\n      dup2\n        /* \"#utility.yul\":11726:11746   */\n      sub\n        /* \"#utility.yul\":11722:11723   */\n      0x00\n        /* \"#utility.yul\":11711:11720   */\n      dup4\n        /* \"#utility.yul\":11707:11724   */\n      add\n        /* \"#utility.yul\":11700:11747   */\n      mstore\n        /* \"#utility.yul\":11764:11895   */\n      tag_229\n        /* \"#utility.yul\":11890:11894   */\n      dup2\n        /* \"#utility.yul\":11764:11895   */\n      tag_121\n      jump\t// in\n    tag_229:\n        /* \"#utility.yul\":11756:11895   */\n      swap1\n      pop\n        /* \"#utility.yul\":11483:11902   */\n      swap2\n      swap1\n      pop\n      jump\t// out\n        /* \"#utility.yul\":11908:12147   */\n    tag_122:\n        /* \"#utility.yul\":12048:12082   */\n      0x54686520636f6e747269627574696f6e206d757374206861766520612076616c\n        /* \"#utility.yul\":12044:12045   */\n      0x00\n        /* \"#utility.yul\":12036:12042   */\n      dup3\n        /* \"#utility.yul\":12032:12046   */\n      add\n        /* \"#utility.yul\":12025:12083   */\n      mstore\n        /* \"#utility.yul\":12117:12139   */\n      0x75652067726561746572207468616e207a65726f000000000000000000000000\n        /* \"#utility.yul\":12112:12114   */\n      0x20\n        /* \"#utility.yul\":12104:12110   */\n      dup3\n        /* \"#utility.yul\":12100:12115   */\n      add\n        /* \"#utility.yul\":12093:12140   */\n      mstore\n        /* \"#utility.yul\":11908:12147   */\n      pop\n      jump\t// out\n        /* \"#utility.yul\":12153:12519   */\n    tag_123:\n        /* \"#utility.yul\":12295:12298   */\n      0x00\n        /* \"#utility.yul\":12316:12383   */\n      tag_232\n        /* \"#utility.yul\":12380:12382   */\n      0x34\n        /* \"#utility.yul\":12375:12378   */\n      dup4\n        /* \"#utility.yul\":12316:12383   */\n      tag_91\n      jump\t// in\n    tag_232:\n        /* \"#utility.yul\":12309:12383   */\n      swap2\n      pop\n        /* \"#utility.yul\":12392:12485   */\n      tag_233\n        /* \"#utility.yul\":12481:12484   */\n      dup3\n        /* \"#utility.yul\":12392:12485   */\n      tag_122\n      jump\t// in\n    tag_233:\n        /* \"#utility.yul\":12510:12512   */\n      0x40\n        /* \"#utility.yul\":12505:12508   */\n      dup3\n        /* \"#utility.yul\":12501:12513   */\n      add\n        /* \"#utility.yul\":12494:12513   */\n      swap1\n      pop\n        /* \"#utility.yul\":12153:12519   */\n      swap2\n      swap1\n      pop\n      jump\t// out\n        /* \"#utility.yul\":12525:12944   */\n    tag_58:\n        /* \"#utility.yul\":12691:12695   */\n      0x00\n        /* \"#utility.yul\":12729:12731   */\n      0x20\n        /* \"#utility.yul\":12718:12727   */\n      dup3\n        /* \"#utility.yul\":12714:12732   */\n      add\n        /* \"#utility.yul\":12706:12732   */\n      swap1\n      pop\n        /* \"#utility.yul\":12778:12787   */\n      dup2\n        /* \"#utility.yul\":12772:12776   */\n      dup2\n        /* \"#utility.yul\":12768:12788   */\n      sub\n        /* \"#utility.yul\":12764:12765   */\n      0x00\n        /* \"#utility.yul\":12753:12762   */\n      dup4\n        /* \"#utility.yul\":12749:12766   */\n      add\n        /* \"#utility.yul\":12742:12789   */\n      mstore\n        /* \"#utility.yul\":12806:12937   */\n      tag_235\n        /* \"#utility.yul\":12932:12936   */\n      dup2\n        /* \"#utility.yul\":12806:12937   */\n      tag_123\n      jump\t// in\n    tag_235:\n        /* \"#utility.yul\":12798:12937   */\n      swap1\n      pop\n        /* \"#utility.yul\":12525:12944   */\n      swap2\n      swap1\n      pop\n      jump\t// out\n        /* \"#utility.yul\":12950:13130   */\n    tag_124:\n        /* \"#utility.yul\":12998:13075   */\n      0x4e487b7100000000000000000000000000000000000000000000000000000000\n        /* \"#utility.yul\":12995:12996   */\n      0x00\n        /* \"#utility.yul\":12988:13076   */\n      mstore\n        /* \"#utility.yul\":13095:13099   */\n      0x11\n        /* \"#utility.yul\":13092:13093   */\n      0x04\n        /* \"#utility.yul\":13085:13100   */\n      mstore\n        /* \"#utility.yul\":13119:13123   */\n      0x24\n        /* \"#utility.yul\":13116:13117   */\n      0x00\n        /* \"#utility.yul\":13109:13124   */\n      revert\n        /* \"#utility.yul\":13136:13327   */\n    tag_60:\n        /* \"#utility.yul\":13176:13179   */\n      0x00\n        /* \"#utility.yul\":13195:13215   */\n      tag_238\n        /* \"#utility.yul\":13213:13214   */\n      dup3\n        /* \"#utility.yul\":13195:13215   */\n      tag_98\n      jump\t// in\n    tag_238:\n        /* \"#utility.yul\":13190:13215   */\n      swap2\n      pop\n        /* \"#utility.yul\":13229:13249   */\n      tag_239\n        /* \"#utility.yul\":13247:13248   */\n      dup4\n        /* \"#utility.yul\":13229:13249   */\n      tag_98\n      jump\t// in\n    tag_239:\n        /* \"#utility.yul\":13224:13249   */\n      swap3\n      pop\n        /* \"#utility.yul\":13272:13273   */\n      dup3\n        /* \"#utility.yul\":13269:13270   */\n      dup3\n        /* \"#utility.yul\":13265:13274   */\n      add\n        /* \"#utility.yul\":13258:13274   */\n      swap1\n      pop\n        /* \"#utility.yul\":13293:13296   */\n      dup1\n        /* \"#utility.yul\":13290:13291   */\n      dup3\n        /* \"#utility.yul\":13287:13297   */\n      gt\n        /* \"#utility.yul\":13284:13320   */\n      iszero\n      tag_240\n      jumpi\n        /* \"#utility.yul\":13300:13318   */\n      tag_241\n      tag_124\n      jump\t// in\n    tag_241:\n        /* \"#utility.yul\":13284:13320   */\n    tag_240:\n        /* \"#utility.yul\":13136:13327   */\n      swap3\n      swap2\n      pop\n      pop\n      jump\t// out\n        /* \"#utility.yul\":13333:13515   */\n    tag_125:\n        /* \"#utility.yul\":13473:13507   */\n      0x5468652066756e6472616973696e6720676f616c206973206578636565646564\n        /* \"#utility.yul\":13469:13470   */\n      0x00\n        /* \"#utility.yul\":13461:13467   */\n      dup3\n        /* \"#utility.yul\":13457:13471   */\n      add\n        /* \"#utility.yul\":13450:13508   */\n      mstore\n        /* \"#utility.yul\":13333:13515   */\n      pop\n      jump\t// out\n        /* \"#utility.yul\":13521:13887   */\n    tag_126:\n        /* \"#utility.yul\":13663:13666   */\n      0x00\n        /* \"#utility.yul\":13684:13751   */\n      tag_244\n        /* \"#utility.yul\":13748:13750   */\n      0x20\n        /* \"#utility.yul\":13743:13746   */\n      dup4\n        /* \"#utility.yul\":13684:13751   */\n      tag_91\n      jump\t// in\n    tag_244:\n        /* \"#utility.yul\":13677:13751   */\n      swap2\n      pop\n        /* \"#utility.yul\":13760:13853   */\n      tag_245\n        /* \"#utility.yul\":13849:13852   */\n      dup3\n        /* \"#utility.yul\":13760:13853   */\n      tag_125\n      jump\t// in\n    tag_245:\n        /* \"#utility.yul\":13878:13880   */\n      0x20\n        /* \"#utility.yul\":13873:13876   */\n      dup3\n        /* \"#utility.yul\":13869:13881   */\n      add\n        /* \"#utility.yul\":13862:13881   */\n      swap1\n      pop\n        /* \"#utility.yul\":13521:13887   */\n      swap2\n      swap1\n      pop\n      jump\t// out\n        /* \"#utility.yul\":13893:14312   */\n    tag_63:\n        /* \"#utility.yul\":14059:14063   */\n      0x00\n        /* \"#utility.yul\":14097:14099   */\n      0x20\n        /* \"#utility.yul\":14086:14095   */\n      dup3\n        /* \"#utility.yul\":14082:14100   */\n      add\n        /* \"#utility.yul\":14074:14100   */\n      swap1\n      pop\n        /* \"#utility.yul\":14146:14155   */\n      dup2\n        /* \"#utility.yul\":14140:14144   */\n      dup2\n        /* \"#utility.yul\":14136:14156   */\n      sub\n        /* \"#utility.yul\":14132:14133   */\n      0x00\n        /* \"#utility.yul\":14121:14130   */\n      dup4\n        /* \"#utility.yul\":14117:14134   */\n      add\n        /* \"#utility.yul\":14110:14157   */\n      mstore\n        /* \"#utility.yul\":14174:14305   */\n      tag_247\n        /* \"#utility.yul\":14300:14304   */\n      dup2\n        /* \"#utility.yul\":14174:14305   */\n      tag_126\n      jump\t// in\n    tag_247:\n        /* \"#utility.yul\":14166:14305   */\n      swap1\n      pop\n        /* \"#utility.yul\":13893:14312   */\n      swap2\n      swap1\n      pop\n      jump\t// out\n        /* \"#utility.yul\":14318:14650   */\n    tag_68:\n        /* \"#utility.yul\":14439:14443   */\n      0x00\n        /* \"#utility.yul\":14477:14479   */\n      0x40\n        /* \"#utility.yul\":14466:14475   */\n      dup3\n        /* \"#utility.yul\":14462:14480   */\n      add\n        /* \"#utility.yul\":14454:14480   */\n      swap1\n      pop\n        /* \"#utility.yul\":14490:14561   */\n      tag_249\n        /* \"#utility.yul\":14558:14559   */\n      0x00\n        /* \"#utility.yul\":14547:14556   */\n      dup4\n        /* \"#utility.yul\":14543:14560   */\n      add\n        /* \"#utility.yul\":14534:14540   */\n      dup6\n        /* \"#utility.yul\":14490:14561   */\n      tag_114\n      jump\t// in\n    tag_249:\n        /* \"#utility.yul\":14571:14643   */\n      tag_250\n        /* \"#utility.yul\":14639:14641   */\n      0x20\n        /* \"#utility.yul\":14628:14637   */\n      dup4\n        /* \"#utility.yul\":14624:14642   */\n      add\n        /* \"#utility.yul\":14615:14621   */\n      dup5\n        /* \"#utility.yul\":14571:14643   */\n      tag_99\n      jump\t// in\n    tag_250:\n        /* \"#utility.yul\":14318:14650   */\n      swap4\n      swap3\n      pop\n      pop\n      pop\n      jump\t// out\n        /* \"#utility.yul\":14656:14836   */\n    tag_127:\n        /* \"#utility.yul\":14704:14781   */\n      0x4e487b7100000000000000000000000000000000000000000000000000000000\n        /* \"#utility.yul\":14701:14702   */\n      0x00\n        /* \"#utility.yul\":14694:14782   */\n      mstore\n        /* \"#utility.yul\":14801:14805   */\n      0x22\n        /* \"#utility.yul\":14798:14799   */\n      0x04\n        /* \"#utility.yul\":14791:14806   */\n      mstore\n        /* \"#utility.yul\":14825:14829   */\n      0x24\n        /* \"#utility.yul\":14822:14823   */\n      0x00\n        /* \"#utility.yul\":14815:14830   */\n      revert\n        /* \"#utility.yul\":14842:15162   */\n    tag_70:\n        /* \"#utility.yul\":14886:14892   */\n      0x00\n        /* \"#utility.yul\":14923:14924   */\n      0x02\n        /* \"#utility.yul\":14917:14921   */\n      dup3\n        /* \"#utility.yul\":14913:14925   */\n      div\n        /* \"#utility.yul\":14903:14925   */\n      swap1\n      pop\n        /* \"#utility.yul\":14970:14971   */\n      0x01\n        /* \"#utility.yul\":14964:14968   */\n      dup3\n        /* \"#utility.yul\":14960:14972   */\n      and\n        /* \"#utility.yul\":14991:15009   */\n      dup1\n        /* \"#utility.yul\":14981:15062   */\n      tag_253\n      jumpi\n        /* \"#utility.yul\":15047:15051   */\n      0x7f\n        /* \"#utility.yul\":15039:15045   */\n      dup3\n        /* \"#utility.yul\":15035:15052   */\n      and\n        /* \"#utility.yul\":15025:15052   */\n      swap2\n      pop\n        /* \"#utility.yul\":14981:15062   */\n    tag_253:\n        /* \"#utility.yul\":15109:15111   */\n      0x20\n        /* \"#utility.yul\":15101:15107   */\n      dup3\n        /* \"#utility.yul\":15098:15112   */\n      lt\n        /* \"#utility.yul\":15078:15096   */\n      dup2\n        /* \"#utility.yul\":15075:15113   */\n      sub\n        /* \"#utility.yul\":15072:15156   */\n      tag_254\n      jumpi\n        /* \"#utility.yul\":15128:15146   */\n      tag_255\n      tag_127\n      jump\t// in\n    tag_255:\n        /* \"#utility.yul\":15072:15156   */\n    tag_254:\n        /* \"#utility.yul\":14893:15162   */\n      pop\n        /* \"#utility.yul\":14842:15162   */\n      swap2\n      swap1\n      pop\n      jump\t// out\n\n    auxdata: 0xa2646970667358221220640285af4d177c1de542255cabf6536a3cb42c44abd8f18559f7ba3a151d407c64736f6c63430008180033\n}\n",
				"bytecode": {
					"linkReferences": {},
					"object": "608060405234801562000010575f80fd5b506040516200163838038062001638833981810160405281019062000036919062000331565b6040518060e001604052808581526020018481526020018381526020013373ffffffffffffffffffffffffffffffffffffffff1681526020018281526020016001808111156200008b576200008a620003fd565b5b81526020015f8152505f80820151815f019081620000aa919062000658565b506020820151816001019081620000c2919062000658565b506040820151816002019081620000da919062000658565b506060820151816003015f6101000a81548173ffffffffffffffffffffffffffffffffffffffff021916908373ffffffffffffffffffffffffffffffffffffffff1602179055506080820151816004015560a0820151816005015f6101000a81548160ff02191690836001811115620001585762000157620003fd565b5b021790555060c08201518160060155905050505050506200073c565b5f604051905090565b5f80fd5b5f80fd5b5f80fd5b5f80fd5b5f601f19601f8301169050919050565b7f4e487b71000000000000000000000000000000000000000000000000000000005f52604160045260245ffd5b620001d5826200018d565b810181811067ffffffffffffffff82111715620001f757620001f66200019d565b5b80604052505050565b5f6200020b62000174565b9050620002198282620001ca565b919050565b5f67ffffffffffffffff8211156200023b576200023a6200019d565b5b62000246826200018d565b9050602081019050919050565b5f5b838110156200027257808201518184015260208101905062000255565b5f8484015250505050565b5f620002936200028d846200021e565b62000200565b905082815260208101848484011115620002b257620002b162000189565b5b620002bf84828562000253565b509392505050565b5f82601f830112620002de57620002dd62000185565b5b8151620002f08482602086016200027d565b91505092915050565b5f819050919050565b6200030d81620002f9565b811462000318575f80fd5b50565b5f815190506200032b8162000302565b92915050565b5f805f80608085870312156200034c576200034b6200017d565b5b5f85015167ffffffffffffffff8111156200036c576200036b62000181565b5b6200037a87828801620002c7565b945050602085015167ffffffffffffffff8111156200039e576200039d62000181565b5b620003ac87828801620002c7565b935050604085015167ffffffffffffffff811115620003d057620003cf62000181565b5b620003de87828801620002c7565b9250506060620003f1878288016200031b565b91505092959194509250565b7f4e487b71000000000000000000000000000000000000000000000000000000005f52602160045260245ffd5b5f81519050919050565b7f4e487b71000000000000000000000000000000000000000000000000000000005f52602260045260245ffd5b5f60028204905060018216806200047957607f821691505b6020821081036200048f576200048e62000434565b5b50919050565b5f819050815f5260205f209050919050565b5f6020601f8301049050919050565b5f82821b905092915050565b5f60088302620004f37fffffffffffffffffffffffffffffffffffffffffffffffffffffffffffffffff82620004b6565b620004ff8683620004b6565b95508019841693508086168417925050509392505050565b5f819050919050565b5f620005406200053a6200053484620002f9565b62000517565b620002f9565b9050919050565b5f819050919050565b6200055b8362000520565b620005736200056a8262000547565b848454620004c2565b825550505050565b5f90565b620005896200057b565b6200059681848462000550565b505050565b5b81811015620005bd57620005b15f826200057f565b6001810190506200059c565b5050565b601f8211156200060c57620005d68162000495565b620005e184620004a7565b81016020851015620005f1578190505b620006096200060085620004a7565b8301826200059b565b50505b505050565b5f82821c905092915050565b5f6200062e5f198460080262000611565b1980831691505092915050565b5f6200064883836200061d565b9150826002028217905092915050565b62000663826200042a565b67ffffffffffffffff8111156200067f576200067e6200019d565b5b6200068b825462000461565b62000698828285620005c1565b5f60209050601f831160018114620006ce575f8415620006b9578287015190505b620006c585826200063b565b86555062000734565b601f198416620006de8662000495565b5f5b828110156200070757848901518255600182019150602085019450602081019050620006e0565b8683101562000727578489015162000723601f8916826200061d565b8355505b6001600288020188555050505b505050505050565b610eee806200074a5f395ff3fe608060405260043610610033575f3560e01c80635699fadc14610037578063d63dc6611461005f578063f60ca60d14610069575b5f80fd5b348015610042575f80fd5b5061005d60048036038101906100589190610766565b610099565b005b6100676102d3565b005b348015610074575f80fd5b5061007d610554565b60405161009097969594939291906108e5565b60405180910390f35b5f6003015f9054906101000a900473ffffffffffffffffffffffffffffffffffffffff1673ffffffffffffffffffffffffffffffffffffffff163373ffffffffffffffffffffffffffffffffffffffff161461012a576040517f08c379a0000000000000000000000000000000000000000000000000000000008152600401610121906109d7565b60405180910390fd5b60018081111561013d5761013c610872565b5b8160018111156101505761014f610872565b5b148061017f57505f600181111561016a57610169610872565b5b81600181111561017d5761017c610872565b5b145b6101be576040517f08c379a00000000000000000000000000000000000000000000000000000000081526004016101b590610a3f565b60405180910390fd5b5f6005015f9054906101000a900460ff166040516020016101df9190610a91565b60405160208183030381529060405280519060200120816040516020016102069190610a91565b604051602081830303815290604052805190602001200361025c576040517f08c379a000000000000000000000000000000000000000000000000000000000815260040161025390610b41565b60405180910390fd5b805f6005015f6101000a81548160ff0219169083600181111561028257610281610872565b5b02179055507fac1b5c5df620e722e8a652942d621721fafecfe339e66b5db61ba54c5e530b29335f6005015f9054906101000a900460ff166040516102c8929190610b7f565b60405180910390a150565b5f6003015f9054906101000a900473ffffffffffffffffffffffffffffffffffffffff1673ffffffffffffffffffffffffffffffffffffffff163373ffffffffffffffffffffffffffffffffffffffff1603610364576040517f08c379a000000000000000000000000000000000000000000000000000000000815260040161035b90610bf0565b60405180910390fd5b60405160200161037390610c62565b604051602081830303815290604052805190602001205f6005015f9054906101000a900460ff166040516020016103aa9190610a91565b6040516020818303038152906040528051906020012003610400576040517f08c379a00000000000000000000000000000000000000000000000000000000081526004016103f790610cc0565b60405180910390fd5b5f3411610442576040517f08c379a000000000000000000000000000000000000000000000000000000000815260040161043990610d4e565b60405180910390fd5b5f60060154346104529190610d99565b5f600401541015610498576040517f08c379a000000000000000000000000000000000000000000000000000000000815260040161048f90610e16565b60405180910390fd5b5f6003015f9054906101000a900473ffffffffffffffffffffffffffffffffffffffff1673ffffffffffffffffffffffffffffffffffffffff166108fc3490811502906040515f60405180830381858888f193505050501580156104fe573d5f803e3d5ffd5b50345f6006015f8282546105129190610d99565b925050819055507f9dbcb1d3adc1305990f05754143d0baf2f49fa6124b6e9f9ee509b31f2ad300b333460405161054a929190610e34565b60405180910390a1565b5f805f01805461056390610e88565b80601f016020809104026020016040519081016040528092919081815260200182805461058f90610e88565b80156105da5780601f106105b1576101008083540402835291602001916105da565b820191905f5260205f20905b8154815290600101906020018083116105bd57829003601f168201915b5050505050908060010180546105ef90610e88565b80601f016020809104026020016040519081016040528092919081815260200182805461061b90610e88565b80156106665780601f1061063d57610100808354040283529160200191610666565b820191905f5260205f20905b81548152906001019060200180831161064957829003601f168201915b50505050509080600201805461067b90610e88565b80601f01602080910402602001604051908101604052809291908181526020018280546106a790610e88565b80156106f25780601f106106c9576101008083540402835291602001916106f2565b820191905f5260205f20905b8154815290600101906020018083116106d557829003601f168201915b505050505090806003015f9054906101000a900473ffffffffffffffffffffffffffffffffffffffff1690806004015490806005015f9054906101000a900460ff16908060060154905087565b5f80fd5b6002811061074f575f80fd5b50565b5f8135905061076081610743565b92915050565b5f6020828403121561077b5761077a61073f565b5b5f61078884828501610752565b91505092915050565b5f81519050919050565b5f82825260208201905092915050565b5f5b838110156107c85780820151818401526020810190506107ad565b5f8484015250505050565b5f601f19601f8301169050919050565b5f6107ed82610791565b6107f7818561079b565b93506108078185602086016107ab565b610810816107d3565b840191505092915050565b5f73ffffffffffffffffffffffffffffffffffffffff82169050919050565b5f6108448261081b565b9050919050565b6108548161083a565b82525050565b5f819050919050565b61086c8161085a565b82525050565b7f4e487b71000000000000000000000000000000000000000000000000000000005f52602160045260245ffd5b600281106108b0576108af610872565b5b50565b5f8190506108c08261089f565b919050565b5f6108cf826108b3565b9050919050565b6108df816108c5565b82525050565b5f60e0820190508181035f8301526108fd818a6107e3565b9050818103602083015261091181896107e3565b9050818103604083015261092581886107e3565b9050610934606083018761084b565b6109416080830186610863565b61094e60a08301856108d6565b61095b60c0830184610863565b98975050505050505050565b7f4f6e6c7920746865206f776e65722063616e206368616e6765207468652070725f8201527f6f6a656374207374617465000000000000000000000000000000000000000000602082015250565b5f6109c1602b8361079b565b91506109cc82610967565b604082019050919050565b5f6020820190508181035f8301526109ee816109b5565b9050919050565b7f53746174654e6f74446566696e65643a20496e76616c696420737461746500005f82015250565b5f610a29601e8361079b565b9150610a34826109f5565b602082019050919050565b5f6020820190508181035f830152610a5681610a1d565b9050919050565b5f8160f81b9050919050565b5f610a7382610a5d565b9050919050565b610a8b610a86826108c5565b610a69565b82525050565b5f610a9c8284610a7a565b60018201915081905092915050565b7f53746174654e6f74446566696e65643a204e6577207374617465206d757374205f8201527f626520646966666572656e742066726f6d207468652063757272656e74206f6e60208201527f6500000000000000000000000000000000000000000000000000000000000000604082015250565b5f610b2b60418361079b565b9150610b3682610aab565b606082019050919050565b5f6020820190508181035f830152610b5881610b1f565b9050919050565b5f610b698261081b565b9050919050565b610b7981610b5f565b82525050565b5f604082019050610b925f830185610b70565b610b9f60208301846108d6565b9392505050565b7f4f776e6572732063616e27742066756e642074686569722070726f6a656374005f82015250565b5f610bda601f8361079b565b9150610be582610ba6565b602082019050919050565b5f6020820190508181035f830152610c0781610bce565b9050919050565b5f81905092915050565b7f436c6f73656400000000000000000000000000000000000000000000000000005f82015250565b5f610c4c600683610c0e565b9150610c5782610c18565b600682019050919050565b5f610c6c82610c40565b9150819050919050565b7f5374617465436c6f7365643a2050726f6a65637420697320636c6f73656400005f82015250565b5f610caa601e8361079b565b9150610cb582610c76565b602082019050919050565b5f6020820190508181035f830152610cd781610c9e565b9050919050565b7f54686520636f6e747269627574696f6e206d757374206861766520612076616c5f8201527f75652067726561746572207468616e207a65726f000000000000000000000000602082015250565b5f610d3860348361079b565b9150610d4382610cde565b604082019050919050565b5f6020820190508181035f830152610d6581610d2c565b9050919050565b7f4e487b71000000000000000000000000000000000000000000000000000000005f52601160045260245ffd5b5f610da38261085a565b9150610dae8361085a565b9250828201905080821115610dc657610dc5610d6c565b5b92915050565b7f5468652066756e6472616973696e6720676f616c2069732065786365656465645f82015250565b5f610e0060208361079b565b9150610e0b82610dcc565b602082019050919050565b5f6020820190508181035f830152610e2d81610df4565b9050919050565b5f604082019050610e475f830185610b70565b610e546020830184610863565b9392505050565b7f4e487b71000000000000000000000000000000000000000000000000000000005f52602260045260245ffd5b5f6002820490506001821680610e9f57607f821691505b602082108103610eb257610eb1610e5b565b5b5091905056fea2646970667358221220640285af4d177c1de542255cabf6536a3cb42c44abd8f18559f7ba3a151d407c64736f6c63430008180033",
					"opcodes": "PUSH1 0x80 PUSH1 0x40 MSTORE CALLVALUE DUP1 ISZERO PUSH3 0x10 JUMPI PUSH0 DUP1 REVERT JUMPDEST POP PUSH1 0x40 MLOAD PUSH3 0x1638 CODESIZE SUB DUP1 PUSH3 0x1638 DUP4 CODECOPY DUP2 DUP2 ADD PUSH1 0x40 MSTORE DUP2 ADD SWAP1 PUSH3 0x36 SWAP2 SWAP1 PUSH3 0x331 JUMP JUMPDEST PUSH1 0x40 MLOAD DUP1 PUSH1 0xE0 ADD PUSH1 0x40 MSTORE DUP1 DUP6 DUP2 MSTORE PUSH1 0x20 ADD DUP5 DUP2 MSTORE PUSH1 0x20 ADD DUP4 DUP2 MSTORE PUSH1 0x20 ADD CALLER PUSH20 0xFFFFFFFFFFFFFFFFFFFFFFFFFFFFFFFFFFFFFFFF AND DUP2 MSTORE PUSH1 0x20 ADD DUP3 DUP2 MSTORE PUSH1 0x20 ADD PUSH1 0x1 DUP1 DUP2 GT ISZERO PUSH3 0x8B JUMPI PUSH3 0x8A PUSH3 0x3FD JUMP JUMPDEST JUMPDEST DUP2 MSTORE PUSH1 0x20 ADD PUSH0 DUP2 MSTORE POP PUSH0 DUP1 DUP3 ADD MLOAD DUP2 PUSH0 ADD SWAP1 DUP2 PUSH3 0xAA SWAP2 SWAP1 PUSH3 0x658 JUMP JUMPDEST POP PUSH1 0x20 DUP3 ADD MLOAD DUP2 PUSH1 0x1 ADD SWAP1 DUP2 PUSH3 0xC2 SWAP2 SWAP1 PUSH3 0x658 JUMP JUMPDEST POP PUSH1 0x40 DUP3 ADD MLOAD DUP2 PUSH1 0x2 ADD SWAP1 DUP2 PUSH3 0xDA SWAP2 SWAP1 PUSH3 0x658 JUMP JUMPDEST POP PUSH1 0x60 DUP3 ADD MLOAD DUP2 PUSH1 0x3 ADD PUSH0 PUSH2 0x100 EXP DUP2 SLOAD DUP2 PUSH20 0xFFFFFFFFFFFFFFFFFFFFFFFFFFFFFFFFFFFFFFFF MUL NOT AND SWAP1 DUP4 PUSH20 0xFFFFFFFFFFFFFFFFFFFFFFFFFFFFFFFFFFFFFFFF AND MUL OR SWAP1 SSTORE POP PUSH1 0x80 DUP3 ADD MLOAD DUP2 PUSH1 0x4 ADD SSTORE PUSH1 0xA0 DUP3 ADD MLOAD DUP2 PUSH1 0x5 ADD PUSH0 PUSH2 0x100 EXP DUP2 SLOAD DUP2 PUSH1 0xFF MUL NOT AND SWAP1 DUP4 PUSH1 0x1 DUP2 GT ISZERO PUSH3 0x158 JUMPI PUSH3 0x157 PUSH3 0x3FD JUMP JUMPDEST JUMPDEST MUL OR SWAP1 SSTORE POP PUSH1 0xC0 DUP3 ADD MLOAD DUP2 PUSH1 0x6 ADD SSTORE SWAP1 POP POP POP POP POP POP PUSH3 0x73C JUMP JUMPDEST PUSH0 PUSH1 0x40 MLOAD SWAP1 POP SWAP1 JUMP JUMPDEST PUSH0 DUP1 REVERT JUMPDEST PUSH0 DUP1 REVERT JUMPDEST PUSH0 DUP1 REVERT JUMPDEST PUSH0 DUP1 REVERT JUMPDEST PUSH0 PUSH1 0x1F NOT PUSH1 0x1F DUP4 ADD AND SWAP1 POP SWAP2 SWAP1 POP JUMP JUMPDEST PUSH32 0x4E487B7100000000000000000000000000000000000000000000000000000000 PUSH0 MSTORE PUSH1 0x41 PUSH1 0x4 MSTORE PUSH1 0x24 PUSH0 REVERT JUMPDEST PUSH3 0x1D5 DUP3 PUSH3 0x18D JUMP JUMPDEST DUP2 ADD DUP2 DUP2 LT PUSH8 0xFFFFFFFFFFFFFFFF DUP3 GT OR ISZERO PUSH3 0x1F7 JUMPI PUSH3 0x1F6 PUSH3 0x19D JUMP JUMPDEST JUMPDEST DUP1 PUSH1 0x40 MSTORE POP POP POP JUMP JUMPDEST PUSH0 PUSH3 0x20B PUSH3 0x174 JUMP JUMPDEST SWAP1 POP PUSH3 0x219 DUP3 DUP3 PUSH3 0x1CA JUMP JUMPDEST SWAP2 SWAP1 POP JUMP JUMPDEST PUSH0 PUSH8 0xFFFFFFFFFFFFFFFF DUP3 GT ISZERO PUSH3 0x23B JUMPI PUSH3 0x23A PUSH3 0x19D JUMP JUMPDEST JUMPDEST PUSH3 0x246 DUP3 PUSH3 0x18D JUMP JUMPDEST SWAP1 POP PUSH1 0x20 DUP2 ADD SWAP1 POP SWAP2 SWAP1 POP JUMP JUMPDEST PUSH0 JUMPDEST DUP4 DUP2 LT ISZERO PUSH3 0x272 JUMPI DUP1 DUP3 ADD MLOAD DUP2 DUP5 ADD MSTORE PUSH1 0x20 DUP2 ADD SWAP1 POP PUSH3 0x255 JUMP JUMPDEST PUSH0 DUP5 DUP5 ADD MSTORE POP POP POP POP JUMP JUMPDEST PUSH0 PUSH3 0x293 PUSH3 0x28D DUP5 PUSH3 0x21E JUMP JUMPDEST PUSH3 0x200 JUMP JUMPDEST SWAP1 POP DUP3 DUP2 MSTORE PUSH1 0x20 DUP2 ADD DUP5 DUP5 DUP5 ADD GT ISZERO PUSH3 0x2B2 JUMPI PUSH3 0x2B1 PUSH3 0x189 JUMP JUMPDEST JUMPDEST PUSH3 0x2BF DUP5 DUP3 DUP6 PUSH3 0x253 JUMP JUMPDEST POP SWAP4 SWAP3 POP POP POP JUMP JUMPDEST PUSH0 DUP3 PUSH1 0x1F DUP4 ADD SLT PUSH3 0x2DE JUMPI PUSH3 0x2DD PUSH3 0x185 JUMP JUMPDEST JUMPDEST DUP2 MLOAD PUSH3 0x2F0 DUP5 DUP3 PUSH1 0x20 DUP7 ADD PUSH3 0x27D JUMP JUMPDEST SWAP2 POP POP SWAP3 SWAP2 POP POP JUMP JUMPDEST PUSH0 DUP2 SWAP1 POP SWAP2 SWAP1 POP JUMP JUMPDEST PUSH3 0x30D DUP2 PUSH3 0x2F9 JUMP JUMPDEST DUP2 EQ PUSH3 0x318 JUMPI PUSH0 DUP1 REVERT JUMPDEST POP JUMP JUMPDEST PUSH0 DUP2 MLOAD SWAP1 POP PUSH3 0x32B DUP2 PUSH3 0x302 JUMP JUMPDEST SWAP3 SWAP2 POP POP JUMP JUMPDEST PUSH0 DUP1 PUSH0 DUP1 PUSH1 0x80 DUP6 DUP8 SUB SLT ISZERO PUSH3 0x34C JUMPI PUSH3 0x34B PUSH3 0x17D JUMP JUMPDEST JUMPDEST PUSH0 DUP6 ADD MLOAD PUSH8 0xFFFFFFFFFFFFFFFF DUP2 GT ISZERO PUSH3 0x36C JUMPI PUSH3 0x36B PUSH3 0x181 JUMP JUMPDEST JUMPDEST PUSH3 0x37A DUP8 DUP3 DUP9 ADD PUSH3 0x2C7 JUMP JUMPDEST SWAP5 POP POP PUSH1 0x20 DUP6 ADD MLOAD PUSH8 0xFFFFFFFFFFFFFFFF DUP2 GT ISZERO PUSH3 0x39E JUMPI PUSH3 0x39D PUSH3 0x181 JUMP JUMPDEST JUMPDEST PUSH3 0x3AC DUP8 DUP3 DUP9 ADD PUSH3 0x2C7 JUMP JUMPDEST SWAP4 POP POP PUSH1 0x40 DUP6 ADD MLOAD PUSH8 0xFFFFFFFFFFFFFFFF DUP2 GT ISZERO PUSH3 0x3D0 JUMPI PUSH3 0x3CF PUSH3 0x181 JUMP JUMPDEST JUMPDEST PUSH3 0x3DE DUP8 DUP3 DUP9 ADD PUSH3 0x2C7 JUMP JUMPDEST SWAP3 POP POP PUSH1 0x60 PUSH3 0x3F1 DUP8 DUP3 DUP9 ADD PUSH3 0x31B JUMP JUMPDEST SWAP2 POP POP SWAP3 SWAP6 SWAP2 SWAP5 POP SWAP3 POP JUMP JUMPDEST PUSH32 0x4E487B7100000000000000000000000000000000000000000000000000000000 PUSH0 MSTORE PUSH1 0x21 PUSH1 0x4 MSTORE PUSH1 0x24 PUSH0 REVERT JUMPDEST PUSH0 DUP2 MLOAD SWAP1 POP SWAP2 SWAP1 POP JUMP JUMPDEST PUSH32 0x4E487B7100000000000000000000000000000000000000000000000000000000 PUSH0 MSTORE PUSH1 0x22 PUSH1 0x4 MSTORE PUSH1 0x24 PUSH0 REVERT JUMPDEST PUSH0 PUSH1 0x2 DUP3 DIV SWAP1 POP PUSH1 0x1 DUP3 AND DUP1 PUSH3 0x479 JUMPI PUSH1 0x7F DUP3 AND SWAP2 POP JUMPDEST PUSH1 0x20 DUP3 LT DUP2 SUB PUSH3 0x48F JUMPI PUSH3 0x48E PUSH3 0x434 JUMP JUMPDEST JUMPDEST POP SWAP2 SWAP1 POP JUMP JUMPDEST PUSH0 DUP2 SWAP1 POP DUP2 PUSH0 MSTORE PUSH1 0x20 PUSH0 KECCAK256 SWAP1 POP SWAP2 SWAP1 POP JUMP JUMPDEST PUSH0 PUSH1 0x20 PUSH1 0x1F DUP4 ADD DIV SWAP1 POP SWAP2 SWAP1 POP JUMP JUMPDEST PUSH0 DUP3 DUP3 SHL SWAP1 POP SWAP3 SWAP2 POP POP JUMP JUMPDEST PUSH0 PUSH1 0x8 DUP4 MUL PUSH3 0x4F3 PUSH32 0xFFFFFFFFFFFFFFFFFFFFFFFFFFFFFFFFFFFFFFFFFFFFFFFFFFFFFFFFFFFFFFFF DUP3 PUSH3 0x4B6 JUMP JUMPDEST PUSH3 0x4FF DUP7 DUP4 PUSH3 0x4B6 JUMP JUMPDEST SWAP6 POP DUP1 NOT DUP5 AND SWAP4 POP DUP1 DUP7 AND DUP5 OR SWAP3 POP POP POP SWAP4 SWAP3 POP POP POP JUMP JUMPDEST PUSH0 DUP2 SWAP1 POP SWAP2 SWAP1 POP JUMP JUMPDEST PUSH0 PUSH3 0x540 PUSH3 0x53A PUSH3 0x534 DUP5 PUSH3 0x2F9 JUMP JUMPDEST PUSH3 0x517 JUMP JUMPDEST PUSH3 0x2F9 JUMP JUMPDEST SWAP1 POP SWAP2 SWAP1 POP JUMP JUMPDEST PUSH0 DUP2 SWAP1 POP SWAP2 SWAP1 POP JUMP JUMPDEST PUSH3 0x55B DUP4 PUSH3 0x520 JUMP JUMPDEST PUSH3 0x573 PUSH3 0x56A DUP3 PUSH3 0x547 JUMP JUMPDEST DUP5 DUP5 SLOAD PUSH3 0x4C2 JUMP JUMPDEST DUP3 SSTORE POP POP POP POP JUMP JUMPDEST PUSH0 SWAP1 JUMP JUMPDEST PUSH3 0x589 PUSH3 0x57B JUMP JUMPDEST PUSH3 0x596 DUP2 DUP5 DUP5 PUSH3 0x550 JUMP JUMPDEST POP POP POP JUMP JUMPDEST JUMPDEST DUP2 DUP2 LT ISZERO PUSH3 0x5BD JUMPI PUSH3 0x5B1 PUSH0 DUP3 PUSH3 0x57F JUMP JUMPDEST PUSH1 0x1 DUP2 ADD SWAP1 POP PUSH3 0x59C JUMP JUMPDEST POP POP JUMP JUMPDEST PUSH1 0x1F DUP3 GT ISZERO PUSH3 0x60C JUMPI PUSH3 0x5D6 DUP2 PUSH3 0x495 JUMP JUMPDEST PUSH3 0x5E1 DUP5 PUSH3 0x4A7 JUMP JUMPDEST DUP2 ADD PUSH1 0x20 DUP6 LT ISZERO PUSH3 0x5F1 JUMPI DUP2 SWAP1 POP JUMPDEST PUSH3 0x609 PUSH3 0x600 DUP6 PUSH3 0x4A7 JUMP JUMPDEST DUP4 ADD DUP3 PUSH3 0x59B JUMP JUMPDEST POP POP JUMPDEST POP POP POP JUMP JUMPDEST PUSH0 DUP3 DUP3 SHR SWAP1 POP SWAP3 SWAP2 POP POP JUMP JUMPDEST PUSH0 PUSH3 0x62E PUSH0 NOT DUP5 PUSH1 0x8 MUL PUSH3 0x611 JUMP JUMPDEST NOT DUP1 DUP4 AND SWAP2 POP POP SWAP3 SWAP2 POP POP JUMP JUMPDEST PUSH0 PUSH3 0x648 DUP4 DUP4 PUSH3 0x61D JUMP JUMPDEST SWAP2 POP DUP3 PUSH1 0x2 MUL DUP3 OR SWAP1 POP SWAP3 SWAP2 POP POP JUMP JUMPDEST PUSH3 0x663 DUP3 PUSH3 0x42A JUMP JUMPDEST PUSH8 0xFFFFFFFFFFFFFFFF DUP2 GT ISZERO PUSH3 0x67F JUMPI PUSH3 0x67E PUSH3 0x19D JUMP JUMPDEST JUMPDEST PUSH3 0x68B DUP3 SLOAD PUSH3 0x461 JUMP JUMPDEST PUSH3 0x698 DUP3 DUP3 DUP6 PUSH3 0x5C1 JUMP JUMPDEST PUSH0 PUSH1 0x20 SWAP1 POP PUSH1 0x1F DUP4 GT PUSH1 0x1 DUP2 EQ PUSH3 0x6CE JUMPI PUSH0 DUP5 ISZERO PUSH3 0x6B9 JUMPI DUP3 DUP8 ADD MLOAD SWAP1 POP JUMPDEST PUSH3 0x6C5 DUP6 DUP3 PUSH3 0x63B JUMP JUMPDEST DUP7 SSTORE POP PUSH3 0x734 JUMP JUMPDEST PUSH1 0x1F NOT DUP5 AND PUSH3 0x6DE DUP7 PUSH3 0x495 JUMP JUMPDEST PUSH0 JUMPDEST DUP3 DUP2 LT ISZERO PUSH3 0x707 JUMPI DUP5 DUP10 ADD MLOAD DUP3 SSTORE PUSH1 0x1 DUP3 ADD SWAP2 POP PUSH1 0x20 DUP6 ADD SWAP5 POP PUSH1 0x20 DUP2 ADD SWAP1 POP PUSH3 0x6E0 JUMP JUMPDEST DUP7 DUP4 LT ISZERO PUSH3 0x727 JUMPI DUP5 DUP10 ADD MLOAD PUSH3 0x723 PUSH1 0x1F DUP10 AND DUP3 PUSH3 0x61D JUMP JUMPDEST DUP4 SSTORE POP JUMPDEST PUSH1 0x1 PUSH1 0x2 DUP9 MUL ADD DUP9 SSTORE POP POP POP JUMPDEST POP POP POP POP POP POP JUMP JUMPDEST PUSH2 0xEEE DUP1 PUSH3 0x74A PUSH0 CODECOPY PUSH0 RETURN INVALID PUSH1 0x80 PUSH1 0x40 MSTORE PUSH1 0x4 CALLDATASIZE LT PUSH2 0x33 JUMPI PUSH0 CALLDATALOAD PUSH1 0xE0 SHR DUP1 PUSH4 0x5699FADC EQ PUSH2 0x37 JUMPI DUP1 PUSH4 0xD63DC661 EQ PUSH2 0x5F JUMPI DUP1 PUSH4 0xF60CA60D EQ PUSH2 0x69 JUMPI JUMPDEST PUSH0 DUP1 REVERT JUMPDEST CALLVALUE DUP1 ISZERO PUSH2 0x42 JUMPI PUSH0 DUP1 REVERT JUMPDEST POP PUSH2 0x5D PUSH1 0x4 DUP1 CALLDATASIZE SUB DUP2 ADD SWAP1 PUSH2 0x58 SWAP2 SWAP1 PUSH2 0x766 JUMP JUMPDEST PUSH2 0x99 JUMP JUMPDEST STOP JUMPDEST PUSH2 0x67 PUSH2 0x2D3 JUMP JUMPDEST STOP JUMPDEST CALLVALUE DUP1 ISZERO PUSH2 0x74 JUMPI PUSH0 DUP1 REVERT JUMPDEST POP PUSH2 0x7D PUSH2 0x554 JUMP JUMPDEST PUSH1 0x40 MLOAD PUSH2 0x90 SWAP8 SWAP7 SWAP6 SWAP5 SWAP4 SWAP3 SWAP2 SWAP1 PUSH2 0x8E5 JUMP JUMPDEST PUSH1 0x40 MLOAD DUP1 SWAP2 SUB SWAP1 RETURN JUMPDEST PUSH0 PUSH1 0x3 ADD PUSH0 SWAP1 SLOAD SWAP1 PUSH2 0x100 EXP SWAP1 DIV PUSH20 0xFFFFFFFFFFFFFFFFFFFFFFFFFFFFFFFFFFFFFFFF AND PUSH20 0xFFFFFFFFFFFFFFFFFFFFFFFFFFFFFFFFFFFFFFFF AND CALLER PUSH20 0xFFFFFFFFFFFFFFFFFFFFFFFFFFFFFFFFFFFFFFFF AND EQ PUSH2 0x12A JUMPI PUSH1 0x40 MLOAD PUSH32 0x8C379A000000000000000000000000000000000000000000000000000000000 DUP2 MSTORE PUSH1 0x4 ADD PUSH2 0x121 SWAP1 PUSH2 0x9D7 JUMP JUMPDEST PUSH1 0x40 MLOAD DUP1 SWAP2 SUB SWAP1 REVERT JUMPDEST PUSH1 0x1 DUP1 DUP2 GT ISZERO PUSH2 0x13D JUMPI PUSH2 0x13C PUSH2 0x872 JUMP JUMPDEST JUMPDEST DUP2 PUSH1 0x1 DUP2 GT ISZERO PUSH2 0x150 JUMPI PUSH2 0x14F PUSH2 0x872 JUMP JUMPDEST JUMPDEST EQ DUP1 PUSH2 0x17F JUMPI POP PUSH0 PUSH1 0x1 DUP2 GT ISZERO PUSH2 0x16A JUMPI PUSH2 0x169 PUSH2 0x872 JUMP JUMPDEST JUMPDEST DUP2 PUSH1 0x1 DUP2 GT ISZERO PUSH2 0x17D JUMPI PUSH2 0x17C PUSH2 0x872 JUMP JUMPDEST JUMPDEST EQ JUMPDEST PUSH2 0x1BE JUMPI PUSH1 0x40 MLOAD PUSH32 0x8C379A000000000000000000000000000000000000000000000000000000000 DUP2 MSTORE PUSH1 0x4 ADD PUSH2 0x1B5 SWAP1 PUSH2 0xA3F JUMP JUMPDEST PUSH1 0x40 MLOAD DUP1 SWAP2 SUB SWAP1 REVERT JUMPDEST PUSH0 PUSH1 0x5 ADD PUSH0 SWAP1 SLOAD SWAP1 PUSH2 0x100 EXP SWAP1 DIV PUSH1 0xFF AND PUSH1 0x40 MLOAD PUSH1 0x20 ADD PUSH2 0x1DF SWAP2 SWAP1 PUSH2 0xA91 JUMP JUMPDEST PUSH1 0x40 MLOAD PUSH1 0x20 DUP2 DUP4 SUB SUB DUP2 MSTORE SWAP1 PUSH1 0x40 MSTORE DUP1 MLOAD SWAP1 PUSH1 0x20 ADD KECCAK256 DUP2 PUSH1 0x40 MLOAD PUSH1 0x20 ADD PUSH2 0x206 SWAP2 SWAP1 PUSH2 0xA91 JUMP JUMPDEST PUSH1 0x40 MLOAD PUSH1 0x20 DUP2 DUP4 SUB SUB DUP2 MSTORE SWAP1 PUSH1 0x40 MSTORE DUP1 MLOAD SWAP1 PUSH1 0x20 ADD KECCAK256 SUB PUSH2 0x25C JUMPI PUSH1 0x40 MLOAD PUSH32 0x8C379A000000000000000000000000000000000000000000000000000000000 DUP2 MSTORE PUSH1 0x4 ADD PUSH2 0x253 SWAP1 PUSH2 0xB41 JUMP JUMPDEST PUSH1 0x40 MLOAD DUP1 SWAP2 SUB SWAP1 REVERT JUMPDEST DUP1 PUSH0 PUSH1 0x5 ADD PUSH0 PUSH2 0x100 EXP DUP2 SLOAD DUP2 PUSH1 0xFF MUL NOT AND SWAP1 DUP4 PUSH1 0x1 DUP2 GT ISZERO PUSH2 0x282 JUMPI PUSH2 0x281 PUSH2 0x872 JUMP JUMPDEST JUMPDEST MUL OR SWAP1 SSTORE POP PUSH32 0xAC1B5C5DF620E722E8A652942D621721FAFECFE339E66B5DB61BA54C5E530B29 CALLER PUSH0 PUSH1 0x5 ADD PUSH0 SWAP1 SLOAD SWAP1 PUSH2 0x100 EXP SWAP1 DIV PUSH1 0xFF AND PUSH1 0x40 MLOAD PUSH2 0x2C8 SWAP3 SWAP2 SWAP1 PUSH2 0xB7F JUMP JUMPDEST PUSH1 0x40 MLOAD DUP1 SWAP2 SUB SWAP1 LOG1 POP JUMP JUMPDEST PUSH0 PUSH1 0x3 ADD PUSH0 SWAP1 SLOAD SWAP1 PUSH2 0x100 EXP SWAP1 DIV PUSH20 0xFFFFFFFFFFFFFFFFFFFFFFFFFFFFFFFFFFFFFFFF AND PUSH20 0xFFFFFFFFFFFFFFFFFFFFFFFFFFFFFFFFFFFFFFFF AND CALLER PUSH20 0xFFFFFFFFFFFFFFFFFFFFFFFFFFFFFFFFFFFFFFFF AND SUB PUSH2 0x364 JUMPI PUSH1 0x40 MLOAD PUSH32 0x8C379A000000000000000000000000000000000000000000000000000000000 DUP2 MSTORE PUSH1 0x4 ADD PUSH2 0x35B SWAP1 PUSH2 0xBF0 JUMP JUMPDEST PUSH1 0x40 MLOAD DUP1 SWAP2 SUB SWAP1 REVERT JUMPDEST PUSH1 0x40 MLOAD PUSH1 0x20 ADD PUSH2 0x373 SWAP1 PUSH2 0xC62 JUMP JUMPDEST PUSH1 0x40 MLOAD PUSH1 0x20 DUP2 DUP4 SUB SUB DUP2 MSTORE SWAP1 PUSH1 0x40 MSTORE DUP1 MLOAD SWAP1 PUSH1 0x20 ADD KECCAK256 PUSH0 PUSH1 0x5 ADD PUSH0 SWAP1 SLOAD SWAP1 PUSH2 0x100 EXP SWAP1 DIV PUSH1 0xFF AND PUSH1 0x40 MLOAD PUSH1 0x20 ADD PUSH2 0x3AA SWAP2 SWAP1 PUSH2 0xA91 JUMP JUMPDEST PUSH1 0x40 MLOAD PUSH1 0x20 DUP2 DUP4 SUB SUB DUP2 MSTORE SWAP1 PUSH1 0x40 MSTORE DUP1 MLOAD SWAP1 PUSH1 0x20 ADD KECCAK256 SUB PUSH2 0x400 JUMPI PUSH1 0x40 MLOAD PUSH32 0x8C379A000000000000000000000000000000000000000000000000000000000 DUP2 MSTORE PUSH1 0x4 ADD PUSH2 0x3F7 SWAP1 PUSH2 0xCC0 JUMP JUMPDEST PUSH1 0x40 MLOAD DUP1 SWAP2 SUB SWAP1 REVERT JUMPDEST PUSH0 CALLVALUE GT PUSH2 0x442 JUMPI PUSH1 0x40 MLOAD PUSH32 0x8C379A000000000000000000000000000000000000000000000000000000000 DUP2 MSTORE PUSH1 0x4 ADD PUSH2 0x439 SWAP1 PUSH2 0xD4E JUMP JUMPDEST PUSH1 0x40 MLOAD DUP1 SWAP2 SUB SWAP1 REVERT JUMPDEST PUSH0 PUSH1 0x6 ADD SLOAD CALLVALUE PUSH2 0x452 SWAP2 SWAP1 PUSH2 0xD99 JUMP JUMPDEST PUSH0 PUSH1 0x4 ADD SLOAD LT ISZERO PUSH2 0x498 JUMPI PUSH1 0x40 MLOAD PUSH32 0x8C379A000000000000000000000000000000000000000000000000000000000 DUP2 MSTORE PUSH1 0x4 ADD PUSH2 0x48F SWAP1 PUSH2 0xE16 JUMP JUMPDEST PUSH1 0x40 MLOAD DUP1 SWAP2 SUB SWAP1 REVERT JUMPDEST PUSH0 PUSH1 0x3 ADD PUSH0 SWAP1 SLOAD SWAP1 PUSH2 0x100 EXP SWAP1 DIV PUSH20 0xFFFFFFFFFFFFFFFFFFFFFFFFFFFFFFFFFFFFFFFF AND PUSH20 0xFFFFFFFFFFFFFFFFFFFFFFFFFFFFFFFFFFFFFFFF AND PUSH2 0x8FC CALLVALUE SWAP1 DUP2 ISZERO MUL SWAP1 PUSH1 0x40 MLOAD PUSH0 PUSH1 0x40 MLOAD DUP1 DUP4 SUB DUP2 DUP6 DUP9 DUP9 CALL SWAP4 POP POP POP POP ISZERO DUP1 ISZERO PUSH2 0x4FE JUMPI RETURNDATASIZE PUSH0 DUP1 RETURNDATACOPY RETURNDATASIZE PUSH0 REVERT JUMPDEST POP CALLVALUE PUSH0 PUSH1 0x6 ADD PUSH0 DUP3 DUP3 SLOAD PUSH2 0x512 SWAP2 SWAP1 PUSH2 0xD99 JUMP JUMPDEST SWAP3 POP POP DUP2 SWAP1 SSTORE POP PUSH32 0x9DBCB1D3ADC1305990F05754143D0BAF2F49FA6124B6E9F9EE509B31F2AD300B CALLER CALLVALUE PUSH1 0x40 MLOAD PUSH2 0x54A SWAP3 SWAP2 SWAP1 PUSH2 0xE34 JUMP JUMPDEST PUSH1 0x40 MLOAD DUP1 SWAP2 SUB SWAP1 LOG1 JUMP JUMPDEST PUSH0 DUP1 PUSH0 ADD DUP1 SLOAD PUSH2 0x563 SWAP1 PUSH2 0xE88 JUMP JUMPDEST DUP1 PUSH1 0x1F ADD PUSH1 0x20 DUP1 SWAP2 DIV MUL PUSH1 0x20 ADD PUSH1 0x40 MLOAD SWAP1 DUP2 ADD PUSH1 0x40 MSTORE DUP1 SWAP3 SWAP2 SWAP1 DUP2 DUP2 MSTORE PUSH1 0x20 ADD DUP3 DUP1 SLOAD PUSH2 0x58F SWAP1 PUSH2 0xE88 JUMP JUMPDEST DUP1 ISZERO PUSH2 0x5DA JUMPI DUP1 PUSH1 0x1F LT PUSH2 0x5B1 JUMPI PUSH2 0x100 DUP1 DUP4 SLOAD DIV MUL DUP4 MSTORE SWAP2 PUSH1 0x20 ADD SWAP2 PUSH2 0x5DA JUMP JUMPDEST DUP3 ADD SWAP2 SWAP1 PUSH0 MSTORE PUSH1 0x20 PUSH0 KECCAK256 SWAP1 JUMPDEST DUP2 SLOAD DUP2 MSTORE SWAP1 PUSH1 0x1 ADD SWAP1 PUSH1 0x20 ADD DUP1 DUP4 GT PUSH2 0x5BD JUMPI DUP3 SWAP1 SUB PUSH1 0x1F AND DUP3 ADD SWAP2 JUMPDEST POP POP POP POP POP SWAP1 DUP1 PUSH1 0x1 ADD DUP1 SLOAD PUSH2 0x5EF SWAP1 PUSH2 0xE88 JUMP JUMPDEST DUP1 PUSH1 0x1F ADD PUSH1 0x20 DUP1 SWAP2 DIV MUL PUSH1 0x20 ADD PUSH1 0x40 MLOAD SWAP1 DUP2 ADD PUSH1 0x40 MSTORE DUP1 SWAP3 SWAP2 SWAP1 DUP2 DUP2 MSTORE PUSH1 0x20 ADD DUP3 DUP1 SLOAD PUSH2 0x61B SWAP1 PUSH2 0xE88 JUMP JUMPDEST DUP1 ISZERO PUSH2 0x666 JUMPI DUP1 PUSH1 0x1F LT PUSH2 0x63D JUMPI PUSH2 0x100 DUP1 DUP4 SLOAD DIV MUL DUP4 MSTORE SWAP2 PUSH1 0x20 ADD SWAP2 PUSH2 0x666 JUMP JUMPDEST DUP3 ADD SWAP2 SWAP1 PUSH0 MSTORE PUSH1 0x20 PUSH0 KECCAK256 SWAP1 JUMPDEST DUP2 SLOAD DUP2 MSTORE SWAP1 PUSH1 0x1 ADD SWAP1 PUSH1 0x20 ADD DUP1 DUP4 GT PUSH2 0x649 JUMPI DUP3 SWAP1 SUB PUSH1 0x1F AND DUP3 ADD SWAP2 JUMPDEST POP POP POP POP POP SWAP1 DUP1 PUSH1 0x2 ADD DUP1 SLOAD PUSH2 0x67B SWAP1 PUSH2 0xE88 JUMP JUMPDEST DUP1 PUSH1 0x1F ADD PUSH1 0x20 DUP1 SWAP2 DIV MUL PUSH1 0x20 ADD PUSH1 0x40 MLOAD SWAP1 DUP2 ADD PUSH1 0x40 MSTORE DUP1 SWAP3 SWAP2 SWAP1 DUP2 DUP2 MSTORE PUSH1 0x20 ADD DUP3 DUP1 SLOAD PUSH2 0x6A7 SWAP1 PUSH2 0xE88 JUMP JUMPDEST DUP1 ISZERO PUSH2 0x6F2 JUMPI DUP1 PUSH1 0x1F LT PUSH2 0x6C9 JUMPI PUSH2 0x100 DUP1 DUP4 SLOAD DIV MUL DUP4 MSTORE SWAP2 PUSH1 0x20 ADD SWAP2 PUSH2 0x6F2 JUMP JUMPDEST DUP3 ADD SWAP2 SWAP1 PUSH0 MSTORE PUSH1 0x20 PUSH0 KECCAK256 SWAP1 JUMPDEST DUP2 SLOAD DUP2 MSTORE SWAP1 PUSH1 0x1 ADD SWAP1 PUSH1 0x20 ADD DUP1 DUP4 GT PUSH2 0x6D5 JUMPI DUP3 SWAP1 SUB PUSH1 0x1F AND DUP3 ADD SWAP2 JUMPDEST POP POP POP POP POP SWAP1 DUP1 PUSH1 0x3 ADD PUSH0 SWAP1 SLOAD SWAP1 PUSH2 0x100 EXP SWAP1 DIV PUSH20 0xFFFFFFFFFFFFFFFFFFFFFFFFFFFFFFFFFFFFFFFF AND SWAP1 DUP1 PUSH1 0x4 ADD SLOAD SWAP1 DUP1 PUSH1 0x5 ADD PUSH0 SWAP1 SLOAD SWAP1 PUSH2 0x100 EXP SWAP1 DIV PUSH1 0xFF AND SWAP1 DUP1 PUSH1 0x6 ADD SLOAD SWAP1 POP DUP8 JUMP JUMPDEST PUSH0 DUP1 REVERT JUMPDEST PUSH1 0x2 DUP2 LT PUSH2 0x74F JUMPI PUSH0 DUP1 REVERT JUMPDEST POP JUMP JUMPDEST PUSH0 DUP2 CALLDATALOAD SWAP1 POP PUSH2 0x760 DUP2 PUSH2 0x743 JUMP JUMPDEST SWAP3 SWAP2 POP POP JUMP JUMPDEST PUSH0 PUSH1 0x20 DUP3 DUP5 SUB SLT ISZERO PUSH2 0x77B JUMPI PUSH2 0x77A PUSH2 0x73F JUMP JUMPDEST JUMPDEST PUSH0 PUSH2 0x788 DUP5 DUP3 DUP6 ADD PUSH2 0x752 JUMP JUMPDEST SWAP2 POP POP SWAP3 SWAP2 POP POP JUMP JUMPDEST PUSH0 DUP2 MLOAD SWAP1 POP SWAP2 SWAP1 POP JUMP JUMPDEST PUSH0 DUP3 DUP3 MSTORE PUSH1 0x20 DUP3 ADD SWAP1 POP SWAP3 SWAP2 POP POP JUMP JUMPDEST PUSH0 JUMPDEST DUP4 DUP2 LT ISZERO PUSH2 0x7C8 JUMPI DUP1 DUP3 ADD MLOAD DUP2 DUP5 ADD MSTORE PUSH1 0x20 DUP2 ADD SWAP1 POP PUSH2 0x7AD JUMP JUMPDEST PUSH0 DUP5 DUP5 ADD MSTORE POP POP POP POP JUMP JUMPDEST PUSH0 PUSH1 0x1F NOT PUSH1 0x1F DUP4 ADD AND SWAP1 POP SWAP2 SWAP1 POP JUMP JUMPDEST PUSH0 PUSH2 0x7ED DUP3 PUSH2 0x791 JUMP JUMPDEST PUSH2 0x7F7 DUP2 DUP6 PUSH2 0x79B JUMP JUMPDEST SWAP4 POP PUSH2 0x807 DUP2 DUP6 PUSH1 0x20 DUP7 ADD PUSH2 0x7AB JUMP JUMPDEST PUSH2 0x810 DUP2 PUSH2 0x7D3 JUMP JUMPDEST DUP5 ADD SWAP2 POP POP SWAP3 SWAP2 POP POP JUMP JUMPDEST PUSH0 PUSH20 0xFFFFFFFFFFFFFFFFFFFFFFFFFFFFFFFFFFFFFFFF DUP3 AND SWAP1 POP SWAP2 SWAP1 POP JUMP JUMPDEST PUSH0 PUSH2 0x844 DUP3 PUSH2 0x81B JUMP JUMPDEST SWAP1 POP SWAP2 SWAP1 POP JUMP JUMPDEST PUSH2 0x854 DUP2 PUSH2 0x83A JUMP JUMPDEST DUP3 MSTORE POP POP JUMP JUMPDEST PUSH0 DUP2 SWAP1 POP SWAP2 SWAP1 POP JUMP JUMPDEST PUSH2 0x86C DUP2 PUSH2 0x85A JUMP JUMPDEST DUP3 MSTORE POP POP JUMP JUMPDEST PUSH32 0x4E487B7100000000000000000000000000000000000000000000000000000000 PUSH0 MSTORE PUSH1 0x21 PUSH1 0x4 MSTORE PUSH1 0x24 PUSH0 REVERT JUMPDEST PUSH1 0x2 DUP2 LT PUSH2 0x8B0 JUMPI PUSH2 0x8AF PUSH2 0x872 JUMP JUMPDEST JUMPDEST POP JUMP JUMPDEST PUSH0 DUP2 SWAP1 POP PUSH2 0x8C0 DUP3 PUSH2 0x89F JUMP JUMPDEST SWAP2 SWAP1 POP JUMP JUMPDEST PUSH0 PUSH2 0x8CF DUP3 PUSH2 0x8B3 JUMP JUMPDEST SWAP1 POP SWAP2 SWAP1 POP JUMP JUMPDEST PUSH2 0x8DF DUP2 PUSH2 0x8C5 JUMP JUMPDEST DUP3 MSTORE POP POP JUMP JUMPDEST PUSH0 PUSH1 0xE0 DUP3 ADD SWAP1 POP DUP2 DUP2 SUB PUSH0 DUP4 ADD MSTORE PUSH2 0x8FD DUP2 DUP11 PUSH2 0x7E3 JUMP JUMPDEST SWAP1 POP DUP2 DUP2 SUB PUSH1 0x20 DUP4 ADD MSTORE PUSH2 0x911 DUP2 DUP10 PUSH2 0x7E3 JUMP JUMPDEST SWAP1 POP DUP2 DUP2 SUB PUSH1 0x40 DUP4 ADD MSTORE PUSH2 0x925 DUP2 DUP9 PUSH2 0x7E3 JUMP JUMPDEST SWAP1 POP PUSH2 0x934 PUSH1 0x60 DUP4 ADD DUP8 PUSH2 0x84B JUMP JUMPDEST PUSH2 0x941 PUSH1 0x80 DUP4 ADD DUP7 PUSH2 0x863 JUMP JUMPDEST PUSH2 0x94E PUSH1 0xA0 DUP4 ADD DUP6 PUSH2 0x8D6 JUMP JUMPDEST PUSH2 0x95B PUSH1 0xC0 DUP4 ADD DUP5 PUSH2 0x863 JUMP JUMPDEST SWAP9 SWAP8 POP POP POP POP POP POP POP POP JUMP JUMPDEST PUSH32 0x4F6E6C7920746865206F776E65722063616E206368616E676520746865207072 PUSH0 DUP3 ADD MSTORE PUSH32 0x6F6A656374207374617465000000000000000000000000000000000000000000 PUSH1 0x20 DUP3 ADD MSTORE POP JUMP JUMPDEST PUSH0 PUSH2 0x9C1 PUSH1 0x2B DUP4 PUSH2 0x79B JUMP JUMPDEST SWAP2 POP PUSH2 0x9CC DUP3 PUSH2 0x967 JUMP JUMPDEST PUSH1 0x40 DUP3 ADD SWAP1 POP SWAP2 SWAP1 POP JUMP JUMPDEST PUSH0 PUSH1 0x20 DUP3 ADD SWAP1 POP DUP2 DUP2 SUB PUSH0 DUP4 ADD MSTORE PUSH2 0x9EE DUP2 PUSH2 0x9B5 JUMP JUMPDEST SWAP1 POP SWAP2 SWAP1 POP JUMP JUMPDEST PUSH32 0x53746174654E6F74446566696E65643A20496E76616C69642073746174650000 PUSH0 DUP3 ADD MSTORE POP JUMP JUMPDEST PUSH0 PUSH2 0xA29 PUSH1 0x1E DUP4 PUSH2 0x79B JUMP JUMPDEST SWAP2 POP PUSH2 0xA34 DUP3 PUSH2 0x9F5 JUMP JUMPDEST PUSH1 0x20 DUP3 ADD SWAP1 POP SWAP2 SWAP1 POP JUMP JUMPDEST PUSH0 PUSH1 0x20 DUP3 ADD SWAP1 POP DUP2 DUP2 SUB PUSH0 DUP4 ADD MSTORE PUSH2 0xA56 DUP2 PUSH2 0xA1D JUMP JUMPDEST SWAP1 POP SWAP2 SWAP1 POP JUMP JUMPDEST PUSH0 DUP2 PUSH1 0xF8 SHL SWAP1 POP SWAP2 SWAP1 POP JUMP JUMPDEST PUSH0 PUSH2 0xA73 DUP3 PUSH2 0xA5D JUMP JUMPDEST SWAP1 POP SWAP2 SWAP1 POP JUMP JUMPDEST PUSH2 0xA8B PUSH2 0xA86 DUP3 PUSH2 0x8C5 JUMP JUMPDEST PUSH2 0xA69 JUMP JUMPDEST DUP3 MSTORE POP POP JUMP JUMPDEST PUSH0 PUSH2 0xA9C DUP3 DUP5 PUSH2 0xA7A JUMP JUMPDEST PUSH1 0x1 DUP3 ADD SWAP2 POP DUP2 SWAP1 POP SWAP3 SWAP2 POP POP JUMP JUMPDEST PUSH32 0x53746174654E6F74446566696E65643A204E6577207374617465206D75737420 PUSH0 DUP3 ADD MSTORE PUSH32 0x626520646966666572656E742066726F6D207468652063757272656E74206F6E PUSH1 0x20 DUP3 ADD MSTORE PUSH32 0x6500000000000000000000000000000000000000000000000000000000000000 PUSH1 0x40 DUP3 ADD MSTORE POP JUMP JUMPDEST PUSH0 PUSH2 0xB2B PUSH1 0x41 DUP4 PUSH2 0x79B JUMP JUMPDEST SWAP2 POP PUSH2 0xB36 DUP3 PUSH2 0xAAB JUMP JUMPDEST PUSH1 0x60 DUP3 ADD SWAP1 POP SWAP2 SWAP1 POP JUMP JUMPDEST PUSH0 PUSH1 0x20 DUP3 ADD SWAP1 POP DUP2 DUP2 SUB PUSH0 DUP4 ADD MSTORE PUSH2 0xB58 DUP2 PUSH2 0xB1F JUMP JUMPDEST SWAP1 POP SWAP2 SWAP1 POP JUMP JUMPDEST PUSH0 PUSH2 0xB69 DUP3 PUSH2 0x81B JUMP JUMPDEST SWAP1 POP SWAP2 SWAP1 POP JUMP JUMPDEST PUSH2 0xB79 DUP2 PUSH2 0xB5F JUMP JUMPDEST DUP3 MSTORE POP POP JUMP JUMPDEST PUSH0 PUSH1 0x40 DUP3 ADD SWAP1 POP PUSH2 0xB92 PUSH0 DUP4 ADD DUP6 PUSH2 0xB70 JUMP JUMPDEST PUSH2 0xB9F PUSH1 0x20 DUP4 ADD DUP5 PUSH2 0x8D6 JUMP JUMPDEST SWAP4 SWAP3 POP POP POP JUMP JUMPDEST PUSH32 0x4F776E6572732063616E27742066756E642074686569722070726F6A65637400 PUSH0 DUP3 ADD MSTORE POP JUMP JUMPDEST PUSH0 PUSH2 0xBDA PUSH1 0x1F DUP4 PUSH2 0x79B JUMP JUMPDEST SWAP2 POP PUSH2 0xBE5 DUP3 PUSH2 0xBA6 JUMP JUMPDEST PUSH1 0x20 DUP3 ADD SWAP1 POP SWAP2 SWAP1 POP JUMP JUMPDEST PUSH0 PUSH1 0x20 DUP3 ADD SWAP1 POP DUP2 DUP2 SUB PUSH0 DUP4 ADD MSTORE PUSH2 0xC07 DUP2 PUSH2 0xBCE JUMP JUMPDEST SWAP1 POP SWAP2 SWAP1 POP JUMP JUMPDEST PUSH0 DUP2 SWAP1 POP SWAP3 SWAP2 POP POP JUMP JUMPDEST PUSH32 0x436C6F7365640000000000000000000000000000000000000000000000000000 PUSH0 DUP3 ADD MSTORE POP JUMP JUMPDEST PUSH0 PUSH2 0xC4C PUSH1 0x6 DUP4 PUSH2 0xC0E JUMP JUMPDEST SWAP2 POP PUSH2 0xC57 DUP3 PUSH2 0xC18 JUMP JUMPDEST PUSH1 0x6 DUP3 ADD SWAP1 POP SWAP2 SWAP1 POP JUMP JUMPDEST PUSH0 PUSH2 0xC6C DUP3 PUSH2 0xC40 JUMP JUMPDEST SWAP2 POP DUP2 SWAP1 POP SWAP2 SWAP1 POP JUMP JUMPDEST PUSH32 0x5374617465436C6F7365643A2050726F6A65637420697320636C6F7365640000 PUSH0 DUP3 ADD MSTORE POP JUMP JUMPDEST PUSH0 PUSH2 0xCAA PUSH1 0x1E DUP4 PUSH2 0x79B JUMP JUMPDEST SWAP2 POP PUSH2 0xCB5 DUP3 PUSH2 0xC76 JUMP JUMPDEST PUSH1 0x20 DUP3 ADD SWAP1 POP SWAP2 SWAP1 POP JUMP JUMPDEST PUSH0 PUSH1 0x20 DUP3 ADD SWAP1 POP DUP2 DUP2 SUB PUSH0 DUP4 ADD MSTORE PUSH2 0xCD7 DUP2 PUSH2 0xC9E JUMP JUMPDEST SWAP1 POP SWAP2 SWAP1 POP JUMP JUMPDEST PUSH32 0x54686520636F6E747269627574696F6E206D757374206861766520612076616C PUSH0 DUP3 ADD MSTORE PUSH32 0x75652067726561746572207468616E207A65726F000000000000000000000000 PUSH1 0x20 DUP3 ADD MSTORE POP JUMP JUMPDEST PUSH0 PUSH2 0xD38 PUSH1 0x34 DUP4 PUSH2 0x79B JUMP JUMPDEST SWAP2 POP PUSH2 0xD43 DUP3 PUSH2 0xCDE JUMP JUMPDEST PUSH1 0x40 DUP3 ADD SWAP1 POP SWAP2 SWAP1 POP JUMP JUMPDEST PUSH0 PUSH1 0x20 DUP3 ADD SWAP1 POP DUP2 DUP2 SUB PUSH0 DUP4 ADD MSTORE PUSH2 0xD65 DUP2 PUSH2 0xD2C JUMP JUMPDEST SWAP1 POP SWAP2 SWAP1 POP JUMP JUMPDEST PUSH32 0x4E487B7100000000000000000000000000000000000000000000000000000000 PUSH0 MSTORE PUSH1 0x11 PUSH1 0x4 MSTORE PUSH1 0x24 PUSH0 REVERT JUMPDEST PUSH0 PUSH2 0xDA3 DUP3 PUSH2 0x85A JUMP JUMPDEST SWAP2 POP PUSH2 0xDAE DUP4 PUSH2 0x85A JUMP JUMPDEST SWAP3 POP DUP3 DUP3 ADD SWAP1 POP DUP1 DUP3 GT ISZERO PUSH2 0xDC6 JUMPI PUSH2 0xDC5 PUSH2 0xD6C JUMP JUMPDEST JUMPDEST SWAP3 SWAP2 POP POP JUMP JUMPDEST PUSH32 0x5468652066756E6472616973696E6720676F616C206973206578636565646564 PUSH0 DUP3 ADD MSTORE POP JUMP JUMPDEST PUSH0 PUSH2 0xE00 PUSH1 0x20 DUP4 PUSH2 0x79B JUMP JUMPDEST SWAP2 POP PUSH2 0xE0B DUP3 PUSH2 0xDCC JUMP JUMPDEST PUSH1 0x20 DUP3 ADD SWAP1 POP SWAP2 SWAP1 POP JUMP JUMPDEST PUSH0 PUSH1 0x20 DUP3 ADD SWAP1 POP DUP2 DUP2 SUB PUSH0 DUP4 ADD MSTORE PUSH2 0xE2D DUP2 PUSH2 0xDF4 JUMP JUMPDEST SWAP1 POP SWAP2 SWAP1 POP JUMP JUMPDEST PUSH0 PUSH1 0x40 DUP3 ADD SWAP1 POP PUSH2 0xE47 PUSH0 DUP4 ADD DUP6 PUSH2 0xB70 JUMP JUMPDEST PUSH2 0xE54 PUSH1 0x20 DUP4 ADD DUP5 PUSH2 0x863 JUMP JUMPDEST SWAP4 SWAP3 POP POP POP JUMP JUMPDEST PUSH32 0x4E487B7100000000000000000000000000000000000000000000000000000000 PUSH0 MSTORE PUSH1 0x22 PUSH1 0x4 MSTORE PUSH1 0x24 PUSH0 REVERT JUMPDEST PUSH0 PUSH1 0x2 DUP3 DIV SWAP1 POP PUSH1 0x1 DUP3 AND DUP1 PUSH2 0xE9F JUMPI PUSH1 0x7F DUP3 AND SWAP2 POP JUMPDEST PUSH1 0x20 DUP3 LT DUP2 SUB PUSH2 0xEB2 JUMPI PUSH2 0xEB1 PUSH2 0xE5B JUMP JUMPDEST JUMPDEST POP SWAP2 SWAP1 POP JUMP INVALID LOG2 PUSH5 0x6970667358 0x22 SLT KECCAK256 PUSH5 0x285AF4D17 PUSH29 0x1DE542255CABF6536A3CB42C44ABD8F18559F7BA3A151D407C64736F6C PUSH4 0x43000818 STOP CALLER "
				},
				"gasEstimates": {
					"creation": {
						"codeDepositCost": "764400",
						"executionCost": "infinite",
						"totalCost": "infinite"
					},
					"external": {
						"changeProjectState(uint8)": "infinite",
						"fundProject()": "infinite",
						"project()": "infinite"
					}
				},
				"methodIdentifiers": {
					"changeProjectState(uint8)": "5699fadc",
					"fundProject()": "d63dc661",
					"project()": "f60ca60d"
				}
			},
			"storageLayout": {
				"storage": [
					{
						"astId": 23,
						"contract": "contracts/Crowdfunding6.sol:Crowdfunding",
						"label": "project",
						"offset": 0,
						"slot": "0",
						"type": "t_struct(Project)20_storage"
					}
				],
				"types": {
					"t_address_payable": {
						"encoding": "inplace",
						"label": "address payable",
						"numberOfBytes": "20"
					},
					"t_enum(State)4": {
						"encoding": "inplace",
						"label": "enum Crowdfunding.State",
						"numberOfBytes": "1"
					},
					"t_string_storage": {
						"encoding": "bytes",
						"label": "string",
						"numberOfBytes": "32"
					},
					"t_struct(Project)20_storage": {
						"encoding": "inplace",
						"label": "struct Crowdfunding.Project",
						"members": [
							{
								"astId": 6,
								"contract": "contracts/Crowdfunding6.sol:Crowdfunding",
								"label": "id",
								"offset": 0,
								"slot": "0",
								"type": "t_string_storage"
							},
							{
								"astId": 8,
								"contract": "contracts/Crowdfunding6.sol:Crowdfunding",
								"label": "name",
								"offset": 0,
								"slot": "1",
								"type": "t_string_storage"
							},
							{
								"astId": 10,
								"contract": "contracts/Crowdfunding6.sol:Crowdfunding",
								"label": "description",
								"offset": 0,
								"slot": "2",
								"type": "t_string_storage"
							},
							{
								"astId": 12,
								"contract": "contracts/Crowdfunding6.sol:Crowdfunding",
								"label": "author",
								"offset": 0,
								"slot": "3",
								"type": "t_address_payable"
							},
							{
								"astId": 14,
								"contract": "contracts/Crowdfunding6.sol:Crowdfunding",
								"label": "fundraisingGoal",
								"offset": 0,
								"slot": "4",
								"type": "t_uint256"
							},
							{
								"astId": 17,
								"contract": "contracts/Crowdfunding6.sol:Crowdfunding",
								"label": "state",
								"offset": 0,
								"slot": "5",
								"type": "t_enum(State)4"
							},
							{
								"astId": 19,
								"contract": "contracts/Crowdfunding6.sol:Crowdfunding",
								"label": "funds",
								"offset": 0,
								"slot": "6",
								"type": "t_uint256"
							}
						],
						"numberOfBytes": "224"
					},
					"t_uint256": {
						"encoding": "inplace",
						"label": "uint256",
						"numberOfBytes": "32"
					}
				}
			},
			"userdoc": {
				"kind": "user",
				"methods": {},
				"version": 1
			}
		}
	}
}